:020000040801F1
:10000000405A0020A50301081B310108D72F010821
:10001000193101085F200108813501080000000046
:10002000000000000000000000000000E5020108E0
:100030006120010800000000410301080D3401089F
:10004000BF030108BF030108BF030108BF03010884
:10005000BF030108BF030108BF030108BF03010874
:10006000BF030108BF030108BF030108BF03010864
:10007000BF030108BF030108BF030108BF03010854
:10008000BF030108BF030108BF030108000000000F
:10009000000000000000000000000000BF03010895
:1000A000BF030108D1340108BF030108BF030108E1
:1000B000BF030108BF030108BF030108BF03010814
:1000C000BF030108BF030108BF030108BF03010804
:1000D000BF030108BF030108BF03010800000000BF
:1000E000BF030108BF030108BF03010800000000AF
:1000F000000000000000000000000000BF03010835
:1001000000000000BF030108BF030108BF0301088E
:1001100000000000000000000000000000000000DF
:10012000BF030108BF030108BF030108BF030108A3
:10013000BF030108000000000000000000000000F4
:10014000000000000000000000000000BF030108E4
:10015000BF030108BF030108BF030108BF03010873
:10016000BF030108BF0301080000000000000000F9
:10017000000000000000000000000000000000007F
:1001800000000000BF0301080000000000000000A4
:10019000BF030108BF03010800F002F800F092F865
:1001A0000AA090E8000C82448344AAF10107DA45D2
:1001B00001D100F087F8AFF2090EBAE80F0013F092
:1001C000010F18BFFB1A43F001031847185F000026
:1001D000385F0000103A24BF78C878C1FAD85207B7
:1001E00024BF30C830C144BF04680C6070470000B1
:1001F0000023002400250026103A28BF78C1FBD830
:10020000520728BF30C148BF0B6070476E2900F00D
:10021000C784702900F07582662905F08C856529F0
:1002200005F08985672905F08685612905F08585B2
:1002300003681B0A28BF41F08001692900F0E681AC
:10024000642900F0E381752900F0E0816F2900F056
:10025000B485782900F04182E92900F04F85E4292E
:1002600000F04C85F52900F04985EF2900F0B185B3
:10027000F82900F040820368DB0928BF41F08001C3
:10028000632900F0D084732900F0D584E32901F0BC
:10029000B981F32901F0BE81002070471FB505F038
:1002A00045FD01F009FA04000020002105F028FDB9
:1002B000401C60600020002105F00CFDE0601FBDC7
:1002C00010B510BD01F0CAF91146FFF7E7FF04F0C1
:1002D0001FF801F0A7FA03B4FFF7F2FF03BC01F027
:1002E000EFFA00002C4B19680868B0E8F04F80F373
:1002F0000988BFF36F8F4FF0000080F311887047BB
:100300000000000008480068006880F308884FF08B
:10031000000080F3148862B661B6BFF34F8FBFF35D
:100320006F8F00DF00BF00BF08ED00E0DFF80C00BA
:10033000016841F470010160704700BF88ED00E082
:10034000EFF30980BFF36F8F134B1A681EF0100F85
:1003500008BF20ED108A20E9F04F106009B44FF07B
:10036000500080F31188BFF34F8FBFF36F8F04F0FD
:1003700063FF4FF0000080F3118809BC196808681A
:10038000B0E8F04F1EF0100F08BFB0EC108A80F3F9
:100390000988BFF36F8F704728000020EFF30580B6
:1003A000704700000948804709480047FEE7FEE71C
:1003B000FEE7FEE7FEE7FEE7FEE7FEE7FEE7FEE715
:1003C00004480549054A064B70470000C13401083E
:1003D0009901010840540020405A00204056002056
:1003E0004056002053EA020C00F069802DE9F04BE2
:1003F0004FF00006002B1FBFB3FA83F503FA05F494
:1004000024FA05F65E4012BF1643B2FA82F502FAEC
:1004100005F4C5F120051EBF22FA05FC44EA0C04D0
:10042000203556EA044C4FEA144418BF641C4FF0C0
:1004300000084FF00009904271EB030C39D30029FA
:1004400019BFB1FA81F701FA07F6B0FA80F700FA9E
:1004500007F6C7F120071EBF20FA07FC46EA0C0684
:100460002037B6FBF4FCA7EB0507103F07F01F0B86
:10047000CBF120060CFA0BFB2CFA06F644BFB34670
:100480000026202FA4BF5E464FF0000B5BEA060C4F
:1004900008BF4FF0010B19EB0B09ABFB027C48EBDB
:1004A0000608C01B06FB02CC0BFB03CC71EB0C0156
:1004B000C1E70B46024641464846BDE8F08B13B5FE
:1004C0004FF000004FF00001AFF30080BDE81C408A
:1004D000704700007CB51D4616460C00009001D008
:1004E0002044401E074B7B442A4669460190304613
:1004F00000F06FFB05461CB10020694600F07CFB54
:1005000028467CBD190700000FB41CB5084B06AA8D
:100510007B4469460090059800F05BFB0446002090
:10052000694600F069FB20461CBC5DF814FB000026
:10053000E50600000FB47CB50C0009AA009001D0BC
:100540002044401E084B7B4469460190089800F007
:1005500040FB05461CB10020694600F04DFB2846D3
:100560007CBC5DF814FB0000B906000070B50446C1
:1005700085690068C10601D5302600E02026C00745
:1005800007D070BDD4E9012130469047206A401C55
:1005900020626D1EF6D570BD70B504468569007881
:1005A000C00707D170BDD4E9012120209047206AFF
:1005B000401C20626D1EF6D570BD70B50C46054618
:1005C000012A05D02878800600D5EA69002302E0D8
:1005D000012305E05B1C934202D2E05C0028F9D1C4
:1005E000A869E618C01AA861286A18442862284633
:1005F000FFF7BCFF04E0D5E9012114F8010B904797
:10060000B442F8D32846FFF7C7FF70BD2DE9F0418B
:100610000646002410687529314616A510D000F052
:1006200054FA002802DA404213A507E031688A072D
:1006300001D512A502E0490704D511A5012401E066
:1006400000F04CFA00210A2206F1240709E0B0FB71
:10065000F2FCB0FBF2F302FB1C0030307854184679
:10066000491C0028F3D123462A463046BDE8F04114
:1006700000F03DBA000000002D0000002B0000003B
:1006800020000000F0B40D460188090502D5214C78
:100690007C4402E01F4C7C440E34002100F124060F
:1006A00008E002F00F071209E75D42EA03721B0936
:1006B0007754491C52EA0307F3D10278002312074A
:1006C00004D5702D06D009B1022311342246F0BCA6
:1006D00000F00DBA01231034F8E770B504460D465A
:1006E0002146106800F0FAF9024629462046BDE886
:1006F00070400023C6E7D21D22F00703D3E9002390
:10070000C0E70368126843F0200303600823C36155
:100710000023B7E7BA5800002DE9F05F8946044688
:100720004FF0000ADFF874B1FB44C0F820A0204667
:10073000E1688847002874D0252806D0D4E9012133
:100740009047206A401C2062F1E700265F46204661
:10075000E16888472028054607DB312D05D2781946
:1007600010F8200C08B10643F1E7B00701D526F0D8
:100770000406C4F81CA00027C4F818A02A2D09D02C
:10078000284603F0A0F838B304EB8708303DC8F8DA
:10079000185019E059F8041B204604EB87029161B8
:1007A000E1688847012F054618D1E069002820DA62
:1007B00026F020061DE0D8F8180000EB800005EBBD
:1007C00040003038C8F818002046E16888470546E0
:1007D00003F079F80028EED1012F0AD02E2D08D190
:1007E0002046E16888477F1C0546022F46F0200618
:1007F000C4DBA069002803DA404246F00106A0618C
:10080000F00701D026F010066C2D0BD0682D09D012
:100810004C2D39D06A2D35D0742D35D07A2D33D06A
:1008200016E038E0E1682F4620468847B842054682
:1008300009D16C2F26D04FF48060E1680643204632
:100840008847054604E06C2F1AD04FF480700643A9
:100850000DB3A5F14100192802D8203546F40066F1
:100860004A462946204626604E46FFF7CFFC80B117
:1008700001280BD0F61D26F0070000F1080956E705
:100880004020E4E78020D8E70020D6E706F10409FD
:100890004DE7284652E7206ABDE8F09F4A5800001D
:1008A00030B505460B462A4613F8014B12F8010BEA
:1008B00008B1A042F8D01CB1002802D06D1CF1E7AD
:1008C000284630BD10B5431C02E010F8011B71B181
:1008D0008107FAD14FF0013202C88C1A8C4314EA16
:1008E000C211F9D0C01A0A0603D0C01E10BDC01A2A
:1008F00010BD0A0401D0801E10BD0902FCD0401EAC
:1009000010BD40EA010370B59B072ED14FF00136B0
:10091000042A2AD308C810C99D1B9D43121F15EA3B
:10092000C61517D0D8B2E1B2401A50EA056110D10D
:1009300098B2A1B2401A50EA05410AD123F07F4093
:1009400024F07F41401A50EA052102D1180EA0EB95
:10095000146070BDA342DBD018BA21BA884201D915
:10096000012070BD4FF0FF3070BD0AB9002070BD8E
:1009700010F8013B11F8014B63B1A3420AD1521E9A
:1009800008D010F8013B11F8014B1BB1A34201D173
:10099000521EEDD1181B70BD032A40F2308010F0BA
:1009A000030C00F0158011F8013BBCF1020F62440A
:1009B00098BF11F801CB00F8013B38BF11F8013B9B
:1009C000A2F1040298BF00F801CB38BF00F8013B48
:1009D00011F0030300F00882083AC0F0088051F8D3
:1009E000043B083A51F804CBA0E80810F5E7121DC3
:1009F0005CBF51F8043B40F8043BAFF30080D207E2
:100A000024BF11F8013B11F801CB48BF11F8012BAD
:100A100024BF00F8013B00F801CB48BF00F8012BD0
:100A2000704702F0FF0343EA032242EA024200F069
:100A300002B84FF000020429C0F0128010F0030C3D
:100A400000F01B80CCF1040CBCF1020F18BF00F8C1
:100A5000012BA8BF20F8022BA1EB0C0100F00DB870
:100A60005FEAC17C24BF00F8012B00F8012B48BFCE
:100A700000F8012B70474FF0000200B51346944672
:100A80009646203922BFA0E80C50A0E80C50B1F1E6
:100A90002001BFF4F7AF090728BFA0E80C5048BFFA
:100AA0000CC05DF804EB890028BF40F8042B08BF98
:100AB000704748BF20F8022B11F0804F18BF00F894
:100AC000012B704770477047704709684A0501D588
:100AD00040B27047C905FCD500B2704709684A05A5
:100AE00001D5C0B27047C905FCD580B270472DE969
:100AF000F0470D4699469246044600F124080168E5
:100B0000880604D5E06921F01001216000E0012091
:100B1000A84201DD471B00E00027A1697A1902EB1A
:100B20000900081AA0612078C00602D42046FFF709
:100B30001DFD002608E0D4E901211AF806009047BF
:100B4000206A401C761C20624E45F4DB2078C006EB
:100B50000AD52046FFF70AFD06E0D4E9012130203E
:100B60009047206A401C2062381EA7F10107F4DC80
:100B700007E0D4E9012118F805009047206A401CDD
:100B80002062281EA5F10105F3DC2046FFF704FDD5
:100B90002078000602D50220BDE8F0870120FBE79F
:100BA00011680268006A530501D508700AE0D30590
:100BB00001D5088006E0130603D5C217C1E900027B
:100BC00000E008600120704701694A1C0261087852
:100BD000704700B58FB0CDE901310021059105497D
:100BE0007944CDE9031011466846FFF795FD0FB033
:100BF00000BD0000E5FFFFFF0A6802F8010B0A6074
:100C00007047D1E900239A4202D2531C0B60107046
:100C1000704710B5436913B1AFF3008001E0FFF7EF
:100C2000CCFC012010BD127800F124010A700022D2
:100C30004A700122EDE711684FF0FF32E9E700004A
:100C40002DE9FF5F15468A460446DFF8AC80F8447C
:100C50000027D8E900103E46CDE9001010E03AF830
:100C600016106A4602A800F0D9FC411C07D0217872
:100C7000890603D5E269391891420DD80744761CDC
:100C80002078800602D5E069B84205DDAE42E6DB99
:100C90003AF816000028E2D1A069C01BA0612046E6
:100CA000FFF764FCD8E90010CDE90010002017E040
:100CB0003AF818106A4602A800F0B0FCB0F1FF3F05
:100CC00081460BD000250DF1080B05E0D4E9012188
:100CD0001BF8050090476D1C4D45F7D308F1010046
:100CE000B0428046E4DB206A384420622046FFF7A9
:100CF00053FCBDE8FF9F0000365300002DE9F04192
:100D00008046D21D22F007020025D2E90002F52913
:100D100015A614D0011E72F1000106DA0023D0EBF3
:100D2000030063EB020211A608E0D8F800108B075D
:100D300001D50FA602E0490701D50EA601251146EF
:100D4000002408F1240704E000F080F830323A551E
:100D5000641C50EA0102F7D12B4632462146404638
:100D6000BDE8F041FFF7C3BE000000002D00000009
:100D70002B0000002000000030B4002100F124040A
:100D800008E002F00705D208303542EA4372DB087A
:100D90006554491C52EA0305F3D10468002310A2EC
:100DA000250707D5A40600D421B1C46901230DA2EB
:100DB000641EC46130BCFFF79ABE10B504462146DC
:100DC0001068FFF78BFE02462046BDE81040002366
:100DD000D2E7D21D22F00701D1E90023CCE70000C1
:100DE000000000003000000010B5203AC0F00B8079
:100DF000B1E81850203AA0E81850B1E81850A0E81F
:100E00001850BFF4F5AF5FEA027C24BFB1E8185078
:100E1000A0E8185044BF18C918C0BDE810405FEAE8
:100E2000827C24BF51F8043B40F8043B08BF704764
:100E3000D20728BF31F8023B48BF11F8012B28BF69
:100E400020F8023B48BF00F8012B704730B5B0F1E5
:100E50000A024FEA900E71F100034EEA817EB0EB78
:100E60000E0061EB91014FEA101E4EEA017E10EB7D
:100E70000E0041EB11114FEA102E4EEA016E10EBFD
:100E80000E0041EB11214FEA104E4EEA014E10EBDD
:100E90000E0041EB1141401841F100014FEAD00032
:100EA00040EA41704FEAD10110EB80054FEA81041E
:100EB00044EA907444EB01046D1944EB0404521BA2
:100EC000A3414FF0000348BF0A3200D530BD401C9B
:100ED00041F1000130BD70472DE9FF4F0C461E4621
:100EE0004FF0FF378BB0D2E90001DDF860800A9047
:100EF0008A46C1F30A5505B93D46002108464FF020
:100F00000000BAF1000F00F4400005DA00EB8000A9
:100F10004FF4400101EA50004FEA9059B9F1010F36
:100F200000DDB9460A9850EA4A000ED044F6105047
:100F3000A5F2FF3545432F14B8F1000F1ED07542BE
:100F4000291E1EDDC9F100021CE0B8F1010F4FF0AF
:100F5000000001D0302103E0F24305E02154401CA1
:100F6000B042FBDB30460022002121540B99C1F82E
:100F70000880C1E900200FB0BDE8F08FBD1B6D1CDB
:100F8000DEE74A4600DA694206A800F0D9FB06AB64
:100F900093E8070003AB83E8070050460A9900F086
:100FA00096FC8DE80700A0F500501F3800900398CC
:100FB000002D0ADD42F21F014A460844002303A91E
:100FC0000390684600F0FFFE09E0A0F500504A4695
:100FD0001F38002303A90390684600F009FF8DE83D
:100FE00007000004000C03D04FF0FF30410800E080
:100FF0001046B8F1000F03D00022009215461EE003
:10100000751E05D4FFF722FF303262556D1EF9D5EB
:10101000B3460122084302D000227F1C04E020785E
:10102000302801D100227F1E002A099784D01DE0BC
:10103000112D07DAFFF70AFF303262556D1C50EAB6
:101040000102F5D1084302D00098C8B10EE000219A
:10105000681E05E0235C625C63542254401E491CF8
:101060008142F7DBAB46A81B401E0990002004F824
:101070000B000B98099AC0F80880C0E9002B7AE7AA
:1010800011264FF0000857E72DE9F04F8846044637
:10109000D21D22F0070191B0D1E90001CDE90A018A
:1010A00002F0E9FB02460B98C00F01D02D2007E0AB
:1010B0002068810701D52B2002E0202101EAC00031
:1010C000032A099001D0072A05DB03464146204642
:1010D00000F0F6FA0BE12078800601D5E06900E027
:1010E0000620B8F1650F814606D0B8F1660F18D01A
:1010F000B8F1670F70D131E00020B9F1110F009005
:1011000001DB112301E009F101030AAA01A90CA8DE
:10111000FFF7E2FEDDE90C70002609F101058346C8
:1011200047E001204B4600904FF000470AAA01A972
:101130000CA8FFF7D1FEDDE90DB00C995D46002645
:1011400010B909F101000D18B9EB050003D4C0F185
:10115000FF3609F10105A5EB09002BE0B9F1010FFC
:1011600001DA4FF001090020B9F1110F0090484653
:1011700001DD112300E003460AAA01A90CA8FFF72C
:10118000ABFEDDE90C704D46002683462078000753
:101190000AD4AB4500DA5D4601A8012D04DD4119F2
:1011A00011F8011C302907D04F4502DA17F1040F5E
:1011B00004DA012082460FE06D1EEEE7002F02DC0C
:1011C000ED1B3E4403E0781CA84200DD7D1CB81BEB
:1011D00000F1010A4FF000472078000703D4AA4528
:1011E00001DB4FF0FF3A0021B7F1004F0DF143084A
:1011F0008DF8431024D002202B23002F01DA7F42E8
:101200002D230A21021EA0F1010000DC5FB197FB33
:10121000F1FC97FBF1F201FB1C7C17460CF1300C42
:1012200008F801CDEEE7A8F1010003702188090557
:1012300001D5452100E06521A0F1010800F8011C5D
:1012400009980FA9A1EB0807FF1D00B10120411962
:1012500001EBEA70A1693844081A401EA0612078A9
:10126000C00602D42046FFF781F9099828B1D4E9D5
:1012700001219047206A401C20622078C00622D5B8
:101280002046FFF773F91EE0002E04DBB34502DDB4
:1012900001A8805D00E03020D4E901219047206A58
:1012A000401C2062761CAAF101005FEA000A0AD104
:1012B00000F002FAC0680168405CD4E9012190475F
:1012C000206A401C2062281EA5F10105DCDC07E035
:1012D000D4E9012118F8010B9047206A401C2062D4
:1012E000381EA7F10107F3DC2046FFF755F903206C
:1012F00011B041E62DE9F04F04460D46D21D22F013
:10130000070089B0D0E900974846394602F0B3FAA1
:101310000246F80F01D02D2307E02068810701D590
:101320002B2302E0202101EAC0038DF820300BB10D
:10133000012000E00020032A824601D0072A04DBB6
:101340002946204600F0BCF93FE12078800601D410
:101350000D2500E0E569C7F30A560D2D49DA002195
:101360004FEA175B08464FF00000002F00F44000E2
:1013700007DA00EB80004FF4400100EBD07001EA87
:1013800060008115012901DD4FF0FF3100224FEA95
:10139000850CBCF1180F06D31346ACF118004FF0C2
:1013A0008052C24003E04FF4801323FA0CF30CF197
:1013B0000C0CBCF1200F04D3ACF1200C09FA0CF09A
:1013C00001E007FA0CF000294FF0004801DD18B9E0
:1013D0000FE00ED140450CD319EB02095F4121B952
:1013E000404502D19F4329EA0209BBEB175F00D0B9
:1013F000761C2088000502D57B48784402E07A48B4
:101400007844193808AA302302F80A30037C0AF11C
:101410000101002E0AF1020A53546A4602DC4FF021
:10142000300101E04FF031014FF001088DF800105C
:1014300002D0A6F2FF3603E059EA470100D06B4E16
:10144000002D02DC2178090704D54FF002082E2177
:101450008DF80110C44600210BE0C7F303433F01A0
:10146000C35C491C6D1E02F80830052908F101080B
:1014700001DA002DF1DC00210CE000EB1973491CAE
:101480001B786D1E082902F808304FEA091908F187
:10149000010801DA002DF0DC21688B0602D516E088
:1014A000A8F10108E04505DD02EB080313F8013C53
:1014B000302BF5D0B8F1000F09DD02EB080313F86B
:1014C000013C2E2B03D1090701D4A8F10108002DFE
:1014D00005DD3E2102F808106D1E08F10108407C70
:1014E000002E02F8080008F1010804DA2D207642E7
:1014F00002F8080002E02B2002F808000A214FF44D
:101500007A70864208F101080BDB96FBF0F330336A
:1015100002F8083096FBF0F308F1010800FB1366AF
:1015200001E0642E0CDB642096FBF0F3303302F80C
:10153000083096FBF0F308F1010800FB136601E0A8
:101540000A2E06DB96FBF1F0303002F8080008F1B5
:10155000010896FBF1F001FB1060303002F8080042
:10156000A16908F1010808EB050202EB0A00081A5C
:10157000A0612078C00602D42046FEF7F7FF216A5A
:1015800008AE01EB0A00206204E0D4E9012116F85C
:10159000010B9047BAF1010AF7D22078C00602D5B4
:1015A0002046FEF7E3FF6E4609E016F8010B3E28E1
:1015B0000FD0D4E901219047206A401C2062B8F185
:1015C0000108F2D22046FEF7E7FF09B00320BDE88C
:1015D000F08F206A2844206203E0D4E90121302002
:1015E00090476D1EEBD3F8E7A54B000002FCFFFF10
:1015F00010B5436913B1AFF3008001E0FFF720FBA2
:10160000012010BD128800F1240182840022C284CE
:101610000122EDE711684FF0FF32E9E770B5164699
:101620000C46054600F040F8036893F801010128D4
:1016300006D0FF2C0FD8185D68B101202C7070BD4A
:10164000D3F807013246214603F207130344284624
:10165000BDE8704018474FF0FF3070BD754600F090
:10166000EBF8AE4605006946534620F00700854674
:1016700018B020B5FEF7A4FEBDE820404FF00006EC
:101680004FF000074FF000084FF0000B21F007016A
:10169000AC46ACE8C009ACE8C009ACE8C009ACE8AD
:1016A000C0098D467047000010B500F005F8001D18
:1016B00010BD00BF4D46000000487047FC5300209D
:1016C0002DE9F0411F46044603260168072A01F46C
:1016D000006004DB08B116A505E016A503E008B11B
:1016E00015A500E015A521F010002060A069C01E1E
:1016F000A0610FB1401EA0612046FEF737FF4FB139
:10170000D4E9012138469047206A401C2062C01C61
:10171000206206E0206AFAE7D4E9012115F8010BFE
:101720009047761EF8D22046FEF736FFBDE8F081DE
:101730004E414E006E616E00494E4600696E660075
:101740002DE9F047814616468AB0354878440DC8E1
:101750008DE80D0032487844801C03AC0DC884E845
:101760000D0041F69B300844372190FBF1F290FBCD
:10177000F1F5A5F1800501FB12041B3C02D5644282
:10178000012000E00020DFF898A080460027FA44FE
:10179000AAF1BE0A0EE0E0070AD03246684607EB1F
:1017A000470101230AEB810100F022FB8DE80700CD
:1017B00064107F1C002CEED1194F7F44AE3F19E01E
:1017C000E80715D007EB04100DF1180A90E80E0099
:1017D0008AE80E00C068F04201D19819089032469C
:1017E000012306A903A800F003FB03AB83E807006D
:1017F0006D10641C002DE3D14FF0010332466946A1
:10180000B8F1000F03A802D000F0DDFA01E000F00B
:10181000EFFAC9E90001C9F808200AB0BDE8F0876D
:10182000E448000010B50446AFF300802046BDE850
:101830001040FEF750BD000000487047DC53002008
:101840004FF0013C50F8042B51F8043B9A4221D14F
:10185000A2EB0C03934313EACC1317D150F8042BDB
:1018600051F8043B9A4215D1A2EB0C03934313EABF
:10187000CC130BD150F8042B51F8043B9A4209D1F8
:10188000A2EB0C03934313EACC13DBD04FF0000020
:10189000704700BFD01A01BAB1FA81F101F0180106
:1018A00022FA01F0CB40C1F12001DBB2C0B2C01A74
:1018B0002CFA01F3D11A914311EAC311E6D1704712
:1018C00001491820ABBEFEE72600020070475FEA20
:1018D000400C08BF91F0000F4FEA8C234FEAC12261
:1018E00043EA51514FEA1C5018BF00F5F0404FEA4F
:1018F000300018BF41F000415FEA6C5C00F02980C5
:10190000BCF1FF3F08BF40F080407047130C06BF9A
:1019100012044FF0100C4FF0000C130E04BF120213
:101920000CF1080C130F04BF12010CF1040C930FFF
:1019300004BF92000CF1020CD30F04BF52000CF153
:10194000010C11464FF00002A0F11F00A0EB0C00AB
:10195000704711F0004F08BF704731F000413FF46D
:10196000D5AF0B0C06BF09044FF0100C4FF0000C64
:101970000B0E04BF09020CF1080C0B0F04BF090188
:101980000CF1040C8B0F04BF89000CF1020CCB0F7F
:1019900004BF49000CF1010CCCF12003A0EB0C00BA
:1019A00022FA03F302FA0CF241EA030100F101000A
:1019B000704720F07F4C80EA030023F07F47ACEBB8
:1019C000070303F57C5300F0004003F1FF032DE90A
:1019D00080494FEA154B09B44FEA144325EA0B4EF0
:1019E00024EA03480FF2042606EB132749083E7841
:1019F0005FEA320203FB0667C7F5000707FB06F63E
:101A00004FEA54374FEAD64606F1020607FB066C4A
:101A1000CCF1005C4FEA1C472CEA074C07FB06F4AC
:101A20000CFB06F504EB15464FEA961634BF002072
:101A30004FF000404FEAD13706FB07FC4FEA1C4C41
:101A40000CFB0BF7D21B03FB0CF761EB07010CFB44
:101A50000EF7B0EB074072EB17420CFB08F734BFF0
:101A6000A2EB0742B2EB074261EB17414FEA0C448D
:101A70004FEA910706FB07FC4FEA1C4C0CFB0BF7E7
:101A8000B0EBC74072EB573203FB0CF734BFA2EB4D
:101A9000C742B2EBC74261EB57310CFB0EF7B0EB1C
:101AA000C70072EB57720CFB08F734BFA2EBC702FA
:101AB000B2EBC70261EB5771039F4FEA816141EAC4
:101AC000921104EBCC044FEAD1374FEA826206FB55
:101AD00007FC42EA90124FEA80604FEA1C4C0CFB74
:101AE0000BF7D21B03FB0CF761EB07010CFB0EF7A6
:101AF000B0EB074072EB17420CFB08F734BFA2EBC8
:101B00000742B2EB074261EB17414FEA8C554FEAAF
:101B1000910704EB9C2406FB07FC4FEA1C4C0CFBD2
:101B20000BF7B0EBC74072EB573203FB0CF734BF37
:101B3000A2EBC742B2EBC74261EB57310CFB0EF789
:101B4000B0EBC70072EB57720CFB08F734BFA2EB87
:101B5000C702B2EBC70261EB577115EB4C254FEA98
:101B6000816141EA92114FEA82624FEAD13742EA3B
:101B7000901206FB07FC44F100044FEA80604FEA34
:101B80001C4C0CFB0BF7D21B03FB0CF761EB0701A2
:101B90000CFB0EF7B0EB074072EB17420CFB08F79B
:101BA00034BFA2EB0742B2EB074261EB174115EBE2
:101BB0001C154FEA813141EA92414FEA823242EAF2
:101BC00090424FEA80304FEA0C7644F1000448EA34
:101BD00003434EEA0B484FF0000EB2EB080C71EBDA
:101BE000030724BF624639464EEB0E0E4FF0000B42
:101BF0000018524149414BEB0B0BB2EB080C71EB57
:101C000003077BF1000B24BF624639464EEB0E0EF4
:101C10004FF0000B0018524149414BEB0B0BB2EB5C
:101C2000080C71EB03077BF1000B24BF62463946B9
:101C30004EEB0E0E51EA020718BF46F0010616EBF6
:101C40000E7655F1000254F1000103D5BDE889017B
:101C5000BDE80088BDE88901BDE80048B6195241D9
:101C600041EB0101A3F10103704780807F7E7D7C01
:101C70007B7A7978777676757473727171706F6E1E
:101C80006E6D6C6C6B6A6A696868676666656464C9
:101C9000636362616160605F5F5E5E5D5D5C5C5B53
:101CA0005B5A5A59595858575756565555555454C2
:101CB000535352525251515050504F4F4F4E4E4D20
:101CC0004D4D4C4C4C4B4B4B4A4A4A49494948486C
:101CD00048474747474646464545454444444443AC
:101CE00043434342424242414141002B9C4630D44F
:101CF00077002BD01CB54FEA370703B44FF0100024
:101D00004FF01001BAF1000F06D0BCF1000FDCBF9C
:101D100040F0080040F008014FF000000FBCBDE8A3
:101D200010400BF1010BBBF1010F08BF5FEA170771
:101D300022BF12F1010211F101014FF0004143F104
:101D4000000300F0004043EA00007047F9D3570851
:101D5000D0E746EA064613F1400F4FEA16461FDD6C
:101D600013F1200FDFBF16430A46002120335B42E8
:101D7000BED0C3F1200746EA064602FA07F74FEA4B
:101D8000164646EA0706C3F1200722FA03F201FAD3
:101D900007F721FA03F14FF0000342EA0702A7E731
:101DA00046EA020646EA06464FEA164646EA0106B3
:101DB000BCBF46EA0646360C4FF000034FF0000267
:101DC0004FF0000194E72DE9804C9A46934670B499
:101DD00091E8380007C831EA400C48BF34EA430CA8
:101DE00003D5FFF7E6FDFFF780FFF0BCBDE8008CF0
:101DF0002DE9804C9A46934670B491E8380007C8A4
:101E000010F0804F08BF13F0804F03D100F005F8A9
:101E1000FFF76BFFF0BCBDE8008C20F07F4780EA45
:101E2000030023F07F4C07EB0C03A3F57C5300F079
:101E30000040A3F1FE0392F0000F00F0B38095F094
:101E4000000F00F077802DE901494FEA11404FEA79
:101E5000144621EA004800FB06FC24EA064708FB7A
:101E600006F607FB08F800FB07F718EB06484CEBF3
:101E7000164C4FEA124B18EB07484FEA15464CEB4D
:101E8000174022EA0B4E0BFB06FC25EA06470EFB29
:101E900006F607FB0EFE0BFB07F71EEB064E4CEBA0
:101EA000164C4FF000061EEB074E4CEB174B18EB91
:101EB0000B0840F1000018EB0E0B58EB000840F146
:101EC00000008F1A4FF000013CBFC943661B14BFCE
:101ED000B5EB040C00213CBFC943F61B4FEA174485
:101EE0004EEA8E0E27EA04454FEA1C4704FB0762C0
:101EF0002CEA074C05FB07F70CFB05F604FB0CFC72
:101F000016EB074642EB174216EB0C4642EB1C421F
:101F10001BEB060658EB0202414146EA9E0601D53C
:101F2000BDE80189B619524141EB0101A3F101035A
:101F3000BDE801894FEA14454FEA114724EA0546F6
:101F400021EA074C05FB07F406FB07F70CFB06F13B
:101F500005FB0CFC11EB074144EB17444FEA124719
:101F600011EB0C4144EB1C4422EA074C05FB07F241
:101F700006FB07F70CFB06F605FB0CFC16EB074609
:101F800042EB174216EB0C4642EB1C456A1854F123
:101F9000000148BF7047B619524141EB0101A3F15E
:101FA0000103704795F0000F37D04FEA11424FEA16
:101FB000144721EA024624EA074C02FB07F106FB1C
:101FC00007F70CFB06F402FB0CFC14EB074441EB97
:101FD00017414FEA154714EB0C4441EB1C4125EA2D
:101FE000074C02FB07F506FB07F70CFB06F602FBA6
:101FF0000CFC16EB074645EB174516EB0C4645EB7C
:102000001C42121951F1000148BF7047B6195241E4
:1020100041EB0101A3F1010370474FEA14454FEA78
:10202000114724EA054621EA074C05FB07F106FBA8
:1020300007F70CFB06F24FF0000605FB0CFC12EB59
:10204000074241EB174112EB0C4251EB1C4148BFD8
:102050007047921841EB0101A3F101037047FEE7BD
:10206000704772B6FEE700000148806870470000C4
:10207000180000200248816802781144816070478E
:10208000180000200B4810B5016841F40071016090
:10209000016841F480610160016841F48071016070
:1020A000032000F099F80F2000F006F800F04AF83D
:1020B000002010BD003C024030B505461C4887B0EA
:1020C0000024016841F400310160006806A900F4B1
:1020D0000030009001A800F06FFA00F08DFA154969
:1020E000154AB0FBF1F11548491E026040F2E73293
:1020F000C0E90324C0E90114846100F061FE04001A
:1021000012D10E4800F08AFE04000DD1192000F013
:1021100035F8102D07D200222946192000F03CF88E
:102120000748056000E0012407B0204630BD0000EC
:102130004438024040420F0000440140FC000020AF
:102140001C0000200C4882B0016841F4804101600D
:10215000006800F4804000900748001F016841F0CB
:10216000805101600068002200F0805000900F2133
:10217000901E02B000F010B844380240002809DB7D
:1021800000F01F02012191404009800000F1E02091
:10219000C0F8001170470000F0B40E4B1B680C46ED
:1021A000C3F30223C3F10705042D00D90425191D2B
:1021B000072901D2002300E0DB1E012606FA05F103
:1021C000491E214099409E40761E16403143F0BC86
:1021D00001F069BB0CED00E0064900F00702086859
:1021E0004FF6FF03184040EA0220034A10430860FC
:1021F000704700000CED00E00000FA052DE9F843FF
:10220000044600684FF00109C1074FF0000601D1F4
:10221000400729D5DFF82081C8F86860FFF724FF60
:102220000746464D05E000BFFFF71EFFC01B022812
:1022300059D828680001F7D4A068217B800140EAC2
:102240000170616808433D4984310860C8F86890AE
:10225000FFF70AFF074604E0FFF706FFC01B02284E
:1022600041D828680001F7D52078800752D5334837
:102270004030016841F0805101600068304D00F04D
:1022800080500090286840F480702860FFF7ECFED2
:10229000074604E0FFF7E8FEC01B022823D82868A1
:1022A000C005F7D5254D7035286810F4407020D052
:1022B000218A01F4407181421BD02868214920F411
:1022C0004070C1F800900E6028602868C00710D0E8
:1022D000FFF7CAFE064641F2883707E0FFF7C4FE63
:1022E000801BB84202D90320BDE8F8832868800724
:1022F000F4D521691148C1F301220830032A12D014
:10230000016821F4F81101602868218AC1F30B01EA
:10231000084328602078000703D50B49207DC1F8C9
:10232000E0010020E0E70268084B22F4F8121940AF
:102330000A430260E8E7000000004742003802401C
:1023400000700040400E474200104742FFFCFF0F64
:102350002DE9F0470E46050065D0DFF81481D8F866
:102360000000F7B200F00700B04207D288F8007012
:10237000D8F8000000F00700B04254D128683D4C66
:10238000810712D5400703D5206840F4E050206053
:102390002878000703D5206840F46040206020685A
:1023A000A96820F0F000084320602878C0072DD0ED
:1023B000304968680839012812D0022813D0032850
:1023C00011D00968890700292DDA216821F003015D
:1023D00001432160FFF748FE814641F2883A0EE052
:1023E00009688903EFE709688901ECE7FFF73CFE1C
:1023F000A0EB0901514502D90320BDE8F087206810
:10240000696800F00C00B0EB810FEFD1D8F8001034
:10241000404601F00701B14207D90770006800F09B
:102420000700B04201D00120E7E72878400705D532
:102430002068E96820F4E05008432060287800070D
:1024400006D52068296920F4604040EAC100206078
:1024500000F0E2F82168084AC1F30311515CC8405A
:102460000649086006480068FFF726FE0020C4E71A
:10247000003C024008380240005E010824000020B1
:102480001C0000202DE9F041FFF7EEFD444C05460D
:10249000206840F00100206005E000BFFFF7E4FD88
:1024A000401B022847D820688007F7D5206840F0F5
:1024B00080002060FFF7D8FD0546394E0020083621
:1024C000306041F2883704E0FFF7CEFD401BB84290
:1024D00031D8306810F00C0FF6D1FFF7C5FD054676
:1024E000206820F45020206005E000BFFFF7BCFD0D
:1024F000401B64281FD820688003F7D4FFF7B4FD81
:102500000546206820F08070206004E0FFF7ACFDF5
:10251000401B02280FD820688001F7D4FFF7A4FDE4
:102520000546206820F08060206007E0FFF79CFDF2
:10253000401B022802D90320BDE8F0812068000179
:10254000F4D417491748091D086015491648843105
:10255000086013480C30016821F4F85101600168EB
:1025600021F400510160016841F41F01016001681C
:1025700041F4001101600A487430016821F0010142
:102580000160016841F080710160094907480860F5
:1025900008480068FFF790FD0028CDD00120CBE768
:1025A0000038024010300004103000200024F400F5
:1025B000240000201C0000200F2202600C4A136837
:1025C00003F003034360136803F0F00383601368B0
:1025D00003F4E053C36012684FF4E05303EAD202FD
:1025E00002610448006800F00700086070470000BE
:1025F00008380240003C0240044805490068096868
:10260000044AC1F34231515CC840704724000020A5
:1026100008380240105E0108154810B5006810F037
:102620000C02144813D01449042A0FD0082A0ED1E2
:102630000F4C241F2268236802F03F025B0207D57B
:102640002068C0F38810A0FB010106E0084610BD19
:102650002168C1F38811A1FB00010023FDF7C2FE30
:102660002168C1F30141491C4900B0FBF1F010BDE4
:10267000083802400024F40040787D012DE9F84F2D
:1026800004006ED02078DFF84C93C007A9F1040550
:102690004AD009F104000168C1F38101012908D081
:1026A0000068C0F3810002280AD1D9F80000400276
:1026B00006D52868800337D560680028E1D033E06C
:1026C0006068B0F5803F10D0B0F5A02F286810D01A
:1026D00020F480302860286820F48020286060681A
:1026E000A8B1FFF7C1FC06460DE0286840F4803031
:1026F000F4E740F480202860F7E700BFFFF7B4FC60
:10270000801B642873D828688003F7D50CE0FFF796
:10271000ABFC064605E000BFFFF7A6FC801B642863
:10272000F0D828688003F7D42078DFF8AC828007DF
:102730004FF0000A3ED5A748001D016811F00C0FAC
:1027400008D00068C0F3810002280BD1D9F800003E
:10275000400207D42868800716D5E068012800D118
:1027600012E033E1E068B8B10120C8F80000FFF7DB
:102770007BFC064605E000BFFFF776FC801B0228C5
:10278000C0D828688007F7D52868216920F0F800AC
:1027900040EAC10028600DE0C8F800A0FFF764FC23
:1027A000064604E0FFF760FC801B02281FD828685B
:1027B0008007F7D42078000722D5864F87486169C3
:1027C000703771B101210160FFF74EFC064604E04D
:1027D000FFF74AFC801B022809D838688007F7D524
:1027E0000EE0C0F800A0FFF73FFC064605E082E0DF
:1027F000FFF73AFC801B02287DD838688007F7D4A1
:102800002078400768D5DFF8CCB100270BF13C0BEE
:10281000DBF80000C0000BD4DBF8001041F0805161
:10282000CBF80010DBF80000012700F0805000908A
:102830006B4E3068C00510D4306840F48070306052
:10284000FFF712FC009005E0FFF70EFC0099401A1C
:10285000022850D83068C005F6D55E4EA0686C36A8
:1028600001280FD00528306810D020F0010030601A
:10287000306820F004003060A068B8B1FFF7F4FBC6
:1028800000900FE0306840F00100F4E740F00400F1
:102890003060F7E7FFF7E8FB0099411A41F2883012
:1028A000814266D830688007F4D50EE0FFF7DCFB84
:1028B000009007E0FFF7D8FB0099411A41F28830F9
:1028C000814256D830688007F4D42FB1DBF800106D
:1028D00021F08051CBF80010A069C8B33D49091D13
:1028E0000968C1F3810102294AD00228504607D065
:1028F000C8F8600000E03CE0FFF7B6FB04463BE0B0
:102900004746C8F86000FFF7AFFB064605E000BF8A
:10291000FFF7AAFB801B02282BD828688001F7D478
:10292000D4E907010843A16A2E4A490802EB014194
:10293000626A41EA8211084394F82C1040EA01616E
:10294000C9F8001001203866FFF78EFB044606E048
:102950003EE000BFFFF788FB001B022809D828686B
:102960008001F7D534E000BFFFF77EFB001B022893
:1029700002D90320BDE8F88F28688001F4D427E04D
:102980000128F7D0D9F80000E26900F480019142F3
:102990001CD1226A00F03F01914217D147F6C07165
:1029A000626A0140B1EB821F10D1A26A4FF0FF337F
:1029B00000F4403103EB5202B1EB024F06D194F820
:1029C0002C1000F07060B0EB016F01D00120D1E756
:1029D0000020CFE70438024000004742800E474203
:1029E000007000400000FFFF2DE9F74F0446007F14
:1029F000934601281BD04FF0010884F81C80022068
:102A000060772168CA2048622068532141622068AB
:102A100080684FF0000540054FF0FF064FF0030AB5
:102A20004FF47A790FD5FFF71FFB074607E0022026
:102A3000BDE8FE8FFFF718FBC01B484519D820687A
:102A4000C0684007F6D42068816821F48061816005
:102A50002068C16801F0800161F49061C160FFF7F6
:102A600003FB07460CE000BFFFF7FEFAC01B48451A
:102A700006D92068466284F81DA025770320D7E791
:102A80002068C0684007EFD52068816821F0070101
:102A900081602068816841EA0B01816021680198AA
:102AA00048612068816841F48061816020684662E5
:102AB00084F81D8025770020BAE7000010B5006873
:102AC0000B4641680D480140080CD870C1F304243E
:102AD0005C7001F03F049C70C1F34231197052B92F
:102AE00000F01CFBD870587800F018FB58709878EC
:102AF00000F014FB9870002010BD00003FFFFF00A5
:102B000010B50B460168896A596001680969C1F30B
:102B10000E019960006801680D480140C1F305404D
:102B20001870C1F306245C7001F07F049C70890D5D
:102B3000D97052B900F0F2FA1870587800F0EEFA35
:102B40005870987800F0EAFA9870002010BD0000E4
:102B50007F7F7F0010B5040002D0607F10B106E0D7
:102B6000012010BD00202077204600F041F802200F
:102B700060772068C168C943C90632D5CA2141625D
:102B8000216853204862204600F0DCFA20BB206810
:102B90008168164A11408160216888686268104324
:102BA000D4E904231A43104388602168E06808616F
:102BB00020680169228941EA02410161204600F052
:102BC000E5FA48B921680A6C22F480220A64216877
:102BD0000A6CA3691A430A642268FF21516208B192
:102BE00010BD00200121617710BD0000BFFF8FFFE5
:102BF00010B586B0044618216846FDF73CFF094928
:102C0000206888420CD102200090C00104906846E0
:102C1000FFF7F4FA08B1FFF724FA0349012008602E
:102C200006B010BD002800403C0E474270B5044677
:102C3000007F0B46012819D00126267702206077F5
:102C4000B2B19878D97840EA0145587819780002ED
:102C500040EA413005432168CA2048622168532078
:102C60004862204600F06EFAD0B122E0022070BD2A
:102C70005878C10603D500F0EF000A305870D878B4
:102C800000F055FA0204587800F051FA42EA0022A6
:102C9000987800F04CFA0243187842EA4035DAE7B7
:102CA0000748054020684560204600F06FFA00B9EB
:102CB00066772268FF2151620021217770BD0000F4
:102CC0003FFFFF002DE9F0410446007F0D4601283B
:102CD00023D04FF0010884F81C8002206077206820
:102CE000002780684FEA4060D2B1002800DBEF7017
:102CF000A878297840EA01466878E978000240EA35
:102D0000815006432168CA204862216853204862E6
:102D1000204600F017FAB8B12CE00220BDE8F0819F
:102D2000002800DBEF70287800F001FA02046878D0
:102D300000F0FDF942EA0022A87800F0F8F9024319
:102D4000E87842EA8056DDE70D48064020680660D4
:102D50002068816821F480218160D5E9030108435E
:102D600021688A6810438860204600F00FFA08B98D
:102D700084F81D802268FF2151622777CEE700008A
:102D80007F7F7F0070B504460B482168C860FFF75D
:102D90006BF905464FF47A7607E000BFFFF764F958
:102DA000401BB04201D9032070BD2068C068800676
:102DB000F4D5002070BD00005F3F010070477047F0
:102DC00010B5040003D094F83D0010B107E00120D5
:102DD00010BD002084F83C00204600F01EF80220C0
:102DE00084F83D00211D206800F078FB012084F864
:102DF000460084F83E0084F83F0084F8400084F8E0
:102E0000410084F8420084F8430084F8440084F8C8
:102E1000450084F83D00002010BD704790F83D103B
:102E2000012901D001207047022180F83D1001687E
:102E3000CA6842F00102CA6000680E4988420ED09A
:102E4000B0F1804F0BD00C49884208D00B49884222
:102E500005D00B49884202D00A49884204D18168D2
:102E600001F00701062903D0016841F0010101606A
:102E700000207047000001400004004000080040AE
:102E8000000C00400040014070472DE9F04104462D
:102E90000068C66805694FF00007A90713D5B10798
:102EA00011D5F91E01610120207720688069800713
:102EB000204602D0FFF7E8FF04E000F07EF820464D
:102EC00000F07CF82777680716D5700714D52168BD
:102ED0006FF004000861022020772068806910F4F8
:102EE000407F204602D0FFF7CFFF04E000F065F8F6
:102EF000204600F063F82777280715D5300713D54B
:102F000021686FF008000861042020772068C069FC
:102F10008007204602D0FFF7B7FF04E000F04DF82D
:102F2000204600F04BF82777E80616D5F00614D5B2
:102F300021686FF010000861082020772068C069C0
:102F400010F4407F204602D0FFF79EFF04E000F01F
:102F500034F8204600F032F82777E80708D0F00769
:102F600006D021686FF001000861204600F028F8C3
:102F7000280608D5300606D521686FF08000086164
:102F80002046FFF71BFF680608D5700606D52168A6
:102F90006FF040000861204600F01CF8A8060AD532
:102FA000B00608D521686FF0200008612046BDE812
:102FB000F041FFF704BFBDE8F081704770470000A3
:102FC00000680349884201D1FFF754B870470000F8
:102FD000004401407047FEE710B5154A0421012066
:102FE00001F0DEF9134C124A0421E060183201208E
:102FF00001F0D6F90E4A206130320421012001F09F
:10300000CFF90B4A60616C3A00210B4801F0F4F9EA
:10301000074A2060483A0021084801F0EDF9044AC7
:103020006060243A0021064801F0E6F9A06010BD76
:10303000AC5D010800000020214D01082D4D010864
:103040005D4E01080D4808B5016841F004010160BA
:10305000016801F004010091016841F08001016004
:10306000016801F080010091016841F001010160F7
:10307000006800F00100009008BD000030380240F8
:1030800010B586B014216846FDF7F5FC21480024F0
:103090001F490594C0E900147F218160FF21C160B0
:1030A0004FF4C00101614FF48011C0E90514FFF72E
:1030B00051FD08B1FEF7D5FF8DF800408DF80140B5
:1030C0008DF8024003940022694612480494FFF7E9
:1030D000F9FD08B1FEF7C5FF01208DF814008DF849
:1030E00015008DF816008DF81740002205A9094833
:1030F000FFF79CFD08B1FEF7B4FF0422002105484C
:10310000FFF772FC002801D0FEF7ABFF06B010BD40
:1031100000280040DC000020FEE7FEE7010901EB8B
:10312000810100F00F0000EB4100C0B270470021A8
:1031300002E00A38C0B2491C0A28FAD2090740EA5C
:10314000116070472DE9F041044600680025C16810
:10315000490618D4C16841F08001C160FEF784FFC0
:1031600006464FF47A78042707E000BFFEF77CFF9D
:10317000801B404501D9677701252068C06840065B
:1031800001D4002DF2D02846BDE8F08170B5044688
:1031900000680025C16821F08001C1602068806856
:1031A000800606D42046FFF7EDFD10B104206077BD
:1031B0000125284670BD00F0E5B900002DE9F04179
:1031C00007460B4815460E460078532801D000F0FC
:1031D000D9F9EFF31184202080F311882A46314673
:1031E000384600F007F8E1B281F31188BDE8F081BC
:1031F000184A002070B50E46144900EB400001EB60
:10320000C0051446E86A183520B101280FD00228FD
:1032100005D113E0284600F0E7F9A04201D20024CE
:1032200011E022463146284600F004FB0BE0284618
:1032300000F0DAF9A042F4D20446F2E7314628461B
:1032400000F0CBFA0446204670BD0000184A00206A
:103250000FB408B504A900916A46039900F004F878
:1032600001B05DF814FB00002DE9F04198B006466E
:1032700007A8029040200025CDE90305CDE90556B9
:1032800090460C4614F8011B002973D0252908D05C
:1032900002A800F083FA05980028F3DA18B0BDE818
:1032A000F081002001212278232A1ED02B2A19D058
:1032B0002D2A02D0302A08D102E040F0010001E0BE
:1032C00040F00200641C0029EDD100222178A1F118
:1032D00030030A2B0CD202EB820201EB4202303A9D
:1032E000641CF3E740F00400ECE740F00800E9E775
:1032F0000023CFB22E2F0BD114F8011FA1F13007FC
:103300000A2F05D203EB830301EB4303303BF3E7C2
:103310006C290DD068290BD0702956D00BDC2529DB
:1033200016D0582931D063290CD0642913D114E068
:1033300014F8011FECE7732934D075291BD07829C4
:1033400009D122E0D8F80000011DC8F8001001786A
:1033500002A800F023FA641C9DE7D8F800100F1DA6
:10336000C8F800700968CDE900200A2202A800F020
:1033700047F9F0E735E0D8F800100F1DC8F80070E5
:103380000968CDE900200A2208E0D8F800100F1DD6
:10339000C8F800700968CDE90020102202A800F0EA
:1033A00093F9D8E7D8F80000011DC8F800100768A5
:1033B00007B914A717F8011B0029CCD002A800F008
:1033C000EDF905980028F5DAC5E7D8F80000011DE9
:1033D000C8F8001001680820CDE900050346102256
:1033E000DCE7059800287FF759AF049820B1024622
:1033F00007A93046FFF7E2FEDDE904100844059016
:103400004CE70000284E554C4C29000010B54FF0F9
:10341000E020006902F0A8FA012803D0BDE81040BE
:1034200001F0B6BF10BD000030B593B03021684642
:10343000FDF721FB14210CA8FDF71DFB1E480025FC
:10344000016841F080510160006800F080501190E7
:103450001A48016841F4404101600068022400F408
:1034600040401190052000904FF4803001900120E1
:1034700002908005CDE906400C2008906020CDE93F
:10348000090404200B906846FFF7F8F808B172B6FB
:10349000FEE70CA90F2081E831004FF48050CDE900
:1034A0000F0503210CA8FEF753FF002801D072B6C8
:1034B000FEE713B030BD000040380240007000400D
:1034C0000248016841F470010160704788ED00E036
:1034D0000148FFF7DABC0000FC000020F0B50268EC
:1034E000204B214C9F03214D214E984207D0B842DA
:1034F00005D0A04203D0A84201D0B04204D122F0AE
:10350000700C4A6842EA0C02984210D0B8420ED0C1
:10351000A0420CD0A8420AD0B04208D0154CA0421C
:1035200005D0154CA04202D0144CA04203D122F485
:103530004074CA6822434C6922F080022243026030
:103540008A68C2620A688262984201D1096901638D
:10355000012141610169C90703D0016921F001011D
:103560000161F0BD0000014000040040000800407F
:10357000000C004000400140004401400048014070
:10358000FEE7000010B5134CA8212046FDF773FAA2
:1035900003202061606110A0A06104F1A800E06137
:1035A0004FF4806020620020A0626062E0620AA1A5
:1035B000216604F5956161661021A1662067E066C9
:1035C00060670849C0F10F028A5C2254401C102831
:1035D000F8D310BD184A00205465726D696E616C95
:1035E00000000000285E01080269C1688A4203D811
:1035F0008068401A104400E0501A401E70470000D6
:103600002DE9FC5F0E008146DDE90C47C6F10000A4
:1036100098469346824600D40846012503E000BF41
:1036200090FBFBF06D1C5845FADAA84500D94546D9
:1036300024B1002E01DB780700D5641EB80702D53F
:10364000B8F1000F0FD0F8070DD164B1A5420AD22E
:1036500020214846641E00F0A1F8D9F80C0000288B
:10366000F3DABDE8FC9FD9F80C000028F9DB002E46
:1036700002DA56462D2102E0780707D52B2148466D
:1036800000F08CF8D9F80C000028EADB07F0030002
:1036900002280FD1B8F1000F0CD15CB1A54209D2BC
:1036A00030214846641E00F079F8D9F80C00002853
:1036B000F3DAD6E7CDE9004743465A463146484655
:1036C00000F002F8CDE700002DE9F84F8246DDE971
:1036D0000A4B0126984691460D460846374602E0B9
:1036E000B0FBF9F07F1C4845FAD2B84500D94746EF
:1036F0005FEACB7017D1B4B15FEA8B7002D5B8F135
:10370000000F02D0202000900BE03020FBE7504655
:10371000641E009900F042F8DAF80C00002838DB4B
:103720000CB1A742F3D3DAF80C00002831DB00BF5C
:10373000B8F1010F02D9A8F1010803E0B5FBF6F0DA
:10374000484502D306FB09F6F2E7DFF84C8000BFDC
:10375000B5FBF6F000FB165518F80010504600F0C7
:103760001DF8DAF80C00002803DBB6FBF9F6002E92
:10377000EED15FEACB700CD0002C0AD0A74208D261
:1037800020215046641E00F009F8DAF80C000028E9
:10379000F2DABDE8F88F0000395E010810B5044682
:1037A000D4E90130421C934205D323681954A26026
:1037B000E068401CE060D4E90102824209D121683E
:1037C0002069FFF7FBFCA168884203D04FF0FF306F
:1037D000E06010BD0020A06010BD2DE9F047C46876
:1037E0001746894606464FF000083069A04201D9C5
:1037F000051B02E0B168201A0D1AB0686D1E001B8F
:10380000A84200D80546BD4200D33D4670682A460E
:1038100020444946FDF7C0F8B0687F1B2C44A844FB
:10382000A944A04200D10024F460002FDDD140461D
:10383000BDE8F0872DE9F04104468846D4E9020747
:10384000C51BE168606816460844B54206D9414682
:10385000FDF7A2F8B819E060BDE8F0812A464146BC
:10386000FDF79AF8761B08EB050132466068FDF714
:1038700093F8E660F0E703B401984100009850EA3D
:10388000C12018BF04204A0D18BF40F0010040F2CB
:10389000FF72B2EB515F08BF40F00200012808BF81
:1038A000052002B070470907090E002804DB00F16B
:1038B000E02080F80014704700F00F0000F1E020D5
:1038C00080F8141D704730380A2801D20120704753
:1038D00000207047F0B585B0070007D11F484FF4AE
:1038E000F1720368A3B11E491EA09847224D00241F
:1038F000052695F8F000002819D000F07BFA00BFEB
:1039000004EB4410411991F85100012812D017E03E
:103910001348CDE90302009212A118A3CDE90131A9
:1039200003461FA22BA1002000F08CF8FEE705B093
:103930003046F0BD1E2238463231FCF7E2FF30B18E
:10394000641CE4B2052CDBD300F07AFAEFE704EB59
:103950004410284490F83160F6E70000A8000020E9
:10396000DB5E010874616720213D202828766F699D
:1039700064202A2930290000D052002028257329EC
:103980002068617320617373657274206661696C6D
:1039900065642061742025733A256C642E00000054
:1039A0002E2E5C4D6964646C6577617265735C543E
:1039B000686972645F50617274795C656173796C77
:1039C0006F676765725C7372635C656C6F672E63AB
:1039D00000000000656C6F67000000002DE9F041F9
:1039E000174D002095F8F010012927D000F066FA55
:1039F000060023D1012000F00DFA002785F8F370AE
:103A000085F8F470012085F8F500052000F062FAD1
:103A10000024B84604EB4410471907F132001F2177
:103A2000FDF707F8641C87F83180E4B287F851800D
:103A3000052CEFD3012085F8F0003046BDE8F08179
:103A4000D05200200FB42DE9F04F06468BB08B46C4
:103A50000846FCF737FF00240A940746A14609945C
:103A60000594069407940894052E08D9B3484FF49A
:103A700010720368002B7DD0B149B2A09847B84DB1
:103A800095F8F100002876D02878B04273D35846D4
:103A9000FFF720FFB0426ED3691C5846FCF700FFC9
:103AA000002868D00DF1680A00F0A4F9A84695F83E
:103AB000F500A5F5806570B12946AAA2204600F060
:103AC00025FB04469D4829191C3050F82620204625
:103AD00000F01CFB04440121304600F09BFB40B188
:103AE00096482919001D50F82620204600F00EFBAC
:103AF00004440221304600F08DFBC8B129195A4612
:103B0000204600F003FB04440F2F0BD8C7F10F0130
:103B1000202205A8FCF785FF291905AA204600F0F8
:103B2000F5FA0444291990A2204600F0EFFA044463
:103B30001C21304600F06EFB00284BD029198BA2C7
:103B4000204600F0E3FA04440421304600F062FB12
:103B5000A8B100F08DF902462919204600F0D6FAE6
:103B600004441821304600F055FB40B129197EA2CB
:103B7000204601E036E0DCE000F0C8FA0444082109
:103B8000304600F047FB90B100F06AF9024629196F
:103B9000204600F0BBFA04441021304600F03AFB06
:103BA00028B1291970A2204600F0B0FA044410216F
:103BB000304600F02FFB38B100F056F902462919C3
:103BC000204600F0A3FA0444291969A2204600F017
:103BD0009DFA044420213046169A00F087FB002805
:103BE0001CD10EE05648CDE90302009255A161A315
:103BF000CDE90131034668A274A10020FFF722FF3E
:103C0000FEE740213046179A00F070FB30B9802162
:103C10003046189A00F073FB002856D029196DA27F
:103C2000204600F073FA044420213046169A00F032
:103C30005DFBD0B129192046169A00F067FA0444BA
:103C400040213046179A00F051FB10B1291962A2A9
:103C500007E080213046189A00F051FB28B129195D
:103C600041A2204600F052FA044480213046189ABE
:103C700000F045FBB8B159A2052109A8189BFCF733
:103C800059FC291909AA204600F040FA04444021B1
:103C90003046179A00F02AFB28B1291932A2204693
:103CA00000F034FA044440213046179A00F01EFB1D
:103CB00028B129192046179A00F028FA0444291936
:103CC00047A2204600F022FA0444C4F58061281976
:103CD0005346199AFCF7FEFB04444FF48062944269
:103CE00004D8002802DB601D904201D940F2FB3469
:103CF00098F82000464640B1194905F80490203153
:103D0000A1F58460FCF7CCFD88B196F8F50028B1E8
:103D1000291934A2204600F0F9F90444291933A2E4
:103D2000204600F0F3F90119314800F0C9F800F01D
:103D300087F80BB0BDE8F00F5DF814FBA800002079
:103D4000F35E01086C6576656C203C3D20454C4F68
:103D5000475F4C564C5F564552424F53450000005A
:103D6000D05200201B5B0000200000005B00000020
:103D70005D2000002825732920686173206173731A
:103D8000657274206661696C6564206174202573B6
:103D90003A256C642E0000002E2E5C4D6964646C24
:103DA0006577617265735C54686972645F506172B3
:103DB00074795C656173796C6F676765725C737247
:103DC000635C656C6F672E6300000000656C6F6755
:103DD00000000000280000003A000000256C64008C
:103DE000290000001B5B306D000000000A0000008D
:103DF000D04E002070B5064C012594F8F20020B199
:103E000000F063F884F8F45070BD84F8F35070BD8E
:103E1000D05200200949002881F8F2000DD007484F
:103E200091F8F41090F8F30019B1002805D100F0D2
:103E30004EB8002801D000F048B87047D05200209A
:103E400070B5064C002594F8F20020B100F03FF860
:103E500084F8F45070BD84F8F35070BDD052002047
:103E600000A070470000000000A0704700000000A4
:103E700000B587B0002201A90A48FEF741FE0022E2
:103E800006A90848FEF71AFE9DF8060000909DF866
:103E900005309DF8042004A10748FCF735FB07B066
:103EA000054800BDDC000020253032643A25303260
:103EB000643A253032640000C85300200020704767
:103EC0000A4601460020FFF779B972B6704762B61C
:103ED0007047000010B586B00446052807D90D4884
:103EE0004FF4AE72036833B10B490CA098471248E7
:103EF000047006B010BD0848CDE90302009207A186
:103F00000EA3CDE90131034615A222A10020FFF73F
:103F100099FDFEE7A8000020AF5E01086C6576659C
:103F20006C203C3D20454C4F475F4C564C5F5645FE
:103F300052424F5345000000D052002028257329DB
:103F40002068617320617373657274206661696CA7
:103F500065642061742025733A256C642E0000008E
:103F60002E2E5C4D6964646C6577617265735C5478
:103F7000686972645F50617274795C656173796CB1
:103F80006F676765725C7372635C656C6F672E63E5
:103F900000000000656C6F670000000030B585B060
:103FA0000D460446052807D90E484FF4A172036850
:103FB0004BB10D490DA09847134800EB8400C0F8A1
:103FC000D85005B030BD0848CDE90302009207A1E2
:103FD0000EA3CDE90131034615A222A10020FFF76F
:103FE00031FDFEE7A8000020925E01086C65766551
:103FF0006C203C3D20454C4F475F4C564C5F56452E
:1040000052424F5345000000D0520020282573290A
:104010002068617320617373657274206661696CD6
:1040200065642061742025733A256C642E000000BD
:104030002E2E5C4D6964646C6577617265735C54A7
:10404000686972645F50617274795C656173796CE0
:104050006F676765725C7372635C656C6F672E6314
:1040600000000000656C6F67000000000EB50A4894
:1040700090F8F01000290DD0012180F8F11007A26E
:1040800008A1F8208DE80700104B11A21DA1032004
:10409000FFF7D8FC0EBD0000D0520020322E322E89
:1040A00039390000456173794C6F67676572205636
:1040B000257320697320696E697469616C697A651A
:1040C00020737563636573732E000000495E0108F9
:1040D0002E2E5C4D6964646C6577617265735C5407
:1040E000686972645F50617274795C656173796C40
:1040F0006F676765725C7372635C656C6F672E6374
:1041000000000000656C6F67000000002DE9F043BF
:10411000DFF88C90DFF88C8085B00D0006461446E1
:10412000174606D1D8F800302BB12C2249461EA0E4
:1041300098477CB115E01CA202922C20CDE9039097
:104140001AA3CDE90003164B21A22FA10020FFF7EF
:1041500079FCFEE7D8F800307BB12D2210492CA065
:1041600098474FF480622078B0B13146761C914276
:1041700012D205F8010B641CF5E725A202922D204E
:10418000CDE9039009A3CDE90003054B10A21EA1C0
:104190000020FFF757FCFEE705B0E01BBDE8F08309
:1041A0002B5F0108A8000020647374002825732980
:1041B0002068617320617373657274206661696C35
:1041C00065642061742025733A256C642E0000001C
:1041D0002E2E5C4D6964646C6577617265735C5406
:1041E000686972645F50617274795C656173796C3F
:1041F0006F676765725C7372635C656C6F675F7530
:1042000074696C732E630000656C6F6700000000BA
:104210007372630030B585B00D460446052807D992
:10422000104840F2E122036863B10F490FA098479C
:10423000154800EB8400D0F8D800284000D00120B9
:1042400005B030BD0848CDE90302009207A10FA3D5
:10425000CDE90131034616A222A10020FFF7F2FBAF
:10426000FEE70000A8000020FF5E01086C6576658F
:104270006C203C3D20454C4F475F4C564C5F5645AB
:1042800052424F5345000000D05200202825732988
:104290002068617320617373657274206661696C54
:1042A00065642061742025733A256C642E0000003B
:1042B0002E2E5C4D6964646C6577617265735C5425
:1042C000686972645F50617274795C656173796C5E
:1042D0006F676765725C7372635C656C6F672E6392
:1042E00000000000656C6F670000000010B522B18F
:1042F000FFF790FF08B1012010BD002010BD10B5E0
:1043000022B1FFF787FF08B1012010BD002010BDCA
:104310000B490A48086062B6FDF7B4FEFEF7B2F832
:10432000FFF782F8FEF78EFEFEF7AAFE00F00AF80D
:10433000FEF752FE00F018F8FEE70000000001084A
:1043400008ED00E0EFF3058010B16FF00500704755
:104350000448016811B14FF0FF307047012101603E
:10436000002070477800002010B5EFF3058010B1F1
:104370006FF0050010BD08480168012902D04FF018
:10438000FF3010BD054A002182F8141D0221016092
:1043900000F006FF002010BD780000200BE000E0D8
:1043A000F8B514464FF00005EFF3058212BB08B3D1
:1043B00001B3A4B1D4E9023263B1502A1AD32269FD
:1043C000C2B1676900FB01F6B74213D3009501F053
:1043D00016F807E072B9226962B9626952B900221F
:1043E00000F0ECFF050005D00CB1216800E00021D1
:1043F00000F038FE2846F8BD2DE9FF414FEA0103E1
:104400004FF00005EFF30581039549BB40B38027CA
:10441000182100244AB3166806B1344696691EB1C5
:104420003146761E382E02D21679F60703D00020C8
:1044300004B0BDE8F081566906B1B708D2F808C0EB
:10444000BCF1000F0DD0D5685C2D18D312693AB1BC
:1044500036B18DE806103A46214601F05AFA03902B
:104460000DE0D6685EB912694AB903AACDE9001217
:10447000BAB2214601F020FA012800D00395039832
:10448000D6E700002DE9F041134C0F460546E668DB
:104490002068001D00F0E8FC681C07D137B12168D6
:1044A000BDE8F0410D48091D00F02EBD20683544DF
:1044B000B5424560216805D2A06BBDE8F041091DF9
:1044C00000F00ABD606B091D00F006FDA06A854280
:1044D00000D2A562BDE8F08128000020340600204B
:1044E0002DE9F041054600F01BFD2D4CA068401C55
:1044F000A06020682B4F10B1606930B32BE02560BD
:10450000A068012827D1002606EB860007EB800073
:1045100000F0D4FC761C382EF6D3234800F0CEFCF5
:104520002148143000F0CAFC1F48283000F0C6FCB7
:104530001D483C3000F0C2FC1B48503000F0BEFC6F
:10454000194860631430A06305E02068E96AC06A16
:10455000884200D82560606A401C60626864E86A2E
:104560002169884200D9206100EB800007EB8000C0
:10457000291D00F0C9FC00F0F3FC606900280CD094
:104580002068E96AC06A884207D208494FF0805023
:104590000860BFF34F8FBFF36F8FBDE8F08100005D
:1045A0002800002084010020E405002004ED00E044
:1045B00038B500F0B5FC104C2068C8B90F4800F0C1
:1045C0007DFC0E48143000F079FC0C48E06014309B
:1045D00020610A4B0020F03B009003F150021021B3
:1045E0000A2000F00CFF206010B105A100F03AFD98
:1045F000BDE8384000F0B4BC64000020380700205B
:10460000546D72510000000030B4026C0B46002A59
:104610000BD0C1681144C1608468A14201D3016814
:10462000C16030BC1846FCF7B7B930BC70472DE903
:10463000F041856B174604460026026C82B1C7B173
:10464000E068FCF7A9F9E168206C091AE1602268CA
:10465000914202D2A168081AE060022F16D017E03A
:104660002068A8B9A06801F0F7F906460020A0600C
:104670000EE06068FCF790F9216C606808446060A7
:10468000A168884204D32068606001E005B16D1E16
:104690006D1CA5633046BDE8F08110B5044690F866
:1046A000590058B101280CD002280FD0502080F3B7
:1046B0001188BFF34F8FBFF36F8FFEE7206B00F0C1
:1046C00063FC2046BDE8104000F05EBC10BD000059
:1046D00010484FF47051420706D0C01D0D4920F01C
:1046E0000700411AC1F570510B4A00230144C2E989
:1046F00000030839183A21F0070111604B600B6084
:104700000B1AC0E9001393604FF0004053605061F2
:1047100070470000180E002094000020144E154C25
:10472000A6F29C474FF08058DFF84C9012E000BF93
:1047300000F0F6FBF068C568281D00F095FBA06846
:10474000401EA0606068401E606000F009FC2846C2
:10475000FFF7A3FF60680028EAD138680128F9D97B
:10476000C9F80080BFF34F8FBFF36F8FF2E70000EF
:10477000200600202800002004ED00E070B51D4652
:10478000049C51B1C4F80020C4E90F010121204666
:1047900000F068FE84F84C5070BD2460F4E700001F
:1047A0002DE9F05F8846DDE90B94154683469100BC
:1047B0009A460A9EA522206BFCF733F96FF003019D
:1047C000206B01EB8501084420F00707780707D02C
:1047D000502080F31188BFF34F8FBFF36F8FFEE738
:1047E0000025B8F1000F0FD05FF00000221818F874
:1047F000001082F8341018F8001011B1401C102875
:10480000F4D384F8435001E084F83450382E00D3B8
:104810003726E662C4E91365201D00F05AFB04F157
:10482000180000F056FB2461C6F138006462A061F4
:10483000656584F8585052465946384600F05AFA91
:104840002060B9F1000F01D0C9F80040BDE8F09F29
:1048500030B5114900E011460A688242FBD34B682B
:104860005C18844203D14068184448600846436895
:104870001C18944209D1084C183C2468A24209D063
:1048800052681A4442600A6812680260814200D08D
:10489000086030BD0460F9E79400002070B5002482
:1048A00041600B4D0061914206D8D11A8269914254
:1048B00006D2011D286907E09A4203D2994201D32A
:1048C000012403E0011DE86800F006FB204670BDEE
:1048D0006400002010B5044600F022FBA06B28B154
:1048E0005FF0000400F03CFB204610BD0124F9E716
:1048F00030B589B03C4D6EE00498002806DADDE959
:104900000601059A90470498002864DB069C6069BC
:1049100010B1201D00F0A8FA03A800F0D7F8024655
:1049200004980A2857D2DFE800F00505052D334A20
:1049300005052D3394F8280040F0010084F8280084
:104940000599A069059B01442046FFF7A7FF68B3BE
:10495000216A2046884794F8280040073BD500206C
:1049600000900598A169002342181946204601F0DD
:104970007DF9D8B9502080F31188BFF34F8FBFF372
:104980006F8FFEE714F8280F20F00100207022E05E
:1049900094F8280040F0010084F828000598A061F0
:1049A00028B1811813462046FFF778FF13E0502006
:1049B00080F31188BFF34F8FBFF36F8FFEE794F83A
:1049C0002800810703D4204600F0DEFA03E020F03F
:1049D000010084F82800002204A9286800F096FE4F
:1049E000002889D109B030BD640000202DE9FC41C8
:1049F0000F46054600F018FC01A800F067F80446D1
:104A0000019818B101F0A0F8BDE8FC81254EAFB1C6
:104A100030690068D0B30027291B3A46306800F09F
:104A200035FB01F091F80028EED11F494FF080507E
:104A30000860BFF34F8FBFF36F8FE5E7A542EBD858
:104A400001F082F8F0682746C068C468201D00F0B5
:104A50000BFA94F82800410719D5A0692B46411993
:104A60003A462046FFF71AFFA8B100200346014648
:104A700000902A46204601F0F9F860B9502080F3F2
:104A80001188BFF34F8FBFF36F8FFEE707E020F071
:104A9000010084F82800216A20468847B4E70127EE
:104AA000BAE700006400002004ED00E00648416B16
:104AB000096829B1416BC968C96849688162704752
:104AC0004FF0FF31FAE700002800002070B50546DE
:104AD00000F058FF064E0446B068844203D200F04E
:104AE00009F8012000E0002028602046B46070BD75
:104AF00064000020F8B5194D20E0C068C46806685D
:104B0000201D00F0B1F9216A2046884794F828005A
:104B1000400713D5A0693044B04206D924616060D3
:104B2000211DE86800F0D8F908E00020034601469E
:104B300000903246204601F099F838B1E8680168E3
:104B40000029DAD12969C5E90310F8BD502080F3A6
:104B50001188BFF34F8FBFF36F8FFEE76400002013
:104B600008484068401C4FF0500080F3118804D082
:104B7000BFF34F8FBFF36F8FFEE7BFF34F8FBFF3CE
:104B80006F8FFEE79C000020074CE068016841B190
:104B9000C0680021D0F80000FFF728FFFFF7A8FE4B
:104BA000F3E701210020F7E7640000202DE9F04140
:104BB000044600F0B5F994F9455004F1240609E0E3
:104BC000606A48B1304600F087FF08B100F0AEFAE5
:104BD0006D1E6DB2002DF3DC4FF0FF3684F845609A
:104BE00000F0BEF900F09CF994F9445004F110076C
:104BF00009E0206948B1384600F06EFF08B100F0C6
:104C000095FA6D1E6DB2002DF3DC84F84460BDE8AA
:104C1000F04100F0A5B900002DE9F041054600275C
:104C200000F002FB324E306808B9FFF751FD7069A1
:104C300005424ED1C5B3083568070ED005F0070010
:104C4000C0F108000544680707D0502080F31188A0
:104C5000BFF34F8FBFF36F8FFEE72DB370688542B0
:104C600037D82348183001460C6801E020460C462E
:104C70006168A94202D221680029F7D131688C42CB
:104C800027D007682168016060680837411B102938
:104C90000FD96019420708D0502080F31188BFF364
:104CA0004F8FBFF36F8FFEE713E041606560FFF742
:104CB000CFFD61687068401A7060B268904200D29F
:104CC000B060706901430020C4E90001F068401C35
:104CD000F06000F039FF780707D0502080F311888A
:104CE000BFF34F8FBFF36F8FFEE73846BDE8F0810B
:104CF0007C00002010B5031F4FF080741C601B1F48
:104D000021F001011960191F044B0B6014390A606E
:104D1000091F6FF0020244380A6010BD614B0108A0
:104D200040F2E634204600F0D3F9FBE71CB5FEF76D
:104D300042FAFEF753FEF7210020FFF72FF9072173
:104D40000120FFF72BF907210220FFF727F90721A0
:104D50000320FFF723F9B7210420FFF71FF9B7213C
:104D60000520FFF71BF9FFF781F92AA10020FEF7C4
:104D70006FFAC224C825C426C6274FF0CA084FF0D0
:104D8000CC0929A0CDE900402B4B2CA231A1002059
:104D9000FEF758FEC82000F09BF923A0CDE9006083
:104DA000254B26A22BA10420FEF74CFEC82000F0C4
:104DB0008FF91DA0CDE900701F4B20A225A1012075
:104DC000FEF740FEC82000F083F917A0CDE900509F
:104DD000194B1AA21FA10320FEF734FEC82000F0D1
:104DE00077F911A1CDE90081134B14A219A1052077
:104DF000FEF728FEC82000F06BF90BA1CDE9009169
:104E00000D4B0EA213A10220FEF71CFEC82000F0DD
:104E10005FF9B6E75365637175656E63652053741A
:104E20006172742E200A000048656C6C6F20456C1E
:104E30006F672E200A000000F45D01082E2E2F431C
:104E40006F72652F5372632F6672656572746F732C
:104E50002E6300004E4F5F544147000040F2CE7475
:104E6000204600F035F9FBE7D0E9013201699A608C
:104E7000D0E901235A604A68824201D182684A60BF
:104E8000002202610868401E086008687047000040
:104E9000034B036003F15C000860802010607047E2
:104EA00060070020044B036003F15C0008604FF4CE
:104EB0008070106070470000BC09002000F10801FC
:104EC0004FF0FF32C0E90112C160016100210160B1
:104ED000704700210161704730B50B685A1C02D041
:104EE00000F1080202E0026904E0224654682568E5
:104EF0009D42FAD953684B6099608A60516008619D
:104F00000168491C016030BD42684A6093688B604B
:104F100093685960916008610168491C016070479D
:104F2000502080F31188BFF34F8FBFF36F8F0A4972
:104F30004868401C486001280CD10848006810F0FF
:104F4000FF0F07D0502080F31188BFF34F8FBFF3BE
:104F50006F8FFEE7704700009C00002004ED00E02A
:104F60000849486828B1401E486001D180F3118883
:104F70007047502080F31188BFF34F8FBFF36F8FBE
:104F8000FEE700009C00002070B500282AD0164DD6
:104F9000A0F1080460686969084207D1502080F3D5
:104FA0001188BFF34F8FBFF36F8FFEE722683AB1CE
:104FB000502080F31188BFF34F8FBFF36F8FFEE750
:104FC0008843606000F030F9606869680844686090
:104FD0002046FFF73DFC2869401C2861BDE8704071
:104FE00000F0B2BD70BD00007C0000204FF0E0205A
:104FF00000210161816105494FF47A720968B1FBB2
:10500000F2F1491E4161072101617047240000202F
:1050100010B5FBF7C3F9114910280ED300F1E020B9
:1050200090F8F0030A78904207D2502080F311885C
:10503000BFF34F8FBFF36F8FFEE7094800688968A1
:1050400000F4E060884207D9502080F31188BFF354
:105050004F8FBFF36F8FFEE710BD00009C00002054
:105060000CED00E010B5084B002200BF53F83240B1
:105070001CB1521C082AF9D310BD43F8321003EBBF
:10508000C201486010BD00004401002070B5154603
:105090000E460446FFF744FF94F944100020491CD3
:1050A00001D184F8440094F94510491C01D184F8D9
:1050B0004500FFF755FFA06B28B92A46314604F199
:1050C000240000F051F82046BDE87040FFF76EBDA7
:1050D00010B5020014D00F48006B38B1502080F397
:1050E0001188BFF34F8FBFF36F8FFEE700F09CF87E
:1050F00000211046FFF7C6F900F026FD002807D171
:1051000005494FF080500860BFF34F8FBFF36F8F9A
:1051100010BD00002800002004ED00E002490A6AEA
:105120000260C968416070472800002001490120E1
:10513000C86170472800002010B50C4650B10949DD
:1051400009681831FFF7C8FE2046BDE8104001216C
:10515000FFF798B9502080F31188BFF34F8FBFF34A
:105160006F8FFEE72800002070B514460D4668B129
:105170000A4909681831FFF7C7FE0CB14FF0FF3537
:1051800021462846BDE87040FFF77CB9502080F3E7
:105190001188BFF34F8FBFF36F8FFEE72800002009
:1051A00030B587B00024039405AA04A903A8049489
:1051B000FFF76EFEDDE903010094CDE90110002345
:1051C00015A11748059A00F0A4FB164D0028E862C7
:1051D0001FD000F01BFD012809D0401C19D1502020
:1051E00080F31188BFF34F8FBFF36F8FFEE750201E
:1051F00080F31188BFF34F8FBFF36F8F4FF0FF30F5
:10520000A86201206861EC6007B0BDE8304000F0A2
:1052100045B807B030BD000049444C4500000000CF
:105220001D470108280000200248016B491C01634A
:105230007047000028000020164810B5016B11B11E
:105240000121C16110BD0021C1610169124A01E063
:10525000B9B1491E01EB810352F82330002BF7D07E
:1052600001EB810302EB830202F1080453685B68DF
:105270005360A34201D15B685360DA680260016148
:1052800010BD502080F31188BFF34F8FBFF36F8F95
:10529000FEE7000028000020840100201CB53748EC
:1052A0000168374A914207D1502080F31188BFF33B
:1052B0004F8FBFF36F8FFEE700683149491E884268
:1052C00007D1502080F31188BFF34F8FBFF36F8F4A
:1052D000FEE72C4908780190FF20087008788DF8C7
:1052E00000009DF800009DF8002000F0F0009042C2
:1052F00007D0502080F31188BFF34F8FBFF36F8F1B
:10530000FEE79DF80000204C00F0500020700720C0
:10531000A06005E09DF8002052008DF80020401E9E
:105320009DF800201206F5D4A060032807D0502075
:1053300080F31188BFF34F8FBFF36F8FFEE74FF4F9
:105340004070A060019808700C482030016841F45A
:1053500070010160016841F070410160FFF746FE95
:1053600000206060FAF7E2FF0848016841F0404120
:105370000160FAF7C7FF00201CBD000000ED00E04F
:1053800071C20F4100E400E09C00002034EF00E017
:1053900010B5502080F31188BFF34F8FBFF36F8F8C
:1053A00000F0F6FA18B104494FF080500860002070
:1053B00080F3118810BD000004ED00E0F8B5174639
:1053C0000E46050013D005FB06F05030FFF724FC15
:1053D00004000AD0002084F8460004F150023B4645
:1053E000314628460094FFF7C9F92046F8BD502001
:1053F00080F31188BFF34F8FBFF36F8FFEE738B58F
:10540000049D18B153B1CAB181B120E0502080F39E
:105410001188BFF34F8FBFF36F8FFEE7502080F3EB
:105420001188BFF34F8FBFF36F8FFEE7502080F3DB
:105430001188BFF34F8FBFF36F8FFEE739B1502054
:1054400080F31188BFF34F8FBFF36F8FFEE75024B7
:105450001C46012384F846302B460094FFF78EF952
:10546000204638BD70B50D46040025D0FFF758FD25
:10547000D4E90F20216802FB0011A1600021A16383
:10548000216861600A46D4E90F01401E00FB01213A
:10549000E16021464FF0FF3001F8440F487004F1FD
:1054A00010008DB1FFF70AFD04F12400FFF706FD9F
:1054B000FFF756FD012070BD502080F31188BFF327
:1054C0004F8FBFF36F8FFEE721690029F0D000F006
:1054D00003FB0028ECD004494FF080500860BFF374
:1054E0004F8FBFF36F8FE3E704ED00E02DE9FF4737
:1054F00082B01D468A464FF00008040003D0BAF17E
:10550000000F08D011E0502080F31188BFF34F8FB7
:10551000BFF36F8FFEE7206C38B1502080F3118805
:10552000BFF34F8FBFF36F8FFEE7022D0AD1E06B01
:10553000012807D0502080F31188BFF34F8FBFF3AD
:105540006F8FFEE700F010FA3F4F4FF000094FF069
:10555000805648B9049838B1502080F31188BFF3C1
:105560004F8FBFF36F8FFEE7FFF7DAFCA06BE16BA5
:10557000884207D3022D05D00498D0B1B8F1000FAE
:105580001AD01EE02A4651462046FFF750F8616ABD
:1055900019B104F1240000F09FFA20B13E60BFF37E
:1055A0004F8FBFF36F8FFFF7DBFC012006B0BDE824
:1055B000F087FFF7D5FC22E06846FFF7AFFD4FF01C
:1055C0000108FFF7CDFCFFF72FFEFFF7A9FC94F9C8
:1055D0004400401C01D184F8449094F94500401CDB
:1055E00001D184F84590FFF7BBFC04A9684600F0A0
:1055F00029F930B12046FFF7D9FA00F0A5FA0020CA
:10560000D4E7FFF78DFCA06BE16B884213D1FFF765
:10561000A7FC04F110000499FFF78EFD2046FFF768
:10562000C5FA00F091FA00289ED13E60BFF34F8F7B
:10563000BFF36F8F98E7FFF793FC2046FFF7B6FAAA
:1056400000F082FA90E7000004ED00E02DE9F04759
:105650001F4690468946040003D0B9F1000F08D0D8
:1056600011E0502080F31188BFF34F8FBFF36F8F8D
:10567000FEE7206C38B1502080F31188BFF34F8FC4
:10568000BFF36F8FFEE7022F0AD1E06B012807D02E
:10569000502080F31188BFF34F8FBFF36F8FFEE769
:1056A000FFF7B6FC5020EFF3118680F31188BFF3AB
:1056B0004F8FBFF36F8FA06BE16B884206D3022F31
:1056C00004D0002086F31188BDE8F08794F9455096
:1056D000A06B3A4649462046FEF7A9FF681C04D055
:1056E0006D1C84F845500120ECE7606A0028FAD070
:1056F00004F1240000F0F0F90028F4D0B8F1000F14
:10570000F1D00121C8F80010EDE700002DE9F747BE
:10571000002683B08A46040003D0BAF1000F08D0F7
:1057200011E0502080F31188BFF34F8FBFF36F8FCC
:10573000FEE7206C38B1502080F31188BFF34F8F03
:10574000BFF36F8FFEE700F00FF9DFF8F4804FF042
:1057500000094FF0805748B9059838B1502080F3C0
:105760001188BFF34F8FBFF36F8FFEE7FFF7D8FBB2
:10577000A56BC5B151462046FEF746FF6D1EA563D9
:10578000206950B104F1100000F0A6F928B1C8F862
:105790000070BFF34F8FBFF36F8FFFF7E1FB012066
:1057A00006B0BDE8F087059808B11EB106E0FFF726
:1057B000D7FB27E06846FFF7B1FC0126FFF7D0FBD7
:1057C000FFF732FDFFF7ACFB94F94400401C01D118
:1057D00084F8449094F94500401C01D184F8459028
:1057E000FFF7BEFB05A9684600F02CF8002820460C
:1057F0000AD0FFF7DBF900F0A7F92046FFF76AF8B7
:105800000028B3D00020CBE7FFF764F890B104F193
:1058100024000599FFF790FC2046FFF7C7F900F038
:1058200093F90028A2D1C8F80070BFF34F8FBFF3DF
:105830006F8F9BE72046FFF7B9F900F085F995E7F0
:1058400004ED00E02DE9F0410C46050011D0C4B193
:10585000FFF766FB174BDA686E682068911B471CE0
:1058600017D02F681B6A9F4219D0964217D801247F
:1058700010E0502080F31188BFF34F8FBFF36F8F7C
:10588000FEE7502080F31188BFF34F8FBFF36F8F77
:10589000FEE70024FFF764FB2046BDE8F081884264
:1058A00005D9401A20602846FFF738FCF1E70020B0
:1058B0002060DCE7280000202DE9FF5F8346DDE95A
:1058C0000E87994616468A469000FFF7A5F905000F
:1058D0001CD05C20FFF7A0F9040014D00020256341
:1058E00084F85900CDE90240CDE900874B463246A5
:1058F00051465846FEF754FF2046FEF7F1FD0120C1
:1059000004B0BDE8F09F2846FFF73EFB4FF0FF30A4
:10591000F6E7F0B585B0DDE90B640A9DA6B1DCB110
:105920005C2700972663022684F85960002604AF9E
:10593000CDE90246CDE90057FEF732FF2046FEF7DB
:10594000CFFD049805B0F0BD502080F31188BFF35F
:105950004F8FBFF36F8FFEE7502080F31188BFF3A6
:105960004F8FBFF36F8FFEE70548416919B1006B98
:1059700018B10020704701207047022070470000D6
:10598000280000200148C06870470000280000205F
:105990002DE9F0412E4C0027206B28B1A069401C56
:1059A000A0613846BDE8F081E668761CE66013D158
:1059B000606B006838B1502080F31188BFF34F8FBF
:1059C000BFF36F8FFEE7606BA16B6163A063206A1A
:1059D000401C2062FFF76AF8A06ADFF878808642F0
:1059E00009D3606B0068A0B1606BC068C568686867
:1059F000864211D2A0622068C06A00EB800158F88C
:105A00002100012800D90127E0690028C9D0012719
:105A1000C7E74FF0FF30EDE7281DFFF725FAA86A2A
:105A200018B105F11800FFF71FFAE86A21698842EA
:105A300000D9206100EB800108EB8100291DFFF7F0
:105A400063FAE86A2168C96A8842CAD30127C8E7AD
:105A5000280000208401002070B504004FF00001F0
:105A600033D01B4D2868844207D0502080F3118822
:105A7000BFF34F8FBFF36F8FFEE7206D38B1401E2D
:105A80002065E36CE26A9A421FD040B11DE05020CD
:105A900080F31188BFF34F8FBFF36F8FFEE7201D98
:105AA000FFF7E2F9E06CE062C0F13800A061E06A63
:105AB0002969884200D92861064900EB800001EB82
:105AC0008000211DFFF720FA0121084670BD00006B
:105AD000280000208401002070B5C068C46854B15B
