:020000040800F2
:10000000C807002049020008CF180008551800084A
:10001000CD180008DD0C0008471B00080000000098
:10002000000000000000000000000000D3180008DD
:10003000DF0C000800000000D1180008D5180008E7
:1000400063020008630200086302000863020008FC
:1000500063020008630200086302000863020008EC
:1000600063020008630200086302000863020008DC
:1000700063020008630200086302000863020008CC
:100080006302000863020008630200080000000029
:1000900000000000000000000000000063020008F3
:1000A000630200086302000863020008630200089C
:1000B000630200086302000863020008630200088C
:1000C000630200086302000863020008630200087C
:1000D00063020008630200086302000800000000D9
:1000E00063020008630200086302000800000000C9
:1000F0000000000000000000000000006302000893
:1001000000000000630200086302000863020008A8
:1001100000000000000000000000000000000000DF
:10012000630200086302000863020008630200081B
:100130006302000800000000000000000000000052
:100140000000000000000000000000006302000842
:1001500063020008630200086302000863020008EB
:1001600063020008630200080000000000000000B5
:10017000000000000000000000000000000000007F
:100180000000000063020008000000000000000002
:10019000630200086302000800F002F800F044F86F
:1001A0000AA090E8000C82448344AAF10107DA45D2
:1001B00001D100F039F8AFF2090EBAE80F0013F0E0
:1001C000010F18BFFB1A43F0010318476C1A000017
:1001D0008C1A0000103A24BF78C878C1FAD85207A8
:1001E00024BF30C830C144BF04680C6070470000B1
:1001F0000023002400250026103A28BF78C1FBD830
:10020000520728BF30C148BF0B6070471FB501F0CF
:10021000FBFC9DE8030000F033FB00F011F91FBD6B
:1002200010B500F076F910BD00F0D9F91146FFF7CE
:10023000EDFF01F0D5FC00F0F1FA03B4FFF7F0FF99
:1002400003BC00F0AFFC00000948804709480047A4
:10025000FEE7FEE7FEE7FEE7FEE7FEE7FEE7FEE776
:10026000FEE7FEE704480549054A064B70470000D3
:100270006919000899010008C8010020C80700207A
:10028000C8030020C803002053EA020C00F0698074
:100290002DE9F04B4FF00006002B1FBFB3FA83F59A
:1002A00003FA05F424FA05F65E4012BF1643B2FACB
:1002B00082F502FA05F4C5F120051EBF22FA05FCFD
:1002C00044EA0C04203556EA044C4FEA144418BFA3
:1002D000641C4FF000084FF00009904271EB030CD2
:1002E00039D3002919BFB1FA81F701FA07F6B0FA3C
:1002F00080F700FA07F6C7F120071EBF20FA07FCB7
:1003000046EA0C062037B6FBF4FCA7EB0507103FC6
:1003100007F01F0BCBF120060CFA0BFB2CFA06F6AC
:1003200044BFB3460026202FA4BF5E464FF0000B0B
:100330005BEA060C08BF4FF0010B19EB0B09ABFB96
:10034000027C48EB0608C01B06FB02CC0BFB03CC6F
:1003500071EB0C01C1E70B46024641464846BDE839
:10036000F08B13B54FF000004FF00001AFF30080A9
:10037000BDE81C40704700000FB4044910B503AA43
:10038000029800F02FF810BC5DF814FBBC000020B0
:100390004FF0000200B5134694469646203922BF1E
:1003A000A0E80C50A0E80C50B1F12001BFF4F7AF69
:1003B000090728BFA0E80C5048BF0CC05DF804EB4B
:1003C000890028BF40F8042B08BF704748BF20F8B9
:1003D000022B11F0804F18BF00F8012B70477047B7
:1003E00070477047074B70B50D467B4400F011F81D
:1003F0000446284600F020F810B14FF0FF3070BDE1
:10040000204670BD7B17000001694A1C0261087814
:10041000704700B58FB0CDE9013100210591054944
:100420007944CDE903101146684600F024F90FB075
:1004300000BD0000E5FFFFFF007B00F0800070477B
:1004400010B542485421FFF7A3FF41485421FFF75C
:100450009FFF40485421FFF79BFF3F493B483C4AE0
:100460003F4B08603D490A603A491960531C0365D7
:10047000481C1065012008653B48344A39A178447E
:1004800000F030F920B9384878440A3800F0CFF944
:1004900037482F4A35A1784400F024F920B9344870
:1004A00078440A3800F0C3F932482A4A2FA1784428
:1004B00000F018F920B92F4878440A3800F0B7F94D
:1004C00040232248DC000021224600F0E8F820B159
:1004D00025487844543800F0AAF91D4822464023A4
:1004E000002100F0DCF820B121487844543800F0B5
:1004F0009EF9184822461023002100F0D0F8002869
:1005000006D01C487844BDE81040563800F08FB93A
:1005100010BD104870B5006D20F001040B4800F0CC
:1005200057F90B4800F054F90A4800F051F909E076
:10053000206D20F00105204600F04AF9204600F029
:1005400073F82C46002CF3D170BD00006800002029
:10055000BC00002010010020140000201800002022
:100560001C00002072000000A817000077000000A7
:1005700094170000801700000EB5CDE9000100F0CF
:10058000F1FA029069460120ABBE0EBD08B569467E
:1005900000900220ABBE08BD1FB58DE8070069467C
:1005A0000520ABBE04B010BD1FB58DE80F00694635
:1005B0000620ABBEF6E708B5694600900920ABBE41
:1005C00008BD1CB5CDE9000169460A20ABBE1CBDC3
:1005D000704708B5694600900C20ABBE08BD754653
:1005E00000F02CF9AE4605006946534620F007009E
:1005F000854618B020B5FFF735FEBDE820404FF026
:1006000000064FF000074FF000084FF0000B21F0FC
:100610000701AC46ACE8C009ACE8C009ACE8C009C9
:10062000ACE8C0098D46704770B50446051F00F060
:100630000BF90068002C14BF446870BD002C18BF73
:10064000AC423CBF20466468F8D301680A18AA424D
:1006500018BF456003D12A68054611440160286827
:100660004119A1421CBF6C6070BD6168696021685E
:100670000844286070BD2DE9F04106460024D6E903
:100680000170F5688046304603E04146B847641C77
:100690003046A8470028F8D12046BDE8F08170B563
:1006A000C468A50713D0650211D4B2F5807F09D0C4
:1006B000B2F5007F06D0B2F5806F08D1012300F1BA
:1006C000240106E05D1E6FF07F46B54201D3012094
:1006D00070BD0161C361416024F470611143C16068
:1006E000002070BD2DE9F0410C4607461646104625
:1006F00000F06EF82078611C61280AD0722802D0C0
:1007000077283CD102E00125002405E002250424DD
:1007100002E0082448F2020511F8010B2B2806D04C
:10072000622809D011F8010C74280AD00BE045F0BA
:10073000030544F00204EFE745F0040544F001042A
:10074000EAE744F0100438462146FFF715FF411C44
:1007500015D00021316171604FF40071F560F161D5
:100760007061200704D530460222002100F0E6F82F
:10077000306D40F0010030653046BDE8F08100206A
:10078000FBE72DE9F0410D460646104C206DC107F0
:1007900004D0410804D020F00104F7E722460EE01F
:1007A000542000F09CF807000ED0206D47F00101A6
:1007B0000843542120653846FFF7EAFD3A462946AA
:1007C0003046BDE8F0418DE70020D6E76800002004
:1007D0002DE9F04704464FF000094FF0FF37C56898
:1007E000D4E90486A80707D0204600F057F9304620
:1007F000FFF7CCFE002802DA3846BDE8F08728056E
:1008000002D54046FFF710FF4C212046FFF7C0FD00
:10081000206D20F0010020654846EEE710B5044643
:10082000AFF300802046BDE81040FFF706BD10B5CD
:1008300000F07EF9BDE8104000F074B90048704740
:100840006401002070470000004870476C010020E0
:10085000704770477047704738B504460A46002015
:100860006946AFF30080002808BF38BD02460099F2
:10087000204600F0A4F9012038BD012000F0F3B9B2
:10088000F8B5AFF30080054600200C46102000BFED
:100890000646A819A0420DD9324669460020AFF39A
:1008A0000080070008BF00F0DEF90098A04218BFE2
:1008B0000546C419FFF7C8FF05600746F01D20F084
:1008C00007004619284600F073F9B44208BFF8BD86
:1008D000A21B31463868BDE8F84000F070B970B529
:1008E0000646FFF7B1FF056806F10B0020F007048C
:1008F000B4429CBF002070BD2B466A68BAB1106834
:10090000A04210D304F1080188423CBF50685860EF
:1009100007D35168101941601168091B01605860C4
:100920001460101D70BD13465268002AE7D121469D
:100930002846FFF791FF0028DED170BD2DE9F04178
:10094000044616460D464769007B80072ED0384680
:10095000FFF731FE50BB3EB3012E02D0022E25D14F
:1009600004E0204600F045F905441DE03846FFF755
:1009700030FEE168002841F01001E16005DA204610
:1009800000F058F80120BDE8F081C9030BD562687A
:10099000E16A914200D81146A26911442269891A7C
:1009A000814200DD08460544002D01DA0220EAE715
:1009B000E16A6068E268814206D29103E06203D591
:1009C00022F4003141F01002A6690027AE4213DC88
:1009D000E16A814201D90B4600E0034603EB060CB5
:1009E0002369ACEB030CAC4506DD814201D98C4692
:1009F00000E084469C4505D1A760276042F02000B6
:100A0000A5620DE0AD1BE669AE1B8142A66000D970
:100A10000846C01A281A20605819606022F0200089
:100A200003490840E060002084F84870ABE700000C
:100A3000BFCFD7FFC16821F4001141F08001C16030
:100A400000218160016070472DE9F047814614461E
:100A50000E464FF0FF383248D5685769054209D035
:100A60003846A169FFF7ADFD002811DB2C48C043D3
:100A70000540E5602B46324649463846FFF78CFD77
:100A8000A16920F00042B21A11440028A16103D0EC
:100A90002046FFF7CFFF4046BDE8F08770B504461B
:100AA0000569C06A6168884200D80846E16821F497
:100AB0002011E160C90312D5A84208D02246411B8B
:100AC0002846FFF7C1FF10B14FF0FF3070BD002086
:100AD000E562C4E90150E06820F48030E060002065
:100AE00070BD10B50446C06820F02000E060A16A27
:100AF000A06988420DD02046FFF7D0FFE06820F4BF
:100B0000405040F01000E060A06AA0612069E062FF
:100B1000606044F24001E0688843E06010BD00007E
:100B200010000200002801D000F03CB8704700001F
:100B300010B5014602A000F07DF8012010BD0000B4
:100B400053494752545245443A205265646972658C
:100B500063743A2063616E2774206F70656E3A206B
:100B60000000000010B5431C02E010F8011B71B139
:100B70008107FAD14FF0013202C88C1A8C4314EA73
:100B8000C211F9D0C01A0A0603D0C01E10BDC01A87
:100B900010BD0A0401D0801E10BD0902FCD0401E09
:100BA00010BD000001491820ABBEFEE72600020080
:100BB00000210160C0E90110704710207047034612
:100BC00040688C46002818BF88423CBF03464068F6
:100BD000F8D318681844884207D00CF1030020F0BD
:100BE0000700001D411A521A0146081D0A60FFF74E
:100BF0001BBD10B50146C268900703D0900607D50B
:100C0000886A0AE000F03EF801210160881E10BDEC
:100C10008B69486818440B69C01A91F848301BB1B9
:100C200091F84910401A10BD1103FCD50028FADDD7
:100C3000401E10BD70B505460C460A2000E06D1C34
:100C400000F018F835B128780028F8D102E0641CCB
:100C500000F010F814B120780028F8D1BDE87040F9
:100C60000A2000F007B810B500F010F8BDE81040F9
:100C7000FFF758BF08B569468DF800000320ABBEEA
:100C800008BD0000004870476401002010B501282D
:100C900005D0002103A0FFF7CDFF012010BD09A161
:100CA000F8E7000053494752544D454D3A204F75DF
:100CB00074206F662068656170206D656D6F727954
:100CC000000000003A2048656170206D656D6F720C
:100CD0007920636F7272757074656400FEE7704707
:100CE00072B6FEE72DE9F04F0022DFF808B10126C9
:100CF0004FF00F0906FA02F401EA0403A34274D18B
:100D000022F003075F44D7F8088895074FEA157C5F
:100D100009FA0CFA0AEA0805DFF8DC80404502D13E
:100D20004FF000081DE0DFF8D480404502D14FF0BD
:100D3000010816E0DFF8C880404502D14FF00208F4
:100D40000FE0DFF8C080404502D14FF0030808E013
:100D5000DFF8B480404502D14FF0040801E04FF0C5
:100D6000070808FA0CF8A84522D1284DD5F800C08C
:100D70002CEA030CC5F800C02D1DD5F800C02CEAE4
:100D8000030CC5F800C0214D0C35D5F800C02CEA85
:100D9000030CC5F800C02D1FD5F800C02CEA030CC9
:100DA000C5F800C0D7F8085825EA0A05C7F808585A
:100DB000056857000323BB409D430560D50800EB41
:100DC0008505D5F820C057074FEAD76809FA08F714
:100DD0002CEA070CC5F820C0C5689D43C56045686E
:100DE000A543456084689C438460521C102A81D3CB
:100DF000BDE8F08F003001400000024000040240D6
:100E000000080240000C024000100240003C01407B
:100E10002DE9F84FDFF8B8A10022012403254FF097
:100E20000F090AF1040BAAF1040E00BF0B6804FAC3
:100E300002F63340B34273D10F7907F00307012F55
:100E400001D0022F16D187684FEA420805FA08FC44
:100E500027EA0C07D1F80CC00CFA08FC4CEA070C86
:100E6000C0F808C04768B7430E79C6F3001696402D
:100E70003E4346600E79F643B6070DD0C76856006C
:100E800005FA06FC27EA0C07D1F808C00CFA06FCA4
:100E90004CEA070CC0F80CC00E7906F00306022ECF
:100EA00010D1D60800EB8608D8F8206057074FEA23
:100EB000D76C09FA0CF7BE430F6907FA0CF73743F2
:100EC000C8F8207006684FEA420C05FA0CF7BE43DA
:100ED0000F7907F0030707FA0CF7374307604E68EE
:100EE00016F4403F6DD03B4E376847F4804737607B
:100EF000366822F0030706F480460096364E07EB6C
:100F0000060CDCF8086897073F0F09FA07F826EA8D
:100F10000806DFF8C880404503D14FF000081EE006
:100F20004FE0DFF8BC80404502D14FF0010816E0E9
:100F3000DFF8B080404502D14FF002080FE0DFF843
:100F4000A880404502D14FF0030808E0DFF89C80FC
:100F5000404502D14FF0040801E04FF0070808FABD
:100F600007F848EA0608CCF80888DAF8006057461F
:100F7000D1F804C09E435FEACC2C00D51E433E60EE
:100F8000DBF800605F46D1F804C09E435FEA8C2C1A
:100F900000D51E433E60DEF800607746D1F804C0FD
:100FA0009E435FEA8C3C00D51E433E60084F083FDD
:100FB0003E68D1F804C09E435FEACC3C00D51E4396
:100FC0003E60521C102AFFF431AFBDE8F88F0000DC
:100FD000083C01404438024000300140000002401B
:100FE0000004024000080240000C024000100240D1
:100FF00001488068704700000400002002488168B2
:101000000278114481607047040000200B4810B53D
:10101000016841F400710160016841F48061016080
:10102000016841F480710160032000F061F80F2035
:1010300000F006F800F024F8002010BD003C02404B
:1010400070B50D4D04464FF47A712878B1FBF0F07D
:101050000A490968B1FBF0F000F0FEFA48B9102C1B
:1010600007D200222146501E00F022F800206C60BA
:1010700070BD012070BD00000400002010000020A1
:101080000A4808B5016841F480410160006800F435
:10109000804000900548001F016841F080510160C8
:1010A000006800F08050009008BD00004438024005
:1010B000F0B40E4B1B680C46C3F30223C3F10705C3
:1010C000042D00D90425191D072901D2002300E0B1
:1010D000DB1E012606FA05F1491E214099409E407B
:1010E000761E16403143F0BC00F02EBD0CED00E042
:1010F000064900F0070208684FF6FF03184040EA6F
:101100000220034A10430860704700000CED00E025
:101110000000FA052DE9F0470E46050065D0DFF81E
:101120001481D8F80000F7B200F00700B04207D2EF
:1011300088F80070D8F8000000F00700B04254D1E1
:1011400028683D4C810712D5400703D5206840F43C
:10115000E05020602878000703D5206840F4604004
:1011600020602068A96820F0F000084320602878FB
:10117000C0072DD0304968680839012812D00228EC
:1011800013D0032811D00968890700292DDA2168B6
:1011900021F0030101432160FFF72AFF814641F25C
:1011A000883A0EE009688903EFE709688901ECE7EE
:1011B000FFF71EFFA0EB0901514502D90320BDE84E
:1011C000F0872068696800F00C00B0EB810FEFD168
:1011D000D8F80010404601F00701B14207D9077066
:1011E000006800F00700B04201D00120E7E728784E
:1011F000400705D52068E96820F4E05008432060E6
:101200002878000706D52068296920F4604040EA64
:10121000C100206000F038F82168084AC1F30311CA
:10122000515CC8400649086006480068FFF708FF9F
:101230000020C4E7003C024008380240121C0008AD
:1012400010000020080000200448054900680968D3
:10125000044AC1F38221515CC8407047100000204D
:1012600008380240221C0008044805490068096843
:10127000044AC1F34231515CC8407047100000205D
:1012800008380240221C0008154810B5006810F00C
:101290000C02144813D01449042A0FD0082A0ED186
:1012A0000F4C241F2268236802F03F025B0207D51F
:1012B0002068C0F38810A0FB010106E0084610BDBD
:1012C0002168C1F38811A1FB00010023FEF7DCFFB8
:1012D0002168C1F30141491C4900B0FBF1F010BD88
:1012E000083802400024F40040787D012DE9F84FD1
:1012F00004006ED02078DFF84C93C007A9F10405F4
:101300004AD009F104000168C1F38101012908D024
:101310000068C0F3810002280AD1D9F80000400219
:1013200006D52868800337D560680028E1D033E00F
:101330006068B0F5803F10D0B0F5A02F286810D0BD
:1013400020F480302860286820F4802028606068BD
:10135000A8B1FFF74DFE06460DE0286840F4803046
:10136000F4E740F480202860F7E700BFFFF740FE75
:10137000801B642873D828688003F7D50CE0FFF73A
:1013800037FE064605E000BFFFF732FE801B6428EB
:10139000F0D828688003F7D42078DFF8AC82800783
:1013A0004FF0000A3ED5A748001D016811F00C0F50
:1013B00008D00068C0F3810002280BD1D9F80000E2
:1013C000400207D42868800716D5E068012800D1BC
:1013D00012E033E1E068B8B10120C8F80000FFF77F
:1013E00007FE064605E000BFFFF702FE801B02284D
:1013F000C0D828688007F7D52868216920F0F80050
:1014000040EAC10028600DE0C8F800A0FFF7F0FD39
:10141000064604E0FFF7ECFD801B02281FD8286871
:101420008007F7D42078000722D5864F8748616966
:10143000703771B101210160FFF7DAFD064604E063
:10144000FFF7D6FD801B022809D838688007F7D53A
:101450000EE0C0F800A0FFF7CBFD064605E082E0F5
:10146000FFF7C6FD801B02287DD838688007F7D4B7
:101470002078400768D5DFF8CCB100270BF13C0B92
:10148000DBF80000C0000BD4DBF8001041F0805105
:10149000CBF80010DBF80000012700F0805000902E
:1014A0006B4E3068C00510D4306840F480703060F6
:1014B000FFF79EFD009005E0FFF79AFD0099401AA6
:1014C000022850D83068C005F6D55E4EA0686C364C
:1014D00001280FD00528306810D020F001003060BE
:1014E000306820F004003060A068B8B1FFF780FDDC
:1014F00000900FE0306840F00100F4E740F0040095
:101500003060F7E7FFF774FD0099411A41F2883027
:10151000814266D830688007F4D50EE0FFF768FD99
:10152000009007E0FFF764FD0099411A41F288300E
:10153000814256D830688007F4D42FB1DBF8001010
:1015400021F08051CBF80010A069C8B33D49091DB6
:101550000968C1F3810102294AD00228504607D008
:10156000C8F8600000E03CE0FFF742FD04463BE0C5
:101570004746C8F86000FFF73BFD064605E000BFA0
:10158000FFF736FD801B02282BD828688001F7D48E
:10159000D4E907010843A16A2E4A490802EB014138
:1015A000626A41EA8211084394F82C1040EA016112
:1015B000C9F8001001203866FFF71AFD044606E05E
:1015C0003EE000BFFFF714FD001B022809D8286881
:1015D0008001F7D534E000BFFFF70AFD001B0228A9
:1015E00002D90320BDE8F88F28688001F4D427E0F1
:1015F0000128F7D0D9F80000E26900F48001914297
:101600001CD1226A00F03F01914217D147F6C07108
:10161000626A0140B1EB821F10D1A26A4FF0FF3322
:1016200000F4403103EB5202B1EB024F06D194F8C3
:101630002C1000F07060B0EB016F01D00120D1E7F9
:101640000020CFE70438024000004742800E4742A6
:10165000007000400000FFFF10B5401EB0F1807F19
:1016600001D3012010BD4FF0E02460610F2160170D
:1016700000F06AFA0020A06107202061002010BD60
:1016800010B5040015D0242084F841002068C168FA
:1016900021F40051C160204600F040F80020606451
:1016A00084F8410084F8420044F8300F60602074F0
:1016B00010BD012010BD70B5040004D094F84100A5
:1016C000002510B106E0012070BD84F8405020468E
:1016D00000F03AF8242084F841002068C16821F421
:1016E0000051C160204600F06FF92068016921F4C3
:1016F000904101612068416921F02A01416120681F
:10170000C16841F40051C1606564202084F8410043
:1017100084F842006563002070BD0000006807493E
:10172000884209D10648016821F0100101604FF498
:10173000C0610448FFF7D6BA7047000000100140AE
:10174000443802400000024010B586B0044614211F
:101750006846FEF71DFE14492068884221D11348CF
:101760000021026842F010020260006800F01000E0
:1017700005900E481438026842F0010202600068C9
:1017800000F0010005904FF4C06000900220CDE908
:101790000101032003900720049069460448FFF7E5
:1017A00037FB06B010BD0000001001404438024075
:1017B000000002402DE9F843044690F841009846A5
:1017C00016460D46202802D00220BDE8F88385B1D8
:1017D0007EB100206064212084F84100FFF708FCFE
:1017E000A6848146E684A0682027B0F5805F02D0F9
:1017F00003E00120E9E7206910B12E4600250EE044
:1018000000260CE08021204600F064F9A8B9C6B19A
:1018100016F8010B21684860E08C401EE084E08CE3
:101820004B464FF00002CDF800800028EAD14FF07F
:101830004001204600F04EF940B184F84170032089
:10184000C3E735F8020BC0F30800E3E784F8417002
:101850000020BAE7FEE700000D4808B5016841F036
:1018600004010160016801F004010091016841F088
:1018700080010160016801F080010091016841F080
:1018800001010160006800F00100009008BD000047
:10189000303802400C4810B50A4901604FF4E1317C
:1018A0004160002181600C22C160C0E904128161A5
:1018B000C161FFF700FF002803D0BDE81040FFF72B
:1018C0000FBA10BD0010014020000020FEE7FEE727
:1018D00070477047FFF792BB30B593B03021684630
:1018E000FEF756FD14210CA8FEF752FD1C480025FA
:1018F000016841F080510160006800F08050119053
:101900001848016841F4404101600068022400F475
:101910004040119001200090000401908001CDE929
:1019200006400C2008906020CDE9090404200B90AB
:101930006846FFF7DBFC08B172B6FEE70CA90F2082
:1019400081E831004FF48050CDE90F0503210CA848
:10195000FFF7E0FB002801D072B6FEE713B030BD00
:1019600040380240007000400248016841F47001B4
:101970000160704788ED00E001680C3151E8002FEC
:1019800022F4907241E80023002BF5D10168143154
:1019900051E8002F22F0010241E80023002BF5D18D
:1019A000016B012909D101680C3151E8002F22F0A7
:1019B000100241E80023002BF5D1202180F84210CD
:1019C000002101637047000070B50446006801699A
:1019D000E26821F44051114301612169A068E26984
:1019E00008436169114308432168CA6849F20C63DE
:1019F0009A430243CA6020684169A26921F4407198
:101A00001143416131492068884202D030498842FF
:101A100002D1FFF729FC01E0FFF716FCE269002381
:101A2000192164253226B2F5004F626828D0A0FB48
:101A30000101930F9200FEF727FC0146B0FBF5F081
:101A40006FF01802504301EB800006EB0010B0FB72
:101A5000F5F000F0F002B1FBF5F002EB0012B1FB83
:101A6000F5F06FF01803584301EB800006EB00100F
:101A7000B0FBF5F000F00F0021681044886070BDE5
:101A8000A0FB010192185B41FEF7FEFB0146B0FB93
:101A9000F5F00201B1FBF5F06FF01803584301EBCC
:101AA000800006EBC000B0FBF5F000F0F80002EBA0
:101AB0004002B1FBF5F0584301EB800006EBC0009B
:101AC000B0FBF5F000F00700D6E700000010014081
:101AD000001401402DE9F843984617460D46044688
:101AE000089E24E0701C22D0FFF782FAA0EB0800C9
:101AF000B0421AD8CEB12068C168490717D5802DE9
:101B000015D0402D13D00168C94309070FD40168CF
:101B10000025406800902046FFF72EFF08206064F3
:101B200084F840500120BDE8F8830320FBE72068DB
:101B3000006835EA000004D00020B842D2D000206E
:101B4000F1E70120F9E7FEE70907090E002804DBA9
:101B500000F1E02080F80014704700F00F0000F161
:101B6000E02080F8141D704713B54FF0FF330122B9
:101B700069460248FFF71EFE00981CBD20000020A9
:101B800070B5104C002510A0FEF7F6FB6D1CADB231
:101B9000962DF8D30E48FFF773FD0E49002008601C
:101BA00072B620680C490840B0F1005F08D1606847
:101BB0000A490860216881F30888BDE87040004741
:101BC00070BD000000400008426F6F740D0A0000F5
:101BD000200000203C0E47420000FE2F00000020A5
:101BE000084910B54FF000600860FFF70FFAFFF7E3
:101BF00073FEFFF731FEFFF74DFEFFF7C1FF002038
:101C000010BD000008ED00E04FF04070E1EE100A5A
:101C100070470000000000000000010203040607F6
:101C2000080900000000010203043A7474003A74C9
:101C300074003A7474000000581C00080000002072
:101C400020000000D4010008781C000820000020BB
:101C5000A8070000F00100080000000001000000DB
:101C600010000000000000000024F400000000004C
:081C700000000000000000006C
:040000050800019955
:00000001FF
