:020000040800F2
:1000000098500020010300088F190008EF1700081E
:100010008D190008C3070008351D00080000000006
:100020000000000000000000000000004102000885
:10003000C5070008000000009D0200089119000893
:100040001B0300081B0300081B0300081B03000818
:100050001B0300081B030008C7070008CD070008A2
:100060001B0300081B0300081B0300081B030008F8
:100070001B0300081B0300081B0300081B030008E8
:100080001B0300081B0300081B03000800000000FE
:100090000000000000000000000000001B0300083A
:1000A0001B0300081B0300081B0300081B030008B8
:1000B0001B0300081B0300084D1A00081B0300085F
:1000C0001B0300081B0300081B0300081B03000898
:1000D0001B0300081B030008291D00080000000086
:1000E0001B0300081B0300081B030008000000009E
:1000F0000000000000000000000000001B030008DA
:10010000000000001B0300081B0300081B0300087D
:1001100000000000000000000000000000000000DF
:100120001B0300081B0300081B0300081B03000837
:100130001B03000800000000000000000000000099
:100140000000000000000000000000001B03000889
:100150001B0300081B0300081B0300081B03000807
:100160001B0300081B030008000000000000000043
:10017000000000000000000000000000000000007F
:10018000000000001B030008000000000000000049
:100190001B0300081B03000800F002F800F041F800
:1001A0000AA090E8000C82448344AAF10107DA45D2
:1001B00001D100F036F8AFF2090EBAE80F0013F0E3
:1001C000010F18BFFB1A43F0010318479C370000CA
:1001D000BC370000103A24BF78C878C1FAD852075B
:1001E00024BF30C830C144BF04680C6070470000B1
:1001F0000023002400250026103A28BF78C1FBD830
:10020000520728BF30C148BF0B607047732900F008
:100210007882002070471FB503F0F0FA1FBD10B5BB
:1002200010BD00F094FA1146FFF7F5FF01F0E2FD72
:1002300000F0B2FA03B4FFF7F2FF03BC00F0BAFA21
:100240002C4B19680868B0E8F04F80F30988BFF3B9
:100250006F8F4FF0000080F311887047000000009E
:1002600008480068006880F308884FF0000080F3B9
:10027000148862B661B6BFF34F8FBFF36F8F00DF94
:1002800000BF00BF08ED00E0DFF80C00016841F49A
:1002900070010160704700BF88ED00E0EFF3098056
:1002A000BFF36F8F134B1A681EF0100F08BF20EDBD
:1002B000108A20E9F04F106009B44FF0500080F32D
:1002C0001188BFF34F8FBFF36F8F02F049FD4FF0DE
:1002D000000080F3118809BC19680868B0E8F04F85
:1002E0001EF0100F08BFB0EC108A80F30988BFF32E
:1002F0006F8F70472C000020EFF3058070470000DF
:100300000948804709480047FEE7FEE7FEE7FEE7A9
:10031000FEE7FEE7FEE7FEE7FEE7FEE704480549E5
:10032000054A064B704700003D1A00089901000875
:10033000984A002098500020984C0020984C0020AB
:1003400053EA020C00F069802DE9F04B4FF00006F3
:10035000002B1FBFB3FA83F503FA05F424FA05F660
:100360005E4012BF1643B2FA82F502FA05F4C5F1F7
:1003700020051EBF22FA05FC44EA0C04203556EA8B
:10038000044C4FEA144418BF641C4FF000084FF0AF
:100390000009904271EB030C39D3002919BFB1FA5F
:1003A00081F701FA07F6B0FA80F700FA07F6C7F10D
:1003B00020071EBF20FA07FC46EA0C062037B6FBD2
:1003C000F4FCA7EB0507103F07F01F0BCBF120064D
:1003D0000CFA0BFB2CFA06F644BFB3460026202F7E
:1003E000A4BF5E464FF0000B5BEA060C08BF4FF05F
:1003F000010B19EB0B09ABFB027C48EB0608C01B99
:1004000006FB02CC0BFB03CC71EB0C01C1E70B46E6
:10041000024641464846BDE8F08B13B54FF0000058
:100420004FF00001AFF30080BDE81C4070470000B2
:100430000FB41CB5074B06AA7B446946009005988B
:1004400000F035F90020694600F044F91CBC5DF865
:1004500014FB0000990200002DE9F0410E4604460D
:10046000002020622046E168884730B3252805D067
:10047000D4E901219047206A401CF2E7E168204658
:1004800000278847050018D0A5F14100192802D897
:1004900020354FF400673246294620462760FFF793
:1004A000B5FE40B1012804D0F61D26F00706083637
:1004B000D8E7361DD6E72846DAE7206ABDE8F0819E
:1004C00070B50C460546012A05D02878800600D56F
:1004D000EA69002302E0012305E05B1C934202D29B
:1004E000E05C0028F9D1A869E618C01AA861286A5A
:1004F000184428622846AFF3008004E0D5E90121C2
:1005000014F8010B9047B442F8D32846AFF30080AB
:1005100070BD10B5431C02E010F8011B71B18107DA
:10052000FAD14FF0013202C88C1A8C4314EAC2117E
:10053000F9D0C01A0A0603D0C01E10BDC01A10BDE3
:100540000A0401D0801E10BD0902FCD0401E10BD5F
:10055000032A40F2308010F0030C00F0158011F8EF
:10056000013BBCF1020F624498BF11F801CB00F8C7
:10057000013B38BF11F8013BA2F1040298BF00F81B
:1005800001CB38BF00F8013B11F0030300F02580D8
:10059000083AC0F0088051F8043B083A51F804CBFF
:1005A000A0E80810F5E7121D5CBF51F8043B40F8C5
:1005B000043BAFF30080D20724BF11F8013B11F8D0
:1005C00001CB48BF11F8012B24BF00F8013B00F814
:1005D00001CB48BF00F8012B704710B5203AC0F09E
:1005E0000B80B1E81850203AA0E81850B1E8185034
:1005F000A0E81850BFF4F5AF5FEA027C24BFB1E871
:100600001850A0E8185044BF18C918C0BDE81040E1
:100610005FEA827C24BF51F8043B40F8043B08BFEA
:100620007047D20728BF31F8023B48BF11F8012BB1
:1006300028BF20F8023B48BF00F8012B704702F0AA
:10064000FF0343EA032242EA024200F060B84FF09F
:10065000000200B5134694469646203922BFA0E812
:100660000C50A0E80C50B1F12001BFF4F7AF09071E
:1006700028BFA0E80C5048BF0CC05DF804EB89000F
:1006800028BF40F8042B08BF704748BF20F8022B52
:1006900011F0804F18BF00F8012B7047704770476A
:1006A0007047000001694A1C02610878704700B574
:1006B0008FB0CDE901310021059105497944CDE99B
:1006C000031011466846FFF7C7FE0FB000BD0000DB
:1006D000E5FFFFFF0A6802F8010B0A60704710B5DA
:1006E000436913B1AFF3008001E0FFF7E9FE012099
:1006F00010BD127800F124010A7000224A70012214
:10070000EDE711684FF0FF32E9E74FF000020429EE
:10071000C0F0128010F0030C3FF49BAFCCF1040C3E
:10072000BCF1020F18BF00F8012BA8BF20F8022B64
:10073000A1EB0C01FFF78DBF5FEAC17C24BF00F87D
:10074000012B00F8012B48BF00F8012B70477546BC
:1007500000F02CF8AE4605006946534620F007002D
:10076000854618B020B5FFF7D9FDBDE820404FF011
:1007700000064FF000074FF000084FF0000B21F08B
:100780000701AC46ACE8C009ACE8C009ACE8C00958
:10079000ACE8C0098D46704710B50446AFF3008041
:1007A0002046BDE81040FFF745BD000000487047F7
:1007B000384A002001491820ABBEFEE7260002009F
:1007C0007047FEE77047012000F0A4B8022000F057
:1007D000A1B872B6FEE72DE9F0410446876D00F03E
:1007E000A3F9064694F835000025022806D080209B
:1007F000606584F834500120BDE8F081206801680C
:1008000021F0160101602068416921F080014161F9
:10081000206C08B9A06C20B12068016821F00801A3
:1008200001602068016821F0010101600CE000F026
:100830007BF9801B052807D920206065032084F8F8
:10084000350084F83450D7E720680068C007EED13F
:1008500094F85C103F208840B860012084F835008F
:1008600084F834500020C7E790F83510022903D0EF
:100870008021416501207047052180F8351000680E
:10088000016821F00101016000207047F8B50022E5
:1008900001271B4D1B491C4C4FF404134FF48816C1
:1008A0000092012807D0022829D18869B04214D1CA
:1008B00062708B6115E04868984202D122704E60E8
:1008C00003E0B04201D127704B600E490F4800F0A1
:1008D0002DF800236A460C490EE0984204D1677057
:1008E0008E610A2001F097FA06490948143100F098
:1008F0001DF800236A46611C286802F03BFCF8BD25
:100900000C0000203C0100201800002000000240E4
:1009100000040240044910B50A68024202D008608F
:10092000FFF7B4FF10BD0000143C01402DE9F84F63
:10093000DFF8B8A10022012403254FF00F090AF1C6
:10094000040BAAF1040E00BF0B6804FA02F6334050
:10095000B34273D10F7907F00307012F01D0022FA3
:1009600016D187684FEA420805FA08FC27EA0C0707
:10097000D1F80CC00CFA08FC4CEA070CC0F808C00F
:100980004768B7430E79C6F3001696403E4346606B
:100990000E79F643B6070DD0C768560005FA06FC77
:1009A00027EA0C07D1F808C00CFA06FC4CEA070C41
:1009B000C0F80CC00E7906F00306022E10D1D6083E
:1009C00000EB8608D8F8206057074FEAD76C09FA81
:1009D0000CF7BE430F6907FA0CF73743C8F82070CD
:1009E00006684FEA420C05FA0CF7BE430F7907F090
:1009F000030707FA0CF7374307604E6816F4403FC9
:100A00006DD03B4E376847F480473760366822F038
:100A1000030706F480460096364E07EB060CDCF81A
:100A2000086897073F0F09FA07F826EA0806DFF873
:100A3000C880404503D14FF000081EE04FE0DFF8CA
:100A4000BC80404502D14FF0010816E0DFF8B080CD
:100A5000404502D14FF002080FE0DFF8A880404582
:100A600002D14FF0030808E0DFF89C80404502D136
:100A70004FF0040801E04FF0070808FA07F848EAC9
:100A80000608CCF80888DAF800605746D1F804C0A8
:100A90009E435FEACC2C00D51E433E60DBF800602D
:100AA0005F46D1F804C09E435FEA8C2C00D51E43FC
:100AB0003E60DEF800607746D1F804C09E435FEAEE
:100AC0008C3C00D51E433E60084F083F3E68D1F87D
:100AD00004C09E435FEACC3C00D51E433E60521CDE
:100AE000102AFFF431AFBDE8F88F0000083C014048
:100AF000443802400030014000000240000402403F
:100B000000080240000C024000100240426921EA45
:100B100002030A4043EA0241816170470AB18161E0
:100B200070470904FBE70000014880687047000037
:100B30001C000020024881680278114481607047DF
:100B40001C0000200B4810B5016841F400710160E1
:100B5000016841F480610160016841F480710160C5
:100B6000032000F09FF80F2000F006F800F050F886
:100B7000002010BD003C024030B505461F4887B03C
:100B80000024016841F004010160006806A900F03A
:100B90000400009001A800F031F90498A8B100F019
:100BA0004DF940001649174AB0FBF1F11648491EAD
:100BB000026040F2E732C0E90324C0E90114846115
:100BC00000F046FB040003D015E000F037F9E9E738
:100BD0000D4800F06BFB04000DD11E2000F034F82E
:100BE000102D07D2002229461E2000F03BF80748AE
:100BF000056000E0012407B0204630BD40380240C7
:100C000040420F0000080040F400002020000020B7
:100C10000C4882B0016841F480410160006800F432
:100C2000804000900748001F016841F0805101603A
:100C30000068002200F0805000900F21901E02B04A
:100C400000F010B844380240002809DB00F01F0211
:100C5000012191404009800000F1E020C0F800111E
:100C600070470000F0B40E4B1B680C46C3F3022320
:100C7000C3F10705042D00D90425191D072901D248
:100C8000002300E0DB1E012606FA05F1491E214083
:100C900099409E40761E16403143F0BC01F04BB89F
:100CA0000CED00E0064900F0070208684FF6FF036C
:100CB000184040EA0220034A1043086070470000D1
:100CC0000CED00E00000FA052DE9F0470E460500A6
:100CD00065D0DFF81481D8F80000F7B200F0070003
:100CE000B04207D288F80070D8F8000000F0070082
:100CF000B04254D128683D4C810712D5400703D536
:100D0000206840F4E05020602878000703D5206870
:100D100040F4604020602068A96820F0F00008439B
:100D200020602878C0072DD030496868083901282C
:100D300012D0022813D0032811D00968890700298E
:100D40002DDA216821F0030101432160FFF7ECFE59
:100D5000814641F2883A0EE009688903EFE70968A5
:100D60008901ECE7FFF7E0FEA0EB0901514502D94C
:100D70000320BDE8F0872068696800F00C00B0EB44
:100D8000810FEFD1D8F80010404601F00701B142C1
:100D900007D90770006800F00700B04201D00120B9
:100DA000E7E72878400705D52068E96820F4E05097
:100DB000084320602878000706D52068296920F4B8
:100DC000604040EAC100206000F058F82168084AFD
:100DD000C1F30311515CC840064908600648006829
:100DE000FFF7CAFE0020C4E7003C0240083802407A
:100DF000F638000828000020200000200F220260A2
:100E00000C4A136803F003034360136803F0F00314
:100E10008360136803F4E053C36012684FF4E05337
:100E200003EAD20202610448006800F0070008608B
:100E30007047000008380240003C02400448054961
:100E400000680968044AC1F38221515CC8407047B8
:100E500028000020083802400639000804480549E7
:100E600000680968044AC1F34231515CC8407047C8
:100E7000280000200838024006390008154810B53F
:100E8000006810F00C02144813D01449042A0FD043
:100E9000082A0ED10F4C241F2268236802F03F025B
:100EA0005B0207D52068C0F38810A0FB010106E0B3
:100EB000084610BD2168C1F38811A1FB0001002381
:100EC000FFF73EFA2168C1F30141491C4900B0FB1C
:100ED000F1F010BD083802400024F40040787D0194
:100EE0002DE9F84F04006ED02078DFF84C93C0074E
:100EF000A9F104054AD009F104000168C1F3810198
:100F0000012908D00068C0F3810002280AD1D9F86D
:100F10000000400206D52868800337D560680028A5
:100F2000E1D033E06068B0F5803F10D0B0F5A02F7D
:100F3000286810D020F480302860286820F48020B1
:100F400028606068A8B1FFF7EFFD06460DE028684D
:100F500040F48030F4E740F480202860F7E700BFD9
:100F6000FFF7E2FD801B642873D828688003F7D55B
:100F70000CE0FFF7D9FD064605E000BFFFF7D4FD02
:100F8000801B6428F0D828688003F7D42078DFF825
:100F9000AC8280074FF0000A3ED5A748001D0168CB
:100FA00011F00C0F08D00068C0F3810002280BD1AB
:100FB000D9F80000400207D42868800716D5E068F9
:100FC000012800D112E033E1E068B8B10120C8F88F
:100FD0000000FFF7A9FD064605E000BFFFF7A4FDEE
:100FE000801B0228C0D828688007F7D528682169A7
:100FF00020F0F80040EAC10028600DE0C8F800A029
:10100000FFF792FD064604E0FFF78EFD801B0228E5
:101010001FD828688007F7D42078000722D5864F8C
:1010200087486169703771B101210160FFF77CFD6C
:10103000064604E0FFF778FD801B022809D83868CF
:101040008007F7D50EE0C0F800A0FFF76DFD06465B
:1010500005E082E0FFF768FD801B02287DD8386834
:101060008007F7D42078400768D5DFF8CCB1002797
:101070000BF13C0BDBF80000C0000BD4DBF80010D8
:1010800041F08051CBF80010DBF80000012700F0A0
:10109000805000906B4E3068C00510D4306840F42A
:1010A00080703060FFF740FD009005E0FFF73CFDE9
:1010B0000099401A022850D83068C005F6D55E4E17
:1010C000A0686C3601280FD00528306810D020F0B9
:1010D00001003060306820F004003060A068B8B1D2
:1010E000FFF722FD00900FE0306840F00100F4E7C8
:1010F00040F004003060F7E7FFF716FD0099411A51
:1011000041F28830814266D830688007F4D50EE01D
:10111000FFF70AFD009007E0FFF706FD0099411A6E
:1011200041F28830814256D830688007F4D42FB11C
:10113000DBF8001021F08051CBF80010A069C8B393
:101140003D49091D0968C1F3810102294AD00228DD
:10115000504607D0C8F8600000E03CE0FFF7E4FC30
:1011600004463BE04746C8F86000FFF7DDFC064652
:1011700005E000BFFFF7D8FC801B02282BD82868A9
:101180008001F7D4D4E907010843A16A2E4A49082F
:1011900002EB0141626A41EA8211084394F82C1083
:1011A00040EA0161C9F8001001203866FFF7BCFC75
:1011B000044606E03EE000BFFFF7B6FC001B022835
:1011C00009D828688001F7D534E000BFFFF7ACFCF0
:1011D000001B022802D90320BDE8F88F286880018F
:1011E000F4D427E00128F7D0D9F80000E26900F430
:1011F000800191421CD1226A00F03F01914217D137
:1012000047F6C071626A0140B1EB821F10D1A26A39
:101210004FF0FF3300F4403103EB5202B1EB024FC9
:1012200006D194F82C1000F07060B0EB016F01D083
:101230000120D1E70020CFE70438024000004742F8
:10124000800E4742007000400000FFFF704770476B
:1012500010B5040003D094F83D0010B107E0012060
:1012600010BD002084F83C00204600F01EF802204B
:1012700084F83D00211D206800F0EEFB012084F879
:10128000460084F83E0084F83F0084F8400084F86B
:10129000410084F8420084F8430084F8440084F854
:1012A000450084F83D00002010BD704790F83D10C7
:1012B000012901D001207047022180F83D1001680A
:1012C000CA6842F00102CA6000680E4988420ED026
:1012D000B0F1804F0BD00C49884208D00B498842AE
:1012E00005D00B49884202D00A49884204D181685E
:1012F00001F00701062903D0016841F001010160F6
:101300000020704700000140000400400008004039
:10131000000C00400040014070472DE9F0410446B8
:101320000068C66805694FF00007A90713D5B10723
:1013300011D5F91E0161012020772068806980079E
:10134000204602D0FFF7E8FF04E000F07EF82046D8
:1013500000F07CF82777680716D5700714D5216848
:101360006FF004000861022020772068806910F483
:10137000407F204602D0FFF7CFFF04E000F065F881
:10138000204600F063F82777280715D5300713D5D6
:1013900021686FF008000861042020772068C06988
:1013A0008007204602D0FFF7B7FF04E000F04DF8B9
:1013B000204600F04BF82777E80616D5F00614D53E
:1013C00021686FF010000861082020772068C0694C
:1013D00010F4407F204602D0FFF79EFF04E000F0AB
:1013E00034F8204600F032F82777E80708D0F007F5
:1013F00006D021686FF001000861204600F028F84F
:10140000280608D5300606D521686FF080000861EF
:101410002046FFF71BFF680608D5700606D5216831
:101420006FF040000861204600F01CF8A8060AD5BD
:10143000B00608D521686FF0200008612046BDE89D
:10144000F041FFF704BFBDE8F0817047704700002E
:1014500000680349884201D1FFF76CBB7047000068
:10146000000800407047704770470000F8B50168F9
:1014700004460868CA684B6910F00F0F4FF000056A
:1014800059D003F0010602F49077374365D0C107C5
:1014900005D0D10503D5616C41F0010161644107BC
:1014A00005D5D90703D0616C41F002016164810761
:1014B00005D5D90703D0616C41F0040161640107CF
:1014C00007D502F02001314303D0616C41F00801DF
:1014D0006164616C00293AD0800604D5900602D57B
:1014E000204600F03AFB20684069616CC0F3801030
:1014F000090700D460B3204600F008FB206840696B
:10150000400621D52068143050E8001F21F040012A
:1015100040E80012002AF5D1E06BA8B16E490165E0
:10152000E06BFFF7A1F9002811D0E06B016D01B06D
:10153000BDE8F040084783060FD593060DD5204639
:10154000BDE8F84000F009BB2046FFF78DFFF8BD6D
:101550002046FFF789FF6564F8BD266B2023012E26
:101560007DD1C6067BD5D60679D508684868009037
:1015700048694FF00206400641D5E16B08684068B3
:101580000004000CE8D0A28D8242E5D9E085C8694C
:10159000B0F5807F2DD020680C3050E8001F21F47A
:1015A000807140E80012002AF5D12068143050E81C
:1015B000001F21F0010140E80012002AF5D1206847
:1015C000143050E8001F21F0400140E80012002ACA
:1015D000F5D184F84230256320680C3050E8001FB4
:1015E00021F0100140E80012002AF5D1E06BFFF76E
:1015F000F2F86663A08DE18D401A81B22AE0A08DD9
:10160000E18D401A81B2E08D0028A5D00029A3D039
:1016100022680C3252E8000F20F4907042E8000774
:10162000002FF5D12068143050E8002F22F001027D
:1016300040E80027002FF5D184F842302563206868
:101640000C3050E8002F22F0100240E80023002B5D
:10165000F5D166632046FFF706FFF8BDFFE70506F4
:101660002BD5150629D594F841002128F5D1A0687D
:10167000B0F5805F01D12069B0B1206A411C2162C0
:10168000216800784860E08C401E0004000CE08473
:10169000E3D12068C16821F08001C1602068C16881
:1016A00041F04001C160D8E7206A0088C0F308001B
:1016B0004860206A801C2062E5E74006CDD55006D0
:1016C000CBD5CA68204622F04002CA6084F8413077
:1016D00000F08CF8C1E70000FD1A000870B50400A6
:1016E00004D094F84100002510B106E0012070BD3F
:1016F00084F84050204600F023F8242084F841006C
:101700002068C16821F40051C160204600F086FACB
:101710002068016921F4904101612068416921F04C
:101720002A0141612068C16841F40051C1606564CB
:10173000202084F8410084F842006563002070BDD9
:1017400010B586B0044614216846FEF780FF17499D
:101750002068884228D116480021026842F40032ED
:101760000260006800F400300590114810380268EB
:1017700042F001020260006800F0010005900C20B8
:1017800000900220CDE9010103200390072004907E
:1017900069460848FFF7CAF8002209212620FFF70A
:1017A00061FA2620FFF750FA06B010BD0044004051
:1017B0004038024000000240704790F84130202B32
:1017C00001D00220704779B172B101628284C28473
:1017D00000214164212180F841100068C16841F076
:1017E0008001C16000207047012070477047FEE70C
:1017F00010B5154A01210A2000F048FB134C124A8B
:101800000121E06018320A2000F040FB0E4A2061FE
:1018100030320121082000F039FB0B4A60616C3A3C
:1018200000210B4800F05EFB074A2060483A002187
:10183000084800F057FB044A6060243A002106483B
:1018400000F050FBA06010BD7438000800000020BC
:101850000D2800086D280008E52800082DE9F04152
:1018600086B014216846FEF7F2FE36484FF00008B5
:10187000016841F004010160016801F00401059173
:10188000016841F080010160016801F0800105916B
:10189000016841F001010160016801F00101059159
:1018A000016841F0020101600068274E00F002006B
:1018B0004FF400540590002221463046FFF72EF9E0
:1018C000224F4FF4C055002229463846FFF726F92B
:1018D0001120CDE900400124CDE902486946304697
:1018E000FFF724F84FF40410CDE90040694638466C
:1018F0000294FFF71BF802204FF48811CDE9000194
:10190000029069461248FFF711F80320CDE9024022
:10191000CDE9005469463846FFF708F80022072150
:101920000620FFF79FF90620FFF78EF90721002216
:101930000846FFF797F90720FFF786F906B0BDE8DC
:10194000F0810000303802400008024000000240F0
:10195000000402400C4810B50A4901604FF4E1311F
:101960004160002181600C22C160C0E904128161E4
:10197000C161FFF7B3FE002803D0BDE81040FEF7B9
:1019800028BF10BD00440040AC000020FEE7FEE789
:1019900010B54FF0E020006901F07AFD012803D076
:1019A000BDE8104001F088BA10BD000030B593B01A
:1019B00030216846FEF74BFE14210CA8FEF747FEC7
:1019C0001C480025016841F080510160006800F06A
:1019D000805011901848016841F44041016000684E
:1019E000022400F440401190012000900004019076
:1019F0008001CDE906400C2008906020CDE9090463
:101A000004200B906846FFF76BFA08B172B6FEE748
:101A10000CA90F2081E831004FF48050CDE90F056B
:101A200003210CA8FFF750F9002801D072B6FEE799
:101A300013B030BD403802400070004002480168D9
:101A400041F470010160704788ED00E00148FFF744
:101A500064BC0000F4000020F0B50268204B214C6B
:101A60009F03214D214E984207D0B84205D0A04295
:101A700003D0A84201D0B04204D122F0700C4A68D1
:101A800042EA0C02984210D0B8420ED0A0420CD0CC
:101A9000A8420AD0B04208D0154CA04205D0154C3F
:101AA000A04202D0144CA04203D122F44074CA6870
:101AB00022434C6922F08002224302608A68C2629B
:101AC0000A688262984201D109690163012141617A
:101AD0000169C90703D0016921F001010161F0BD6D
:101AE000000001400004004000080040000C0040DD
:101AF00000400140004401400048014010B5806BA7
:101B00000021C185C184FFF7AFFC10BD01680C3115
:101B100051E8002F22F4907241E80023002BF5D108
:101B20000168143151E8002F22F0010241E800233E
:101B3000002BF5D1016B012909D101680C3151E865
:101B4000002F22F0100241E80023002BF5D12021C4
:101B500080F8421000210163704708B590F84210E8
:101B6000222901D0022008BD82684FF480539A4296
:101B700001D1016921B1816A9A421BD04AB10AE0C0
:101B80000268816A5268C2F308020A80816A891C6D
:101B900008E0026972B10268526802F07F020A70BE
:101BA000816A491C8162C18D491E0904090CC185E5
:101BB00003D01BE002685268F1E70168CA6822F0AE
:101BC0002002CA600168CA6822F48072CA60016893
:101BD0004A6922F001024A61202180F84210002166
:101BE0004163026B012A03D0FFF7E6FD002008BD28
:101BF000016301680C3151E8002F22F0100241E826
:101C00000023002BF5D101680A68D20602D50A68C4
:101C100049680091818DFFF726FCE7E770B504461F
:101C200000680169E26821F44051114301612169B2
:101C3000A068E26908436169114308432168CA68E2
:101C400049F20C639A430243CA6020684169A26961
:101C500021F440711143416131492068884202D02A
:101C60003049884202D1FFF7F9F801E0FFF7E6F8C2
:101C7000E2690023192164253226B2F5004F62681B
:101C800028D0A0FB0101930F9200FEF759FB0146FB
:101C9000B0FBF5F06FF01802504301EB800006EB4B
:101CA0000010B0FBF5F000F0F002B1FBF5F002EB34
:101CB0000012B1FBF5F06FF01803584301EB800000
:101CC00006EB0010B0FBF5F000F00F0021681044A7
:101CD000886070BDA0FB010192185B41FEF730FBEC
:101CE0000146B0FBF5F00201B1FBF5F06FF018030F
:101CF000584301EB800006EBC000B0FBF5F000F0AC
:101D0000F80002EB4002B1FBF5F0584301EB800014
:101D100006EBC000B0FBF5F000F00700D6E70000CE
:101D200000100140001401400148FFF79FBB000074
:101D3000AC000020FEE70907090E002804DB00F1D3
:101D4000E02080F80014704700F00F0000F1E02060
:101D500080F8141D7047000010B50C4C01204FF4A2
:101D60000411C4E90001A06021460948FEF7DEFD28
:101D700002204FF48811C4E90501E06104F1140167
:101D8000BDE810400348FEF7D1BD00003C01002033
:101D9000000002400004024038B5FEF7C5FE144CB6
:101DA000054664226946206801F044FA012802D100
:101DB0009DF8000028B101F079FB401BC828F0D342
:101DC00013E0FEF7B1FE054664226946206801F083
:101DD00031FA0028F8D09DF8000030B1FEF7A4FEDB
:101DE000401B142801D9012038BD002038BD000057
:101DF0000C000020FEF7A6FEFFF7D8FDFFF72EFD32
:101E0000FFF7A8FDFFF7A8FF00F012F8FFF7F0FCBE
:101E100000F020F8FEE710B5EFF3058111B16FF087
:101E2000050403E0002408B100F0E6FE204610BDE2
:101E3000EFF3058010B16FF00500704704480168AA
:101E400011B14FF0FF307047012101600020704751
:101E50007C00002010B5EFF3058010B16FF0050095
:101E600010BD08480168012902D04FF0FF3010BDB5
:101E7000054A002182F8141D0221016000F024FFB0
:101E8000002010BD7C0000200BE000E0F8B51446F7
:101E90004FF00005EFF3058212BB08B301B3A4B104
:101EA000D4E9023263B1502A1AD32269C2B16769F8
:101EB00000FB01F6B74213D3009501F034F807E0B8
:101EC00072B9226962B9626952B9002201F00AF856
:101ED000050005D00CB1216800E0002100F056FE9D
:101EE0002846F8BD2DE9FF414FEA01034FF00005F8
:101EF000EFF30581039549BB40B3802718210024E7
:101F00004AB3166806B1344696691EB13146761E4C
:101F1000382E02D21679F60703D0002004B0BDE8AF
:101F2000F081566906B1B708D2F808C0BCF1000FBD
:101F30000DD0D5685C2D18D312693AB136B18DE851
:101F400006103A46214601F078FA03900DE0D66873
:101F50005EB912694AB903AACDE90012BAB22146A4
:101F600001F03EFA012800D003950398D6E700005F
:101F70002DE9F041134C0F460546E6682068001D28
:101F800000F006FD681C07D137B12168BDE8F041BB
:101F90000D48091D00F04CBD20683544B542456030
:101FA000216805D2A06BBDE8F041091D00F028BDF5
:101FB000606B091D00F024FDA06A854200D2A56275
:101FC000BDE8F0812C000020540600202DE9F041EE
:101FD000054600F039FD2D4CA068401CA06020682B
:101FE0002B4F10B1606930B32BE02560A068012849
:101FF00027D1002606EB860007EB800000F0F2FCFC
:10200000761C382EF6D3234800F0ECFC214814301F
:1020100000F0E8FC1F48283000F0E4FC1D483C308C
:1020200000F0E0FC1B48503000F0DCFC1948606315
:102030001430A06305E02068E96AC06A884200D8CD
:102040002560606A401C60626864E86A21698842B1
:1020500000D9206100EB800007EB8000291D00F013
:10206000E7FC00F011FD606900280CD02068E96AE7
:10207000C06A884207D208494FF080500860BFF319
:102080004F8FBFF36F8FBDE8F08100002C00002060
:10209000A40100200406002004ED00E038B500F0A3
:1020A000D3FC104C2068C8B90F4800F09BFC0E48C8
:1020B000143000F097FC0C48E060143020610A4BAB
:1020C0000020F03B009003F1500210210A2000F0A4
:1020D0002AFF206010B105A100F058FDBDE838408E
:1020E00000F0D2BC6800002058070020546D7251E7
:1020F0000000000030B4026C0B46002A0BD0C1680F
:102100001144C1608468A14201D30168C16030BC40
:102110001846FEF71DBA30BC70472DE9F041856BBB
:10212000174604460026026C82B1C7B1E068FEF78C
:102130000FFAE168206C091AE1602268914202D22C
:10214000A168081AE060022F16D017E02068A8B92D
:10215000A06801F015FA06460020A0600EE0606855
:10216000FEF7F6F9216C606808446060A168884257
:1021700004D32068606001E005B16D1E6D1CA5638D
:102180003046BDE8F08110B5044690F8590058B1CA
:1021900001280CD002280FD0502080F31188BFF303
:1021A0004F8FBFF36F8FFEE7206B00F081FC20465E
:1021B000BDE8104000F07CBC10BD000010484FF49A
:1021C0007051420706D0C01D0D4920F00700411A8A
:1021D000C1F570510B4A00230144C2E900030839DC
:1021E000183A21F0070111604B600B600B1AC0E92F
:1021F000001393604FF0004053605061704700003F
:10220000380E002098000020144E154CA6F29C4772
:102210004FF08058DFF84C9012E000BF00F014FC43
:10222000F068C568281D00F0B3FBA068401EA060E0
:102230006068401E606000F027FC2846FFF7A3FF9F
:1022400060680028EAD138680128F9D9C9F8008007
:10225000BFF34F8FBFF36F8FF2E7000040060020FF
:102260002C00002004ED00E070B51D46049C51B127
:10227000C4F80020C4E90F010121204600F086FEC9
:1022800084F84C5070BD2460F4E700002DE9F05F45
:102290008846DDE90B941546834691009A460A9ECE
:1022A000A522206BFEF7CBF96FF00301206B01EB49
:1022B0008501084420F00707780707D0502080F3F5
:1022C0001188BFF34F8FBFF36F8FFEE70025B8F182
:1022D000000F0FD05FF00000221818F8001082F8ED
:1022E000341018F8001011B1401C1028F4D384F8F1
:1022F000435001E084F83450382E00D33726E6628C
:10230000C4E91365201D00F078FB04F1180000F00B
:1023100074FB2461C6F138006462A061656584F8CD
:10232000585052465946384600F05AFA2060B9F1E2
:10233000000F01D0C9F80040BDE8F09F30B5114949
:1023400000E011460A688242FBD34B685C18844265
:1023500003D1406818444860084643681C189442FA
:1023600009D1084C183C2468A24209D052681A448A
:1023700042600A6812680260814200D0086030BD85
:102380000460F9E79800002070B5002441600B4D0F
:102390000061914206D8D11A8269914206D2011D8C
:1023A000286907E09A4203D2994201D3012403E04D
:1023B000011DE86800F024FB204670BD6800002085
:1023C00010B5044600F040FBA06B28B15FF000049C
:1023D00000F05AFB204610BD0124F9E730B589B062
:1023E0003C4D6EE00498002806DADDE90601059A06
:1023F00090470498002864DB069C606910B1201D9A
:1024000000F0C6FA03A800F0D7F8024604980A289C
:1024100057D2DFE800F00505052D334A05052D33B9
:1024200094F8280040F0010084F828000599A0697C
:10243000059B01442046FFF7A7FF68B3216A2046A9
:10244000884794F8280040073BD500200090059865
:10245000A169002342181946204601F09BF9D8B91A
:10246000502080F31188BFF34F8FBFF36F8FFEE7CB
:1024700014F8280F20F00100207022E094F82800C2
:1024800040F0010084F828000598A06128B1811867
:1024900013462046FFF778FF13E0502080F31188A1
:1024A000BFF34F8FBFF36F8FFEE794F828008107CB
:1024B00003D4204600F0FCFA03E020F0010084F889
:1024C0002800002204A9286800F0B4FE002889D161
:1024D00009B030BD680000202DE9FC410F460546DB
:1024E00000F036FC01A800F067F80446019818B126
:1024F00001F0BEF8BDE8FC81254EAFB1306900683F
:10250000D0B30027291B3A46306800F053FB01F096
:10251000AFF80028EED11F494FF080500860BFF39C
:102520004F8FBFF36F8FE5E7A542EBD801F0A0F81E
:10253000F0682746C068C468201D00F029FA94F8A6
:102540002800410719D5A0692B4641193A46204673
:10255000FFF71AFFA8B100200346014600902A4663
:10256000204601F017F960B9502080F31188BFF3BD
:102570004F8FBFF36F8FFEE707E020F0010084F874
:102580002800216A20468847B4E70127BAE70000FF
:102590006800002004ED00E00648416B096829B19D
:1025A000416BC968C9684968816270474FF0FF3163
:1025B000FAE700002C00002070B5054600F076FF19
:1025C000064E0446B068844203D200F009F80120A8
:1025D00000E0002028602046B46070BD6800002044
:1025E000F8B5194D20E0C068C4680668201D00F0E9
:1025F000CFF9216A2046884794F82800400713D570
:10260000A0693044B04206D924616060211DE868A9
:1026100000F0F6F908E0002003460146009032463B
:10262000204601F0B7F838B1E86801680029DAD12E
:102630002969C5E90310F8BD502080F31188BFF364
:102640004F8FBFF36F8FFEE7680000200848406897
:10265000401C4FF0500080F3118804D0BFF34F8F1F
:10266000BFF36F8FFEE7BFF34F8FBFF36F8FFEE7B0
:10267000A0000020074CE068016841B1C06800215B
:10268000D0F80000FFF728FFFFF7A8FEF3E70121CD
:102690000020F7E7680000202DE9F041044600F033
:1026A000D3F994F9455004F1240609E0606A48B171
:1026B000304600F0A5FF08B100F0CCFA6D1E6DB2F7
:1026C000002DF3DC4FF0FF3684F8456000F0DCF9B4
:1026D00000F0BAF994F9445004F1100709E02069B8
:1026E00048B1384600F08CFF08B100F0B3FA6D1E17
:1026F0006DB2002DF3DC84F84460BDE8F04100F0D9
:10270000C3B900002DE9F0410546002700F020FB89
:10271000324E306808B9FFF751FD706905424ED15D
:10272000C5B3083568070ED005F00700C0F10800F2
:102730000544680707D0502080F31188BFF34F8FFE
:10274000BFF36F8FFEE72DB37068854237D82348FB
:10275000183001460C6801E020460C466168A94229
:1027600002D221680029F7D131688C4227D007684E
:102770002168016060680837411B10290FD9601972
:10278000420708D0502080F31188BFF34F8FBFF36A
:102790006F8FFEE713E041606560FFF7CFFD616872
:1027A0007068401A7060B268904200D2B060706980
:1027B00001430020C4E90001F068401CF06000F013
:1027C00057FF780707D0502080F31188BFF34F8F51
:1027D000BFF36F8FFEE73846BDE8F0818000002030
:1027E00010B5031F4FF080741C601B1F21F0010106
:1027F0001960191F044B0B6014390A60091F6FF030
:10280000020244380A6010BD4D260008144C08B579
:10281000E614144D4FF48059B700DFF84C8001E006
:10282000032819D064226946686900F003FD012875
:10283000F8D19DF80000012809D002280AD0032809
:10284000F0D149464FEA0400FEF760F9EAE70320B9
:102850000228E5D13146F5E739464046F4E7000065
:102860000000024000000020000802401CB50025C6
:102870001B4E8DF8005000BF9DF8000030B10128BC
:1028800020D0022823D0032827D120E0642201A9E8
:10289000F06800F0CFFC0128EED19DF8040048B1AB
:1028A000FEF742F9041B142CE6D9B4F52F7F05D3AB
:1028B000022004E0FEF738F90446DDE701208DF838
:1028C0000000D9E7FFF768FA08B10320F7E7002313
:1028D00064226946306900F09DFB8DF80050CBE71B
:1028E000000000209EB000248DF8704028221D4971
:1028F0000DA8FDF772FE1B491422283117A8FDF719
:102900006CFE194D9DF8700030B101280AD00228E4
:1029100024D003281FD108E064221CA9286900F0F4
:1029200089FCEFE717AB0DAA03E00DF162030DF18F
:1029300041020EA16846FDF77BFD002364221CA91D
:10294000686900F067FB6846FDF7E3FD82B26946FF
:102950000E48FEF732FF8DF87040D3E71AAB0DF149
:102960004E02E6E7BC3800080000002069742773B7
:1029700020612025732C204C454420257320746F42
:1029800067676C696E672E200A000000AC000020AB
:10299000D0E9013201699A60D0E901235A604A689E
:1029A000824201D182684A60002202610868401EAA
:1029B0000860086870470000034B036003F15C0087
:1029C000086080201060704780070020044B03607F
:1029D00003F15C0008604FF48070106070470000E5
:1029E000DC09002000F108014FF0FF32C0E90112BC
:1029F000C1600161002101607047002101617047E1
:102A000030B50B685A1C02D000F1080202E00269DE
:102A100004E02246546825689D42FAD953684B6009
:102A200099608A60516008610168491C016030BD8D
:102A300042684A6093688B6093685960916008614E
:102A40000168491C01607047502080F31188BFF372
:102A50004F8FBFF36F8F0A494868401C48600128B8
:102A60000CD10848006810F0FF0F07D0502080F309
:102A70001188BFF34F8FBFF36F8FFEE770470000E1
:102A8000A000002004ED00E00849486828B1401E7D
:102A9000486001D180F311887047502080F311887D
:102AA000BFF34F8FBFF36F8FFEE70000A000002041
:102AB00070B500282AD0164DA0F108046068696935
:102AC000084207D1502080F31188BFF34F8FBFF326
:102AD0006F8FFEE722683AB1502080F31188BFF370
:102AE0004F8FBFF36F8FFEE78843606000F030F9CF
:102AF00060686968084468602046FFF71FFC286921
:102B0000401C2861BDE8704000F0B2BD70BD0000FF
:102B1000800000204FF0E020002101618161054923
:102B20004FF47A720968B1FBF2F1491E4161072145
:102B3000016170472800002010B5FDF7DDFB114949
:102B400010280ED300F1E02090F8F0030A789042AC
:102B500007D2502080F31188BFF34F8FBFF36F8FE0
:102B6000FEE709480068896800F4E060884207D9F8
:102B7000502080F31188BFF34F8FBFF36F8FFEE7B4
:102B800010BD0000A00000200CED00E010B5084BC7
:102B9000002200BF53F832401CB1521C082AF9D35E
:102BA00010BD43F8321003EBC201486010BD0000B5
:102BB0006401002070B515460E460446FFF744FF39
:102BC00094F944100020491C01D184F8440094F980
:102BD0004510491C01D184F84500FFF755FFA06B53
:102BE00028B92A46314604F1240000F051F8204665
:102BF000BDE87040FFF750BD10B5020014D00F487B
:102C0000006B38B1502080F31188BFF34F8FBFF3B2
:102C10006F8FFEE700F09CF800211046FFF7A8F93F
:102C200000F026FD002807D105494FF080500860CC
:102C3000BFF34F8FBFF36F8F10BD00002C0000203B
:102C400004ED00E002490A6A0260C9684160704709
:102C50002C00002001490120C86170472C00002091
:102C600010B50C4650B1094909681831FFF7C8FE84
:102C70002046BDE810400121FFF77AB9502080F3CB
:102C80001188BFF34F8FBFF36F8FFEE72C0000203A
:102C900070B514460D4668B10A4909681831FFF746
:102CA000C7FE0CB14FF0FF3521462846BDE8704005
:102CB000FFF75EB9502080F31188BFF34F8FBFF349
:102CC0006F8FFEE72C00002030B587B000240394FE
:102CD00005AA04A903A80494FFF76EFEDDE9030129
:102CE0000094CDE90110002315A11748059A00F0C2
:102CF000A4FB164D0028E8621FD000F01BFD012840
:102D000009D0401C19D1502080F31188BFF34F8F98
:102D1000BFF36F8FFEE7502080F31188BFF34F8F12
:102D2000BFF36F8F4FF0FF30A86201206861EC6045
:102D300007B0BDE8304000F045B807B030BD000036
:102D400049444C4500000000092200082C000020E6
:102D50000248016B491C0163704700002C000020F1
:102D6000164810B5016B11B10121C16110BD0021E0
:102D7000C1610169124A01E0B9B1491E01EB810349
:102D800052F82330002BF7D001EB810302EB8302D2
:102D900002F1080453685B685360A34201D15B6889
:102DA0005360DA680260016110BD502080F3118821
:102DB000BFF34F8FBFF36F8FFEE700002C000020A2
:102DC000A40100201CB537480168374A914207D159
:102DD000502080F31188BFF34F8FBFF36F8FFEE752
:102DE00000683149491E884207D1502080F311887C
:102DF000BFF34F8FBFF36F8FFEE72C490878019028
:102E0000FF20087008788DF800009DF800009DF8FC
:102E1000002000F0F000904207D0502080F311888D
:102E2000BFF34F8FBFF36F8FFEE79DF80000204C7C
:102E300000F0500020700720A06005E09DF8002001
:102E400052008DF80020401E9DF800201206F5D497
:102E5000A060032807D0502080F31188BFF34F8F64
:102E6000BFF36F8FFEE74FF44070A06001980870C9
:102E70000C482030016841F470010160016841F0A4
:102E800070410160FFF746FE00206060FDF7FCF92D
:102E90000848016841F040410160FDF7E1F9002078
:102EA0001CBD000000ED00E071C20F4100E400E035
:102EB000A000002034EF00E010B5502080F311880E
:102EC000BFF34F8FBFF36F8F00F0F6FA18B10449CC
:102ED0004FF080500860002080F3118810BD000082
:102EE00004ED00E0F8B517460E46050013D005FBCB
:102EF00006F05030FFF706FC04000AD0002084F8EA
:102F0000460004F150023B46314628460094FFF744
:102F1000ABF92046F8BD502080F31188BFF34F8FE6
:102F2000BFF36F8FFEE738B5049D18B153B1CAB136
:102F300081B120E0502080F31188BFF34F8FBFF3A1
:102F40006F8FFEE7502080F31188BFF34F8FBFF3E0
:102F50006F8FFEE7502080F31188BFF34F8FBFF3D0
:102F60006F8FFEE739B1502080F31188BFF34F8F88
:102F7000BFF36F8FFEE750241C46012384F84630D0
:102F80002B460094FFF770F9204638BD70B50D460A
:102F9000040025D0FFF758FDD4E90F20216802FB7B
:102FA0000011A1600021A163216861600A46D4E993
:102FB0000F01401E00FB0121E16021464FF0FF3070
:102FC00001F8440F487004F110008DB1FFF70AFDBD
:102FD00004F12400FFF706FDFFF756FD012070BD48
:102FE000502080F31188BFF34F8FBFF36F8FFEE740
:102FF00021690029F0D000F003FB0028ECD004493F
:103000004FF080500860BFF34F8FBFF36F8FE3E73F
:1030100004ED00E02DE9FF4782B01D468A464FF0DF
:103020000008040003D0BAF1000F08D011E05020CE
:1030300080F31188BFF34F8FBFF36F8FFEE7206CD3
:1030400038B1502080F31188BFF34F8FBFF36F8FDB
:10305000FEE7022D0AD1E06B012807D0502080F353
:103060001188BFF34F8FBFF36F8FFEE700F010FAA8
:103070003F4F4FF000094FF0805648B9049838B1DF
:10308000502080F31188BFF34F8FBFF36F8FFEE79F
:10309000FFF7DAFCA06BE16B884207D3022D05D065
:1030A0000498D0B1B8F1000F1AD01EE02A4651465C
:1030B0002046FFF732F8616A19B104F1240000F0EC
:1030C0009FFA20B13E60BFF34F8FBFF36F8FFFF7C2
:1030D000DBFC012006B0BDE8F087FFF7D5FC22E05D
:1030E0006846FFF7AFFD4FF00108FFF7CDFCFFF793
:1030F0002FFEFFF7A9FC94F94400401C01D184F88D
:10310000449094F94500401C01D184F84590FFF7A4
:10311000BBFC04A9684600F029F930B12046FFF74E
:10312000BBFA00F0A5FA0020D4E7FFF78DFCA06BF6
:10313000E16B884213D1FFF7A7FC04F1100004995A
:10314000FFF78EFD2046FFF7A7FA00F091FA00285E
:103150009ED13E60BFF34F8FBFF36F8F98E7FFF7AD
:1031600093FC2046FFF798FA00F082FA90E70000FF
:1031700004ED00E02DE9F0471F4690468946040023
:1031800003D0B9F1000F08D011E0502080F311886E
:10319000BFF34F8FBFF36F8FFEE7206C38B1502025
:1031A00080F31188BFF34F8FBFF36F8FFEE7022FBD
:1031B0000AD1E06B012807D0502080F31188BFF3BB
:1031C0004F8FBFF36F8FFEE7FFF7B6FC5020EFF392
:1031D000118680F31188BFF34F8FBFF36F8FA06B01
:1031E000E16B884206D3022F04D0002086F31188B9
:1031F000BDE8F08794F94550A06B3A464946204611
:10320000FEF78BFF681C04D06D1C84F8455001202C
:10321000ECE7606A0028FAD004F1240000F0F0F92D
:103220000028F4D0B8F1000FF1D00121C8F8001047
:10323000EDE700002DE9F747002683B08A46040039
:1032400003D0BAF1000F08D011E0502080F31188AC
:10325000BFF34F8FBFF36F8FFEE7206C38B1502064
:1032600080F31188BFF34F8FBFF36F8FFEE700F03D
:103270000FF9DFF8F4804FF000094FF0805748B99C
:10328000059838B1502080F31188BFF34F8FBFF3FA
:103290006F8FFEE7FFF7D8FBA56BC5B151462046FF
:1032A000FEF728FF6D1EA563206950B104F11000E0
:1032B00000F0A6F928B1C8F80070BFF34F8FBFF334
:1032C0006F8FFFF7E1FB012006B0BDE8F08705989E
:1032D00008B11EB106E0FFF7D7FB27E06846FFF70D
:1032E000B1FC0126FFF7D0FBFFF732FDFFF7ACFB87
:1032F00094F94400401C01D184F8449094F94500AD
:10330000401C01D184F84590FFF7BEFB05A9684633
:1033100000F02CF8002820460AD0FFF7BDF900F095
:10332000A7F92046FFF74CF80028B3D00020CBE7E0
:10333000FFF746F890B104F124000599FFF790FCDF
:103340002046FFF7A9F900F093F90028A2D1C8F8A8
:103350000070BFF34F8FBFF36F8F9BE72046FFF7DF
:103360009BF900F085F995E704ED00E02DE9F041C7
:103370000C46050011D0C4B1FFF766FB174BDA68A5
:103380006E682068911B471C17D02F681B6A9F42EC
:1033900019D0964217D8012410E0502080F31188EC
:1033A000BFF34F8FBFF36F8FFEE7502080F311887C
:1033B000BFF34F8FBFF36F8FFEE70024FFF764FB6F
:1033C0002046BDE8F081884205D9401A2060284691
:1033D000FFF738FCF1E700202060DCE72C0000203C
:1033E0002DE9FF5F8346DDE90E87994616468A463A
:1033F0009000FFF787F905001CD05C20FFF782F9E9
:10340000040014D00020256384F85900CDE902405F
:10341000CDE900874B46324651465846FEF736FF07
:103420002046FEF7D3FD012004B0BDE8F09F2846FA
:10343000FFF73EFB4FF0FF30F6E7F0B585B0DDE972
:103440000B640A9DA6B1DCB15C27009726630226B7
:1034500084F85960002604AFCDE90246CDE9005753
:10346000FEF714FF2046FEF7B1FD049805B0F0BD4D
:10347000502080F31188BFF34F8FBFF36F8FFEE7AB
:10348000502080F31188BFF34F8FBFF36F8FFEE79B
:103490000548416919B1006B18B10020704701203F
:1034A00070470220704700002C0000200148C068CF
:1034B000704700002C0000202DE9F0412E4C002721
:1034C000206B28B1A069401CA0613846BDE8F0819E
:1034D000E668761CE66013D1606B006838B1502056
:1034E00080F31188BFF34F8FBFF36F8FFEE7606BE0
:1034F000A16B6163A063206A401C2062FFF74CF857
:10350000A06ADFF87880864209D3606B0068A0B1BA
:10351000606BC068C5686868864211D2A062206886
:10352000C06A00EB800158F82100012800D901276A
:10353000E0690028C9D00127C7E74FF0FF30EDE769
:10354000281DFFF725FAA86A18B105F11800FFF742
:103550001FFAE86A2169884200D9206100EB8001E6
:1035600008EB8100291DFFF763FAE86A2168C96A40
:103570008842CAD30127C8E72C000020A4010020FC
:1035800070B504004FF0000133D01B4D2868844211
:1035900007D0502080F31188BFF34F8FBFF36F8F98
:1035A000FEE7206D38B1401E2065E36CE26A9A4266
:1035B0001FD040B11DE0502080F31188BFF34F8F22
:1035C000BFF36F8FFEE7201DFFF7E2F9E06CE062CA
:1035D000C0F13800A061E06A2969884200D92861F9
:1035E000064900EB800001EB8000211DFFF720FA67
:1035F0000121084670BD00002C000020A40100201D
:1036000070B5C068C46854B104F118000646FFF7ED
:10361000BFF9144D286B50B13146134815E05020C6
:1036200080F31188BFF34F8FBFF36F8FFEE7201D2C
:10363000FFF7AEF9E06A2969884200D928610B4991
:1036400000EB800001EB8000211DFFF7F1F9E06A3B
:103650002968C96A884202D90120E86170BD00204A
:1036600070BD00002C0000202C060020A4010020CA
:103670002DE9F0472C4D00242746286B38B1FFF781
:10368000E3F9286B401E2863286B40B146E05020C8
:1036900080F31188BFF34F8FBFF36F8FFEE7A968E8
:1036A000224E0120D1B3A6F5916980463068E0B181
:1036B000F068C46804F11800FFF76AF9201DFFF7ED
:1036C00067F9E06A2969884200D9286100EB800126
:1036D00009EB8100211DFFF7ABF9E06A2968C96A8F
:1036E0008842E3D3C5F81C80E0E70CB1FEF754FF35
:1036F000AC694CB14FEA0806FFF7DEFE00B1EE619F
:10370000641EF9D10020A861E86938B10849012791
:1037100038070860BFF34F8FBFF36F8FFFF7B4F91F
:103720003846BDE8F08700002C0000202C06002061
:1037300004ED00E010B586B0FEF7B0FC114C206837
:10374000B8B100200390049005AA04A903A8FFF7CC
:103750003DF9DDE9032102208DE8070000230AA1DD
:103760000B48059AFFF769FE606010B106B00120B2
:1037700010BD502080F31188BFF34F8FBFF36F8FC0
:10378000FEE7000068000020546D7220537663004D
:10379000752600082DE9FF411E46134602000A9DCA
:1037A0004FF0000016D0144C2768002F0FD0CDE941
:1037B00000130292062917DAFFF76AFE02284FF07B
:1037C00000030FD0002269462068FFF723FC04B0F5
:1037D000BDE8F081502080F31188BFF34F8FBFF315
:1037E0006F8FFEE72A46EEE70023324669463846E9
:1037F000FFF7C0FCEBE70000680000204FF04070CE
:10380000E1EE100A704700004C390008000000008B
:1038100000000000000000000000000000020000A6
:10382000180000000000000000000000203900081F
:103830000000000000000000000000000000000088
:103840000002000020000000000000000000000056
:1038500030390008000000000000000000000000F7
:10386000000000000002000018000000000000003E
:1038700000000000103900080000000000000000F7
:103880000000000000000000000000003C390008BB
:103890000000000000000000000000000000000028
:1038A000000000005839000800000000000000007F
:1038B00000000000000000000000000073686F724C
:1038C0007420636C69636B0000646F75626C6520C3
:1038D000636C69636B006C6F6E67207072657373E5
:1038E00000000000626C75650000726564000000F5
:1038F000677265656E0000000000000000000102B4
:103900000304060708090000000001020304000088
:10391000455854495F746F5F627574746F6E000030
:103920007461736B5F726561645F6275746F6E0062
:103930007461736B5F7561727400000062757474FA
:103940006F6E5F746F5F7561727400007461736B8A
:103950005F6F757470757400756172745F746F5FFA
:103960006F757470757400008839000800000020BD
:10397000AC000000D4010008343A0008AC0000207C
:10398000EC4F0000F0010008000000000000000003
:103990000000000000000000000000000000000027
:1039A0000000000001000000100000000000000006
:1039B0000024F400000000000000000000000000EF
:1039C00000000000000000000000000000000000F7
:1039D00000000000000000000000000000000000E7
:1039E00000000000000000000000000000000000D7
:1039F00000000000000000000000000000000000C7
:103A000000000000000000000000000000000000B6
:103A100000000000000000000000000000000000A6
:103A2000000000000000000000000000AAAAAAAAEE
:043A30000000000092
:040000050800019955
:00000001FF
