:020000040800F2
:100000009806002055020008F5190008E1180008BC
:10001000F11900084D040008E11A00080000000072
:10002000000000000000000000000000FD190008B2
:100030005104000800000000F9190008011A000826
:100040006F0200086F0200086F0200086F020008CC
:100050006F0200086F0200086F0200086F020008BC
:100060006F0200086F0200086F0200086F020008AC
:100070006F0200086F0200086F0200086F0200089C
:100080006F0200086F0200086F0200086F0200088C
:100090006F0200086F0200086F0200086F0200087C
:1000A0006F0200086F0200086F0200086F0200086C
:1000B0006F0200086F0200086F0200086F0200085C
:1000C0006F0200086F0200086F0200086F0200084C
:1000D0006F0200086F0200086F0200086F0200083C
:1000E0006F0200086F0200086F0200086F0200082C
:1000F0006F0200086F0200086F0200086F0200081C
:100100006F0200086F0200086F0200086F0200080B
:100110006F0200086F0200086F0200086F020008FB
:100120006F0200086F0200086F0200086F020008EB
:100130006F0200086F0200086F0200086F020008DB
:100140006F0200086F0200086F0200086F020008CB
:100150006F0200086F0200086F0200086F020008BB
:100160006F0200086F0200086F0200086F020008AB
:100170006F0200086F0200086F0200080000000014
:100180006F0200086F02000800F002F800F052F859
:1001900014A696E8000CB244B344DA4501D100F04D
:1001A00049F8BAE80F000FA696E83000A5EB040561
:1001B00004EB0607AAEB0704A7F101074FEA1515A0
:1001C0004FEA3414A4F10104AC4201D300F032F838
:1001D00013F0010F18BFFB1A43F0010300F001F800
:1001E000DBE71847841A0000A41A0000103A24BF65
:1001F00078C878C1FAD8520724BF30C830C144BF8C
:1002000004680C6070470000704700000023002461
:1002100000250026103A28BF78C1FBD8520728BF16
:1002200030C148BF0B6070471FB501F078FC1FBD9F
:1002300010B510BD00F0D0F81146FFF7F5FF01F042
:1002400053FC00F0EEF803B4FFF7F2FF03BC00F03C
:10025000F5F800000948804709480047FEE7FEE737
:10026000FEE7FEE7FEE7FEE7FEE7FEE7FEE7FEE766
:1002700004480549054A064B70470000CD1A00089E
:1002800089010008980000209806002098020020AC
:100290009802002053EA020C00F069802DE9F04B2F
:1002A0004FF00006002B1FBFB3FA83F503FA05F4E5
:1002B00024FA05F65E4012BF1643B2FA82F502FA3E
:1002C00005F4C5F120051EBF22FA05FC44EA0C0422
:1002D000203556EA044C4FEA144418BF641C4FF012
:1002E00000084FF00009904271EB030C39D300294C
:1002F00019BFB1FA81F701FA07F6B0FA80F700FAF0
:1003000007F6C7F120071EBF20FA07FC46EA0C06D5
:100310002037B6FBF4FCA7EB0507103F07F01F0BD7
:10032000CBF120062CFA06F60CFA0BFB44BFB346C1
:100330000026202FA4BF5E464FF0000B5BEA060CA0
:1003400008BF4FF0010B19EB0B0948EB0608ABFB9C
:10035000027C06FB02CC0BFB03CCC01B71EB0C0137
:10036000C1E70B46024641464846BDE8F08B13B54F
:10037000084318BF4FF0FF300146AFF30080BDE8DF
:100380001C4070474FF0000200B513469446964655
:10039000203922BFA0E80C50A0E80C50B1F1200198
:1003A000BFF4F7AF090728BFA0E80C5048BF0CC046
:1003B0005DF804EB890028BF40F8042B08BF7047A4
:1003C00048BF20F8022B11F0804F18BF00F8012B16
:1003D0007047704770477047754600F02BF8AE467F
:1003E00005006946534620F00700854618B020B541
:1003F000FFF73EFFBDE820404FF000064FF000073A
:100400004FF000084FF0000BAC46ACE8C009ACE878
:10041000C009ACE8C009ACE8C00921F007018D466D
:10042000704710B50446AFF300802046BDE8104089
:10043000FFF709BF0048704710000020014918204D
:10044000ABBEFEE72600020070470000FEE700009A
:100450007047000072B600BFFEE70000B0B504466A
:1004600000F0CEF9054640F20000C2F2000000782C
:10047000611C18BF044400BF00F0C2F9401BA04239
:10048000FAD3B0BD2DE9F04F87B0059000F13E40A2
:1004900000F1FF704FEAB027092F0D46049107D3F2
:1004A00041F6F330C0F60000AC2101F01BFB049DC7
:1004B00028680021B1EB104F40F01A8180B200286B
:1004C00000F016816868B0F5881F80F21E8112283E
:1004D00000F23681012101FA00F00F21C0F206017D
:1004E000084200F02D81059905F11000039001F1FB
:1004F0002000019041F60040C4F20200082281422F
:1005000008BF07224FF0030C4FF000084FF0000A1D
:100510004FF0000B072F38BF3A4602920AE000BFA7
:100520000BF1010B0AF1020ABBF1100F08F10408EC
:1005300000F0DA802868012101FA0BF910EA0907B6
:10054000EED0686800F003014A1E012A06D903298B
:1005500029D100F00301022941D06CE0E8680428A9
:100560000AD341F6F330C0F60000C02101F0BAFA18
:10057000049D4FF0030CE868059B0CFA0AF2996899
:1005800000FA0AF09143084398605968686821EAC4
:100590000901C0F3001202FA0BF21143596000F096
:1005A00003010329D5D0A86803280AD341F6F33004
:1005B000C0F60000D12101F095FA049D4FF0030C24
:1005C000A868059B0CFA0AF2D96800FA0AF0914370
:1005D0000843D860686800F0030102292BD1039812
:1005E0000068102806D281B24BF6FF7222FA01F1A0
:1005F000C9070BD141F6F330C0F60000DE2101F04F
:1006000071FADDE903054FF0030C02E051A101EBA3
:1006100080006FF00301019C01EA5B0100686258F1
:1006200008F01C030F269E40B243984010436050D0
:10063000686800F00301059E0CFA0AF3326801FABB
:100640000AF19A43114310F4403F31603FF468AF20
:10065000002043F644010690C4F20201086843F604
:10066000004440F4804008600868C4F2010400F4CB
:100670008040069006982BF003004FF60846204471
:10068000CFF6FF76815908F00C020F23934099436F
:10069000029B03FA02F211438151A068696840EAA3
:1006A000070243F60C46CB0258BF20EA0702A260BD
:1006B000C4F2010630688B0240EA070258BF20EA04
:1006C0000702326060688B0340EA070258BF20EAE5
:1006D000070262602068C90340EA070258BF20EAA7
:1006E000070222601CE700BF07B0BDE8F08F00BF23
:1006F00041F6F330C0F60000AD2101F0F3F9049D9E
:100700006868B0F5881FFFF6E2AEB0F5081F0DDA95
:10071000B0F5881F3FF4E7AEB0F5901F3FF4E3AEAD
:10072000B0F5041F3FF4DFAE0AE000BF3FF4DBAEDC
:10073000B0F5441F3FF4D7AEB0F5481F3FF4D3AE39
:1007400041F6F330C0F60000AE2101F0CBF9049D74
:10075000C9E600BF00000000010000000200000028
:100760000300000004000000050000000600000077
:100770000700000008000000090000000A00000057
:100780000B0000000C0000000D0000000000000045
:100790000F000000B0B50C46054639B941F6F330FC
:1007A000C0F600004FF4DB7101F09CF9686900EAC3
:1007B000040124EA000040EA0140A861B0BD000045
:1007C00070B516460C46054631B1022E0ED2002EEB
:1007D00008BF2404AC6170BD41F6F330C0F60000E0
:1007E00040F29D1101F07EF9022EF0D341F6F33074
:1007F000C0F600004FF4CF7101F074F9AC6170BD28
:1008000040F29000C2F200000068704740F2000021
:1008100040F29001C2F20000C2F2000100780A68C2
:10082000104408607047000080B543F60040C4F2F1
:100830000200016841F400710160016841F48061C7
:100840000160016841F480710160032000F088F8C4
:100850000F2000F005F800F027F8002080BD000010
:1008600070B540F20006C2F2000640F2080132788C
:10087000C2F200014FF47A730968B3FBF2F2044646
:10088000B1FBF2F1084601F015F80F2C4FF001050D
:1008900008D838B94FF0FF3021460022002500F07B
:1008A0001FF87460284670BD82B0002043F64001F6
:1008B0000190C4F202014A6842F480424A604A68E8
:1008C00002F480420192019A0090086840F0805042
:1008D0000860086800F080500090009802B07047EF
:1008E00070B515460E46102A044606D341F62C4034
:1008F000C0F60000A82101F0F5F8102E06D341F64D
:100900002C40C0F60000A92101F0ECF84EF60C5086
:10091000CEF2000001684FF0FF33C1F3022181F0F5
:100920000702042A28BF0422033903FA02F238BF5F
:10093000002126EA02028A4003FA01F125EA0101B8
:10094000114304F00F02043A104404F1604209011B
:1009500002F56442002C48BF00F10C02117070BD1A
:1009600010B504460338052806D341F62C40C0F6DE
:100970000000902101F0B6F84EF60C50CEF20000C7
:1009800001684FF6FF02114064F30A2141F08061D3
:1009900041F0FD71016010BDF0B581B00446006802
:1009A000411E072908D341F6B830C0F6000040F6D2
:1009B000EB1101F097F8206810F0050F45D0A06802
:1009C0000238062807D341F6B830C0F6000040F6DA
:1009D000F21101F087F860683238B0F5BF7F07D9AF
:1009E00041F6B830C0F6000040F6F31101F07AF895
:1009F0006827C4F2472743F670060020C4F20206B7
:100A00003860FFF7FDFE054656F8700C000105D56D
:100A1000FFF7F6FE401B0228F6D95DE1D4E901019B
:100A2000090741EA8010706101203860FFF7E8FE95
:100A3000054600BF56F8700C000105D4FFF7E0FE34
:100A4000401B0228F6D947E12068800740F17781F2
:100A5000E06840F2FF21C0F2100188421CDC40F245
:100A6000FF21C0F20801884236DC40F2FF21C0F2CB
:100A70000401884262DC40F2FF21C0F20201884298
:100A800000F3A480B0F5807F00F00081B0F5007F16
:100A900000F0FC8068E100BF40F2FF21C0F21801C5
:100AA000884233DC40F2FF21C0F21401884257DC57
:100AB00040F2FF21C0F21201884200F3938040F21D
:100AC0000031C0F21001884200F0E08040F20031B5
:100AD000C0F21101D8E000BF40F2FF21C0F20C01CA
:100AE00088424FDC40F2FF21C0F20A01884200F345
:100AF000858040F20031C0F20801884200F0C680D3
:100B000040F20031C0F20901BEE000BF40F2FF2117
:100B1000C0F21C01884247DC40F2FF21C0F21A01FA
:100B2000884277DC40F20031C0F21801884200F0C0
:100B3000AD8040F20031C0F21901A5E040F2FF2182
:100B4000C0F20601884271DC40F20031C0F20401BB
:100B5000884200F09B8040F20031C0F2050193E032
:100B600040F2FF21C0F2160188426BDC40F20031F6
:100B7000C0F21401884200F0898040F20031C0F2D6
:100B8000150181E040F2FF21C0F20E01884265DCD0
:100B900040F20031C0F20C01884277D040F20031BF
:100BA000C0F20D0170E000BF40F2FF21C0F21E0153
:100BB00088425FDC40F20031C0F21C01884265D0FF
:100BC00040F20031C0F21D015EE000BF40F2003192
:100BD000C0F20201884259D040F20031C0F2030154
:100BE00052E000BF40F20031C0F2120188424DD005
:100BF00040F20031C0F2130146E000BF40F2003184
:100C0000C0F20A01884241D040F20031C0F20B012B
:100C10003AE000BF40F20031C0F21A01884235D0FC
:100C200040F20031C0F21B012EE000BF40F2003163
:100C3000C0F20601884229D040F20031C0F207011B
:100C400022E000BF40F20031C0F2160188421DD000
:100C500040F20031C0F2170116E000BF40F200314F
:100C6000C0F20E01884211D040F20031C0F20F01F3
:100C70000AE000BF40F20031C0F21E01884205D0F8
:100C800040F20031C0F21F0188426DD143F6700678
:100C90000020C4F20206009056F8300C47F200071C
:100CA00040F0805046F8300C56F8300CC4F2000783
:100CB00000F0805000900098386840F480703860F0
:100CC000FFF79EFD054600BF3868C00508D4FFF752
:100CD00097FD401B0228F7D9032001B0F0BD00BFEB
:100CE000306810F4407013D0E16801F4407188421C
:100CF0000ED0306840F64061C4F24721012220F452
:100D000040700A6000220A6030603068C00719D164
:100D1000E06856F8681C4FF6FF4300F4407221F477
:100D2000F811C0F6FF730340B2F5407F08BF1943C6
:100D300046F8681C31686FF31F30084330600020AC
:100D400001B0F0BDFFF75CFD054641F2883700BFFA
:100D500030688007DCD4FFF753FD401BB8424FF0EA
:100D60000300F5D9ECE700BF41F6B830C0F600004B
:100D700040F6242100F0B6FE88E70000002804BFFA
:100D8000012070472DE9F041044600680D46013806
:100D90000F2807D341F68030C0F6000040F25A21F8
:100DA00000F0A0FE082D07D341F68030C0F6000009
:100DB00040F25B2100F096FE43F60808C4F20208F8
:100DC000D8F8F80300F00700A84208D288F8F853D2
:100DD000D8F8F80300F00700A84240F0B18020687E
:100DE00081071FD5410705D5D8F8001041F4E0511F
:100DF000C8F80010000705D5D8F8000040F460409E
:100E0000C8F80000A0686FF0070101EB3011082955
:100E100080F0B880D8F8001021F0F0010843C8F83D
:100E200000002068C00765D1D8F8F80300F007007B
:100E3000A84207D988F8F853D8F8F80300F007005B
:100E4000A8427DD1206841071AD5E0686FF0030100
:100E500001EBB02104290BD34FEAB02141B141F697
:100E60008030C0F6000040F2C32100F03BFEE06895
:100E7000D8F8001021F4E0510843C8F800002068B9
:100E800000071AD520696FF0030101EBB021042996
:100E90000BD34FEAB02141B141F68030C0F60000DB
:100EA00040F2CA2100F01EFE2069D8F8001021F49B
:100EB000604141EAC000C8F8000000F073F8D8F8BB
:100EC000001041F63832C1F30311C0F60002515C44
:100ED00040F2080220FA01F140F20400C2F20000E0
:100EE0000068C2F200021160FFF7BAFC0020BDE802
:100EF000F08100BF6068042808D341F68030C0F656
:100F0000000040F2852100F0EDFD6068811E02299D
:100F100008D258F8081C89015CBF0120BDE8F081A7
:100F200012E000BF012807D158F8081C89035CBFF4
:100F30000120BDE8F08107E058F8081C890703D4B8
:100F40000120BDE8F08100BFD8F8001021F00301B6
:100F50000843C8F80000FFF753FC064641F2883703
:100F6000D8F80000616800F00C00B0EB810F3FF48E
:100F70005BAFFFF745FC801BB842F1D90320BDE809
:100F8000F08100BF4FEA301100293FF443AF41F632
:100F90008030C0F6000040F27E2100F0A3FDA06882
:100FA00038E7000010B543F60404C4F20204606898
:100FB00000F00C0142F200400829C0F2F40007D012
:100FC000042918BF10BD41F20020C0F27A0010BD04
:100FD000216801F03F02216823684902C3F38811A8
:100FE00006D4A1FB00010023FFF754F907E000BF7E
:100FF00041F20020C0F27A004843B0FBF2F02168D1
:101000000222C1F3014102EB4101B0FBF1F010BD3E
:10101000F0B585B01446064602280D4607D341F6C2
:101020008030C0F6000040F20B3100F05BFD6FF045
:10103000030000EB346004280AD34FEA346038B16F
:1010400041F68030C0F600004FF4437100F04AFDD5
:1010500043F63007002E40F20006C4F20207C4F245
:1010600002062DD0A80007D041F68030C0F600005F
:101070004FF44A7100F036FD00200090396841F0CD
:1010800004013960396801F00401009100994FF4BE
:1010900000710091022101910321CDE90201049028
:1010A00006F500606946FFF7EDF957F8280C20F0C7
:1010B000784040EAC400284347F8280C05B0F0BD4A
:1010C0004FEA7550042807D341F68030C0F600007F
:1010D0004FF4447100F006FD00200090396841F0A3
:1010E00001013960396801F00101009100994FF464
:1010F00080710091022101910321CDE90201049048
:1011000069463046FFF7BEF957F8280C20F0EC602E
:101110002843204347F8280C05B0F0BD002804BF41
:10112000012070472DE9F04182B004460068102884
:1011300007D341F68030C0F60000E62100F0D2FC73
:10114000206843F60006C007C4F2020612D06068A9
:10115000002818BFB0F5803F40F00881B06800F06B
:101160000C00042814D13068800303D5606800287F
:1011700000F0BA812078800753D5E068022821D298
:101180002069202829D2B06810F00C0F31D13AE044
:10119000B06800F00C00082802D170684002E2D468
:1011A00061683068B1F5803F07D0B1F5A02F40F0FD
:1011B000598140F480203060306840F480303060E5
:1011C00059E100BF41F68030C0F6000040F21D1129
:1011D00000F088FC20692028D5D341F68030C0F685
:1011E00000004FF48F7100F07DFCB06810F00C0F20
:1011F00009D0B06800F00C00082840F08D807068BD
:10120000400200F189803068800703D5E06801283A
:1012100040F06A813068216920F0F80040EAC1009E
:101220003060207800071FD42078400740D4A069A0
:10123000032808D341F68030C0F6000040F2CD11FB
:1012400000F050FCA069002800F04981B16801F06D
:101250000C01082940F0AE80012840F01D810120DA
:1012600002B0BDE8F08100BF6069022808D341F6F2
:101270008030C0F600004FF4AF7100F033FC6069BD
:10128000002800F07F806020C4F247200121C0F8D0
:10129000201EFFF7B5FA0546706F8007C4D4FFF72C
:1012A000AFFA401B0228F7D9032002B0BDE8F08155
:1012B000A068052800F2C880012101FA00F010F0B2
:1012C000230F00F0C180306C5FEAC0080AD4002010
:1012D0000190306C40F080503064306C00F08050F1
:1012E0000190019847F20007C4F200073868C00572
:1012F0002ED4386840F480703860FFF781FA0546D4
:101300003868C00524D4FFF77BFA401B0228F7D9C0
:10131000032002B0BDE8F081E068002840F26000E0
:10132000C4F2472060D0012140F8601CFFF768FA42
:10133000054600BF306880073FF56CAFFFF760FAE5
:10134000401B0228F6D9032002B0BDE8F08100BF9F
:10135000A168306F012905D0052959D140F004005A
:101360003067306F40F0010030675AE0B0F5A02FD1
:101370003FF4F4AE41F68030C0F60000EB2100F0FF
:10138000B1FBEBE66020C4F247200021C0F8201E2C
:10139000FFF736FA054600BF706F80077FF544AF50
:1013A000FFF72EFA401B0228F6D9032002B0BDE851
:1013B000F08100BF022840F09B80E06940F480008B
:1013C000B0F5800F40F0D480206A02383E2880F0CB
:1013D000DC80606A3238B0F5BF7F00F2E480A06A3A
:1013E000082840F2EB8031E1002140F8601CFFF753
:1013F00007FA0546306880077FF513AFFFF700FA5C
:10140000401B02284FF00300F4D902B0BDE8F08180
:1014100020F001003067306F002920F004003067B1
:101420007AD0FFF7EDF9054641F28837306F800733
:1014300000F18480FFF7E4F9401BB842F6D903209D
:1014400002B0BDE8F08100BF41F68030C0F6000078
:101450004FF4C57100F046FB306C5FEAC0087FF5C1
:1014600036AF3FE720F4803030603068002920F448
:10147000802030606CD0FFF7C3F9054630688003E8
:101480003FF578AEFFF7BCF9401B6428F6D903207E
:1014900002B0BDE8F08100BF7068E16900F480022D
:1014A0008A4221D1216A00F03F028A421CD147F6CC
:1014B000C071626A0140B1EB821F15D1A16A4FF67B
:1014C000FF73C903994300F44032A1F580318A4289
:1014D0000AD1E16A00F07060B0EB016F04D1002026
:1014E00002B0BDE8F08100BF012002B0BDE8F0818C
:1014F0006020C4F2472000210160FFF781F9044613
:1015000030688001EBD5FFF77BF9001B02284FF014
:101510000300F5D979E700BFFFF772F9054641F2FC
:10152000883700BF306F800708D5FFF769F9401B87
:10153000B8424FF00300F5D967E700BFB8F1000FDC
:101540003FF575AE306C20F0805030646FE600BF20
:10155000FFF756F9054600BF306880037FF50AAEF5
:10156000FFF74EF9401B64284FF00300F4D94CE715
:1015700041F68030C0F600004FF4EB7100F0B2FA93
:10158000206A02383E28FFF424AF41F68030C0F6CE
:10159000000040F2D71100F0A5FA606A3238B0F5C9
:1015A000BF7F7FF61CAF41F68030C0F600004FF4DD
:1015B000EC7100F097FAA06A082847D8012101FAD7
:1015C00000F010F4AA7F41D0E06A02380E2807D359
:1015D00041F68030C0F600004FF4ED7100F082FA61
:1015E0006027C4F2472700203860FFF709F9054655
:1015F0003068800108D5FFF703F9401B02284FF03F
:101600000300F5D901E700BF04F11C052FCD084305
:1016100040EA8210D9034FF6FF729143A1F5803161
:1016200040EA05600843706001203860FFF7E8F881
:10163000044600BF306880013FF551AFFFF7E0F886
:10164000001B02284FF00300F4D9DEE641F680309B
:10165000C0F6000040F2D91100F044FAE06A023806
:101660000E28B5D2BCE70000002804BF0120704757
:10167000B0B50446006842F60001C4F20001884299
:1016800007D041F64830C0F600004FF4827100F0F8
:1016900029FA606840F0400040287BD1A06880288B
:1016A00080F08480E068B0F5004F80F08C80206985
:1016B0004FEA7050042880F09480606940F48010F4
:1016C000B0F5801F40F09C80A06940F48020B0F508
:1016D000802F40F0A480607F002800F0AC800220C2
:1016E00060772168C868C00600F1B680CA204862E9
:1016F00053204862C868400615D4C86840F080008E
:10170000C860FFF77DF82168CA6852060BD4054609
:10171000FFF776F8401BB0F57A7F00F2A1802168D0
:10172000C8684006F4D588684FF6BF72CFF68F724E
:1017300010408860D4E9010CD4E90335626928437C
:101740008D681043284388600B61086940EA0C40AB
:101750000861C86820F08000C8608868800671D47D
:1017600047F65F70C0F20100C860FFF749F8054610
:101770002168C868800665D4FFF742F8401BB0F5C1
:101780007A7FF5D9042060772068FF21416201202B
:10179000B0BD00BF41F64830C0F6000040F2051170
:1017A00000F0A0F9A0688028FFF47CAF41F6483033
:1017B000C0F600004FF4837100F094F9E068B0F5D2
:1017C000004FFFF474AF41F64830C0F6000040F21D
:1017D000071100F087F920694FEA70500428FFF4E0
:1017E0006CAF41F64830C0F600004FF4847100F051
:1017F00079F9606940F48010B0F5801F3FF464AF60
:1018000041F64830C0F6000040F2091100F06AF9D4
:10181000A06940F48020B0F5802F3FF45CAF41F622
:101820004830C0F600004FF4857100F05BF9607F2E
:1018300000287FF454AF00202077204600F018F8ED
:101840004DE700BF086C20F480200864A0690A6C92
:1018500010430864FF204862012060770020B0BD7B
:10186000042060772068C168FF2141620120B0BD7B
:1018700080B584B0006842F60002C4F20002002184
:1018800090420291019101D004B080BD02200090ED
:101890004FF4807003906846FFF77EF8002818BF69
:1018A000FEF7D8FD40F63C60C4F2472001210160FC
:1018B00004B080BD411E0020B0EB116F1CBF0120A1
:1018C00070474EF21002CEF2000251604EF62351E4
:1018D000CEF20001F0230B70072190601160704779
:1018E000FEE70000F0B587B0002643F6300006960C
:1018F000CDE90466CDE902660196C4F202000168F2
:1019000041F2004441F0040101600168C4F20204A4
:1019100001F004010191019901960168012241F051
:101920002001016001684FF4007701F0200101916E
:10193000019901960168012541F08001016001686B
:1019400001F08001019101990196016841F00101C6
:10195000016000684FF4007100F0010001900198EF
:101960002046FEF72DFF20464FF480610022FEF74F
:1019700027FF4FF4C06002A961C102AD204629468D
:101980000596FEF77FFD02970227A4F540602946E1
:10199000CDE90376CDE90566FEF774FD4FF480705E
:1019A000CDE90207A4F5A0502946CDE904660696C4
:1019B000FEF768FD07B0F0BD80B540F2700042F65A
:1019C0000001C2F20000C4F2000100227F234FF0A8
:1019D000FF0C80E80E10C0E904228261FFF744FE8C
:1019E000002808BF80BDBDE88040FEF733BD000081
:1019F000FEE70000FEE700007047000070470000AF
:101A0000FEF704BF70B592B006AC20463021FEF759
:101A1000B9FC002543F640000595CDE90355CDE915
:101A200001550095C4F202000168022641F0805180
:101A30000160006800F080500090009847F20000BC
:101A40000095C4F20000016841F480410160006823
:101A5000A82100F4804000900098072006904FF4E1
:101A6000803007900120CDE9080010200A904FF443
:101A700080000D9004200E90119020460C96CDE928
:101A80000F16FFF74BFB18B172B600BFFEE700BFA1
:101A90000F20CDE901064FF4A05004904FF4805080
:101AA000059001A805210395FFF768F910B172B6FA
:101AB000FEE700BF002000210022FFF7A9FA012065
:101AC00000210022FFF7A4FA12B070BD4EF6885034
:101AD000CEF20000016841F470010160704700001F
:101AE000FEE700007047000041F20044C4F2020427
:101AF000FEF79AFEFFF786FFFFF7F4FEFFF75CFFA5
:101B00004FF49670FEF7AAFC20464FF40071FEF7E2
:101B100041FE20464FF48061FEF73CFEF0E7F1EE17
:101B2000100A4FF6FF71C0F2C03120EA010040F008
:101B30004070E1EE100A7047000000000000000055
:101B400001020304060708092E2E2F4472697665E8
:101B500072732F53544D3332463478785F48414C7A
:101B60005F4472697665722F5372632F73746D339D
:101B700032663478785F68616C5F7274632E6300DC
:101B80002E2E2F447269766572732F53544D333263
:101B9000463478785F48414C5F4472697665722FAD
:101BA0005372632F73746D3332663478785F686173
:101BB0006C5F7263632E63002E2E2F44726976650C
:101BC00072732F53544D3332463478785F48414C0A
:101BD0005F4472697665722F5372632F73746D332D
:101BE00032663478785F68616C5F7263635F6578D2
:101BF0002E63002E2E2F447269766572732F535414
:101C00004D3332463478785F48414C5F4472697690
:101C100065722F5372632F73746D33326634787824
:101C20005F68616C5F6770696F2E63002E2E2F44B2
:101C30007269766572732F53544D33324634787817
:101C40005F48414C5F4472697665722F5372632F0F
:101C500073746D3332663478785F68616C5F636F7C
:101C6000727465782E630000881C00080000002054
:101C700010000000EC010008981C00081000002073
:101C8000880600000C02000801000000100000009F
:081C90000024F4000000000034
:040000050800018965
:00000001FF
