:020000040800F2
:1000000000000220FD4F00083D06000845060008DC
:100010004D060008550600085D06000800000000B7
:10002000000000000000000000000000214C00085B
:100030006506000800000000714E00080544000835
:100040004D5000084D5000084D5000084D5000081C
:100050004D5000084D5000084D5000084D5000080C
:100060004D5000084D5000084D5000084D500008FC
:100070004D5000084D5000084D5000084D500008EC
:100080004D5000084D5000084D5000080000000081
:100090000000000000000000000000004D500008BB
:1000A0004D500008750600084D5000084D500008DE
:1000B0004D5000084D5000084D5000084D500008AC
:1000C0004D5000084D5000084D5000084D5000089C
:1000D0004D5000084D5000084D5000080000000031
:1000E0004D5000084D5000084D5000080000000021
:1000F0000000000000000000000000004D5000085B
:10010000000000004D5000084D5000084D50000800
:1001100000000000000000000000000000000000DF
:100120004D5000084D5000084D5000084D5000083B
:100130004D5000080000000000000000000000001A
:100140000000000000000000000000004D5000080A
:100150004D5000084D5000084D5000084D5000080B
:100160004D5000084D500008000000000000000045
:10017000000000000000000000000000000000007F
:10018000000000004D5000080000000000000000CA
:080190004D5000084D5000081D
:1001A00053B94AB9002908BF00281CBF4FF0FF31DE
:1001B0004FF0FF3000F00CB8ADF1080C6DE904CE43
:1001C00004F080FFDDF804E0DDE9022304B07047AD
:1001D000704700BF0348044B834202D0034B03B176
:1001E0001847704710000020100000200000000099
:1001F0000548064B1B1AD90F01EBA301491002D089
:10020000034B03B118477047100000201000002076
:100210000000000010B5064C237843B9FFF7DAFF61
:10022000044B13B10448AFF300800123237010BDC9
:100230001000002000000000BC53000808B5054B6A
:100240001BB105490548AFF30080BDE80840FFF742
:10025000CFBF00BF0000000014000020BC53000806
:1002600080B500AF01F020FD00F00CF800F08CF834
:1002700000F052F904F0E0F800F0D6F804F000F9CC
:1002800000BFFDE780B594B000AF07F12003302236
:100290000021184604F0DBFE07F10C0300221A606F
:1002A0005A609A60DA601A610023BB60284B1B6CAD
:1002B000274A43F080531364254B1B6C03F0805393
:1002C000BB60BB6800237B60224B1B68214A43F460
:1002D000404313601F4B1B6803F440437B607B6803
:1002E00005233B624FF480337B620123BB62022310
:1002F000BB634FF48003FB630C233B6460237B648C
:100300000223BB640423FB6407F12003184600F0BA
:10031000CDFC0346002B01D000F030F80F23FB602A
:1003200002233B6100237B614FF48053BB610023B8
:10033000FB6107F10C030321184600F02FFF034671
:10034000002B01D000F01AF800BF5037BD4680BD29
:10035000003802400070004080B582B000AF786085
:100360007B681B68044A934201D101F0BFFC00BFC7
:100370000837BD4680BD00BF0044014080B400AFD7
:1003800072B600BF00BFFDE780B588B000AF07F1CF
:100390000C0300221A605A609A60DA601A61002326
:1003A000BB601F4B1B6B1E4A43F0040313631C4BC3
:1003B0001B6B03F00403BB60BB6800237B60184B1E
:1003C0001B6B174A43F080031363154B1B6B03F041
:1003D00080037B607B6800233B60114B1B6B104AE2
:1003E00043F0010313630E4B1B6B03F001033B60EF
:1003F0003B68002201210B4801F040FB0123FB6018
:1004000001233B6101237B610323BB6107F10C03E3
:100410001946044801F0AEF900BF2037BD4680BD43
:10042000003802400000024080B500AF184A0421A5
:10043000012004F0F8F80346164A1360164A042116
:10044000012004F0F0F80346144A1360144A042112
:10045000012004F0E8F80346124A1360124A002112
:10046000124804F033F80346114A1360114A002180
:10047000114804F02BF80346104A1360104A00217B
:10048000104804F023F803460F4A136000BF80BDF4
:10049000A854000838000020C05400083C00002088
:1004A000D8540008400000203C540008CD04000847
:1004B0002C00002060540008F904000830000020DF
:1004C00084540008090500083400002080B584B079
:1004D00000AF78600023FB81FB890133FB810121A0
:1004E000044801F0E4FA4FF4FA7004F081F800BF18
:1004F000F2E700BF0000024080B582B000AF786034
:10050000012004F075F8FBE780B582B000AF786099
:10051000012004F06DF8FBE780B586B000AF3B1D0D
:1005200000221A605A609A60DA601A6100233B6008
:100530002A4B2B4A1A60294B00225A60274B7F22F4
:100540009A60264BFF22DA60244B4FF4C0021A61F6
:10055000224B4FF480125A61204B00229A611F48AF
:1005600001F0E4FB0346002B01D0FFF707FF002357
:100570003B7100237B710023BB7100233B6100238F
:100580007B613B1D00221946144801F052FC0346D2
:10059000002B01D0FFF7F2FE01233B7001237B709B
:1005A0000123BB700023FB703B46002219460B4819
:1005B00001F0D9FC0346002B01D0FFF7DFFE042237
:1005C0000021064801F0F4FD0346002B01D0FFF79F
:1005D000D5FE00BF1837BD4680BD00BF44000020D7
:1005E0000028004080B588B000AF786007F10803AC
:1005F00000221A605A609A60DA601A615A617B6858
:100600001B680C4A934211D10223BB604FF48073E4
:10061000BB6107F10803184600F0BCFF0346002B3E
:1006200001D0FFF7ABFE044B01221A6000BF203758
:10063000BD4680BD002800403C0E474280B400AF5C
:1006400000BFFDE780B400AF00BFFDE780B400AF9E
:1006500000BFFDE780B400AF00BFFDE780B400AF8E
:1006600000BFFDE780B400AF00BFBD465DF8047B6E
:100670007047000080B500AF024800F05FF900BF8E
:1006800080BD00BF6400002080B582B000AF0023B1
:100690007B60124B5B6C114A43F4804353640F4BF5
:1006A0005B6C03F480437B607B6800233B600B4BF7
:1006B0001B6C0A4A43F080531364084B1B6C03F015
:1006C00080533B603B6800220F216FF0010001F076
:1006D000C1FA00BF0837BD4680BD00BF00380240E8
:1006E00080B58CB000AF78600023BB6200237B62D2
:1006F0000023BB602E4B5B6C2D4A43F400335364E4
:100700002B4B5B6C03F40033BB60BB6807F10C023E
:1007100007F110031146184600F00AFF00F0F4FE3E
:10072000B862BB6A234AA2FB03239B0C013B7B629A
:10073000214B224A1A60204B40F2E732DA601E4A0F
:100740007B6A53601C4B00221A611B4B00229A608B
:10075000194B00229A61184800F034F8034687F8D4
:100760002F3097F82F30002B1BD1134800F084F85E
:10077000034687F82F3097F82F30002B11D119201E
:1007800001F084FA7B680F2B08D8002279681920C1
:1007900001F060FA0A4A7B68136002E0012387F8DF
:1007A0002F3097F82F3018463037BD4680BD00BF38
:1007B0000038024083DE1B436400002000440140F7
:1007C0000000002080B582B000AF78607B68002B0D
:1007D00001D1012341E07B6893F83D30DBB2002B6F
:1007E00006D17B68002283F83C20786800F039F855
:1007F0007B68022283F83D207B681A687B6804339B
:100800001946104600F0B2F97B68012283F84620B1
:100810007B68012283F83E207B68012283F83F2019
:100820007B68012283F840207B68012283F8412005
:100830007B68012283F842207B68012283F84320F1
:100840007B68012283F844207B68012283F84520DD
:100850007B68012283F83D20002318460837BD46F7
:1008600080BD80B483B000AF786000BF0C37BD4658
:100870005DF8047B7047000080B485B000AF7860FD
:100880007B6893F83D30DBB2012B01D0012344E0BB
:100890007B68022283F83D207B681B68DA687B68EE
:1008A0001B6842F00102DA607B681B681E4A9342B3
:1008B00018D07B681B68B3F1804F13D07B681B682E
:1008C0001A4A93420ED07B681B68194A934209D09A
:1008D0007B681B68174A934204D07B681B68164AE2
:1008E000934211D17B681B689B6803F00703FB6090
:1008F000FB68062B10D07B681B681A687B681B6836
:1009000042F001021A6007E07B681B681A687B6886
:100910001B6842F001021A60002318461437BD46D6
:100920005DF8047B704700BF0000014000040040F8
:1009300000080040000C00400040014080B584B039
:1009400000AF78607B681B68DB68FB607B681B68B6
:100950001B69BB60BB6803F00203002B20D0FB685F
:1009600003F00203002B1BD07B681B686FF00202B0
:100970001A617B6801221A777B681B689B6903F008
:100980000303002B03D0786800F0D2F805E0786804
:1009900000F0C4F8786800F0D5F87B6800221A7778
:1009A000BB6803F00403002B20D0FB6803F00403B2
:1009B000002B1BD07B681B686FF004021A617B68F8
:1009C00002221A777B681B689B6903F44073002B33
:1009D00003D0786800F0ACF805E0786800F09EF885
:1009E000786800F0AFF87B6800221A77BB6803F0E4
:1009F0000803002B20D0FB6803F00803002B1BD05A
:100A00007B681B686FF008021A617B6804221A7702
:100A10007B681B68DB6903F00303002B03D0786855
:100A200000F086F805E0786800F078F8786800F063
:100A300089F87B6800221A77BB6803F01003002B4B
:100A400020D0FB6803F01003002B1BD07B681B68D1
:100A50006FF010021A617B6808221A777B681B68A6
:100A6000DB6903F44073002B03D0786800F060F872
:100A700005E0786800F052F8786800F063F87B6869
:100A800000221A77BB6803F00103002B0CD0FB682F
:100A900003F00103002B07D07B681B686FF0010295
:100AA0001A617868FFF758FCBB6803F08003002BDD
:100AB0000CD0FB6803F08003002B07D07B681B6819
:100AC0006FF080021A61786800F0E6F8BB6803F006
:100AD0004003002B0CD0FB6803F04003002B07D031
:100AE0007B681B686FF040021A61786800F034F888
:100AF000BB6803F02003002B0CD0FB6803F020033D
:100B0000002B07D07B681B686FF020021A617868A1
:100B100000F0B8F800BF1037BD4680BD80B483B088
:100B200000AF786000BF0C37BD465DF8047B7047AE
:100B300080B483B000AF786000BF0C37BD465DF86D
:100B4000047B704780B483B000AF786000BF0C377F
:100B5000BD465DF8047B704780B483B000AF786019
:100B600000BF0C37BD465DF8047B704780B485B08C
:100B700000AF786039607B681B68FB607B683A4A2D
:100B800093420FD07B68B3F1804F0BD07B68374A1C
:100B9000934207D07B68364A934203D07B68354A3C
:100BA000934208D1FB6823F07003FB603B685B68ED
:100BB000FA681343FB607B682B4A93421BD07B6827
:100BC000B3F1804F17D07B68284A934213D07B68DB
:100BD000274A93420FD07B68264A93420BD07B680A
:100BE000254A934207D07B68244A934203D07B680E
:100BF000234A934208D1FB6823F44073FB603B68AF
:100C0000DB68FA681343FB60FB6823F080023B68F3
:100C10005B691343FB607B68FA681A603B689A68FB
:100C20007B68DA623B681A687B689A627B680E4A66
:100C3000934203D13B681A697B681A637B6801227F
:100C40005A617B681B6903F00103012B05D17B68A6
:100C50001B6923F001027B681A6100BF1437BD468F
:100C60005DF8047B704700BF0000014000040040B5
:100C700000080040000C00400040014000440140DA
:100C80000048014080B483B000AF786000BF0C37EB
:100C9000BD465DF8047B704780B483B000AF7860D8
:100CA00000BF0C37BD465DF8047B704780B586B049
:100CB00000AF78607B68002B01D1012367E27B687D
:100CC0001B6803F00103002B75D0884B9B6803F071
:100CD0000C03042B0CD0854B9B6803F00C03082BF2
:100CE00012D1824B5B6803F48003B3F5800F0BD104
:100CF0007E4B1B6803F40033002B5BD07B685B6882
:100D0000002B57D1012342E27B685B68B3F5803F3B
:100D100006D1764B1B68754A43F4803313601DE09F
:100D20007B685B68B3F5A02F0CD1704B1B686F4AD2
:100D300043F4802313606D4B1B686C4A43F480338B
:100D400013600BE0694B1B68684A23F4803313601F
:100D5000664B1B68654A23F4802313607B685B68DD
:100D6000002B13D000F0D6FF386108E000F0D2FF6E
:100D700002463B69D31A642B01D9032307E25B4B7C
:100D80001B6803F40033002BF0D014E000F0C2FF26
:100D9000386108E000F0BEFF02463B69D31A642BBD
:100DA00001D90323F3E1514B1B6803F40033002BFB
:100DB000F0D100E000BF7B681B6803F00203002B4A
:100DC00063D04A4B9B6803F00C03002B0BD0474BBE
:100DD0009B6803F00C03082B1CD1444B5B6803F4A5
:100DE0008003002B16D1414B1B6803F00203002B3C
:100DF00005D07B68DB68012B01D00123C7E13B4BA9
:100E00001B6823F0F8027B681B69DB00374913433A
:100E10000B603AE07B68DB68002B20D0344B01226A
:100E20001A6000F077FF386108E000F073FF0246B7
:100E30003B69D31A022B01D90323A8E12B4B1B6872
:100E400003F00203002BF0D0284B1B6823F0F802BC
:100E50007B681B69DB00254913430B6015E0244BBD
:100E600000221A6000F056FF386108E000F052FFDF
:100E700002463B69D31A022B01D9032387E11B4B9E
:100E80001B6803F00203002BF0D17B681B6803F0A2
:100E90000803002B36D07B685B69002B16D0154BFE
:100EA00001221A6000F036FF386108E000F032FFDE
:100EB00002463B69D31A022B01D9032367E10B4B8E
:100EC0005B6F03F00203002BF0D01BE0094B002204
:100ED0001A6000F01FFF38610EE000F01BFF0246B1
:100EE0003B69D31A022B07D9032350E10038024093
:100EF00000004742800E4742884B5B6F03F00203BD
:100F0000002BEAD17B681B6803F00403002B00F080
:100F100097800023FB75814B1B6C03F08053002BE3
:100F20000FD10023BB607D4B1B6C7C4A43F0805388
:100F300013647A4B1B6C03F08053BB60BB680123C6
:100F4000FB75774B1B6803F48073002B18D1744B2F
:100F50001B68734A43F48073136000F0DBFE386152
:100F600008E000F0D7FE02463B69D31A022B01D9F4
:100F700003230CE16A4B1B6803F48073002BF0D051
:100F80007B689B68012B06D1644B1B6F634A43F05F
:100F9000010313671CE07B689B68052B0CD15F4B3A
:100FA0001B6F5E4A43F0040313675C4B1B6F5B4A85
:100FB00043F0010313670BE0584B1B6F574A23F0B4
:100FC00001031367554B1B6F544A23F00403136747
:100FD0007B689B68002B15D000F09CFE38610AE00E
:100FE00000F098FE02463B69D31A41F288329342E0
:100FF00001D90323CBE0494B1B6F03F00203002B05
:10100000EED014E000F086FE38610AE000F082FEC7
:1010100002463B69D31A41F28832934201D9032335
:10102000B5E03E4B1B6F03F00203002BEED1FB7DBE
:10103000012B05D1394B1B6C384A23F080531364C4
:101040007B689B69002B00F0A180344B9B6803F008
:101050000C03082B5CD07B689B69022B41D1314B80
:1010600000221A6000F056FE386108E000F052FEDF
:1010700002463B69D31A022B01D9032387E0274B91
:101080001B6803F00073002BF0D17B68DA697B6882
:101090001B6A1A437B685B6A9B011A437B689B6AE5
:1010A0005B08013B1B041A437B68DB6A1B061B4978
:1010B00013434B601B4B01221A6000F02BFE38617A
:1010C00008E000F027FE02463B69D31A022B01D943
:1010D00003235CE0114B1B6803F00073002BF0D07E
:1010E00054E0104B00221A6000F014FE386108E052
:1010F00000F010FE02463B69D31A022B01D90323EC
:1011000045E0064B1B6803F00073002BF0D13DE077
:101110007B689B69012B07D1012338E0003802402E
:1011200000700040600047421B4B5B68FB607B68BF
:101130009B69012B28D0FB6803F480027B68DB6984
:101140009A4221D1FB6803F03F027B681B6A9A42F6
:101150001AD1FA6847F6C07313407A68526A92014E
:10116000934211D1FB6803F440327B689B6A5B08B1
:10117000013B1B049A4207D1FB6803F070627B6855
:10118000DB6A1B069A4201D0012300E000231846C7
:101190001837BD4680BD00BF0038024080B584B01E
:1011A00000AF786039607B68002B01D10123CCE06F
:1011B000684B1B6803F007033A689A420CD9654BE9
:1011C0003A68D2B21A70634B1B6803F007033A689F
:1011D0009A4201D00123B8E07B681B6803F0020348
:1011E000002B20D07B681B6803F00403002B05D084
:1011F000594B9B68584A43F4E05393607B681B68E3
:1012000003F00803002B05D0534B9B68524A43F46C
:1012100060439360504B9B6823F0F0027B689B68AF
:101220004D4913438B607B681B6803F00103002B5F
:1012300044D07B685B68012B07D1474B1B6803F4E4
:101240000033002B19D101237FE07B685B68022B00
:1012500003D07B685B68032B07D13F4B1B6803F00F
:101260000073002B09D101236FE03B4B1B6803F097
:101270000203002B01D1012367E0374B9B6823F069
:1012800003027B685B68344913438B6000F042FDC6
:10129000F8600AE000F03EFD0246FB68D31A41F216
:1012A0008832934201D903234FE02B4B9B6803F014
:1012B0000C027B685B689B009A42EBD1254B1B6854
:1012C00003F007033A689A420CD2224B3A68D2B232
:1012D0001A70204B1B6803F007033A689A4201D04A
:1012E000012332E07B681B6803F00403002B08D065
:1012F000194B9B6823F4E0527B68DB681649134363
:101300008B607B681B6803F00803002B09D0124B2D
:101310009B6823F460427B681B69DB000E49134322
:101320008B6000F021F802460B4B9B681B0903F011
:101330000F030A49CB5C22FA03F3094A1360094BF5
:101340001B681846FFF7CCF9002318461037BD4636
:1013500080BD00BF003C024000380240F05400084D
:1013600008000020000000202DE9B04F90B000AF31
:1013700000237B630023FB6300233B630023BB63E9
:10138000584B9B6803F00C03082B0DD0082B00F280
:10139000A080002B02D0042B03D09AE0524BBB63F9
:1013A0009AE0524BBB6397E04E4B5B6803F03F0300
:1013B0007B634C4B5B6803F48003002B27D0494BC5
:1013C0005B689B0900223B627A623B6AC3F30800B8
:1013D0000021464B03FB01F2002300FB03F31344FF
:1013E000424AA0FB0221F962BA62FA6A1344FB6224
:1013F0007B6B0022BB61FA61D7E90623D7E90A01BA
:10140000FEF7CEFE02460B461346FB6353E0354B18
:101410005B689B0900223B617A613B69C3F3080A60
:101420004FF0000B52465B464FF000004FF00001BA
:10143000590141EAD261500102460B46B2EB0A085B
:1014400063EB0B094FF000024FF000034FEA8913E2
:1014500043EA98634FEA8812B2EB080463EB09058C
:101460004FF000024FF00003EB0043EA5473E20038
:1014700014461D4614EB0A033B6045EB0B037B60EF
:101480004FF000024FF00003D7E9004529468B02D8
:10149000214643EA915321468A02104619467B6B46
:1014A0000022BB60FA60D7E90223FEF779FE02460C
:1014B0000B461346FB630B4B5B681B0C03F00303EB
:1014C00001335B003B63FA6B3B6BB2FBF3F3BB6333
:1014D00002E0054BBB6300BFBB6B18464037BD46FF
:1014E000BDE8B08F003802400024F40040787D0150
:1014F00080B400AF034B1B681846BD465DF8047B03
:10150000704700BF0800002080B500AFFFF7F0FF74
:101510000246054B9B685B0B03F007030349CB5C5A
:1015200022FA03F3184680BD003802400055000837
:1015300080B483B000AF786039607B680F221A6096
:10154000124B9B6803F003027B685A600F4B9B6849
:1015500003F0F0027B689A600C4B9B6803F4E05246
:101560007B68DA60094B9B68DB0803F4E0527B6818
:101570001A61074B1B6803F007023B681A6000BF43
:101580000C37BD465DF8047B704700BF0038024051
:10159000003C024080B586B000AF786000237B61DC
:1015A00000233B617B681B6803F00103002B05D11E
:1015B0007B681B6803F00403002B38D0684B0022C3
:1015C0001A6000F0A7FB786108E000F0A3FB024678
:1015D0007B69D31A022B01D90323BDE0614B1B6841
:1015E00003F00063002BF0D17B685A687B689B682E
:1015F0009B011A437B68DB681B075A491343C1F8F8
:101600008430574B01221A6000F084FB786108E0B7
:1016100000F080FB02467B69D31A022B01D9032319
:101620009AE0504B1B6803F00063002BF0D07B68FE
:101630001B6803F00203002B00F083800023FB6093
:10164000484B1B6C474A43F080531364454B1B6C5B
:1016500003F08053FB60FB68434B1B68424A43F432
:101660008073136000F056FB786108E000F052FBD5
:1016700002467B69D31A022B01D903236CE03A4B53
:101680001B6803F48073002BF0D0364B1B6F03F400
:1016900040733B613B69002B2FD07B681B6903F4CF
:1016A00040733A699A4228D02E4B1B6F23F4407343
:1016B0003B612E4B01221A602C4B00221A60294AF2
:1016C0003B691367274B1B6F03F00103012B14D1F8
:1016D00000F020FB78610AE000F01CFB02467B6909
:1016E000D31A41F28832934201D9032334E01D4BCF
:1016F0001B6F03F00203002BEED07B681B6903F421
:101700004073B3F5407F0DD1164B9B6823F4F8125C
:101710007B681B6923F0704323F440731149134322
:101720008B6005E00F4B9B680E4A23F4F81393601F
:101730000C4B1A6F7B681B69C3F30B0309491343F6
:101740000B677B681B6803F00803002B03D07B68E2
:101750001A7D074B1A60002318461837BD4680BD16
:10176000680047420038024000700040400E474287
:10177000E011474280B489B000AF7860396000233F
:101780007B6100233B610023BB610023FB6159E1C6
:101790000122FB6902FA03F37B613B681B687A69EB
:1017A00013403B613A697B699A4240F048813B684B
:1017B0005B6803F00303012B05D03B685B6803F013
:1017C0000303022B30D17B689B68BB61FB695B0024
:1017D000032202FA03F3DB43BA691340BB613B689F
:1017E000DA68FB695B0002FA03F3BA691343BB6171
:1017F0007B68BA699A607B685B68BB610122FB69A0
:1018000002FA03F3DB43BA691340BB613B685B68D0
:101810001B0903F00102FB6902FA03F3BA691343DF
:10182000BB617B68BA695A603B685B6803F003037D
:10183000032B17D07B68DB68BB61FB695B0003226D
:1018400002FA03F3DB43BA691340BB613B689A6851
:10185000FB695B0002FA03F3BA691343BB617B685F
:10186000BA69DA603B685B6803F00303022B23D19B
:10187000FB69DA087B68083253F82230BB61FB69E8
:1018800003F007039B000F2202FA03F3DB43BA695C
:101890001340BB613B681A69FB6903F007039B00B7
:1018A00002FA03F3BA691343BB61FB69DA087B6888
:1018B0000832B96943F822107B681B68BB61FB6979
:1018C0005B00032202FA03F3DB43BA691340BB61F6
:1018D0003B685B6803F00302FB695B0002FA03F3F9
:1018E000BA691343BB617B68BA691A603B685B687D
:1018F00003F44033002B00F0A2800023FB60574B21
:101900005B6C564A43F480435364544B5B6C03F462
:101910008043FB60FB68524AFB699B08023352F824
:101920002330BB61FB6903F003039B000F2202FA23
:1019300003F3DB43BA691340BB617B68494A9342B6
:1019400019D07B68484A934213D07B68474A934238
:101950000DD07B68464A934207D07B68454A934244
:1019600001D1042308E0072306E0032304E0022357
:1019700002E0012300E00023FA6902F00302920072
:101980009340BA691343BB613549FB699B08023335
:10199000BA6941F82320384B9B68BB613B69DB4344
:1019A000BA691340BB613B685B6803F48013002B8A
:1019B00003D0BA693B691343BB612F4ABB6993608B
:1019C0002D4BDB68BB613B69DB43BA691340BB61EC
:1019D0003B685B6803F40013002B03D0BA693B69D2
:1019E0001343BB61244ABB69D360234B5B68BB6173
:1019F0003B69DB43BA691340BB613B685B6803F436
:101A00000033002B03D0BA693B691343BB611A4A08
:101A1000BB695360184B1B68BB613B69DB43BA6908
:101A20001340BB613B685B6803F48033002B03D039
:101A3000BA693B691343BB610F4ABB691360FB6919
:101A40000133FB61FB690F2B7FF6A2AE00BF00BF25
:101A50002437BD465DF8047B704700BF0038024064
:101A6000003801400000024000040240000802402B
:101A7000000C024000100240003C014080B483B0E2
:101A800000AF78600B467B8013467B707B78002B21
:101A900003D07A887B689A6103E07B881A047B68AC
:101AA0009A6100BF0C37BD465DF8047B704780B477
:101AB00085B000AF78600B467B807B685B69FB601C
:101AC0007A88FB6813401A04FB68D9437B880B4073
:101AD0001A437B689A6100BF1437BD465DF8047BEA
:101AE0007047000080B485B000AF78607B6803F079
:101AF0000703FB600C4BDB68BB60BA684FF6FF0363
:101B00001340BB60FB681A02BB68134343F0BF631A
:101B100043F40033BB60044ABB68D36000BF143792
:101B2000BD465DF8047B704700ED00E080B400AF77
:101B3000044BDB681B0A03F007031846BD465DF83B
:101B4000047B704700ED00E080B483B000AF034633
:101B5000FB7197F90730002B0BDBFB7903F01F02B9
:101B6000074997F907305B09012000FA02F241F8B2
:101B7000232000BF0C37BD465DF8047B704700BFD3
:101B800000E100E080B483B000AF03463960FB7130
:101B900097F90730002B0ADB3B68DAB20C4997F95A
:101BA00007301201D2B20B4483F800230AE03B68ED
:101BB000DAB20849FB7903F00F03043B1201D2B2F9
:101BC0000B441A7600BF0C37BD465DF8047B7047A6
:101BD00000E100E000ED00E080B489B000AFF86003
:101BE000B9607A60FB6803F00703FB61FB69C3F12E
:101BF0000703042B28BF0423BB61FB690433062BB6
:101C000002D9FB69033B00E000237B614FF0FF3208
:101C1000BB6902FA03F3DA43BB681A407B699A4056
:101C20004FF0FF317B6901FA03F3D9437B680B4026
:101C3000134318462437BD465DF8047B704780B5D2
:101C400082B000AF78607868FFF74CFF00BF0837BC
:101C5000BD4680BD80B586B000AF0346B9607A60EE
:101C6000FB7300237B61FFF761FF78617A68B968D5
:101C70007869FFF7B1FF024697F90F301146184611
:101C8000FFF780FF00BF1837BD4680BD80B582B02A
:101C900000AF0346FB7197F907301846FFF754FF72
:101CA00000BF0837BD4680BD80B500AF0E4B1B6836
:101CB0000D4A43F4007313600B4B1B680A4A43F44C
:101CC00080631360084B1B68074A43F480731360FA
:101CD0000320FFF7B4FF0F20FEF702FDFEF7D4FC50
:101CE0000023184680BD00BF003C024080B400AF16
:101CF000064B1B781A46064B1B681344044A1360B4
:101D000000BFBD465DF8047B704700BF04000020A3
:101D1000AC00002080B400AF034B1B681846BD46E2
:101D20005DF8047B704700BFAC00002080B584B034
:101D300000AF78600123FB737B68002B01D1012386
:101D400073E07B685B7FDBB2002B05D17B680022F0
:101D50001A777868FEF746FC7B6802225A777B6820
:101D60001B68DB6803F01003102B55D07B681B68E1
:101D7000CA225A627B681B6853225A62786800F054
:101D80009DF90346FB73FB7B002B2CD17B681B6802
:101D90009B687A68126823F4E00323F040039360A1
:101DA0007B681B6899687B685A687B681B691A4363
:101DB0007B685B691A437B681B680A439A607B688F
:101DC0001B687A68D2681A617B681B6819697B682E
:101DD0009B681A047B681B680A431A61786800F0E4
:101DE000A4F90346FB73FB7B002B10D17B681B68B7
:101DF0001A6C7B681B6822F480221A647B681B685B
:101E0000196C7B689A697B681B680A431A647B6853
:101E10001B68FF225A6201E00023FB73FB7B002B4F
:101E200002D17B6801225A77FB7B18461037BD46EA
:101E300080BD90B587B000AFF860B9607A600023CC
:101E40007B61FB681B7F012B01D1022387E0FB68CC
:101E500001221A77FB6802225A777B68002B26D171
:101E6000FB681B689B6803F04003002B02D1BB6832
:101E70000022DA70BB681B78184600F07BF9034635
:101E80001C04BB685B78184600F074F903461B021B
:101E90001C43BB689B78184600F06CF9034644EA83
:101EA0000302BB68DB789B0513437B6118E0FB688A
:101EB0001B689B6803F04003002B02D1BB68002223
:101EC000DA70BB681B781A04BB685B781B0213438B
:101ED000BA6892781A43BB68DB789B0513437B6131
:101EE000FB681B68CA225A62FB681B6853225A624D
:101EF000F86800F0E3F80346FB74FB7C002B20D16C
:101F0000FB681A687B6903F07F3323F0FE4313609C
:101F1000FB681B689A68FB681B6822F480229A6041
:101F2000FB681B689968BB68DA68BB681B691A4361
:101F3000FB681B680A439A60F86800F0F6F80346ED
:101F4000FB74FB7C002B02D1FB6801225A77FB68F3
:101F50001B68FF225A62FB6800221A77FB7C184636
:101F60001C37BD4690BD90B587B000AFF860B96032
:101F70007A6000237B61FB681B7F012B01D1022368
:101F800071E0FB6801221A77FB6802225A777B68AE
:101F9000002B0ED1BB685B7803F01003002B08D038
:101FA000BB685B7823F01003DBB20A33DAB2BB689C
:101FB0005A707B68002B1CD1BB68DB78184600F098
:101FC000D9F803461C04BB685B78184600F0D2F8C9
:101FD00003461B021C43BB689B78184600F0CAF8F6
:101FE000034644EA0302BB681B785B0313437B612F
:101FF0000EE0BB68DB781A04BB685B781B021343F6
:10200000BA6892781A43BB681B785B0313437B6101
:10201000FB681B68CA225A62FB681B6853225A621B
:10202000F86800F04BF80346FB74FB7C002B0CD1E6
:10203000FB681A687B6923F07F4323F0C003536079
:10204000F86800F072F80346FB74FB7C002B02D1A9
:10205000FB6801225A77FB681B68FF225A62FB6803
:1020600000221A77FB7C18461C37BD4690BD000045
:1020700080B584B000AF78600023FB607B681B688C
:102080000D4ADA60FFF746FEF86009E0FFF742FE0E
:102090000246FB68D31AB3F57A7F01D9032307E020
:1020A0007B681B68DB6803F02003002BEED0002365
:1020B00018461037BD4680BD5F3F010080B584B033
:1020C00000AF78600023BB600023FB737B681B6854
:1020D000DB6803F04003002B22D17B681B68DA68C1
:1020E0007B681B6842F08002DA60FFF713FEB8607D
:1020F0000CE0FFF70FFE0246BB68D31AB3F57A7FF8
:1021000004D97B6804225A770123FB737B681B6820
:10211000DB6803F04003002B02D1FB7B012BE8D1ED
:10212000FB7B18461037BD4680BD80B584B000AF3C
:1021300078600023FB737B681B68DA687B681B6828
:1021400022F08002DA607B681B689B6803F0200342
:10215000002B0AD17868FFF78BFF0346002B04D0D1
:102160007B6804225A770123FB73FB7B18461037E8
:10217000BD4680BD80B485B000AF0346FB7100232F
:10218000FB6005E0FB680133FB60FB790A3BFB71F8
:10219000FB79092BF6D8FB68DBB21B01DAB2FB79BD
:1021A0001343DBB218461437BD465DF8047B704715
:1021B00080B586B000AFF860B9607A6000237B61BB
:1021C000FB681B7F012B01D102238AE0FB680122FF
:1021D0001A77FB6802225A77FB681B68CA225A6288
:1021E000FB681B6853225A62FB681B689B6803F4F8
:1021F0008063002B1ED0FFF78DFD786113E0FFF7A1
:1022000089FD02467B69D31AB3F57A7F0BD9FB6847
:102210001B68FF225A62FB6803225A77FB68002280
:102220001A7703235DE0FB681B68DB6803F0040397
:10223000002BE4D1FB681B689A68FB681B6822F4DA
:1022400080629A60FB681B68DB68DAB2FB681B6817
:1022500062F49062DA60FFF75DFD786113E0FFF7EA
:1022600059FD02467B69D31AB3F57A7F0BD9FB6817
:102270001B68FF225A62FB6803225A77FB68002220
:102280001A7703232DE0FB681B68DB6803F0040367
:10229000002BE4D0FB681B689A68FB681B6822F07F
:1022A00007029A60FB681B689968FB681B687A687C
:1022B0000A439A60FB681B68BA685A61FB681B682E
:1022C0009A68FB681B6842F480629A60FB681B682E
:1022D000FF225A62FB6801225A77FB6800221A77B4
:1022E000002318461837BD4680BD000080B400AFFB
:1022F000064BD3F88830054A43F47003C2F888309F
:1023000000BFBD465DF8047B704700BF00ED00E0F4
:1023100080B483B000AF78607B6803F108027B680B
:102320005A607B684FF0FF329A607B6803F10802C5
:102330007B68DA607B6803F108027B681A617B685E
:1023400000221A6000BF0C37BD465DF8047B704761
:1023500080B483B000AF78607B6800221A6100BF50
:102360000C37BD465DF8047B704780B485B000AF84
:10237000786039607B685B68FB603B68FA685A602C
:10238000FB689A683B689A60FB689B683A685A6089
:10239000FB683A689A603B687A681A617B681B68D8
:1023A0005A1C7B681A6000BF1437BD465DF8047B79
:1023B000704780B485B000AF786039603B681B68B7
:1023C000BB60BB68B3F1FF3F03D17B681B69FB6057
:1023D0000CE07B680833FB6002E0FB685B68FB6035
:1023E000FB685B681B68BA689A42F6D2FB685A6859
:1023F0003B685A603B685B683A689A603B68FA6879
:102400009A60FB683A685A603B687A681A617B6830
:102410001B685A1C7B681A6000BF1437BD465DF804
:10242000047B704780B485B000AF78607B681B691F
:10243000FB607B685B687A6892689A607B689B68DF
:102440007A6852685A60FB685B687A689A4203D17E
:102450007B689A68FB685A607B6800221A61FB6897
:102460001B685A1EFB681A60FB681B681846143705
:10247000BD465DF8047B704780B584B000AF7860DE
:1024800039607B68FB60FB68002B0BD14FF0500379
:1024900083F31188BFF36F8FBFF34F8FBB6000BF13
:1024A00000BFFDE702F088FCFB681A68FB68DB6B85
:1024B000F968096C01FB03F31A44FB689A60FB6836
:1024C00000229A63FB681A68FB685A60FB681A6806
:1024D000FB68DB6B013BF968096C01FB03F31A44F1
:1024E000FB68DA60FB68FF2283F84420FB68FF2268
:1024F00083F845203B68002B14D1FB681B69002B37
:102500001AD0FB681033184601F056F90346002B29
:1025100012D00D4B4FF080521A60BFF34F8FBFF3B4
:102520006F8F09E0FB6810331846FFF7F1FEFB6878
:1025300024331846FFF7ECFE02F070FC0123184626
:102540001037BD4680BD00BF04ED00E080B58EB001
:1025500002AFF860B9607A603B60FB68002B0BD17A
:102560004FF0500383F31188BFF36F8FBFF34F8F8A
:10257000BB6200BF00BFFDE73B68002B0BD14FF0F3
:10258000500383F31188BFF36F8FBFF34F8F7B62CC
:1025900000BF00BFFDE77B68002B02D0BB68002BAB
:1025A00001D0012300E00023002B0BD14FF050039A
:1025B00083F31188BFF36F8FBFF34F8F3B6200BF70
:1025C00000BFFDE77B68002B02D1BB68002B01D167
:1025D000012300E00023002B0BD14FF0500383F3C5
:1025E0001188BFF36F8FBFF34F8FFB6100BF00BF38
:1025F000FDE750237B617B69502B0BD04FF05003DC
:1026000083F31188BFF36F8FBFF34F8FBB6100BFA0
:1026100000BFFDE77B693B68FB62FB6A002B0DD0C6
:10262000FB6A012283F8462097F83820FB6A009362
:1026300013467A68B968F86800F040F8FB6A1846F3
:102640003037BD4680BD80B58AB002AFF860B96052
:102650001346FB71FB68002B0BD14FF0500383F343
:102660001188BFF36F8FBFF34F8F3B6100BF00BF77
:10267000FDE7FB68BA6802FB03F3FB61FB695033BB
:10268000184602F077F8B861BB69002B11D0BB691E
:102690007B617B6950337B61BB69002283F84620F4
:1026A000FA79BB69009313467A69B968F86800F053
:1026B00005F8BB6918462037BD4680BD80B584B09B
:1026C00000AFF860B9607A60FB70BB68002B03D183
:1026D000BB69BA691A6002E0BB697A681A60BB69B3
:1026E000FA68DA63BB69BA681A640121B869FFF74E
:1026F000C3FEBB69FA7883F84C2000BF1037BD4693
:1027000080BD000080B58EB000AFF860B9607A601F
:102710003B6000237B63FB683B633B6B002B0BD16F
:102720004FF0500383F31188BFF36F8FBFF34F8FC8
:10273000BB6200BF00BFFDE7BB68002B03D13B6B52
:102740001B6C002B01D1012300E00023002B0BD1D7
:102750004FF0500383F31188BFF36F8FBFF34F8F98
:102760007B6200BF00BFFDE73B68022B03D13B6BE0
:10277000DB6B012B01D1012300E00023002B0BD1E7
:102780004FF0500383F31188BFF36F8FBFF34F8F68
:102790003B6200BF00BFFDE701F0CEF90346002B0E
:1027A00002D17B68002B01D1012300E00023002B24
:1027B0000BD14FF0500383F31188BFF36F8FBFF33A
:1027C0004F8FFB6100BF00BFFDE702F0F5FA3B6BE6
:1027D0009A6B3B6BDB6B9A4202D33B68022B29D18D
:1027E0003A68B968386B00F00FFAF8623B6B5B6AC5
:1027F000002B10D03B6B2433184600F0DDFF03465E
:10280000002B13D03F4B4FF080521A60BFF34F8F15
:10281000BFF36F8F0AE0FB6A002B07D0394B4FF0F4
:1028200080521A60BFF34F8FBFF36F8F02F0F6FA3A
:10283000012363E07B68002B03D102F0EFFA002351
:102840005CE07B6B002B06D107F11403184601F006
:1028500017F801237B6302F0E1FA00F087FD02F034
:10286000ABFA3B6B93F844305BB2B3F1FF3F03D15B
:102870003B6B002283F844203B6B93F845305BB2FE
:10288000B3F1FF3F03D13B6B002283F8452002F0F8
:10289000C5FA3A1D07F114031146184601F006F86F
:1028A0000346002B24D1386B00F0A6FA0346002B18
:1028B00018D03B6B10337A681146184600F02AFF97
:1028C000386B00F031FA00F05FFD0346002B7FF417
:1028D0007CAF0C4B4FF080521A60BFF34F8FBFF3A9
:1028E0006F8F72E7386B00F01FFA00F04DFD6CE758
:1028F000386B00F019FA00F047FD0023184638370E
:10290000BD4680BD04ED00E080B590B000AFF8603A
:10291000B9607A603B60FB68BB63BB6B002B0BD17B
:102920004FF0500383F31188BFF36F8FBFF34F8FC6
:10293000BB6200BF00BFFDE7BB68002B03D1BB6BD0
:102940001B6C002B01D1012300E00023002B0BD1D5
:102950004FF0500383F31188BFF36F8FBFF34F8F96
:102960007B6200BF00BFFDE73B68022B03D1BB6B5E
:10297000DB6B012B01D1012300E00023002B0BD1E5
:102980004FF0500383F31188BFF36F8FBFF34F8F66
:102990003B6200BF00BFFDE702F0EEFAEFF31182E9
:1029A0004FF0500383F31188BFF36F8FBFF34F8F46
:1029B000FA61BB61FB697B63BB6B9A6BBB6BDB6BC7
:1029C0009A4202D33B68022B2FD1BB6B93F8453060
:1029D00087F83330BB6B9B6BFB623A68B968B86BA6
:1029E00000F012F997F93330B3F1FF3F12D1BB6B0E
:1029F0005B6A002B16D0BB6B2433184600F0DCFE5C
:102A00000346002B0ED07B68002B0BD07B68012285
:102A10001A6007E097F833300133DBB25AB2BB6B70
:102A200083F845200123FB6301E00023FB637B6BFC
:102A30007B617B6983F3118800BFFB6B18464037CD
:102A4000BD4680BD80B58CB000AFF860B9607A60DB
:102A50000023FB62FB68BB62BB6A002B0BD14FF00B
:102A6000500383F31188BFF36F8FBFF34F8F3B6227
:102A700000BF00BFFDE7BB68002B03D1BB6A1B6C26
:102A8000002B01D1012300E00023002B0BD14FF0DC
:102A9000500383F31188BFF36F8FBFF34F8FFB6138
:102AA00000BF00BFFDE701F047F80346002B02D14D
:102AB0007B68002B01D1012300E00023002B0BD108
:102AC0004FF0500383F31188BFF36F8FBFF34F8F25
:102AD000BB6100BF00BFFDE702F06EF9BB6A9B6BF4
:102AE0007B627B6A002B1FD0B968B86A00F0F6F8E9
:102AF0007B6A5A1EBB6A9A63BB6A1B69002B0FD0A4
:102B0000BB6A1033184600F057FE0346002B07D06F
:102B10003C4B4FF080521A60BFF34F8FBFF36F8F63
:102B200002F07CF9012369E07B68002B03D102F0FD
:102B300075F9002362E0FB6A002B06D107F1100350
:102B4000184600F09DFE0123FB6202F067F900F0D9
:102B50000DFC02F031F9BB6A93F844305BB2B3F17B
:102B6000FF3F03D1BB6A002283F84420BB6A93F87D
:102B700045305BB2B3F1FF3F03D1BB6A002283F85B
:102B8000452002F04BF93A1D07F110031146184693
:102B900000F08CFE0346002B23D1B86A00F016F932
:102BA0000346002B17D0BB6A24337A6811461846B7
:102BB00000F0B0FDB86A00F0B7F800F0E5FB03469E
:102BC000002B89D10F4B4FF080521A60BFF34F8F0B
:102BD000BFF36F8F80E7B86A00F0A6F800F0D4FB6F
:102BE0007AE7B86A00F0A0F800F0CEFBB86A00F00F
:102BF000EDF80346002B3FF46FAF00231846303743
:102C0000BD4680BD04ED00E080B586B000AFF86041
:102C1000B9607A6000237B61FB689B6B3B61FB685A
:102C20001B6C002B0DD1FB681B68002B4DD1FB6882
:102C30009B68184600F09EFF7861FB6800229A604E
:102C400043E07B68002B19D1FB685868FB681B6C5C
:102C50001A46B96802F028FAFB685A68FB681B6CD0
:102C60001A44FB685A60FB685A68FB689B689A4282
:102C70002BD3FB681A68FB685A6026E0FB68D868AB
:102C8000FB681B6C1A46B96802F00EFAFB68DA683A
:102C9000FB681B6C5B421A44FB68DA60FB68DA680D
:102CA000FB681B689A4207D2FB689A68FB681B6C3A
:102CB0005B421A44FB68DA607B68022B05D13B69F2
:102CC000002B02D03B69013B3B613B695A1CFB680E
:102CD0009A637B6918461837BD4680BD80B582B0BF
:102CE00000AF786039607B681B6C002B18D07B6864
:102CF000DA687B681B6C1A447B68DA607B68DA6888
:102D00007B689B689A4203D37B681A687B68DA60A9
:102D10007B68D9687B681B6C1A46386802F0C4F976
:102D200000BF0837BD4680BD80B584B000AF786075
:102D300002F042F87B6893F84530FB7311E07B6842
:102D40005B6A002B12D07B682433184600F034FDF8
:102D50000346002B01D000F00DFEFB7B013BDBB2F4
:102D6000FB7397F90F30002BE9DC00E000BF7B68B4
:102D7000FF2283F8452002F051F802F01DF87B682D
:102D800093F84430BB7311E07B681B69002B12D0B1
:102D90007B681033184600F00FFD0346002B01D06E
:102DA00000F0E8FDBB7B013BDBB2BB7397F90E3053
:102DB000002BE9DC00E000BF7B68FF2283F84420A1
:102DC00002F02CF800BF1037BD4680BD80B584B03E
:102DD00000AF786001F0F0FF7B689B6B002B02D1A5
:102DE0000123FB6001E00023FB6002F017F8FB68A1
:102DF00018461037BD4680BD80B584B000AF7860FE
:102E000001F0DAFF7B689A6B7B68DB6B9A4202D138
:102E10000123FB6001E00023FB6001F0FFFFFB6882
:102E200018461037BD4680BD80B485B000AF7860CD
:102E300039600023FB6014E00F4AFB6852F833301E
:102E4000002B0BD10C49FB683A6841F833200A4A41
:102E5000FB68DB0013447A685A6006E0FB680133C4
:102E6000FB60FB68072BE7D900BF00BF1437BD46E6
:102E70005DF8047B704700BFB000002080B586B0CD
:102E800000AFF860B9607A60FB687B6101F094FF85
:102E90007B6993F844305BB2B3F1FF3F03D17B69A8
:102EA000002283F844207B6993F845305BB2B3F18C
:102EB000FF3F03D17B69002283F8452001F0AEFF7C
:102EC0007B699B6B002B06D17B6924337A68B968D8
:102ED000184600F045FC7869FFF726FF00BF183759
:102EE000BD4680BD80B58EB004AFF860B9607A6031
:102EF0003B607B6B002B0BD14FF0500383F31188A9
:102F0000BFF36F8FBFF34F8F3B6200BF00BFFDE782
:102F1000BB6B002B0BD14FF0500383F31188BFF331
:102F20006F8FBFF34F8FFB6100BF00BFFDE75C23D6
:102F30003B613B695C2B0BD04FF0500383F311884E
:102F4000BFF36F8FBFF34F8FBB6100BF00BFFDE7C3
:102F50003B69BB6B002B1ED07B6B002B1BD0BB6B6C
:102F60007B627B6A7A6B1A637B6A022283F8592040
:102F7000002303937B6A029307F1140301933B6BD5
:102F800000933B687A68B968F86800F050F8786A8E
:102F900000F0DEF801E000237B617B6918462837EA
:102FA000BD4680BD80B58CB004AFF860B9603B60B1
:102FB0001346FB80FB889B00184601F0DBFB786121
:102FC0007B69002B0ED05C2001F0D4FBF861FB691B
:102FD000002B03D0FB697A691A6305E0786901F078
:102FE00097FC01E00023FB61FB69002B17D0FB6914
:102FF000002283F85920FA8800230393FB69029387
:10300000FB6A0193BB6A00933B68B968F86800F0FB
:103010000EF8F86900F09CF80123BB6102E04FF064
:10302000FF33BB61BB6918462037BD4680BD80B504
:1030300088B000AFF860B9607A603B603B6B186B9A
:103040007B689B001A46A52102F001F83B6B1A6BC6
:103050007B6803F18043013B9B001344BB61BB6968
:1030600023F00703BB61BB6903F00703002B0BD000
:103070004FF0500383F31188BFF36F8FBFF34F8F6F
:103080007B6100BF00BFFDE7BB68002B1FD00023A2
:10309000FB6112E0BA68FB69134419783A6BFB696B
:1030A000134434330A461A70BA68FB6913441B7818
:1030B000002B06D0FB690133FB61FB690F2BE9D9BB
:1030C00000E000BF3B6B002283F8432003E03B6B32
:1030D000002283F83420BB6A372B01D93723BB6227
:1030E0003B6BBA6ADA623B6BBA6ADA643B6B00220A
:1030F0001A653B6B04331846FFF72AF93B6B18330C
:103100001846FFF725F93B6B3A6B1A61BB6AC3F1AE
:1031100038023B6B9A613B6B3A6B5A623B6B002205
:103120005A653B6B002283F858203A68F968B86901
:1031300001F00EFD02463B6B1A60FB6A002B02D0C9
:10314000FB6A3A6B1A6000BF2037BD4680BD0000A5
:1031500080B582B000AF786001F02EFE2D4B1B6869
:1031600001332C4A13602C4B1B68002B09D12A4ACF
:103170007B681360274B1B68012B10D100F01EFCED
:103180000DE0264B1B68002B09D1234B1B68DA6A24
:103190007B68DB6A9A4202D81F4A7B681360204B27
:1031A0001B6801331E4A13601D4B1A687B685A6402
:1031B0007B68DA6A1B4B1B689A4203D97B68DB6A1F
:1031C000184A13607B68DA6A13469B0013449B001D
:1031D000154A1A447B68043319461046FFF7C5F8B0
:1031E00001F01CFE0D4B1B68002B0ED00A4B1B6818
:1031F000DA6A7B68DB6A9A4207D20C4B4FF0805246
:103200001A60BFF34F8FBFF36F8F00BF0837BD4603
:1032100080BD00BFC4050020F0000020D0050020C4
:10322000E0050020CC050020F400002004ED00E0C3
:1032300080B584B000AF78600023FB607B68002B12
:1032400018D0144B1B68002B0BD04FF0500383F3A6
:103250001188BFF36F8FBFF34F8FBB6000BF00BFFC
:10326000FDE700F083F80021786800F0F3FC00F03F
:103270008BF8F860FB68002B07D1074B4FF08052AA
:103280001A60BFF34F8FBFF36F8F00BF1037BD467B
:1032900080BD00BFEC05002004ED00E080B58AB0E1
:1032A00004AF0023BB6000237B603A46391D07F161
:1032B0000803184601F02AFA39687B68BA68029256
:1032C00001930023009300230A4622492248FFF776
:1032D00009FE0346214A1360204B1B68002B02D0D5
:1032E00001237B6101E000237B617B69012B02D11B
:1032F00000F004FD78617B69012B16D14FF050037B
:1033000083F31188BFF36F8FBFF34F8F3B6100BF13
:10331000134B4FF0FF321A60124B01221A60124B0E
:1033200000221A6001F0A4FC0FE07B69B3F1FF3FBB
:103330000BD14FF0500383F31188BFF36F8FBFF3AE
:103340004F8FFB6000BF00BFFDE700BF1837BD46D1
:1033500080BD00BF245400088D390008E805002016
:10336000E4050020D0050020C805002080B400AF8F
:10337000044B1B680133034A136000BFBD465DF870
:10338000047B7047EC05002080B584B000AF0023BB
:10339000FB600023BB60424B1B68002B0BD14FF03E
:1033A000500383F31188BFF36F8FBFF34F8F3B60E0
:1033B00000BF00BFFDE701F0FFFC394B1B68013B7C
:1033C000374A1360364B1B68002B62D1354B1B68A4
:1033D000002B5ED02FE0344BDB68DB68FB60FB68C2
:1033E00018331846FFF71EF8FB6804331846FFF73A
:1033F00019F8FB68DA6A2D4B1B689A4203D9FB68FF
:10340000DB6A2A4A1360FB68DA6A13469B0013449E
:103410009B00274A1A44FB68043319461046FEF7FE
:10342000A4FFFB68DA6A234B1B68DB6A9A4202D36B
:10343000214B01221A601C4B1B68002BCBD1FB686F
:10344000002B01D000F058FB1C4B1B687B607B6895
:10345000002B10D000F046F80346002B02D0164B8C
:1034600001221A607B68013B7B607B68002BF1D1F5
:10347000124B00221A60104B1B68002B09D001234D
:10348000BB600F4B4FF080521A60BFF34F8FBFF3FA
:103490006F8F01F0C3FCBB6818461037BD4680BD76
:1034A000EC050020C405002084050020CC05002088
:1034B000F4000020F0000020D8050020D4050020F2
:1034C00004ED00E080B483B000AF054B1B687B6067
:1034D0007B6818460C37BD465DF8047B704700BF1B
:1034E000C805002080B586B000AF00237B614F4B3C
:1034F0001B68002B40F090804D4B1B6801333B61F3
:103500004B4A3B6913603B69002B21D1494B1B6837
:103510001B68002B0BD04FF0500383F31188BFF3CF
:103520006F8FBFF34F8F3B6000BF00BFFDE7414B84
:103530001B68FB60404B1B683E4A13603E4AFB68B9
:1035400013603E4B1B6801333C4A136000F0D4FA11
:103550003B4B1B683A699A4249D3364B1B681B6840
:10356000002B04D1364B4FF0FF321A603FE0314B55
:103570001B68DB68DB68BB60BB685B687B603A69C3
:103580007B689A4203D22E4A7B6813602FE0BB68A7
:1035900004331846FEF746FFBB689B6A002B04D035
:1035A000BB6818331846FEF73DFFBB68DA6A254B47
:1035B0001B689A4203D9BB68DB6A224A1360BB6866
:1035C000DA6A13469B0013449B001F4A1A44BB68E7
:1035D000043319461046FEF7C8FEBB68DA6A1B4B77
:1035E0001B68DB6A9A42B8D301237B61B5E7174BAE
:1035F0001B68DA6A144913469B0013449B000B4472
:103600001B68012B01D901237B61114B1B68002B27
:1036100007D001237B6104E00E4B1B6801330D4A88
:1036200013607B6918461837BD4680BDEC05002045
:10363000C80500207C05002080050020DC05002056
:10364000E4050020CC050020F4000020F00000205C
:10365000D8050020D405002080B485B000AF284BE9
:103660001B68002B03D0274B01221A6042E0254B38
:1036700000221A60244B1B68FB6011E0FB68002BE2
:103680000BD14FF0500383F31188BFF36F8FBFF35B
:103690004F8F7B6000BF00BFFDE7FB68013BFB6015
:1036A0001A49FA6813469B0013449B000B441B689D
:1036B000002BE3D0FA6813469B0013449B00134A87
:1036C0001344BB60BB685B685A68BB685A60BB68E0
:1036D0005A68BB6808339A4204D1BB685B685A6871
:1036E000BB685A60BB685B68DB68094A1360064ABE
:1036F000FB68136000BF1437BD465DF8047B70475C
:10370000EC050020D8050020CC050020F4000020A6
:10371000F000002080B584B000AF786039607B682D
:10372000002B0BD14FF0500383F31188BFF36F8F41
:10373000BFF34F8FFB6000BF00BFFDE7074B1B6867
:10374000183319467868FEF734FE0121386800F016
:1037500081FA00BF1037BD4680BD00BFF0000020D9
:1037600080B586B000AFF860B9607A60FB68002B66
:103770000BD14FF0500383F31188BFF36F8FBFF36A
:103780004F8F7B6100BF00BFFDE70A4B1B681833FA
:103790001946F868FEF7E9FD7B68002B02D04FF070
:1037A000FF33BB607968B86800F054FA00BF18377F
:1037B000BD4680BDF000002080B586B000AF7860C7
:1037C0007B68DB68DB683B613B69002B0BD14FF00A
:1037D000500383F31188BFF36F8FBFF34F8FFB60EC
:1037E00000BF00BFFDE73B6918331846FEF71AFE1D
:1037F0001D4B1B68002B1DD13B6904331846FEF797
:1038000011FE3B69DA6A194B1B689A4203D93B697E
:10381000DB6A164A13603B69DA6A13469B0013445D
:103820009B00134A1A443B69043319461046FEF7BD
:103830009CFD05E03B69183319460E48FEF795FDDF
:103840003B69DA6A0C4B1B68DB6A9A4205D9012393
:103850007B610A4B01221A6001E000237B617B69D6
:1038600018461837BD4680BDEC050020CC05002069
:10387000F400002084050020F0000020D80500207E
:1038800080B483B000AF7860064B1A687B681A601A
:10389000054B1A687B685A6000BF0C37BD465DF85F
:1038A000047B7047DC050020C805002080B588B087
:1038B00000AF786039607B68002B0BD14FF050036C
:1038C00083F31188BFF36F8FBFF34F8F3B6100BF4E
:1038D00000BFFDE73B68002B0BD14FF0500383F393
:1038E0001188BFF36F8FBFF34F8FFB6000BF00BF26
:1038F000FDE701F061FA1D4B1B68BB617B685B68EB
:10390000BA69D31A7B613B681B68B3F1FF3F02D1F0
:103910000023FB6123E07B681A68154B1B689A4201
:1039200007D07B685B68BA699A4202D30123FB61C6
:1039300015E03B681B687A699A420BD23B681A68AB
:103940007B69D21A3B681A607868FFF799FF0023F9
:10395000FB6104E03B6800221A600123FB6101F077
:103960005DFAFB6918462037BD4680BDC8050020BA
:10397000DC05002080B400AF034B01221A6000BFB9
:10398000BD465DF8047B7047D805002080B582B045
:1039900000AF786000F052F8064B1B68012BF9D994
:1039A000054B4FF080521A60BFF34F8FBFF36F8FFC
:1039B000F0E700BFF400002004ED00E080B582B025
:1039C00000AF00237B600CE07A6813469B00134431
:1039D0009B00124A13441846FEF79AFC7B68013399
:1039E0007B607B68372BEFD90D48FEF791FC0D48C3
:1039F000FEF78EFC0C48FEF78BFC0C48FEF788FCAB
:103A00000B48FEF785FC0B4B054A1A600A4B054A2A
:103A10001A6000BF0837BD4680BD00BFF40000201B
:103A2000540500206805002084050020980500202A
:103A3000B00500207C0500208005002080B582B004
:103A400000AF19E001F0B8F9104BDB68DB687B6070
:103A50007B6804331846FEF7E5FC0D4B1B68013B01
:103A60000B4A13600B4B1B68013B0A4A136001F0C1
:103A7000D5F9786800F010F8064B1B68002BE1D1EF
:103A800000BF00BF0837BD4680BD00BF98050020BD
:103A9000C4050020AC05002080B584B000AF78607C
:103AA0007B6893F85930002B08D17B681B6B184654
:103AB00000F02EFF786800F02BFF19E07B6893F888
:103AC0005930012B03D1786800F022FF10E07B68A9
:103AD00093F85930022B0BD04FF0500383F3118829
:103AE000BFF36F8FBFF34F8FFB6000BF00BFFDE7D9
:103AF00000BF1037BD4680BD80B483B000AF0C4B13
:103B00001B681B68002B04D10A4B4FF0FF321A6070
:103B100008E0074B1B68DB68DB687B607B685B68E1
:103B2000044A136000BF0C37BD465DF8047B704744
:103B30007C050020E405002080B483B000AF0B4B6F
:103B40001B68002B02D101237B6008E0084B1B6837
:103B5000002B02D102237B6001E000237B607B68A5
:103B600018460C37BD465DF8047B7047D005002031
:103B7000EC05002080B586B000AF78607B683B61C3
:103B800000237B617B68002B58D02F4B1B683A6960
:103B90009A420BD04FF0500383F31188BFF36F8F1D
:103BA000BFF34F8FFB6000BF00BFFDE73B691B6D9C
:103BB000002B0BD14FF0500383F31188BFF36F8FAD
:103BC000BFF34F8FBB6000BF00BFFDE73B691B6DBC
:103BD0005A1E3B691A653B69DA6A3B69DB6C9A429B
:103BE0002CD03B691B6D002B28D13B690433184650
:103BF000FEF718FC3B69DA6C3B69DA623B69DB6A09
:103C0000C3F138023B699A613B69DA6A0F4B1B6862
:103C10009A4203D93B69DB6A0C4A13603B69DA6A52
:103C200013469B0013449B00094A1A443B69043322
:103C300019461046FEF799FB01237B617B69184604
:103C40001837BD4680BD00BFF0000020CC05002025
:103C5000F400002080B584B000AF78603960214B5B
:103C60001B68FB60204B1B6804331846FEF7DAFB29
:103C70007B68B3F1FF3F0AD13B68002B07D01A4B9A
:103C80001B68043319461948FEF76FFB26E0FA68F3
:103C90007B681344BB60144B1B68BA685A60BA68EF
:103CA000FB689A4209D2124B1A680F4B1B68043307
:103CB00019461046FEF77DFB10E00E4B1A680A4BC2
:103CC0001B68043319461046FEF773FB0A4B1B684A
:103CD000BA689A4202D2084ABB68136000BF103724
:103CE000BD4680BDC8050020F0000020B0050020C2
:103CF000800500207C050020E405002080B58AB006
:103D000004AF00237B6100F013FB1D4B1B68002BED
:103D100021D00023FB600023BB603A1D07F108019E
:103D200007F10C03184600F00BFD7968BB68FA68D0
:103D3000029201930223009300230A46114912487C
:103D4000FFF7D0F80346114A1360104B1B68002B95
:103D500001D001237B617B69002B0BD14FF0500315
:103D600083F31188BFF36F8FBFF34F8F3B6100BFA9
:103D700000BFFDE77B6918461837BD4680BD00BF10
:103D8000200600202C540008C93E0008240600200C
:103D900080B58AB000AFF860B9607A603B600023FC
:103DA0007B62FB68002B0BD14FF0500383F311882B
:103DB000BFF36F8FBFF34F8F3B6200BF00BFFDE7C4
:103DC000194B1B68002B2AD0BB683B617B687B6169
:103DD000FB68BB61BB68052B18DCFFF7ADFE034633
:103DE000022B09D1104B186807F1100100233A6B20
:103DF000FEF788FC786212E00B4B186807F110019F
:103E000000230022FEF77EFC786208E0064B18686B
:103E100007F1100100233A68FEF776FD78627B6AAD
:103E200018462837BD4680BD2006002080B588B0E2
:103E300002AF78603960234B1B68DB68DB687B610D
:103E40007B6904331846FEF7EDFA7B6993F8283056
:103E500003F00403002B23D07B699A697B68D11897
:103E60007B683A68786900F0D5F80346002B20D0CB
:103E70000023009300237A6800217869FFF788FF08
:103E800038613B69002B14D14FF0500383F3118844
:103E9000BFF36F8FBFF34F8FFB6000BF00BFFDE725
:103EA0007B6993F8283023F00103DAB27B6983F849
:103EB00028207B691B6A7869984700BF1837BD4680
:103EC00080BD00BF1806002080B584B000AF7860C8
:103ED00007F10803184600F059F8F860BB68194666
:103EE000F86800F005F800F0D7F800BFF0E7000030
:103EF00080B584B000AF78603960FFF737FA07F11A
:103F00000803184600F066F8F860BB68002B30D153
:103F10003B68002B0AD17A68FB689A4206D8FFF703
:103F200033FAF9687868FFF781FF24E03B68002BDB
:103F300008D0134B1B681B68002B01D1012300E044
:103F400000233B600F4B18687A68FB68D31A3A6805
:103F50001946FEF793FFFFF717FA0346002B0AD125
:103F6000094B4FF080521A60BFF34F8FBFF36F8F32
:103F700001E0FFF709FA00BF1037BD4680BD00BF62
:103F80001C0600202006002004ED00E080B485B06F
:103F900000AF78600E4B1B681B68002B01D101221B
:103FA00000E000227B681A607B681B68002B05D14B
:103FB000074B1B68DB681B68FB6001E00023FB60AC
:103FC000FB6818461437BD465DF8047B704700BF98
:103FD0001806002080B584B000AF7860FFF772FA51
:103FE000F8600B4B1B68FA689A4205D200F03AF968
:103FF0007B6801221A6002E07B6800221A60044A92
:10400000FB681360FB6818461037BD4680BD00BFD3
:104010002806002080B586B000AFF860B9607A60ED
:104020003B6000237B61FB68BA685A60FB68FA68F2
:104030001A61BA687B689A4212D87A683B68D21AC9
:10404000FB689B699A4202D301237B611BE0104B02
:104050001A68FB68043319461046FEF7AAF912E005
:104060007A683B689A4206D2BA683B689A4202D3A1
:1040700001237B6107E0074B1A68FB68043319468C
:104080001046FEF796F97B6918461837BD4680BD85
:104090001C0600201806002080B58EB002AFCEE0CE
:1040A0007B68002B19DA3B1D0433FB62FB6A002B93
:1040B0000BD14FF0500383F31188BFF36F8FBFF321
:1040C0004F8FFB6100BF00BFFDE7FB6A1B68FA6A08
:1040D0005068FA6A9268114698477B68002BC0F2D4
:1040E000AE80FB68BB62BB6A5B69002B04D0BB6A15
:1040F00004331846FEF796F93B461846FFF76AFF69
:1041000078627B68092B00F2978001A252F823F0B5
:10411000394100083941000839410008AF41000821
:10412000C34100080F420008394100083941000826
:10413000AF410008C3410008BB6A93F8283043F040
:104140000103DAB2BB6A83F82820BA68BB6A9B69AC
:10415000D118BB687A6AB86AFFF75CFF0346002B88
:104160006CD0BB6A1B6AB86A9847BB6A93F8283060
:1041700003F00403002B61D0BA68BB6A9B691A4440
:104180000023009300230021B86AFFF701FE386284
:104190003B6A002B52D14FF0500383F31188BFF3D9
:1041A0006F8FBFF34F8FBB6100BF00BFFDE7BB6ADE
:1041B00093F8283023F00103DAB2BB6A83F8282091
:1041C0003DE0BB6A93F8283043F00103DAB2BB6AE2
:1041D00083F82820BA68BB6A9A61BB6A9B69002B86
:1041E0000BD14FF0500383F31188BFF36F8FBFF3F0
:1041F0004F8F7B6100BF00BFFDE7BB6A9A697B6A96
:10420000D1187B6A7A6AB86AFFF704FF17E0BB6AC5
:1042100093F8283003F00203002B03D1B86A00F0B2
:1042200077FB0CE0BB6A93F8283023F00103DAB285
:10423000BB6A83F8282002E000BF00E000BF084B03
:104240001B68391D00221846FEF7FCFB0346002BB5
:104250007FF426AF00BF00BF3037BD4680BD00BF32
:104260002006002080B588B002AF49E02E4B1B68C5
:10427000DB681B683B612C4B1B68DB68DB68FB6001
:10428000FB6804331846FEF7CDF8FB681B6AF86834
:104290009847FB6893F8283003F00403002B2FD0D5
:1042A000FB689B693A691344BB60BA683B699A42F0
:1042B0000ED9FB68BA685A60FB68FA681A611A4B33
:1042C0001A68FB68043319461046FEF772F817E0C7
:1042D0000023009300233A690021F868FFF758FD96
:1042E00078607B68002B0BD14FF0500383F311886B
:1042F000BFF36F8FBFF34F8F3B6000BF00BFFDE781
:10430000094B1B681B68002BB0D1074B1B687B61F6
:10431000064B1B68044A1360044A7B69136000BFA4
:104320001837BD4680BD00BF180600201C060020BF
:1043300080B582B002AF00F03FFD154B1B68002B2B
:1043400020D11448FDF7E4FF1348FDF7E1FF134BBC
:10435000104A1A60124B104A1A6000230093114B46
:10436000114A10210A20FEF7F1F80346084A1360AB
:10437000074B1B68002B05D0054B1B680B491846E3
:10438000FEF752FD00F04AFD00BFBD4680BD00BFF4
:1043900020060020F005002004060020180600205A
:1043A0001C060020CC0600202C06002034540008F7
:1043B00080B483B000AF03463960FB7197F90730D2
:1043C000002B0ADB3B68DAB20C4997F9073012017F
:1043D000D2B20B4483F800230AE03B68DAB2084902
:1043E000FB7903F00F03043B1201D2B20B441A769F
:1043F00000BF0C37BD465DF8047B704700E100E06C
:1044000000ED00E080B500AF054B1B68FFF794FBA3
:104410000346012B01D000F05FFD00BF80BD00BF4F
:1044200010E000E080B500AF00216FF00400FFF75E
:10443000BFFF00BF80BD000080B483B000AFEFF3CA
:1044400005833B603B68002B03D06FF005037B6066
:104450000CE00A4B1B68002B05D1084B01221A60A7
:1044600000237B6002E04FF0FF337B607B681846DF
:104470000C37BD465DF8047B704700BF1C07002069
:1044800080B582B000AFEFF305833B603B68002B43
:1044900003D06FF005037B6010E00B4B1B68012B12
:1044A00009D1FFF7BFFF084B02221A60FEF7F6FEA4
:1044B00000237B6002E04FF0FF337B607B6818468F
:1044C0000837BD4680BD00BF1C07002080B58EB0F8
:1044D00004AFF860B9607A6000233B61EFF30583B5
:1044E0007B617B69002B7ED1FB68002B7BD0802316
:1044F0003B621823FB6100237B624FF0FF33BB61FB
:104500007B68002B45D07B681B68002B02D07B6842
:104510001B687B627B689B69002B02D07B689B6970
:10452000FB61FB69002B08D0FB69382B05D87B6841
:104530005B6803F00103002B01D0002354E07B688B
:104540005B69002B03D07B685B699B083B627B68DF
:104550009B68002B0ED07B68DB685B2B0AD97B68DD
:104560001B69002B06D07B685B69002B02D00123FE
:10457000BB6110E07B689B68002B0CD17B68DB681B
:10458000002B08D17B681B69002B04D10023BB6181
:1045900001E00023BB61BB69012B10D17B681B6963
:1045A0007A68926802920193FB690093BB683A6A49
:1045B000796AF868FEF796FC03463B6113E0BB6935
:1045C000002B10D13B6A9AB207F110030193FB69EB
:1045D0000093BB68796AF868FEF7E4FC0346012B98
:1045E00001D000233B613B6918462837BD4680BD9A
:1045F00080B584B000AF7860EFF30583BB60BB6823
:10460000002B03D06FF00503FB6007E00023FB6085
:104610007B68002B02D07868FEF70AFEFB6818461C
:104620001037BD4680BD80B58AB002AFF860B96072
:104630007A600023FB61EFF305833B613B69002B4C
:104640005FD1FB68002B5CD0BB68002B59D04FF0CA
:10465000FF33BB617B68002B29D07B689B68002BF4
:1046600012D07B68DB684F2B0ED97B681B69002B4F
:104670000AD07B685A69FB68B96801FB03F39A4268
:1046800002D30123BB6114E07B689B68002B10D12F
:104690007B68DB68002B0CD17B681B69002B08D181
:1046A0007B685B69002B04D10023BB6101E0002320
:1046B000BB61BB69012B0BD17B681A697B689B6866
:1046C00000210091B968F868FDF740FFF86108E043
:1046D000BB69002B05D10022B968F868FDF7B3FF6C
:1046E000F861FB69002B0CD07B68002B03D07B6842
:1046F0001B687B6101E000237B617969F869FEF743
:1047000093FBFB6918462037BD4680BD80B485B059
:1047100000AFF860B9607A60FB68074A1A60BB684E
:10472000064A1A607B6880221A6000BF1437BD46B3
:104730005DF8047B704700BF200700207C07002045
:1047400080B485B000AFF860B9607A60FB68074A52
:104750001A60BB68064A1A607B684FF480721A6060
:1047600000BF1437BD465DF8047B70477C0900200C
:10477000D809002080B58AB000AF78600023FB61C3
:10478000FEF7F4FD5C4B1B68002B01D100F024F90F
:104790005A4B1A687B681340002B40F095807B6869
:1047A000002B1ED008227B6813447B607B6803F0DB
:1047B0000703002B15D07B6823F0070308337B60C9
:1047C0007B6803F00703002B0BD04FF0500383F3FB
:1047D0001188BFF36F8FBFF34F8F7B6100BF00BFA6
:1047E000FDE77B68002B6FD0454B1B687A689A42C7
:1047F0006AD8444B3B62434B1B687B6204E07B6A94
:104800003B627B6A1B687B627B6A5B687A689A4260
:1048100003D97B6A1B68002BF1D1374B1B687A6A7E
:104820009A4251D03B6A1B6808221344FB617B6AA1
:104830001A683B6A1A607B6A5A687B68D21A082336
:104840005B009A4220D97A6A7B681344BB61BB69DA
:1048500003F00703002B0BD04FF0500383F31188B4
:10486000BFF36F8FBFF34F8F3B6100BF00BFFDE70A
:104870007B6A5A687B68D21ABB695A607B6A7A681D
:104880005A60B86900F00AF91D4B1A687B6A5B68C8
:10489000D31A1B4A13601A4B1A681B4B1B689A42A7
:1048A00003D2174B1B68184A13607B6A5A68134B74
:1048B0001B681A437B6A5A607B6A00221A60134B9A
:1048C0001B680133114A1360FEF75EFDFB6903F0BC
:1048D0000703002B0BD04FF0500383F31188BFF375
:1048E0006F8FBFF34F8FFB6000BF00BFFDE7FB6919
:1048F00018462837BD4680BDE0490020F449002015
:10490000E4490020D8490020E8490020EC49002073
:1049100080B586B000AF78607B687B617B68002BD8
:104920004FD008235B427A6913447B617B693B610A
:104930003B695A68254B1B681340002B0BD14FF085
:10494000500383F31188BFF36F8FBFF34F8FFB606A
:1049500000BF00BFFDE73B691B68002B0BD04FF089
:10496000500383F31188BFF36F8FBFF34F8FBB608A
:1049700000BF00BFFDE73B695A68144B1B6813403A
:10498000002B1ED03B691B68002B1AD13B695A686B
:104990000E4B1B68DB431A403B695A60FEF7E6FC8E
:1049A0003B695A680A4B1B681344094A136038690B
:1049B00000F074F8074B1B680133064A1360FEF7DA
:1049C000E3FC00BF1837BD4680BD00BFF44900209E
:1049D000E4490020F049002080B485B000AF4FF4D6
:1049E0007053BB60274BFB60FB6803F00703002B91
:1049F0000CD0FB680733FB60FB6823F00703FB6008
:104A0000BA68FB68D31A1F4A1344BB60FB687B601B
:104A10001D4A7B6813601C4B00225A607B68BA6891
:104A20001344FB600822FB689B1AFB60FB6823F0C1
:104A30000703FB60FB68154A1360144B1B680022D8
:104A40005A60124B1B6800221A607B683B603B680F
:104A5000FA68D21A3B685A600C4B1A683B681A60B5
:104A60003B685B680A4A13603B685B68094A1360ED
:104A7000094B4FF000421A6000BF1437BD465DF885
:104A8000047B7047D80D0020D8490020E049002061
:104A9000E8490020E4490020F449002080B485B0B2
:104AA00000AF7860284BFB6002E0FB681B68FB608E
:104AB000FB681B687A689A42F7D8FB68BB60FB68A2
:104AC0005B68BA6813447A689A4208D1FB685A68EE
:104AD0007B685B681A44FB685A60FB687B607B6894
:104AE000BB607B685B68BA681A44FB681B689A42C3
:104AF00018D1FB681A68154B1B689A420DD07B6869
:104B00005A68FB681B685B681A447B685A60FB68DC
:104B10001B681A687B681A6008E00C4B1A687B688F
:104B20001A6003E0FB681A687B681A60FA687B68A1
:104B30009A4202D0FB687A681A6000BF1437BD46FB
:104B40005DF8047B704700BFD8490020E049002091
:104B500080B485B000AFF860B9607A60FB68043B50
:104B6000FB60FB684FF080721A60FB68043BFB60DF
:104B7000BB6823F00102FB681A60FB68043BFB6022
:104B80000C4AFB681A60FB68143BFB607A68FB68A0
:104B90001A60FB68043BFB60FB686FF002021A605E
:104BA000FB68203BFB60FB6818461437BD465DF888
:104BB000047B7047B94B000880B485B000AF002378
:104BC0007B60134B1B68B3F1FF3F0BD04FF05003DA
:104BD00083F31188BFF36F8FBFF34F8FFB6000BF6C
:104BE00000BFFDE74FF0500383F31188BFF36F8FD1
:104BF000BFF34F8FBB6000BF00BF7B68002BFCD0B2
:104C000000BF00BF1437BD465DF8047B704700BF8E
:104C10000C00002000000000000000000000000068
:104C2000074B19680868B0E8F04F80F30988BFF3B4
:104C30006F8F4FF0000080F311887047AFF3008052
:104C4000F000002000BF00BF08480068006880F343
:104C500008884FF0000080F3148862B661B6BFF395
:104C60004F8FBFF36F8F00DF00BF00BF08ED00E084
:104C700080B586B000AF474B1B68474A93420BD1C3
:104C80004FF0500383F31188BFF36F8FBFF34F8F43
:104C9000FB6000BF00BFFDE73E4B1B683F4A9342ED
:104CA0000BD14FF0500383F31188BFF36F8FBFF325
:104CB0004F8F3B6100BF00BFFDE7394B7B617B69D4
:104CC0001B78DBB27B607B69FF221A707B691B78E3
:104CD000DBB2FB70FB78DBB203F05003DAB2314B8E
:104CE0001A70314B07221A6009E02F4B1B68013BF9
:104CF0002D4A1360FB78DBB25B00DBB2FB70FB7804
:104D0000DBB203F08003802BEFD0274B1B68C3F18D
:104D10000703042B0BD04FF0500383F31188BFF32C
:104D20006F8FBFF34F8FBB6000BF00BFFDE71E4B0F
:104D30001B681B021C4A13601B4B1B6803F4E063D7
:104D4000194A13607B68DAB27B691A70174B1B68CB
:104D5000164A43F470031360144B1B68134A43F064
:104D60007043136000F0DAF8114B00221A6000F073
:104D7000F9F8104B1B680F4A43F040431360FFF7EC
:104D800063FFFEF769FCFFF717FF0023184618378B
:104D9000BD4680BD00ED00E071C20F4170C20F4101
:104DA00000E400E0F8490020FC49002020ED00E08C
:104DB0000C00002034EF00E080B483B000AF4FF06F
:104DC000500383F31188BFF36F8FBFF34F8F7B6066
:104DD00000BF104B1B6801330E4A13600D4B1B685C
:104DE000012B10D10C4B1B68DBB2002B0BD04FF00A
:104DF000500383F31188BFF36F8FBFF34F8F3B6076
:104E000000BF00BFFDE700BF0C37BD465DF8047B67
:104E1000704700BF0C00002004ED00E080B483B0B8
:104E200000AF124B1B68002B0BD14FF0500383F3E4
:104E30001188BFF36F8FBFF34F8F7B6000BF00BF40
:104E4000FDE70A4B1B68013B084A1360074B1B68D0
:104E5000002B05D100233B603B6883F3118800BF22
:104E600000BF0C37BD465DF8047B70470C00002086
:104E7000EFF30980BFF36F8F154B1A681EF0100F08
:104E800008BF20ED108A20E9F04F10602DE90900DD
:104E90004FF0500080F31188BFF34F8FBFF36F8F37
:104EA000FEF7DAFB4FF0000080F3118809BC1968A7
:104EB0000868B0E8F04F1EF0100F08BFB0EC108A81
:104EC00080F30988BFF36F8F704700BFAFF3008096
:104ED000F000002000BF00BF80B582B000AF4FF0EF
:104EE000500383F31188BFF36F8FBFF34F8F7B6045
:104EF00000BFFEF7F7FA0346002B03D0064B4FF036
:104F000080521A6000233B603B6883F3118800BF26
:104F100000BF0837BD4680BD04ED00E080B400AF9F
:104F20000B4B00221A600B4B00221A600A4B1B68C5
:104F30000A4AA2FB03239B09094A013B1360044B65
:104F400007221A6000BFBD465DF8047B704700BFB2
:104F500010E000E018E000E008000020D34D6210EF
:104F600014E000E0DFF80C00016841F4700101601A
:104F7000704700BF88ED00E080B485B000AFEFF36C
:104F80000583FB60FB680F2B15D9184AFB68134497
:104F90001B78FB72164B1B78FA7A9A420BD24FF0B1
:104FA000500383F31188BFF36F8FBFF34F8F7B6084
:104FB00000BF00BFFDE70F4B1B6803F4E0620E4B20
:104FC0001B689A420BD94FF0500383F31188BFF34B
:104FD0006F8FBFF34F8F3B6000BF00BFFDE700BF87
:104FE0001437BD465DF8047B704700BFF0E300E076
:104FF000F84900200CED00E0FC490020DFF834D037
:10500000FDF774F90C480D490D4A002302E0D4580D
:10501000C4500433C4188C42F9D30A4A0A4C002302
:1050200001E013600432A242FBD300F019F8FBF751
:1050300017F9704700000220000000201000002037
:105040001855000810000020004A0020FEE7024426
:105050000346934200D1704703F8011BF9E70000B3
:1050600070B50D4B0D4D5B1B9C100026A64209D15F
:1050700000F0A4F90A4D0B4B5B1B9C100026A642C6
:1050800005D170BD55F8043B98470136EEE755F859
:10509000043B98470136F2E7105500081055000808
:1050A00010550008145500080A44914200F1FF33DE
:1050B00000D1704710B511F8014B03F8014F914230
:1050C000F9D110BD2DE9F047089D0F4604468C46E6
:1050D000002B48D18A42164661D9B2FA82F34BB10D
:1050E000C3F1200201FA03FC20FA02F29E4042EAD8
:1050F0000C0C9C404FEA164EB7B2BCFBFEF1220CE2
:105100000EFB11CC42EA0C4201FB07F0904209D998
:10511000B21801F1FF3C80F0EE80904240F2EB804B
:1051200002393244121AA4B2B2FBFEF00EFB102276
:1051300044EA024400FB07F7A74209D9341900F1F9
:10514000FF3280F0DA80A74240F2D7803444023840
:1051500040EA0140E41B00211DB1DC400023C5E909
:105160000043BDE8F0878B4206D90DB1C5E90001C7
:1051700000210846BDE8F087B3FA83F1002948D141
:10518000BB4202D3824200F20781841A67EB03021A
:1051900001209446002DE4D0C5E9004CE1E7002A47
:1051A00000F09280B2FA82F3002B40F0A8808A1AB5
:1051B0004FEA164E1FFA86FC0121200CB2FBFEF7C7
:1051C0000EFB172240EA02420CFB07F0904207D97F
:1051D000B21807F1FF3802D2904200F2E28047464F
:1051E000121AA4B2B2FBFEF00EFB102244EA0244F3
:1051F0000CFB00FCA44507D9341900F1FF3202D2A0
:10520000A44500F2CB801046A4EB0C0440EA074012
:10521000A2E7C1F120068B4022FA06FC4CEA030CFF
:1052200007FA01F420FA06F3F7404FEA1C4923433A
:1052300000FA01F81FFA8CFEB7FBF9F01C0C09FB11
:10524000107744EA074400FB0EF7A74202FA01F286
:105250000AD91CEB040400F1FF3A80F09B80A742BE
:1052600040F2988002386444E41B9FB2B4FBF9F327
:1052700009FB134447EA044403FB0EFEA64509D983
:105280001CEB040403F1FF3780F08280A6457FD930
:10529000023B644443EA0040A4EB0E04A0FB02E797
:1052A000BC427346B94663D360D05DB1B8EB03022C
:1052B00064EB090404FA06F622FA01F31E43CC401B
:1052C000C5E9006400214CE76208480842EAC17160
:1052D0000B0C43EA00438AB242EA0342B3FBF6F105
:1052E000E407B4463746B6461F23B0FBF6F0D21BA0
:1052F00041EA004161E7614614E7104628E7C3F13F
:10530000200120FA01F29E4027FA01F19F403A4322
:105310004FEA164E1FFA86FCB1FBFEF70EFB171084
:10532000110C41EA004107FB0CF8884504FA03F42C
:105330003AD9711807F1FF3001D288451FD8A1EB87
:105340000801B1FBFEF808FB0CF70EFB181192B236
:1053500042EA0142BA422FD2B21808F1FF31C6D256
:10536000BA42C4D2A8F102013244C0E7F0459CD24F
:10537000BEEB020367EB0C070138B94695E7A6EBD5
:1053800008084144B81EB1FBFEF808FB0CF7DCE747
:105390003B467FE7504667E70846FBE63444023861
:1053A00032E7023F32441BE7A1EB08013846B1FB6C
:1053B000FEF808FB0CF7C8E7414698E7F8B500BFD0
:1053C000F8BC08BC9E467047F8B500BFF8BC08BCE6
:0453D0009E4670473E
:1053D400745F696E70757400745F6C6F67000000B1
:1053E400745F6F7574707574000000006D5F696E92
:1053F4007075745F746F5F6C6F6700006D5F6C6FC6
:10540400675F746F5F6F7574707574006D5F6F752F
:10541400747075745F746F5F696E707574000000EA
:1054240049444C4500000000546D722053766300DB
:10543400546D725100000000D453000800000000B5
:105444000000000000000000000000000002000056
:10545400200000000000000000000000DC530008F1
:105464000000000000000000000000000000000038
:10547400000200001800000000000000000000000E
:10548400E4530008000000000000000000000000D9
:1054940000000000000200001800000000000000EE
:1054A40000000000F05300080000000000000000AD
:1054B400000000000000000000000000005400088C
:1054C40000000000000000000000000000000000D8
:1054D400000000001054000800000000000000005C
:1054E40000000000000000000000000000000000B8
:1054F4000000000001020304060708090000000080
:045504000102030499
:08550800BCFBFF7F0100000065
:045510003D02000850
:045514001502000874
:1055180010000000010000000024F400AAAAAAAAB2
:0400000508004FFDA3
:00000001FF
