:020000040800F2
:10000000785C0020A5030008853C00088F3A0008B2
:10001000813C0008612000086D46000800000000D7
:10002000000000000000000000000000E5020008E1
:100030006520000800000000410300084D40000852
:10004000BF030008BF030008BF030008BF03000888
:10005000BF030008BF030008BF030008BF03000878
:10006000BF030008BF030008BF030008BF03000868
:10007000BF030008BF030008BF030008BF03000858
:10008000BF030008BF030008BF0300080000000012
:10009000000000000000000000000000BF03000896
:1000A000BF03000831410008BF030008BF03000878
:1000B000BF030008BF030008BF030008BF03000818
:1000C000BF030008BF030008BF030008BF03000808
:1000D000BF0300085D460008BF03000800000000E1
:1000E000BF030008BF030008BF03000800000000B2
:1000F000000000000000000000000000BF03000836
:1001000000000000BF030008BF030008BF03000891
:1001100000000000000000000000000000000000DF
:10012000BF030008BF030008BF030008BF030008A7
:10013000BF030008000000000000000000000000F5
:10014000000000000000000000000000BF030008E5
:10015000BF030008BF030008BF030008BF03000877
:10016000BF030008BF0300080000000000000000FB
:10017000000000000000000000000000000000007F
:1001800000000000BF0300080000000000000000A5
:10019000BF030008BF03000800F002F800F092F867
:1001A0000AA090E8000C82448344AAF10107DA45D2
:1001B00001D100F087F8AFF2090EBAE80F0013F092
:1001C000010F18BFFB1A43F001031847D87E000047
:1001D000F87E0000103A24BF78C878C1FAD85207D8
:1001E00024BF30C830C144BF04680C6070470000B1
:1001F0000023002400250026103A28BF78C1FBD830
:10020000520728BF30C148BF0B6070476E2900F00D
:10021000C784702900F07582662907F03685652944
:1002200007F03385672907F03085612907F02F85AE
:1002300003681B0A28BF41F08001692900F0E681AC
:10024000642900F0E381752900F0E0816F2900F056
:10025000B485782900F04182E92900F04F85E4292E
:1002600000F04C85F52900F04985EF2900F0B185B3
:10027000F82900F040820368DB0928BF41F08001C3
:10028000632900F0D084732900F0D584E32901F0BC
:10029000B981F32901F0BE81002070471FB507F036
:1002A000EFFC01F009FA04000020002107F0D2FC65
:1002B000401C60600020002107F0B6FCE0601FBD1C
:1002C00010B510BD01F0CAF91146FFF7E7FF05F0C0
:1002D000DFFA01F0A7FA03B4FFF7F2FF03BC01F065
:1002E000F1FA00002C4B19680868B0E8F04F80F371
:1002F0000988BFF36F8F4FF0000080F311887047BB
:100300000000000008480068006880F308884FF08B
:10031000000080F3148862B661B6BFF34F8FBFF35D
:100320006F8F00DF00BF00BF08ED00E0DFF80C00BA
:10033000016841F470010160704700BF88ED00E082
:10034000EFF30980BFF36F8F134B1A681EF0100F85
:1003500008BF20ED108A20E9F04F106009B44FF07B
:10036000500080F31188BFF34F8FBFF36F8F06F0FB
:1003700029FD4FF0000080F3118809BC1968086856
:10038000B0E8F04F1EF0100F08BFB0EC108A80F3F9
:100390000988BFF36F8F70472C000020EFF30580B2
:1003A000704700000948804709480047FEE7FEE71C
:1003B000FEE7FEE7FEE7FEE7FEE7FEE7FEE7FEE715
:1003C00004480549054A064B704700001D410008D6
:1003D0009901000878560020785C002078580020A9
:1003E0007858002053EA020C00F069802DE9F04BA8
:1003F0004FF00006002B1FBFB3FA83F503FA05F494
:1004000024FA05F65E4012BF1643B2FA82F502FAEC
:1004100005F4C5F120051EBF22FA05FC44EA0C04D0
:10042000203556EA044C4FEA144418BF641C4FF0C0
:1004300000084FF00009904271EB030C39D30029FA
:1004400019BFB1FA81F701FA07F6B0FA80F700FA9E
:1004500007F6C7F120071EBF20FA07FC46EA0C0684
:100460002037B6FBF4FCA7EB0507103F07F01F0B86
:10047000CBF120060CFA0BFB2CFA06F644BFB34670
:100480000026202FA4BF5E464FF0000B5BEA060C4F
:1004900008BF4FF0010B19EB0B09ABFB027C48EBDB
:1004A0000608C01B06FB02CC0BFB03CC71EB0C0156
:1004B000C1E70B46024641464846BDE8F08B13B5FE
:1004C0004FF000004FF00001AFF30080BDE81C408A
:1004D000704700007CB51D4616460C00009001D008
:1004E0002044401E074B7B442A4669460190304613
:1004F00000F06FFB05461CB10020694600F07CFB54
:1005000028467CBD190700000FB41CB5084B06AA8D
:100510007B4469460090059800F05BFB0446002090
:10052000694600F069FB20461CBC5DF814FB000026
:10053000E50600000FB47CB50C0009AA009001D0BC
:100540002044401E084B7B4469460190089800F007
:1005500040FB05461CB10020694600F04DFB2846D3
:100560007CBC5DF814FB0000B906000070B50446C1
:1005700085690068C10601D5302600E02026C00745
:1005800007D070BDD4E9012130469047206A401C55
:1005900020626D1EF6D570BD70B504468569007881
:1005A000C00707D170BDD4E9012120209047206AFF
:1005B000401C20626D1EF6D570BD70B50C46054618
:1005C000012A05D02878800600D5EA69002302E0D8
:1005D000012305E05B1C934202D2E05C0028F9D1C4
:1005E000A869E618C01AA861286A18442862284633
:1005F000FFF7BCFF04E0D5E9012114F8010B904797
:10060000B442F8D32846FFF7C7FF70BD2DE9F0418B
:100610000646002410687529314616A510D000F052
:1006200054FA002802DA404213A507E031688A072D
:1006300001D512A502E0490704D511A5012401E066
:1006400000F04CFA00210A2206F1240709E0B0FB71
:10065000F2FCB0FBF2F302FB1C0030307854184679
:10066000491C0028F3D123462A463046BDE8F04114
:1006700000F03DBA000000002D0000002B0000003B
:1006800020000000F0B40D460188090502D5214C78
:100690007C4402E01F4C7C440E34002100F124060F
:1006A00008E002F00F071209E75D42EA03721B0936
:1006B0007754491C52EA0307F3D10278002312074A
:1006C00004D5702D06D009B1022311342246F0BCA6
:1006D00000F00DBA01231034F8E770B504460D465A
:1006E0002146106800F0FAF9024629462046BDE886
:1006F00070400023C6E7D21D22F00703D3E9002390
:10070000C0E70368126843F0200303600823C36155
:100710000023B7E7677800002DE9F05F89460446BB
:100720004FF0000ADFF874B1FB44C0F820A0204667
:10073000E1688847002874D0252806D0D4E9012133
:100740009047206A401C2062F1E700265F46204661
:10075000E16888472028054607DB312D05D2781946
:1007600010F8200C08B10643F1E7B00701D526F0D8
:100770000406C4F81CA00027C4F818A02A2D09D02C
:10078000284604F068F938B304EB8708303DC8F810
:10079000185019E059F8041B204604EB87029161B8
:1007A000E1688847012F054618D1E069002820DA62
:1007B00026F020061DE0D8F8180000EB800005EBBD
:1007C00040003038C8F818002046E16888470546E0
:1007D00004F041F90028EED1012F0AD02E2D08D1C6
:1007E0002046E16888477F1C0546022F46F0200618
:1007F000C4DBA069002803DA404246F00106A0618C
:10080000F00701D026F010066C2D0BD0682D09D012
:100810004C2D39D06A2D35D0742D35D07A2D33D06A
:1008200016E038E0E1682F4620468847B842054682
:1008300009D16C2F26D04FF48060E1680643204632
:100840008847054604E06C2F1AD04FF480700643A9
:100850000DB3A5F14100192802D8203546F40066F1
:100860004A462946204626604E46FFF7CFFC80B117
:1008700001280BD0F61D26F0070000F1080956E705
:100880004020E4E78020D8E70020D6E706F10409FD
:100890004DE7284652E7206ABDE8F09FF777000051
:1008A00030B505460B462A4613F8014B12F8010BEA
:1008B00008B1A042F8D01CB1002802D06D1CF1E7AD
:1008C000284630BD10B5431C02E010F8011B71B181
:1008D0008107FAD14FF0013202C88C1A8C4314EA16
:1008E000C211F9D0C01A0A0603D0C01E10BDC01A2A
:1008F00010BD0A0401D0801E10BD0902FCD0401EAC
:1009000010BD40EA010370B59B072ED14FF00136B0
:10091000042A2AD308C810C99D1B9D43121F15EA3B
:10092000C61517D0D8B2E1B2401A50EA056110D10D
:1009300098B2A1B2401A50EA05410AD123F07F4093
:1009400024F07F41401A50EA052102D1180EA0EB95
:10095000146070BDA342DBD018BA21BA884201D915
:10096000012070BD4FF0FF3070BD0AB9002070BD8E
:1009700010F8013B11F8014B63B1A3420AD1521E9A
:1009800008D010F8013B11F8014B1BB1A34201D173
:10099000521EEDD1181B70BD032A40F2308010F0BA
:1009A000030C00F0158011F8013BBCF1020F62440A
:1009B00098BF11F801CB00F8013B38BF11F8013B9B
:1009C000A2F1040298BF00F801CB38BF00F8013B48
:1009D00011F0030300F00882083AC0F0088051F8D3
:1009E000043B083A51F804CBA0E80810F5E7121DC3
:1009F0005CBF51F8043B40F8043BAFF30080D207E2
:100A000024BF11F8013B11F801CB48BF11F8012BAD
:100A100024BF00F8013B00F801CB48BF00F8012BD0
:100A2000704702F0FF0343EA032242EA024200F069
:100A300002B84FF000020429C0F0128010F0030C3D
:100A400000F01B80CCF1040CBCF1020F18BF00F8C1
:100A5000012BA8BF20F8022BA1EB0C0100F00DB870
:100A60005FEAC17C24BF00F8012B00F8012B48BFCE
:100A700000F8012B70474FF0000200B51346944672
:100A80009646203922BFA0E80C50A0E80C50B1F1E6
:100A90002001BFF4F7AF090728BFA0E80C5048BFFA
:100AA0000CC05DF804EB890028BF40F8042B08BF98
:100AB000704748BF20F8022B11F0804F18BF00F894
:100AC000012B704770477047704709684A0501D588
:100AD00040B27047C905FCD500B2704709684A05A5
:100AE00001D5C0B27047C905FCD580B270472DE969
:100AF000F0470D4699469246044600F124080168E5
:100B0000880604D5E06921F01001216000E0012091
:100B1000A84201DD471B00E00027A1697A1902EB1A
:100B20000900081AA0612078C00602D42046FFF709
:100B30001DFD002608E0D4E901211AF806009047BF
:100B4000206A401C761C20624E45F4DB2078C006EB
:100B50000AD52046FFF70AFD06E0D4E9012130203E
:100B60009047206A401C2062381EA7F10107F4DC80
:100B700007E0D4E9012118F805009047206A401CDD
:100B80002062281EA5F10105F3DC2046FFF704FDD5
:100B90002078000602D50220BDE8F0870120FBE79F
:100BA00011680268006A530501D508700AE0D30590
:100BB00001D5088006E0130603D5C217C1E900027B
:100BC00000E008600120704701694A1C0261087852
:100BD000704700B58FB0CDE901310021059105497D
:100BE0007944CDE9031011466846FFF795FD0FB033
:100BF00000BD0000E5FFFFFF0A6802F8010B0A6074
:100C00007047D1E900239A4202D2531C0B60107046
:100C1000704710B5436913B1AFF3008001E0FFF7EF
:100C2000CCFC012010BD127800F124010A700022D2
:100C30004A700122EDE711684FF0FF32E9E700004A
:100C40002DE9FF5F15468A460446DFF8AC80F8447C
:100C50000027D8E900103E46CDE9001010E03AF830
:100C600016106A4602A800F0D9FC411C07D0217872
:100C7000890603D5E269391891420DD80744761CDC
:100C80002078800602D5E069B84205DDAE42E6DB99
:100C90003AF816000028E2D1A069C01BA0612046E6
:100CA000FFF764FCD8E90010CDE90010002017E040
:100CB0003AF818106A4602A800F0B0FCB0F1FF3F05
:100CC00081460BD000250DF1080B05E0D4E9012188
:100CD0001BF8050090476D1C4D45F7D308F1010046
:100CE000B0428046E4DB206A384420622046FFF7A9
:100CF00053FCBDE8FF9F0000E27200002DE9F041C7
:100D00008046D21D22F007020025D2E90002F52913
:100D100015A614D0011E72F1000106DA0023D0EBF3
:100D2000030063EB020211A608E0D8F800108B075D
:100D300001D50FA602E0490701D50EA601251146EF
:100D4000002408F1240704E000F080F830323A551E
:100D5000641C50EA0102F7D12B4632462146404638
:100D6000BDE8F041FFF7C3BE000000002D00000009
:100D70002B0000002000000030B4002100F124040A
:100D800008E002F00705D208303542EA4372DB087A
:100D90006554491C52EA0305F3D10468002310A2EC
:100DA000250707D5A40600D421B1C46901230DA2EB
:100DB000641EC46130BCFFF79ABE10B504462146DC
:100DC0001068FFF78BFE02462046BDE81040002366
:100DD000D2E7D21D22F00701D1E90023CCE70000C1
:100DE000000000003000000010B5203AC0F00B8079
:100DF000B1E81850203AA0E81850B1E81850A0E81F
:100E00001850BFF4F5AF5FEA027C24BFB1E8185078
:100E1000A0E8185044BF18C918C0BDE810405FEAE8
:100E2000827C24BF51F8043B40F8043B08BF704764
:100E3000D20728BF31F8023B48BF11F8012B28BF69
:100E400020F8023B48BF00F8012B704730B5B0F1E5
:100E50000A024FEA900E71F100034EEA817EB0EB78
:100E60000E0061EB91014FEA101E4EEA017E10EB7D
:100E70000E0041EB11114FEA102E4EEA016E10EBFD
:100E80000E0041EB11214FEA104E4EEA014E10EBDD
:100E90000E0041EB1141401841F100014FEAD00032
:100EA00040EA41704FEAD10110EB80054FEA81041E
:100EB00044EA907444EB01046D1944EB0404521BA2
:100EC000A3414FF0000348BF0A3200D530BD401C9B
:100ED00041F1000130BD70472DE9FF4F0C461E4621
:100EE0004FF0FF378BB0D2E90001DDF860800A9047
:100EF0008A46C1F30A5505B93D46002108464FF020
:100F00000000BAF1000F00F4400005DA00EB8000A9
:100F10004FF4400101EA50004FEA9059B9F1010F36
:100F200000DDB9460A9850EA4A000ED044F6105047
:100F3000A5F2FF3545432F14B8F1000F1ED07542BE
:100F4000291E1EDDC9F100021CE0B8F1010F4FF0AF
:100F5000000001D0302103E0F24305E02154401CA1
:100F6000B042FBDB30460022002121540B99C1F82E
:100F70000880C1E900200FB0BDE8F08FBD1B6D1CDB
:100F8000DEE74A4600DA694206A800F0D9FB06AB64
:100F900093E8070003AB83E8070050460A9900F086
:100FA00097FC8DE80700A0F500501F3800900398CB
:100FB000002D0ADD42F21F014A460844002303A91E
:100FC0000390684600F000FF09E0A0F500504A4693
:100FD0001F38002303A90390684600F00AFF8DE83C
:100FE00007000004000C03D04FF0FF30410800E080
:100FF0001046B8F1000F03D00022009215461EE003
:10100000751E05D4FFF722FF303262556D1EF9D5EB
:10101000B3460122084302D000227F1C04E020785E
:10102000302801D100227F1E002A099784D01DE0BC
:10103000112D07DAFFF70AFF303262556D1C50EAB6
:101040000102F5D1084302D00098C8B10EE000219A
:10105000681E05E0235C625C63542254401E491CF8
:101060008142F7DBAB46A81B401E0990002004F824
:101070000B000B98099AC0F80880C0E9002B7AE7AA
:1010800011264FF0000857E72DE9F04F8846044637
:10109000D21D22F0070191B0D1E90001CDE90A018A
:1010A00003F0A1FC02460B98C00F01D02D2007E0F1
:1010B0002068810701D52B2002E0202101EAC00031
:1010C000032A099001D0072A05DB03464146204642
:1010D00000F0F6FA0BE12078800601D5E06900E027
:1010E0000620B8F1650F814606D0B8F1660F18D01A
:1010F000B8F1670F70D131E00020B9F1110F009005
:1011000001DB112301E009F101030AAA01A90CA8DE
:10111000FFF7E2FEDDE90C70002609F101058346C8
:1011200047E001204B4600904FF000470AAA01A972
:101130000CA8FFF7D1FEDDE90DB00C995D46002645
:1011400010B909F101000D18B9EB050003D4C0F185
:10115000FF3609F10105A5EB09002BE0B9F1010FFC
:1011600001DA4FF001090020B9F1110F0090484653
:1011700001DD112300E003460AAA01A90CA8FFF72C
:10118000ABFEDDE90C704D46002683462078000753
:101190000AD4AB4500DA5D4601A8012D04DD4119F2
:1011A00011F8011C302907D04F4502DA17F1040F5E
:1011B00004DA012082460FE06D1EEEE7002F02DC0C
:1011C000ED1B3E4403E0781CA84200DD7D1CB81BEB
:1011D00000F1010A4FF000472078000703D4AA4528
:1011E00001DB4FF0FF3A0021B7F1004F0DF143084A
:1011F0008DF8431024D002202B23002F01DA7F42E8
:101200002D230A21021EA0F1010000DC5FB197FB33
:10121000F1FC97FBF1F201FB1C7C17460CF1300C42
:1012200008F801CDEEE7A8F1010003702188090557
:1012300001D5452100E06521A0F1010800F8011C5D
:1012400009980FA9A1EB0807FF1D00B10120411962
:1012500001EBEA70A1693844081A401EA0612078A9
:10126000C00602D42046FFF781F9099828B1D4E9D5
:1012700001219047206A401C20622078C00622D5B8
:101280002046FFF773F91EE0002E04DBB34502DDB4
:1012900001A8805D00E03020D4E901219047206A58
:1012A000401C2062761CAAF101005FEA000A0AD104
:1012B00000F002FAC0680168405CD4E9012190475F
:1012C000206A401C2062281EA5F10105DCDC07E035
:1012D000D4E9012118F8010B9047206A401C2062D4
:1012E000381EA7F10107F3DC2046FFF755F903206C
:1012F00011B041E62DE9F04F04460D46D21D22F013
:10130000070089B0D0E900974846394603F06BFBE7
:101310000246F80F01D02D2307E02068810701D590
:101320002B2302E0202101EAC0038DF820300BB10D
:10133000012000E00020032A824601D0072A04DBB6
:101340002946204600F0BCF93FE12078800601D410
:101350000D2500E0E569C7F30A560D2D49DA002195
:101360004FEA175B08464FF00000002F00F44000E2
:1013700007DA00EB80004FF4400100EBD07001EA87
:1013800060008115012901DD4FF0FF3100224FEA95
:10139000850CBCF1180F06D31346ACF118004FF0C2
:1013A0008052C24003E04FF4801323FA0CF30CF197
:1013B0000C0CBCF1200F04D3ACF1200C09FA0CF09A
:1013C00001E007FA0CF000294FF0004801DD18B9E0
:1013D0000FE00ED140450CD319EB02095F4121B952
:1013E000404502D19F4329EA0209BBEB175F00D0B9
:1013F000761C2088000502D57B48784402E07A48B4
:101400007844193808AA302302F80A30037C0AF11C
:101410000101002E0AF1020A53546A4602DC4FF021
:10142000300101E04FF031014FF001088DF800105C
:1014300002D0A6F2FF3603E059EA470100D06B4E16
:10144000002D02DC2178090704D54FF002082E2177
:101450008DF80110C44600210BE0C7F303433F01A0
:10146000C35C491C6D1E02F80830052908F101080B
:1014700001DA002DF1DC00210CE000EB1973491CAE
:101480001B786D1E082902F808304FEA091908F187
:10149000010801DA002DF0DC21688B0602D516E088
:1014A000A8F10108E04505DD02EB080313F8013C53
:1014B000302BF5D0B8F1000F09DD02EB080313F86B
:1014C000013C2E2B03D1090701D4A8F10108002DFE
:1014D00005DD3E2102F808106D1E08F10108407C70
:1014E000002E02F8080008F1010804DA2D207642E7
:1014F00002F8080002E02B2002F808000A214FF44D
:101500007A70864208F101080BDB96FBF0F330336A
:1015100002F8083096FBF0F308F1010800FB1366AF
:1015200001E0642E0CDB642096FBF0F3303302F80C
:10153000083096FBF0F308F1010800FB136601E0A8
:101540000A2E06DB96FBF1F0303002F8080008F1B5
:10155000010896FBF1F001FB1060303002F8080042
:10156000A16908F1010808EB050202EB0A00081A5C
:10157000A0612078C00602D42046FEF7F7FF216A5A
:1015800008AE01EB0A00206204E0D4E9012116F85C
:10159000010B9047BAF1010AF7D22078C00602D5B4
:1015A0002046FEF7E3FF6E4609E016F8010B3E28E1
:1015B0000FD0D4E901219047206A401C2062B8F185
:1015C0000108F2D22046FEF7E7FF09B00320BDE88C
:1015D000F08F206A2844206203E0D4E90121302002
:1015E00090476D1EEBD3F8E7516B000002FCFFFF44
:1015F00010B5436913B1AFF3008001E0FFF720FBA2
:10160000012010BD128800F1240182840022C284CE
:101610000122EDE711684FF0FF32E9E770B5164699
:101620000C46054600F040F8036893F801010128D4
:1016300006D0FF2C0FD8185D68B101202C7070BD4A
:10164000D3F807013246214603F207130344284624
:10165000BDE8704018474FF0FF3070BD754600F090
:10166000EBF8AE4605006946534620F00700854674
:1016700018B020B5FEF7A4FEBDE820404FF00006EC
:101680004FF000074FF000084FF0000B21F007016A
:10169000AC46ACE8C009ACE8C009ACE8C009ACE8AD
:1016A000C0098D467047000010B500F005F8001D18
:1016B00010BD00BFA16500000048704734560020EF
:1016C0002DE9F0411F46044603260168072A01F46C
:1016D000006004DB08B116A505E016A503E008B11B
:1016E00015A500E015A521F010002060A069C01E1E
:1016F000A0610FB1401EA0612046FEF737FF4FB139
:10170000D4E9012138469047206A401C2062C01C61
:10171000206206E0206AFAE7D4E9012115F8010BFE
:101720009047761EF8D22046FEF736FFBDE8F081DE
:101730004E414E006E616E00494E4600696E660075
:101740002DE9F047814616468AB0354878440DC8E1
:101750008DE80D0032487844801C03AC0DC884E845
:101760000D0041F69B300844372190FBF1F290FBCD
:10177000F1F5A5F1800501FB12041B3C02D5644282
:10178000012000E00020DFF898A080460027FA44FE
:10179000AAF1BE0A0EE0E0070AD03246684607EB1F
:1017A000470101230AEB810100F023FB8DE80700CC
:1017B00064107F1C002CEED1194F7F44AE3F19E01E
:1017C000E80715D007EB04100DF1180A90E80E0099
:1017D0008AE80E00C068F04201D19819089032469C
:1017E000012306A903A800F004FB03AB83E807006C
:1017F0006D10641C002DE3D14FF0010332466946A1
:10180000B8F1000F03A802D000F0DEFA01E000F00A
:10181000F0FAC9E90001C9F808200AB0BDE8F0876C
:101820009068000010B50446AFF300802046BDE884
:101830001040FEF750BD00000048704714560020CD
:10184000704700004FF0013C50F8042B51F8043B66
:101850009A4221D1A2EB0C03934313EACC1317D184
:1018600050F8042B51F8043B9A4215D1A2EB0C031B
:10187000934313EACC130BD150F8042B51F8043BDB
:101880009A4209D1A2EB0C03934313EACC13DBD0A9
:101890004FF00000704700BFD01A01BAB1FA81F1D1
:1018A00001F0180122FA01F0CB40C1F12001DBB2B6
:1018B000C0B2C01A2CFA01F3D11A914311EAC31134
:1018C000E6D1704701491820ABBEFEE726000200B2
:1018D0005FEA400C08BF91F0000F4FEA8C234FEAFB
:1018E000C12243EA51514FEA1C5018BF00F5F040A5
:1018F0004FEA300018BF41F000415FEA6C5C00F035
:101900002980BCF1FF3F08BF40F080407047130CB6
:1019100006BF12044FF0100C4FF0000C130E04BF62
:1019200012020CF1080C130F04BF12010CF1040C8D
:10193000930F04BF92000CF1020CD30F04BF5200AE
:101940000CF1010C11464FF00002A0F11F00A0EBBA
:101950000C00704711F0004F08BF704731F0004194
:101960003FF4D5AF0B0C06BF09044FF0100C4FF03D
:10197000000C0B0E04BF09020CF1080C0B0F04BF86
:1019800009010CF1040C8B0F04BF89000CF1020C4F
:10199000CB0F04BF49000CF1010CCCF12003A0EBEC
:1019A0000C0022FA03F302FA0CF241EA030100F1FF
:1019B0000100704720F07F4C80EA030023F07F474E
:1019C000ACEB070303F57C5300F0004003F1FF0389
:1019D0002DE980494FEA154B09B44FEA144325EA33
:1019E0000B4E24EA03480FF2042606EB132749089E
:1019F0003E785FEA320203FB0667C7F5000707FB84
:101A000006F64FEA54374FEAD64606F1020607FBC0
:101A1000066CCCF1005C4FEA1C472CEA074C07FB34
:101A200006F40CFB06F504EB15464FEA961634BF98
:101A300000204FF000404FEAD13706FB07FC4FEA89
:101A40001C4C0CFB0BF7D21B03FB0CF761EB0701E3
:101A50000CFB0EF7B0EB074072EB17420CFB08F7DC
:101A600034BFA2EB0742B2EB074261EB17414FEAEA
:101A70000C444FEA910706FB07FC4FEA1C4C0CFB99
:101A80000BF7B0EBC74072EB573203FB0CF734BFD8
:101A9000A2EBC742B2EBC74261EB57310CFB0EF72A
:101AA000B0EBC70072EB57720CFB08F734BFA2EB28
:101AB000C702B2EBC70261EB5771039F4FEA816126
:101AC00041EA921104EBCC044FEAD1374FEA82622B
:101AD00006FB07FC42EA90124FEA80604FEA1C4C7A
:101AE0000CFB0BF7D21B03FB0CF761EB07010CFBA4
:101AF0000EF7B0EB074072EB17420CFB08F734BF50
:101B0000A2EB0742B2EB074261EB17414FEA8C555B
:101B10004FEA910704EB9C2406FB07FC4FEA1C4CA0
:101B20000CFB0BF7B0EBC74072EB573203FB0CF723
:101B300034BFA2EBC742B2EBC74261EB57310CFB9B
:101B40000EF7B0EBC70072EB57720CFB08F734BF0F
:101B5000A2EBC702B2EBC70261EB577115EB4C2544
:101B60004FEA816141EA92114FEA82624FEAD1372E
:101B700042EA901206FB07FC44F100044FEA806041
:101B80004FEA1C4C0CFB0BF7D21B03FB0CF761EB71
:101B900007010CFB0EF7B0EB074072EB17420CFB92
:101BA00008F734BFA2EB0742B2EB074261EB1741E3
:101BB00015EB1C154FEA813141EA92414FEA82321E
:101BC00042EA90424FEA80304FEA0C7644F100043A
:101BD00048EA03434EEA0B484FF0000EB2EB080C04
:101BE00071EB030724BF624639464EEB0E0E4FF0F1
:101BF000000B0018524149414BEB0B0BB2EB080CA8
:101C000071EB03077BF1000B24BF624639464EEBB4
:101C10000E0E4FF0000B0018524149414BEB0B0BDD
:101C2000B2EB080C71EB03077BF1000B24BF62469B
:101C300039464EEB0E0E51EA020718BF46F0010678
:101C400016EB0E7655F1000254F1000103D5BDE804
:101C50008901BDE80088BDE88901BDE80048B619E2
:101C6000524141EB0101A3F10103704780807F7E67
:101C70007D7C7B7A79787776767574737271717002
:101C80006F6E6E6D6C6C6B6A6A69686867666665B4
:101C90006464636362616160605F5F5E5E5D5D5C42
:101CA0005C5B5B5A5A5959585857575656555555B3
:101CB0005454535352525251515050504F4F4F4E13
:101CC0004E4D4D4D4C4C4C4B4B4B4A4A4A49494961
:101CD00048484847474747464646454545444444A3
:101CE000444343434342424242414141002B9C46CC
:101CF00030D477002BD01CB54FEA370703B44FF030
:101D000010004FF01001BAF1000F06D0BCF1000F27
:101D1000DCBF40F0080040F008014FF000000FBCAD
:101D2000BDE810400BF1010BBBF1010F08BF5FEAEA
:101D3000170722BF12F1010211F101014FF000411A
:101D400043F1000300F0004043EA00007047F9D37C
:101D50005708D0E746EA064613F1400F4FEA164609
:101D60001FDD13F1200FDFBF16430A460021203389
:101D70005B42BED0C3F1200746EA064602FA07F7E7
:101D80004FEA164646EA0706C3F1200722FA03F295
:101D900001FA07F721FA03F14FF0000342EA0702C4
:101DA000A7E746EA020646EA06464FEA164646EA2C
:101DB0000106BCBF46EA0646360C4FF000034FF062
:101DC00000024FF0000194E72DE9804C9A469346BB
:101DD00070B491E8380007C831EA400C48BF34EAD3
:101DE000430C03D5FFF7E6FDFFF780FFF0BCBDE82D
:101DF000008C2DE9804C9A46934670B491E83800E7
:101E000007C810F0804F08BF13F0804F03D100F0D7
:101E100005F8FFF76BFFF0BCBDE8008C20F07F47B2
:101E200080EA030023F07F4C07EB0C03A3F57C53FF
:101E300000F00040A3F1FE0392F0000F00F0B38029
:101E400095F0000F00F077802DE901494FEA11402D
:101E50004FEA144621EA004800FB06FC24EA064744
:101E600008FB06F607FB08F800FB07F718EB064827
:101E70004CEB164C4FEA124B18EB07484FEA15464D
:101E80004CEB174022EA0B4E0BFB06FC25EA0647FB
:101E90000EFB06F607FB0EFE0BFB07F71EEB064ECE
:101EA0004CEB164C4FF000061EEB074E4CEB174B5D
:101EB00018EB0B0840F1000018EB0E0B58EB000874
:101EC00040F100008F1A4FF000013CBFC943661B70
:101ED00014BFB5EB040C00213CBFC943F61B4FEA0D
:101EE00017444EEA8E0E27EA04454FEA1C4704FBCE
:101EF00007622CEA074C05FB07F70CFB05F604FB11
:101F00000CFC16EB074642EB174216EB0C4642EB75
:101F10001C421BEB060658EB0202414146EA9E06B4
:101F200001D5BDE80189B619524141EB0101A3F188
:101F30000103BDE801894FEA14454FEA114724EA3D
:101F4000054621EA074C05FB07F406FB07F70CFBE7
:101F500006F105FB0CFC11EB074144EB17444FEA7B
:101F6000124711EB0C4144EB1C4422EA074C05FBE1
:101F700007F206FB07F70CFB06F605FB0CFC16EB5D
:101F8000074642EB174216EB0C4642EB1C456A181B
:101F900054F1000148BF7047B619524141EB0101AD
:101FA000A3F10103704795F0000F37D04FEA1142BB
:101FB0004FEA144721EA024624EA074C02FB07F1E4
:101FC00006FB07F70CFB06F402FB0CFC14EB0744C2
:101FD00041EB17414FEA154714EB0C4441EB1C4110
:101FE00025EA074C02FB07F506FB07F70CFB06F694
:101FF00002FB0CFC16EB074645EB174516EB0C46AF
:1020000045EB1C42121951F1000148BF7047B61947
:10201000524141EB0101A3F1010370474FEA14451E
:102020004FEA114724EA054621EA074C05FB07F170
:1020300006FB07F70CFB06F24FF0000605FB0CFC55
:1020400012EB074241EB174112EB0C4251EB1C41E2
:1020500048BF7047921841EB0101A3F1010370479B
:1020600000BFFEE7704772B600BFFEE770B50446DA
:10207000A56D00F049F9064694F83500022808D00D
:102080008020606500BF002084F8340000BF01207C
:1020900070BD2068006820F0160021680860206884
:1020A000406920F0800021684861206C08B9A06C6C
:1020B00028B12068006820F00800216808602068C6
:1020C000006820F001002168086010E000F01CF9B1
:1020D000801B05280BD920206065032084F835007B
:1020E00000BF002084F8340000BF0320D0E7206840
:1020F000006800F001000028E8D194F85C103F204F
:102100008840A860012084F8350000BF002084F8D2
:10211000340000BF00BFBBE7014691F8350002283C
:1021200003D08020486501207047052081F83500E4
:102130000868006820F001000A6810600020F3E7DA
:10214000F8B502460B460025002400200021C7E018
:10215000012606FA01F51E6806EA0504AC4274D1B0
:102160001E7906F00306012E04D01E7906F0030640
:10217000022E13D190684F000326BE40B0434F009B
:10218000DE68BE4030439060506801268E40B04308
:102190001E79C6F300168E40304350601E7906F05B
:1021A0000306032E09D0D0684F000326BE40B0437B
:1021B0004F009E68BE403043D0601E7906F0030693
:1021C000022E13D1CF0802F1200656F827004E0741
:1021D000F70E0F26BE40B0434F07FF0E1E69BE40EC
:1021E0003043CF0802F1200646F8270010684F0060
:1021F0000326BE40B0431E7906F003064F00BE40E2
:10220000304310605E6806F44036002E67D000BF91
:1022100000260096344E366846F48046324F3E60C3
:102220003E46366806F48046009600BF00BF2F4E3B
:102230008F0856F827008E07370F0F26BE40B04391
:102240002B4EB24202D1002615E048E0294EB242A0
:1022500001D101260FE0284EB24201D102260AE048
:10226000264EB24201D1032605E0254EB24201D1ED
:10227000042600E007268F073F0FBE4030431B4E69
:102280008F0846F827001F4E3068A0435E6806F4AA
:10229000801606B120431B4E3060361D3068A043C7
:1022A0005E6806F4001606B12043164E361D3060F7
:1022B000144E361F3068A0435E6806F4003606B13F
:1022C0002043104E361F3060361F3068A0435E68D2
:1022D00006F4803606B120430A4E083E3060491CA1
:1022E0001029FFF435AFF8BD4438024008380140EA
:1022F000000002400004024000080240000C0240BE
:1023000000100240083C014001480068704700008E
:102310001C0000200348006803490978084401496B
:10232000086070471C0000202400002010B50D48F4
:10233000006840F400700B4908600846006840F4EB
:10234000806008600846006840F4807008600320E0
:1023500000F0D6F80F2000F007F800F055F8002044
:1023600010BD0000003C0240F0B587B004460026D6
:10237000002700BF002000901E48006840F4003095
:102380001C4908600846006800F40030009000BF57
:1023900000BF01A902A800F065FA00F09BFA06460A
:1023A0001548B6FBF0F0471E14481549086040F286
:1023B000E7311348C160476000210161816081619C
:1023C00000F086FF054695B90D4800F0B5FF0546BB
:1023D0006DB9192000F042F8102C07D200222146D6
:1023E000192000F04FF80748046000E00125284656
:1023F00007B0F0BD4438024040420F0000440140A5
:10240000580100202000002008B500BF00200090E7
:102410001148006840F480400F4908600846006891
:1024200000F48040009000BF00BF00BF002000907B
:10243000081F006840F08050091F086008460068C7
:1024400000F08050009000BF00BF00220F21901EBE
:1024500000F018F808BD0000443802400146084664
:1024600000280DDB00BF00BF00F01F0301229A40CF
:1024700043099B0003F1E023C3F8002100BF00BF24
:1024800000BF70472DE9F05F80460D4616460027D5
:1024900002F0C2FA074639462A46334601F00700E1
:1024A000C0F1070ABAF1040F02D94FF0040A01E0A3
:1024B000C0F1070AD14600F1040ABAF1070F02D2AF
:1024C0004FF0000A01E0A0F1030AD4464FF0010AE0
:1024D0000AFA09FAAAF1010A0AEA020A0AFA0CFA45
:1024E0004FF0010B0BFA0CFBABF1010B0BEA030BEA
:1024F0004AEA0B042146404602F096FABDE8F09FF6
:1025000000BF00F00702064B19684FF6FF031940A1
:10251000044B0B4343EA0221014B196000BF704793
:102520000CED00E00000FA05F8B504460025002691
:10253000207800F0010020B9207800F00400042881
:1025400031D1002060498866FFF7DEFE054606E0CF
:10255000FFF7DAFE401B022801D90320F8BD5B48D3
:102560000068C0F3C0600028F2D1D4E9011041EA4C
:102570008011207B41EA00705449843108600120B9
:1025800051498866FFF7C0FE054606E0FFF7BCFE2E
:10259000401B022801D90320E0E74C480068C0F343
:1025A000C0600028F2D0207800F0020002287DD11F
:1025B00000BF0020009045484030006840F0805047
:1025C0004249403108600846006800F080500090A1
:1025D00000BF00BF3E48006840F480703C4908607E
:1025E000FFF792FE054606E0FFF78EFE401B02282D
:1025F00001D90320B2E73648006800F48070002853
:10260000F2D032487030006800F440764EB3208A31
:1026100000F44070B04224D02C487030006820F4A0
:10262000407601202B490860002008602748703060
:102630000660006800F0010098B1FFF765FE0546EE
:1026400008E0FFF761FE401B41F28831884201D962
:10265000032083E71D4870300068C0F34000002865
:10266000EFD000BF208A00F44070B0F5407F0CD15D
:1026700016480830006820F4F810174A2169114004
:10268000084312490831086007E010480830006824
:1026900020F4F8100D49083108600C4870300068CB
:1026A000218AC1F30B010843084900E002E07031C0
:1026B000086000BF207800F00800082802D1207DC3
:1026C00006490860002049E7000047420038024000
:1026D00000700040400E4742FFFCFF0FE0114742F0
:1026E00070B504460D460CB9012070BD584800680D
:1026F00000F00700A84209D255490D70084600684D
:1027000000F00700A84201D00120EEE7207800F099
:10271000020002281DD1207800F00400042805D111
:102720004C48006840F4E0504A490860207800F0C6
:102730000800082805D14748006840F46040454932
:1027400008604448006820F0F000A168084341494F
:102750000860207800F00100A8B36068012807D164
:102760003C4808380068C0F34040B8B90120BCE7D5
:102770006068022802D06068032807D1354808380D
:102780000068C0F3406048B90120AEE7314808381E
:102790000068C0F3400008B90120A6E72D48006892
:1027A00020F00300616808432A490860FFF7ACFD88
:1027B000064609E0FFF7A8FD801B41F288318842F8
:1027C00002D9032091E707E02248006800F00C00DE
:1027D0006168B0EB810FEDD11D48006800F0070083
:1027E000A84209D91A490D700846006800F0070090
:1027F000A84201D0012078E7207800F004000428E6
:1028000007D11448006820F4E050E16808431149FA
:102810000860207800F00800082808D10D480068FA
:1028200020F46040216940EAC1000A49086000F0D4
:1028300061F808490968C1F30311074A515CC840AF
:102840000649086006480068FFF78EFD00204CE747
:10285000003C0240083802406C7D0008280000203F
:10286000200000200F2202600D4A126802F00302CD
:1028700042600B4A126802F0F0028260084A126855
:1028800002F4E052C260064A126802F46042D208C2
:102890000261044A126802F007020A6070470000F1
:1028A00008380240003C02400148006870470000C0
:1028B0002800002000B5FFF7F7FF04490968C1F3BD
:1028C0008221034A515CC84000BD00000838024024
:1028D0007C7D000800B5FFF7E7FF04490968C1F3F4
:1028E0004231034A515CC84000BD00000838024034
:1028F0007C7D00082DE9F047002400250026A14634
:102900002548006800F00C0020B1042805D00828F4
:102910003AD105E0DFF8849039E0DFF8849036E0C2
:102920001D48001F006800F03F041B48001F00689E
:1029300000F4800078B11A481749091F0968C1F3EB
:102940008811A0FB01700146224600233846FDF79E
:1029500049FD05460EE011480F49091F0968C1F3FA
:102960008811A0FB01700146224600233846FDF77E
:1029700039FD05460848001F0068C0F30140401CAF
:102980004600B5FBF6F902E0DFF8109000BF00BF8B
:102990004846BDE8F0870000083802400024F400F3
:1029A00040787D01F8B504460CB90120F8BD2078C7
:1029B00000F00100002874D0F948006800F00C0015
:1029C00004280DD0F648006800F00C00082813D148
:1029D000F348001F006800F48000B0F5800F0BD1B1
:1029E000EF4808380068C0F34040002859D06068BC
:1029F000002856D10120D9E700BF6068B0F5803FBC
:102A000008D1E7480838006840F48030E4490839C4
:102A100008601EE06068B0F5A02F0DD1E0480838CE
:102A2000006840F48020DE490839086008460068E4
:102A300040F4803008600CE0D9480838006820F481
:102A40008030D749083908600846006820F48020A3
:102A5000086000BF606890B1FFF756FC054606E0CD
:102A6000FFF752FC401B642801D903209EE7CC48A5
:102A700008380068C0F340400028F1D011E0FFF7AB
:102A800043FC054606E0FFF73FFC401B642801D9E4
:102A900003208BE7C24808380068C0F34040002894
:102AA000F1D1207800F0020002285FD1BC48006814
:102AB00000F00C0058B1BA48006800F00C0008287B
:102AC0001CD1B748001F006800F48000B0B9B448BA
:102AD00008380068C0F3400020B1E068012801D048
:102AE000012063E7AE480838006820F0F80021694B
:102AF00040EAC100AA490839086037E0E06800B33D
:102B00000120A8490860FFF7FFFB054606E0FFF734
:102B1000FBFB401B022801D9032047E7A0480838E7
:102B20000068C0F340000028F1D09D4808380068D4
:102B300020F0F800216940EAC1009949083908608D
:102B400014E0002097490860FFF7DEFB054606E029
:102B5000FFF7DAFB401B022801D9032026E7904843
:102B600008380068C0F340000028F1D1207800F058
:102B7000080008282CD16069A8B101208A490860A2
:102B8000FFF7C2FB054606E0FFF7BEFB401B02282D
:102B900001D903200AE782486C300068C0F3400086
:102BA0000028F1D014E000207F490860FFF7ACFB5B
:102BB000054606E0FFF7A8FB401B022801D90320C9
:102BC000F4E677486C300068C0F340000028F1D18B
:102BD000207800F00400042870D1002770483830B5
:102BE000006800F0805090B900BF002000906C4851
:102BF0003830006840F08050694938310860084634
:102C0000006800F08050009000BF00BF01276748B7
:102C1000006800F48070B0B96448006840F48070C7
:102C200062490860FFF770FB054606E0FFF76CFBA2
:102C3000401B022801D90320B8E65C48006800F474
:102C400080700028F2D000BFA068012808D1544845
:102C50006830006840F001005149683108601DE0AB
:102C6000A06805280DD14E486830006840F0040087
:102C70004B49683108600846006840F00100086070
:102C80000CE047486830006820F001004449683192
:102C900008600846006820F00400086000BFA068D3
:102CA000A8B1FFF731FB054609E0FFF72DFB401BFC
:102CB00041F28831884202D9032077E626E038487D
:102CC00068300068C0F340000028EED013E0FFF742
:102CD0001BFB054608E0FFF717FB401B41F288315C
:102CE000884201D9032061E62D4868300068C0F3AE
:102CF00040000028EFD1012F07D129483830006863
:102D000020F0805026493831086000BFA0690028B3
:102D100045D02348006800F00C0008285DD0A06969
:102D2000022845D100201F490866FFF7EDFA054645
:102D300006E0FFF7E9FA401B022801D9032035E637
:102D4000174808380068C0F340600028F1D1D4E982
:102D500007010843616A40EA81110122A06AC2EBBF
:102D6000500041EA00412C20005D41EA00600C491E
:102D7000091F086001200B490866FFF7C5FA0546E0
:102D800006E0FFF7C1FA401B022801D903200DE637
:102D9000034808380068C0F340600028F1D049E0DB
:102DA0000838024000004742800E47420070004051
:102DB000002021490866FFF7A7FA054606E0FFF75D
:102DC000A3FA401B022801D90320EFE51B48006845
:102DD000C0F340600028F2D12CE0A069012800D1A6
:102DE000E4E51648001D0668A069012820D006F415
:102DF0008001E06981421BD106F03F01206A8142D7
:102E000016D147F6C0703040616AB0EB811F0FD118
:102E100006F440310122A06AC2EB5000B1EB004F32
:102E200006D106F070612C20005DB1EB006F01D07F
:102E30000120BBE50020B9E5000047420038024010
:102E40002DE9F04104460D461646002700BF207FBD
:102E5000012802D10220BDE8F0810120207700BFC7
:102E60000220607700BFCA20216848625320216891
:102E7000486200BF2068806800F48060E0B1FFF71E
:102E800043FA074612E0FFF73FFAC01BB0F57A7F1E
:102E90000CD900BFFF202168486200BF0320607783
:102EA00000BF0020207700BF0320D4E72068C0685F
:102EB000C0F380000028E6D12068806820F480609C
:102EC000216888602068C06800F0800060F490602D
:102ED0002168C860FFF718FA074612E0FFF714FAF6
:102EE000C01BB0F57A7F0CD900BFFF202168486273
:102EF00000BF0320607700BF0020207700BF0320C1
:102F0000A9E72068C068C0F380000028E6D02068E8
:102F1000806820F00700216888602068806830435E
:102F200021688860206845612068806840F480607E
:102F30002168886000BFFF202168486200BF01202F
:102F4000607700BF0020207700BF00BF83E700004C
:102F500070B505460B4616460024286840680E49A1
:102F600000EA0104200CD870C4F30420587004F067
:102F70003F009870C4F3423018705EB9D87800F002
:102F800083FED870587800F07FFE5870987800F073
:102F90007BFE9870002070BD3FFFFF0070B50446B7
:102FA0000B46164600252068806A58602068006934
:102FB000C0F30E009860206800680E4900EA010521
:102FC000C5F305401870C5F30620587005F07F0062
:102FD0009870A80DD8705EB9187800F055FE18707A
:102FE000587800F051FE5870987800F04DFE9870B7
:102FF000002070BD7F7F7F0070B5044601250CB9AD
:10300000012070BD607F20B900202077204600F0AD
:103010004DF8022060772068C068C0F300100028D7
:103020003CD100BFCA202168486253202168486211
:1030300000BF204600F040FE0546EDB920688068DC
:1030400019490840216888602169606808436169FE
:103050000843216889680843216888602168E0681E
:10306000086120680169208941EA004021680861FF
:10307000204600F046FE05465DB92068006C20F44D
:103080008020216808642068006CA16908432168D9
:10309000086400BFFF202168486200E000250DB9E8
:1030A000012060772846ACE7BFFF8FFF10B586B0E0
:1030B000044618216846FDF7DEFC0949206888426D
:1030C0000CD102200090C00104906846FFF72CFA52
:1030D00008B1FEF7C8FF01200249086006B010BD24
:1030E000002800403C0E47422DE9F04105460C46C1
:1030F00017464FF0000800BF287F012802D10220A8
:10310000BDE8F0810120287700BF022068774FB921
:10311000607800F01000102804D1607800F0EF0013
:103120000A30607087B9E07800F0B9FD0304607878
:1031300000F0B5FD43EA0023A07800F0B0FD0343A2
:10314000207843EA403809E0E0780004617840EAFA
:103150000120A1780843217840EA413800BFCA2005
:103160002968486253202968486200BF284600F059
:10317000A3FD064646B90B4808EA000029684860E6
:10318000284600F0BEFD06460EB90120687700BF54
:10319000FF202968486200BF00BF0020287700BFD9
:1031A0003046ADE73FFFFF002DE9F04104460D46F4
:1031B00017464FF0000800BF207F012802D10220EF
:1031C000BDE8F0810120207700BF02206077CFB9F1
:1031D0002068806800F0400000B102E00020E87044
:1031E00000BF287800F05BFD0304687800F057FD0D
:1031F00043EA0023A87800F052FD0343E87843EA4D
:10320000805812E02068806800F0400000B102E0C1
:103210000020E87000BF28780004697840EA0120A7
:10322000A9780843E97840EA815800BFCA2021689C
:10323000486253202168486200BF204600F03CFDF0
:103240000646B6B9124808EA0000216808602068FE
:10325000806820F4802021688860D5E90301084354
:1032600021688968084321688860204600F049FD8C
:1032700006460EB90120607700BFFF202168486232
:1032800000BF00BF0020207700BF304698E7000055
:103290007F7F7F0070B5044600250B482168C86019
:1032A000FFF732F8054607E0FFF72EF8401BB0F5B0
:1032B0007A7F01D9032070BD2068C06800F020002B
:1032C0000028F1D00020F6E75F3F0100704770470B
:1032D00010B504460CB9012010BD94F83D0028B982
:1032E000002084F83C00204600F025F8022084F8F5
:1032F0003D00211D206800F023FF012084F84600D6
:1033000000BF84F83E0001213F20015540200155B7
:103310004120015500BF00BF012084F84200432036
:103320000155442001554520015500BF012084F876
:103330003D000020D0E77047014691F83D0001288C
:1033400001D001207047022081F83D000868C06864
:1033500040F001000B68D860164B0868984213D003
:103360000868B0F1804F0FD0134B086898420BD01B
:10337000124B0868984207D0114B0868984203D056
:10338000104B086898420CD10868806800F007026A
:10339000062A0CD00868006840F001000B6818602D
:1033A00005E00868006840F001000B681860002024
:1033B000C8E7000000000140000400400008004091
:1033C000000C004000400140704770B50446206882
:1033D000C5682068066906F00200022819D105F0C8
:1033E0000200022815D1401F2168086101202077C2
:1033F0002068806900F0030018B12046FFF7E4FF61
:1034000005E0204600F097F8204600F095F80020EF
:10341000207706F00400042819D105F004000428E0
:1034200015D1C04321680861022020772068806997
:1034300000F4407018B12046FFF7C6FF05E02046B3
:1034400000F079F8204600F077F80020207706F0A9
:103450000800082819D105F00800082815D1C04334
:1034600021680861042020772068C06900F003000B
:1034700018B12046FFF7A8FF05E0204600F05BF8F2
:10348000204600F059F80020207706F010001028A0
:1034900019D105F01000102815D1C043216808612A
:1034A000082020772068C06900F4407018B12046D9
:1034B000FFF78AFF05E0204600F03DF8204600F0C7
:1034C0003BF80020207706F0010048B105F001002C
:1034D00030B16FF0010021680861204600F02EF83D
:1034E00006F08000802809D105F08000802805D1F1
:1034F000C043216808612046FFF7E8FE06F040005F
:10350000402809D105F04000402805D1C04321687A
:103510000861204600F01EF806F02000202809D19E
:1035200005F02000202805D1C0432168086120460D
:10353000FFF7CDFE70BD70477047000010B5044620
:1035400003492068884201D1FEF7E4FE10BD000067
:103550000044014070477047704700002DE9F84F64
:103560000446206805682068C668206847694FF0EF
:103570000009CA4605F00F09B9F1000F0AD105F09C
:10358000200038B106F0200020B1204600F082FE75
:10359000BDE8F88FB9F1000F7CD007F0010018B931
:1035A00006F49070002875D005F0010030B106F4E3
:1035B000807018B1606C40F00100606405F0040098
:1035C00030B107F0010018B1606C40F00200606497
:1035D00005F0020030B107F0010018B1606C40F056
:1035E0000400606405F0080048B106F0200010B93E
:1035F00007F0010018B1606C40F008006064606C76
:10360000002846D005F0200028B106F0200010B1B7
:10361000204600F03FFE20684069C0F3801A606CCD
:1036200000F0080010B9BAF1000F2DD0204600F0CC
:10363000EBFD2068406900F04000402820D100BF29
:1036400000BF2168143151E8001F21F040002168BB
:10365000143141E80002002AF3D100BFE06B50B101
:103660007748E16B0865E06BFEF756FD88B1E06BCB
:10367000016D88470DE02046FFF76EFF09E009E085
:103680002046FFF769FF04E02046FFF765FF0020B2
:1036900060647DE7206B012878D105F010000028D8
:1036A00074D006F010000028FAD000BF002000906F
:1036B00020680068009020684068009000BF00BF4C
:1036C0002068406900F04000402860D1E06B00684D
:1036D00040681FFA80F8B8F1000F56D0A08D404521
:1036E00053DDA4F82E80E06BC069B0F5807F43D035
:1036F00000BF00BF21680C3151E8001F21F4807029
:1037000021680C3141E80002002AF3D100BF00BF5C
:1037100000BF2168143151E8001F21F00100216829
:10372000143141E80002002AF3D100BF00BF00BFFE
:103730002168143151E8001F21F040002168143144
:1037400041E80002002AF3D100BF202084F84200A3
:103750000020206300BF00BF21680C3151E8001F2A
:1037600021F0100021680C3141E80002002AF3D159
:1037700000BFE06BFEF77AFC02206063A08DE28D53
:10378000801A81B22046FFF7E6FE01E742E0A08DF5
:10379000E18D401A1FFA80F8E08DD0B3B8F1000F28
:1037A00037D000BF00BF21680C3151E8001F21F461
:1037B000907021680C3141E80002002AF3D100BF6B
:1037C00000BF00BF2168143151E8001F21F0010043
:1037D0002168143141E80002002AF3D100BF202003
:1037E00084F842000020206300BF00BF21680C3134
:1037F00051E8001F21F0100021680C3141E800025F
:10380000002AF3D100BF0220606341462046FFF743
:10381000A2FEBDE605F0800030B106F0800018B1D0
:10382000204600F0EBFEB3E605F0400030B106F0B4
:10383000400018B1204600F01DFDA9E600BFA7E634
:10384000F541000810B504460CB9012010BDA0696F
:1038500000B100E000BF94F8410028B9002084F8CE
:103860004000204600F02AF8242084F84100206817
:10387000C06820F400502168C860204600F088FD30
:103880002068006920F49040216808612068406940
:1038900020F02A00216848612068C06840F4005088
:1038A0002168C86000206064202084F8410084F80A
:1038B00042000020606300BFC8E7000010B586B07A
:1038C0000446142101A8FDF7D6F81F492068884254
:1038D00038D100BF002000901C48006840F0100064
:1038E0001A4908600846006800F01000009000BF08
:1038F00000BF00BF0020009014481438006840F05A
:1039000001001249143908600846006800F00100FF
:10391000009000BF00BF4FF4C060019002200290F1
:1039200000200390032004900720059001A9084877
:10393000FEF706FC002205212520FEF7A3FD252029
:10394000FEF78CFD06B010BD001001404438024067
:103950000000024070B504460D46164694F8420039
:1039600020280BD105B10EB9012070BD00202063C5
:1039700032462946204600F021FEF6E70220F4E711
:103980002DE9FE43804600242048006858B920A055
:103990004C21294B29A2CDE900102EA1012001F0D4
:1039A00065F9BDE8FE8300262C48017817480068B9
:1039B00001F056FF06462A480290012500231A46C8
:1039C00002A92848006803F0D1FC0546012D0AD061
:1039D00025A05821184B19A2CDE900101DA10120E6
:1039E00001F044F9DDE7002701221C492548FFF7D3
:1039F000B1FF07463CB14FF0805023490860BFF348
:103A00004F8FBFF36F8F00BFCBE70000E8000020AF
:103A10006572726F72206F6620675F63697263758B
:103A20006C61725F6275666665725F6972715F7400
:103A30006872656164000000BA7E00082E2E5C4248
:103A400053505C55534152545C4253505F75617200
:103A5000742E63004E4F5F5441470000E400002085
:103A6000A4A3A2A1EC0000206572726F722073659E
:103A70006E64696E6720746F2066726F6E742E209C
:103A80000D0A00001001002004ED00E0704700BFA7
:103A9000FEE7000010B5194A0421012001F07CFF67
:103AA00017490860174A0421012001F075FF1649E3
:103AB0000860164A0421012001F06EFF14490860D5
:103AC000144A0021144801F0B4FF14490860144A54
:103AD0000021144801F0ADFF13490860134A00218A
:103AE000134801F0A6FF13490860134A0021134848
:103AF00001F09FFF1249086010BD0000247D0008FE
:103B0000100000203C7D000814000020547D0008B7
:103B100018000020947C000889660008000000203E
:103B2000B87C0008AD66000804000020DC7C0008BA
:103B3000B166000808000020007D0008BD6600088E
:103B40000C00002008B500BF002000901548006858
:103B500040F00400134908600846006800F00400C3
:103B6000009000BF00BF00BF002000900846006822
:103B700040F0800008600846006800F08000009077
:103B800000BF00BF00BF002000900846006840F062
:103B9000010008600846006800F00100009000BFC6
:103BA00000BF08BD3038024000B587B0142102A81C
:103BB000FCF761FF002001902148224908600020A5
:103BC00048607F211F488160FF21C1604FF4C00120
:103BD00001614FF48011416100218161FFF70CFA0E
:103BE00008B1FEF740FA00208DF808008DF80900B2
:103BF0008DF80A0005900690002202A91148FFF7EF
:103C0000D3FA08B1FEF72FFA01208DF804008DF8E1
:103C100005008DF8060000208DF80700002201A99C
:103C20000848FFF761FA08B1FEF71DFA04220021E7
:103C30000448FFF705F908B1FEF715FA07B000BD13
:103C400000280040F000002010B50B480B49086028
:103C50004FF4E1304860002108488160C160016193
:103C60000C21416100218161C161FFF7EBFD08B1C9
:103C7000FEF7F9F910BD000000100140100100200E
:103C800000BFFEE700BFFEE7014600BF080900EBEA
:103C90008000420001F00F001044C0B2704701469E
:103CA000002203E0521CA1F10A00C1B20A29F9D294
:103CB000100741EA1060704770B5044600260025E1
:103CC0002068C06800F04000C8B92068C06840F0B3
:103CD00080002168C860FEF717FB064608E0FEF783
:103CE00013FB801BB0F57A7F02D904206077012591
:103CF0002068C06800F0400008B9012DEFD12846C7
:103D000070BD70B5044600252068C06820F08000B2
:103D10002168C8602068806800F0200030B9204623
:103D2000FFF7B8FA10B1042060770125284670BD6E
:103D300010B500F09DFC10BD2DE9F04104460D4684
:103D4000164600BF0E4F3878532801D000F090FC83
:103D500000BFEFF311800746202080F3118800BFD9
:103D600000BF32462946204600F00CF88046F8B2E3
:103D700080F3118800BF00BF4046BDE8F08100001D
:103D8000744A00202DE9F047074688461646C24689
:103D900007EB47011B4800EBC109D9F8140020B11B
:103DA000012811D0022826D11EE0484600F098FCD8
:103DB0000546B54201D2002405E03446324651465C
:103DC000484600F0E4FD18E0484600F089FC05464E
:103DD000B54201D2284600E030460446224651460C
:103DE000484600F0D4FD08E032465146484600F00F
:103DF00093FD044601E0002400BF00BF2046BDE85B
:103E0000F08700008C4A00200FB438B5044606A89D
:103E100000906A462046059900F008F80546002003
:103E20000090284638BC5DF814FB00002DE9F04FE7
:103E300099B083460D46144603A81490402015906F
:103E400000201690CDF860B0179000BF2E786D1C42
:103E500006B9E4E0252E79D100274FF0010900BF13
:103E60002E78232E12D02B2E0CD02D2E02D0302EB9
:103E700010D103E047F001076D1C0EE047F0020788
:103E80006D1C0AE047F004076D1C06E047F00807C8
:103E90006D1C02E04FF0000900BF00BFB9F1000F38
:103EA000DED14FF0000800BF2E78302E01DB392E16
:103EB00000DD07E06D1CA6F1300008EB880100EB87
:103EC0004108F1E700BF002013902E782E2E12D16A
:103ED0006D1C00BF2E78302E01DB392E00DD09E08D
:103EE0006D1CA6F13000139901EB810100EB41003C
:103EF0001390EFE700BF2E7800BF6C2E01D0682E24
:103F000002D16D1C2E7800E000E0F6E700BF702EB5
:103F100062D008DC252E71D0582E35D0632E09D002
:103F2000642E70D113E0732E3CD0752E1DD0782EE8
:103F300069D128E02168081D2060D1F8009009F0BF
:103F4000FF0A514614A800F0C5FC5DE05FE021685F
:103F5000081D2060D1F80090CDE900870A2249466B
:103F600014A8139B00F0CAFB4EE02168081D2060D6
:103F7000D1F80090CDE900870A22494614A8139B86
:103F800000F032FC40E000BF2168081D2060D1F83D
:103F90000090CDE900871022494614A8139B00F039
:103FA00023FC31E02168081D2060D1F800A0BAF19F
:103FB000000F01D10FF28C0A00BF9AF800600AF1DD
:103FC000010A06B906E0314614A800F083FC1798F0
:103FD0000028F2DA00BF17E02168081D2060D1F840
:103FE0000090002008210B461022CDE90010494620
:103FF00014A800F0F9FB07E000E004E0252114A874
:1040000000F068FC00E000BF00BF6D1C03E031461B
:1040100014A800F05FFC17980028BFF617AF00BF88
:10402000179800280ADD169820B103A95846169A59
:10403000FFF782FEDDE9161008441790179819B0B3
:10404000BDE8F08F284E554C4C29000010B54FF0BC
:10405000E020006903F092FB012801D002F0AEFFDE
:1040600010BD000000B593B0302107A8FCF703FD98
:10407000142102A8FCF7FFFC00BF00200190254896
:10408000006840F08050234908600846006800F04E
:104090008050019000BF00BF00BF002001901E486B
:1040A000006840F440401C4908600846006800F47D
:1040B0004040019000BF00BF052007904FF48030C2
:1040C00008900120099002200D9041050E910C21CD
:1040D0000F9160211091022111910421129107A8E2
:1040E000FEF760FC08B1FDF7BEFF0F200290022032
:1040F0000390002004904FF480500590002006901B
:10410000032102A8FEF7ECFA08B1FDF7ACFF13B0EB
:1041100000BD0000403802400070004003480068C5
:1041200040F47000014908607047000088ED00E02D
:1041300010B50248FFF749F910BD000058010020F2
:1041400010B50268244B98420BD0B0F1804F08D0D4
:10415000224B984205D0224B984202D0214B9842E4
:1041600003D122F070024B681A431B4B984214D0C3
:10417000B0F1804F11D0194B98420ED0184B984295
:104180000BD0184B984208D0174B984205D0174BCC
:10419000984202D0164B984203D122F44072CB6869
:1041A0001A4322F080034C6943EA040202608B68E0
:1041B000C3620B688362084B984201D10B690363A9
:1041C00001234361036903F001031BB1036923F079
:1041D0000103036110BD0000000001400004004025
:1041E00000080040000C0040004001400044014035
:1041F0000048014070B50546AC6B0020E085E084C6
:104200002046FFF7A9F970BD00BF00BF02680C325D
:1042100052E8002F22F4907102680C3242E8001339
:10422000002BF3D100BF00BF00BF0268143252E878
:10423000002F22F001010268143242E80013002B23
:10424000F3D100BF016B01290ED100BF00BF02688E
:104250000C3252E8002F22F0100102680C3242E8C2
:104260000013002BF3D100BF202180F84210002161
:104270000163704710B504462068C06820F0400014
:104280002168C860202084F841002046FFF7FEFB2B
:10429000002010BDF8B5044694F84200222875D1DC
:1042A000A068B0F5805F0CD1206950B90025A66ADE
:1042B00020684068C0F308003080A06A801CA062BB
:1042C00015E0A56A0026A068B0F5805F03D0A0685D
:1042D00028B9206918B920684068287004E020686F
:1042E000406800F07F002870A06A401CA062E08D4A
:1042F000401E80B2E085002846D12068C06820F0CA
:1043000020002168C8602068C06820F4807021689F
:10431000C8602068406920F00100216848612020C1
:1043200084F8420000206063206B012826D1002021
:10433000206300BF00BF21680C3151E8001F21F04D
:10434000100021680C3141E80002002AF3D100BFBF
:104350002068006800F0100010280AD100BF00207B
:10436000009020680068009020684068009000BFBE
:1043700000BFA18D2046FFF7EEF802E02046FFF7D0
:10438000FFFA0020F8BD01E00020FBE70220F9E77A
:104390002DE9F84F04462068006920F44050E16898
:1043A0000843216808612169A068084361690843DE
:1043B000E169084300902068C06849F20C618843B5
:1043C000009908432168C8602068406920F4407063
:1043D000A16908432168486176492068884203D072
:1043E00075492068884203D1FEF774FA814602E0DD
:1043F000FEF760FA8146E069B0F5004F6CD102200B
:104400006168A0FB015003461920A9FB007001461A
:104410002A463846FBF7E6FF6421B0FBF1F04FEA8D
:10442000001A02206168A0FB01510B461920A9FB6C
:1044300000712A463846FBF7D5FF834602206168A3
:10444000A0FB015003461920A9FB00712A463846FB
:10445000FBF7C8FF6421B0FBF1F000EBC00101EBFA
:104460000010ABEB8000322101EBC0006421B0FBF7
:10447000F1F000F0F8000AEB400A02206168A0FBAE
:10448000015003461920A9FB007001462A46384610
:10449000FBF7A8FF834602206168A0FB015003469A
:1044A0001920A9FB00712A463846FBF79BFF6421BF
:1044B000B0FBF1F000EBC00101EB0010ABEB8000B2
:1044C000322101EBC0006421B0FBF1F000F00700E5
:1044D0005044216888606AE004206168A0FB0150B4
:1044E00003461920A9FB007001462A463846FBF70F
:1044F00079FF824604206168A0FB01500346192021
:10450000A9FB007001462A463846FBF76BFF642181
:10451000B0FBF1F000EBC00101EB0010AAEB800052
:10452000322101EB00106421B0FBF1F000F0F00A41
:1045300004206168A0FB017003461920A9FB00510B
:104540003A462846FBF74EFF6421B0FBF1F00AEB38
:10455000001A04206168A0FB01510B461920A9FB39
:1045600000712A463846FBF73DFF83460420616808
:10457000A0FB015003461920A9FB007001462A4602
:104580003846FBF72FFF6421B0FBF1F000EBC001D0
:1045900001EB0010ABEB8000322101EB0010642135
:1045A000B0FBF1F000F00F00504421688860BDE8D6
:1045B000F88F0000001001400014014010B50346C0
:1045C00099629A85DA8500205864222083F8420097
:1045D000186928B11868C06840F480701C68E060F1
:1045E0001868406940F001001C6860611868C06884
:1045F00040F020001C68E060002010BD014691F8EA
:104600004100212828D18868B0F5805F0BD1086966
:1046100048B90A6A1088C0F308000B685860086A35
:10462000801C086205E00B6A581C086218780B6849
:104630005860C88C401E80B2C88458B90868C068E9
:1046400020F080000B68D8600868C06840F0400027
:104650000B68D860002070470220FCE710B50248C4
:10466000FEF77CFF10BD00001001002000BFFEE738
:1046700070B5144CA8212046FCF7FDF903202061F9
:10468000606111A0A0611349E16140F2DC51216237
:104690000021A1626162E1620BA020660E496166A1
:1046A0001021A16600212167E1666167002505E010
:1046B000C5F10F000949085C60556D1C102DF7D33A
:1046C00070BD0000744A00205465726D696E616CA3
:1046D000000000001C4B0020F8500020947D0008D2
:1046E00010B501460A69CB689A4204D88C68641EEA
:1046F000E41AA01801E0D41A601E10BD2DE9FC5F79
:1047000006460F4692469846DDE90C45002F01DA31
:10471000784200E0384683464FF0010903E09BFBF6
:10472000FAFB09F10109D345F9DAC84500D9C146B8
:1047300034B1002F03DB05F00400042800D1641E0F
:1047400005F0020010B1B8F1000F11D005F0010022
:1047500070B96CB108E0641E2021304600F0BAF850
:10476000F068002800DA02E00CB1A145F3D300BFE5
:10477000F068002836DB002F05DA7F422D21304615
:1047800000F0A8F807E005F00400042803D12B216D
:10479000304600F09FF8F068002823DB05F00200A7
:1047A000022814D105F0010088B9B8F1000F0ED12C
:1047B0006CB108E0641E3021304600F08BF8F068E0
:1047C000002800DA02E00CB1A145F3D300BFF06885
:1047D000002807DB4346524639463046CDE90045BE
:1047E00000F002F8BDE8FC9F2DE9FC5F8046894699
:1047F00015461E460C9CCDF804900127BB4605E0EB
:104800000198B0FBF5F001900BF1010B0198A84263
:10481000F6D25E4500D9B3460D9800F00100D0B93C
:10482000CCB10D9800F00200022803D116B9302057
:10483000009001E02020009009E0641E40460099AD
:1048400000F048F8D8F80C00002800DA02E00CB1BB
:10485000A345F2D300BFD8F80C00002835DB09E0EF
:10486000012E01D9761E04E0B9FBF7FAAA4500D261
:1048700001E06F43F4E700BF00BFB9FBF7FA0AFBA2
:104880001799134810F80A10404600F023F8D8F89A
:104890000C00002800DA03E0B7FBF5F7002FECD19D
:1048A00000BF0D9800F0010078B174B109E0641EFA
:1048B0002021404600F00EF8D8F80C00002800DA5D
:1048C00002E00CB1A345F2D300BFBDE8FC9F00009D
:1048D000A57D000870B504460E46A568681C616891
:1048E000814206D320684655681CA060E068401CE1
:1048F000E060D4E9011088420DD1A26821682069E6
:10490000FFF71AFAA168884203D04FF0FF30E06049
:1049100001E00020A06070BD2DE9F05F04468946EB
:1049200017464FF0000AE56800BFD4F81080A8458C
:1049300003D9A8EB0500461E04E0A5EB0800401CC7
:10494000A1680E1AA068401BB04201D9304601E0B0
:10495000A068401B0646BE4201D2304600E0384601
:104960000646606800EB050B324649465846FCF7A0
:1049700013F8B244B144BF1B3544A068A84200D12B
:104980000025E560002FD0D15046BDE8F09F2DE90D
:10499000F047044689461546E668A068871BAF4283
:1049A0000AD9606800EB060A2A4649465046FBF7DA
:1049B000F3FF7019E06014E0B846606800EB060A87
:1049C000424649465046FBF7E7FFA5EB0708D4F8F7
:1049D00004A009EB070142465046FBF7DDFFC4F88F
:1049E0000C80BDE8F08703B401984100009850EABC
:1049F000C12018BF04204A0D18BF40F0010040F24A
:104A0000FF72B2EB515F08BF40F00200012808BFFF
:104A1000052002B07047000002480068C0F3022081
:104A2000704700000CED00E010B5002804DB0A0719
:104A3000130E054A135406E00A07140E034A00F049
:104A40000F031B1FD45410BD00E400E018ED00E07C
:104A5000EFF30580704730380A2801D201207047F3
:104A6000002070471CB500246C2001F051FD044665
:104A70004CB908A01021104B10A2CDE900101CA1C8
:104A8000012000F0F3F86C212046FBF7F4FF2046EC
:104A90001CBD00006572726F72206D616C6C6F637B
:104AA000696E672C20706C6561736520636865634F
:104AB0006B2E200D0A000000E47E00082E2E5C4DB7
:104AC0006964646C6577617265735C637269637550
:104AD0006C61725F6275666665725C63697263754C
:104AE0006C61725F6275666665722E63000000001D
:104AF0004E4F5F544147000070B586B00546002D0B
:104B00001CD126480068002811D14FF4F1702449C7
:104B100024A229A3CDE90310CDE9013200900B4670
:104B20002EA23BA1002000F0A1F800BFFEE74FF449
:104B3000F1721B491BA0194B1B68984700240526DE
:104B4000354890F8F00010B9304606B070BD00F05E
:104B50009FFA00241BE004EB44112F483130084435
:104B600090F82000012810D104EB44122A4831307B
:104B70001044411C1E222846FBF7C3FE28B904EB53
:104B8000441125483130465C03E0601CC4B2052C5A
:104B9000E1DB00BF00F0B0FA3046D6E7DC000020D1
:104BA000477E000874616720213D202828766F69C0
:104BB00064202A2930290000282573292068617380
:104BC00020617373657274206661696C656420612D
:104BD000742025733A256C642E0000002E2E5C4D47
:104BE0006964646C6577617265735C54686972644A
:104BF0005F50617274795C656173796C6F6767652A
:104C0000725C7372635C656C6F672E6300000000FA
:104C1000656C6F67000000000851002010B500248B
:104C2000114890F8F000012801D1204610BD00F095
:104C3000A5FA04460CB12046F8E7012000F03CFA42
:104C40000020094981F8F30081F8F400012000F008
:104C50000DFC052000F0A2FA00F00AFB0120024939
:104C600081F8F0002046E1E7085100200FB42DE95B
:104C7000F04F8DB005460F469846DDF868903846EF
:104C8000FBF720FE824600244FF0010B00200B9022
:104C90000C900790089009900A90052D1CDDCC48D7
:104CA0000068002811D14FF41070CA49CAA2D1A3DC
:104CB000CDE90310CDE9013200900B46D6A2E3A165
:104CC0000020FFF7D3FF00BFFEE74FF41072C14989
:104CD000C1A0BF4B1B689847DE4890F8F10020B98F
:104CE0000DB0BDE8F00F5DF814FBDA480078A8427B
:104CF00004DB3846FFF700FFA84200DAF0E7D549A9
:104D0000491C3846FBF7CCFD00B9E9E71CA8069022
:104D100000F0BEF9CF4890F8F50078B1CE480119FF
:104D2000CEA2204600F068FC0444CD4850F825206F
:104D3000C9480119204600F05FFC044401212846BF
:104D400000F0E8FC40B1C74850F82520C2480119DE
:104D5000204600F051FC04440221284600F0DAFC11
:104D6000E8B1BD4801193A46204600F045FC04442C
:104D7000BAF10F0F0CD8CAF10F01202207A8FBF7D8
:104D800050FEB548011907AA204600F035FC04443E
:104D9000B1480119B4A2204600F02EFC04441C21A5
:104DA000284600F0B7FC002852D0AB480119AFA24A
:104DB000204600F021FC04440421284600F0AAFC0F
:104DC000A8B100F0B5F90590A34801192046059A4D
:104DD00000F012FC04441821284600F09BFC30B17E
:104DE0009D480119A0A2204600F006FC04440821B9
:104DF000284600F08FFCA8B100F092F90590964883
:104E000001192046059A00F0F7FB044410212846BA
:104E100000F080FC30B19048011993A2204600F0C8
:104E2000EBFB04441021284600F074FC48B100F06C
:104E30007BF90590884801192046059A00F0DCFBB3
:104E40000444854801198AA2204600F0D5FB044499
:104E500020212846189A00F0CFFC60B94246402134
:104E6000284600F0C9FC30B94A468021284600F0A7
:104E7000D1FC002862D0784801197EA2204600F0BB
:104E8000BBFB044420212846189A00F0B5FC08B367
:104E9000714801192046189A00F0AEFB04444246BE
:104EA0004021284600F0A8FC38B16B48011972A2D5
:104EB000204600F0A1FB04440CE04A46802128462D
:104EC00000F0A8FC30B16448011967A2204600F048
:104ED00093FB04444A468021284600F09BFCC8B15D
:104EE0004B4666A205210BA8FBF724FB5A48011983
:104EF0000BAA204600F080FB04444246402128468D
:104F000000F07AFC30B15448011957A2204600F055
:104F100073FB044442464021284600F06DFC30B14A
:104F20004D4801194246204600F066FB04444A48B9
:104F3000011953A2204600F05FFB0444C4F58061D0
:104F4000454A1019069B1B9AFBF7C4FA0646002037
:104F50000690A019B0F5806F03D8002E01DB344411
:104F600001E04FF48064201D5844B0F5806F04D9EF
:104F70004FF48064241FA4EB0B04364890F8200003
:104F800058B1002034490855324920313248FBF7E6
:104F900087FC10B900F0B0F8A2E62E4890F8F500B2
:104FA00030B12D48011937A2204600F025FB0444FA
:104FB0002948011935A2204600F01EFB0444214671
:104FC000254800F0DDF800F097F800BF88E6000003
:104FD000DC0000205F7E00086C6576656C203C3D3F
:104FE00020454C4F475F4C564C5F564552424F53FD
:104FF00045000000282573292068617320617373C0
:10500000657274206661696C656420617420257323
:105010003A256C642E0000002E2E5C4D6964646C91
:105020006577617265735C54686972645F50617220
:1050300074795C656173796C6F676765725C7372B4
:10504000635C656C6F672E6300000000656C6F67C2
:105050000000000008510020005200201B5B0000EF
:10506000C4000020AC000020200000005B00000015
:105070005D200000280000003A000000256C64005C
:10508000290000001B5B306D000000000A000000DA
:1050900010B5084890F8F20030B100F07AF801201D
:1050A000044981F8F40003E00120024981F8F3008B
:1050B00010BD00000851002010B504460D4880F8CE
:1050C000F24090F8F200A0B10A4890F8F40030B92C
:1050D000084890F8F30010B100F05BF809E00548CB
:1050E00090F8F40028B1034890F8F30008B900F0F4
:1050F00052F810BD0851002010B5084890F8F20091
:1051000030B100F048F80020044981F8F40003E0D1
:105110000020024981F8F30010BD00000851002072
:1051200000A070470000000000A0704700000000D1
:1051300000B587B0002201A90A48FDF72FFF002221
:1051400006A90848FDF704FF9DF8060000909DF8A9
:1051500005309DF8042004A10748FBF7D5F906485F
:1051600007B000BDF0000020253032643A2530320F
:10517000643A253032640000005600200020704759
:1051800070B504460D462A4621460020FEF7D4FDA0
:1051900070BD72B6704762B67047000010B586B039
:1051A0000446052C1CDD10480068002811D14FF47E
:1051B000AE700E490EA215A3CDE90310CDE9013260
:1051C00000900B461AA227A10020FFF74FFD00BF59
:1051D000FEE74FF4AE72054905A0034B1B689847E4
:1051E0002248047006B010BDDC0000201B7E0008C1
:1051F0006C6576656C203C3D20454C4F475F4C56B6
:105200004C5F564552424F534500000028257329F4
:105210002068617320617373657274206661696CC4
:1052200065642061742025733A256C642E000000AB
:105230002E2E5C4D6964646C6577617265735C5495
:10524000686972645F50617274795C656173796CCE
:105250006F676765725C7372635C656C6F672E6302
:1052600000000000656C6F6700000000085100201E
:1052700010B5002400BF13E004EB44120A491144A6
:10528000481C1F21FBF7D5FB002104EB4412064804
:10529000815404EB4412104480F82010601CC4B206
:1052A000052CE9DB10BD00003951002030B585B078
:1052B00004460D46052C1CDD10480068002811D15D
:1052C0004FF4A1700E490FA215A3CDE90310CDE94B
:1052D000013200900B461BA227A10020FFF7C6FC5D
:1052E00000BFFEE74FF4A172054906A0034B1B68FF
:1052F0009847234840F8245005B030BDDC0000201A
:10530000FE7D00086C6576656C203C3D20454C4F69
:10531000475F4C564C5F564552424F534500000084
:105320002825732920686173206173736572742066
:105330006661696C65642061742025733A256C642C
:105340002E0000002E2E5C4D6964646C65776172DE
:1053500065735C54686972645F50617274795C65EE
:105360006173796C6F676765725C7372635C656C9F
:105370006F672E6300000000656C6F67000000001F
:10538000E051002010B586B00446002C1ED0012C40
:105390001CD011480068002811D140F217100F49A5
:1053A0000FA219A3CDE90310CDE9013200900B46FD
:1053B0001EA22BA10020FFF759FC00BFFEE740F220
:1053C0001712064906A0044B1B689847264880F828
:1053D000F14006B010BD0000DC000020CA7D0008CE
:1053E00028656E61626C6564203D3D2066616C736A
:1053F0006529207C7C2028656E61626C6564203D97
:105400003D20747275652900282573292068617311
:1054100020617373657274206661696C65642061D4
:10542000742025733A256C642E0000002E2E5C4DEE
:105430006964646C6577617265735C5468697264F1
:105440005F50617274795C656173796C6F676765D1
:10545000725C7372635C656C6F672E6300000000A2
:10546000656C6F67000000000851002010B586B021
:105470000446002C1ED0012C1CD0114800680028C6
:1054800011D140F223100F490FA219A3CDE9031047
:10549000CDE9013200900B461EA22BA10020FFF7A0
:1054A000E5FB00BFFEE740F22312064906A0044BCD
:1054B0001B689847264880F8F54006B010BD0000EC
:1054C000DC000020E27D000828656E61626C656486
:1054D000203D3D2066616C736529207C7C20286519
:1054E0006E61626C6564203D3D20747275652900B3
:1054F0002825732920686173206173736572742095
:105500006661696C65642061742025733A256C645A
:105510002E0000002E2E5C4D6964646C657761720C
:1055200065735C54686972645F50617274795C651C
:105530006173796C6F676765725C7372635C656CCD
:105540006F672E6300000000656C6F67000000004D
:10555000085100200EB50B4890F8F00000B90EBDC0
:105560000120FFF70FFF08A009A1F822124BCDE997
:105570000021029011A21EA10320FFF777FB00BFBC
:10558000EDE7000008510020322E322E393900009C
:10559000456173794C6F6767657220562573206982
:1055A0007320696E697469616C697A6520737563CB
:1055B000636573732E000000B57D00082E2E5C4DD0
:1055C0006964646C6577617265735C546869726460
:1055D0005F50617274795C656173796C6F67676540
:1055E000725C7372635C656C6F672E630000000011
:1055F000656C6F6700000000F0B585B006460D468B
:1056000014462746002D1AD125480068002810D1DD
:105610002C20244924A225A3CDE90310CDE9013291
:1056200000900B462AA238A10020FFF71FFB00BF05
:10563000FEE72C221B491CA0194B1B689847002C25
:105640001AD117480068002810D12D20154930A222
:1056500016A3CDE90310CDE9013200900B461CA240
:1056600029A10020FFF702FB00BFFEE72D220D4914
:1056700027A00B4B1B6898470AE03046761CB0F514
:10568000806F04D214F8010B05F8010B00E002E072
:1056900020780028F1D100BFE01B05B0F0BD00006C
:1056A000DC000020977E00086473740028257329AD
:1056B0002068617320617373657274206661696C20
:1056C00065642061742025733A256C642E00000007
:1056D0002E2E5C4D6964646C6577617265735C54F1
:1056E000686972645F50617274795C656173796C2A
:1056F0006F676765725C7372635C656C6F675F751B
:1057000074696C732E630000656C6F6700000000A5
:105710007372630030B585B004460D46052C1CDD60
:1057200013480068002811D140F2E120114912A26B
:1057300018A3CDE90310CDE9013200900B461EA25B
:105740002AA10020FFF792FA00BFFEE740F2E12213
:10575000084909A0064B1B689847264850F82400C2
:10576000284010B1012005B030BD0020FBE700004B
:10577000DC0000206B7E00086C6576656C203C3D8B
:1057800020454C4F475F4C564C5F564552424F5355
:105790004500000028257329206861732061737318
:1057A000657274206661696C65642061742025737C
:1057B0003A256C642E0000002E2E5C4D6964646CEA
:1057C0006577617265735C54686972645F50617279
:1057D00074795C656173796C6F676765725C73720D
:1057E000635C656C6F672E6300000000656C6F671B
:1057F00000000000E051002070B505460E4614463A
:1058000034B131462846FFF785FF08B1012070BD4D
:105810000020FCE770B505460E46144634B131460B
:105820002846FFF777FF08B1012070BD0020FCE794
:1058300010B5014609B9FF2010BD6422486EB0FBC7
:10584000F2F302FB1302886E401C6423B0FBF3F4F6
:1058500003FB1400824201D10020EDE70120EBE7B9
:1058600030B504460D460CB9FF2030BD2046FFF789
:10587000DFFF08B90120F8E7A06E2554A06E401C98
:105880006421B0FBF1F201FB1200A0660020ECE7FE
:10589000FCF74CFDFEF74CFAFFF7C0F9F7210020AA
:1058A000FFF704FD07210120FFF700FD072102207B
:1058B000FFF7FCFC07210320FFF7F8FCB7210420C9
:1058C000FFF7F4FCB7210520FFF7F0FCFFF742FEDD
:1058D00009A10020FEF798FAFEF7C4FBFEF732F9A3
:1058E000FEF762F9FEF7B0F900F010F8FEF7D2F813
:1058F00000F022F800BFFEE75365637175656E63C3
:10590000652053746172742E200A000010B5FFF7F1
:105910009FF810B16FF0050409E00648006820B94F
:10592000012004490860002401E04FF0FF342046C4
:1059300010BD00007C00002070B5FFF789F810B1A1
:105940006FF005041FE011480068012819D100BF5D
:10595000801F0021002804DB0A07130E0C4A135491
:1059600006E00A07150E0B4A00F00F031B1FD55463
:1059700000BF00BF02200549086001F0BFF9002404
:1059800001E04FF0FF34204670BD00007C00002095
:1059900000E400E018ED00E02DE9F84305460E466E
:1059A00014464FF00009FFF753F800283ED1002DB0
:1059B0003CD0002E3AD0471EBCB1A06858B1E06878
:1059C000502808D3206930B105FB06F06169814297
:1059D00001D301270AE0A06840B9E06830B9206926
:1059E00020B9606910B9002700E00027012F09D114
:1059F0000020009031462846A368226901F025FB6B
:105A0000814606E02FB900223146284601F0F0FA1F
:105A10008146B9F1000F09D014B1D4F8008001E03B
:105A20004FF000084146484601F0B0F84846BDE84E
:105A3000F8832DE9FF4780468946144600200390ED
:105A4000FFF706F800284ED1B8F1000F4BD08026A2
:105A500018258246471E44B3206808B1D4F800A038
:105A6000A06900B1A5692DB1382D03D8207900F0C7
:105A7000010018B1002004B0BDE8F087606908B1EA
:105A800060698608A06840B1E0685C2805D3206999
:105A900018B1606908B1012708E0A06830B9E06872
:105AA00020B9206910B9002700E00027012F0CD190
:105AB0002169A0684B463246CDE90051029051461B
:105AC000404601F0FDFD03900DE067B903A8B2B2B6
:105AD0004B465146CDE90050404601F0BFFD01283C
