:020000040800F2
:10000000C85E0020B50300080D350008F5030008A0
:100010000935000835210008A53F00080000000050
:10002000000000000000000000000000E5020008E1
:100030003921000800000000410300086D39000864
:10004000CF030008CF030008CF030008CF03000848
:10005000CF030008CF030008CF030008CF03000838
:10006000CF030008CF030008CF030008CF03000828
:10007000CF030008CF030008CF030008CF03000818
:10008000CF030008CF030008CF03000800000000E2
:10009000000000000000000000000000CF03000886
:1000A000CF030008513A0008CF030008CF0300082F
:1000B000CF030008CF030008CF030008CF030008D8
:1000C000CF030008CF030008CF030008CF030008C8
:1000D000CF030008CF030008CF0300080000000092
:1000E000CF030008CF030008CF0300080000000082
:1000F000000000000000000000000000CF03000826
:1001000000000000CF030008CF030008CF03000861
:1001100000000000000000000000000000000000DF
:10012000CF030008CF030008CF030008CF03000867
:10013000CF030008000000000000000000000000E5
:10014000000000000000000000000000CF030008D5
:10015000CF030008CF030008CF030008CF03000837
:10016000CF030008CF0300080000000000000000DB
:10017000000000000000000000000000000000007F
:1001800000000000CF030008000000000000000095
:10019000CF030008CF03000800F002F800F092F847
:1001A0000AA090E8000C82448344AAF10107DA45D2
:1001B00001D100F087F8AFF2090EBAE80F0013F092
:1001C000010F18BFFB1A43F001031847708D0000A0
:1001D000908D0000103A24BF78C878C1FAD8520731
:1001E00024BF30C830C144BF04680C6070470000B1
:1001F0000023002400250026103A28BF78C1FBD830
:10020000520728BF30C148BF0B6070476E2900F00D
:100210006385702900F08382662907F0A08665292E
:1002200007F09D86672907F09A86612907F099866D
:1002300003681B0A28BF41F08001692900F0F4819E
:10024000642900F0F181752900F0EE816F2900F03A
:100250005086782900F04F82E92900F0EB85E429E7
:1002600000F0E885F52900F0E585EF2900F04D86DE
:10027000F82900F04E820368DB0928BF41F08001B5
:10028000632900F06C85732900F07185E32901F082
:100290002382F32901F02882002070471FB507F060
:1002A00059FE01F073FA04000020002107F03CFE23
:1002B000401C60600020002107F020FEE0601FBDB0
:1002C00010B510BD01F034FA1146FFF7E7FF05F055
:1002D00017FC01F011FB03B4FFF7F2FF03BC01F0C0
:1002E0005BFB00002C4B19680868B0E8F04F80F306
:1002F0000988BFF36F8F4FF0000080F311887047BB
:100300000000000008480068006880F308884FF08B
:10031000000080F3148862B661B6BFF34F8FBFF35D
:100320006F8F00DF00BF00BF08ED00E0DFF80C00BA
:10033000016841F470010160704700BF88ED00E082
:10034000EFF30980BFF36F8F134B1A681EF0100F85
:1003500008BF20ED108A20E9F04F106009B44FF07B
:10036000500080F31188BFF34F8FBFF36F8F06F0FB
:100370008BFE4FF0000080F3118809BC19680868F3
:10038000B0E8F04F1EF0100F08BFB0EC108A80F3F9
:100390000988BFF36F8F704728000020EFF30580B6
:1003A00070470000EFF308807047EFF30980704753
:1003B000684670470948804709480047FEE7FEE75E
:1003C000FEE7FEE7FEE7FEE7FEE7FEE7FEE7FEE705
:1003D00004480549054A064B704700003D3A0008AD
:1003E00099010008C8580020C85E0020C85A0020A3
:1003F000C85A00207046694604F05EF8FFF7FEFF19
:1004000053EA020C00F069802DE9F04B4FF0000632
:10041000002B1FBFB3FA83F503FA05F424FA05F69F
:100420005E4012BF1643B2FA82F502FA05F4C5F136
:1004300020051EBF22FA05FC44EA0C04203556EACA
:10044000044C4FEA144418BF641C4FF000084FF0EE
:100450000009904271EB030C39D3002919BFB1FA9E
:1004600081F701FA07F6B0FA80F700FA07F6C7F14C
:1004700020071EBF20FA07FC46EA0C062037B6FB11
:10048000F4FCA7EB0507103F07F01F0BCBF120068C
:100490000CFA0BFB2CFA06F644BFB3460026202FBD
:1004A000A4BF5E464FF0000B5BEA060C08BF4FF09E
:1004B000010B19EB0B09ABFB027C48EB0608C01BD8
:1004C00006FB02CC0BFB03CC71EB0C01C1E70B4626
:1004D000024641464846BDE8F08B13B54FF0000098
:1004E0004FF00001AFF30080BDE81C4070470000F2
:1004F0007CB51D4616460C00009001D02044401EDD
:10050000074B7B442A4669460190304600F0FDFBCC
:1005100005461CB10020694600F00AFC28467CBD57
:10052000350800000FB41CB5084B06AA7B44694689
:100530000090059800F0E9FB04460020694600F0B1
:10054000F7FB20461CBC5DF814FB0000010800000E
:100550000FB47CB50C0009AA009001D02044401EC5
:10056000084B7B4469460190089800F0CEFB054695
:100570001CB10020694600F0DBFB28467CBC5DF81E
:1005800014FB0000D507000070B5044685690068BB
:10059000C10601D5302600E02026C00707D070BD77
:1005A000D4E9012130469047206A401C20626D1E2C
:1005B000F6D570BD70B5044685690078C00707D1CF
:1005C00070BDD4E9012120209047206A401C2062A0
:1005D0006D1EF6D570BD70B50C460546012A05D0D6
:1005E0002878800600D5EA69002302E0012305E0AF
:1005F0005B1C934202D2E05C0028F9D1A869E6189E
:10060000C01AA861286A184428622846FFF7BCFF70
:1006100004E0D5E9012114F8010B9047B442F8D366
:100620002846FFF7C7FF70BD2DE9F04106460024BC
:1006300010687529314616A510D000F0E2FA00289E
:1006400002DA404213A507E031688A0701D512A5F6
:1006500002E0490704D511A5012401E000F0DAFA0F
:1006600000210A2206F1240709E0B0FBF2FCB0FBEE
:10067000F2F302FB1C00303078541846491C002865
:10068000F3D123462A463046BDE8F04100F0CBBA0C
:10069000000000002D0000002B00000020000000E2
:1006A000F0B40D460188090502D5214C7C4402E0D6
:1006B0001F4C7C440E34002100F1240608E002F0B7
:1006C0000F071209E75D42EA03721B097754491CC0
:1006D00052EA0307F3D102780023120704D5702DE4
:1006E00006D009B1022311342246F0BC00F09BBAB7
:1006F00001231034F8E770B504460D462146106812
:1007000000F088FA024629462046BDE870400023E2
:10071000C6E7D21D22F00703D3E90023C0E7036830
:10072000126843F0200303600823C3610023B7E786
:10073000307E00002DE9F05F894604464FF0000A44
:10074000DFF874B1FB44C0F820A02046E168884778
:10075000002874D0252806D0D4E901219047206ACA
:10076000401C2062F1E700265F462046E16888478A
:100770002028054607DB312D05D2781910F8200C0A
:1007800008B10643F1E7B00701D526F00406C4F826
:100790001CA00027C4F818A02A2D09D0284603F071
:1007A000F6FD38B304EB8708303DC8F8185019E05F
:1007B00059F8041B204604EB87029161E1688847E1
:1007C000012F054618D1E069002820DA26F020061E
:1007D0001DE0D8F8180000EB800005EB4000303831
:1007E000C8F818002046E1688847054603F0CFFDA9
:1007F0000028EED1012F0AD02E2D08D12046E16825
:1008000088477F1C0546022F46F02006C4DBA069FE
:10081000002803DA404246F00106A061F00701D04B
:1008200026F010066C2D0BD0682D09D04C2D39D038
:100830006A2D35D0742D35D07A2D33D016E038E0BE
:10084000E1682F4620468847B842054609D16C2FFB
:1008500026D04FF48060E16806432046884705466D
:1008600004E06C2F1AD04FF4807006430DB3A5F14D
:100870004100192802D8203546F400664A46294628
:10088000204626604E46FFF7C1FC80B101280BD000
:10089000F61D26F0070000F1080956E74020E4E7BE
:1008A0008020D8E70020D6E706F104094DE7284666
:1008B00052E7206ABDE8F09FC07D000030B50546D4
:1008C0000B462A4613F8014B12F8010B08B1A0425F
:1008D000F8D01CB1002802D06D1CF1E7284630BDCD
:1008E00010B5431C02E010F8011B71B18107FAD169
:1008F0004FF0013202C88C1A8C4314EAC211F9D0AD
:10090000C01A0A0603D0C01E10BDC01A10BD0A04CA
:1009100001D0801E10BD0902FCD0401E10BD40EA6F
:10092000010370B59B072ED14FF00136042A2AD35C
:1009300008C810C99D1B9D43121F15EAC61517D084
:10094000D8B2E1B2401A50EA056110D198B2A1B212
:10095000401A50EA05410AD123F07F4024F07F413C
:10096000401A50EA052102D1180EA0EB146070BDA8
:10097000A342DBD018BA21BA884201D9012070BD48
:100980004FF0FF3070BD0AB9002070BD10F8013B78
:1009900011F8014B63B1A3420AD1521E08D010F8DE
:1009A000013B11F8014B1BB1A34201D1521EEDD105
:1009B000181B70BD032A40F2308010F0030C00F0C9
:1009C000158011F8013BBCF1020F624498BF11F889
:1009D00001CB00F8013B38BF11F8013BA2F1040242
:1009E00098BF00F801CB38BF00F8013B11F00303BA
:1009F00000F02580083AC0F0088051F8043B083A1E
:100A000051F804CBA0E80810F5E7121D5CBF51F8BF
:100A1000043B40F8043BAFF30080D20724BF11F839
:100A2000013B11F801CB48BF11F8012B24BF00F89E
:100A3000013B00F801CB48BF00F8012B704710B50F
:100A4000203AC0F00B80B1E81850203AA0E81850C6
:100A5000B1E81850A0E81850BFF4F5AF5FEA027C87
:100A600024BFB1E81850A0E8185044BF18C918C0F6
:100A7000BDE810405FEA827C24BF51F8043B40F897
:100A8000043B08BF7047D20728BF31F8023B48BF7C
:100A900011F8012B28BF20F8023B48BF00F8012BBA
:100AA000704702F0FF0343EA032242EA024200F0E9
:100AB00002B84FF000020429C0F0128010F0030CBD
:100AC00000F01B80CCF1040CBCF1020F18BF00F841
:100AD000012BA8BF20F8022BA1EB0C0100F00DB8F0
:100AE0005FEAC17C24BF00F8012B00F8012B48BF4E
:100AF00000F8012B70474FF0000200B513469446F2
:100B00009646203922BFA0E80C50A0E80C50B1F165
:100B10002001BFF4F7AF090728BFA0E80C5048BF79
:100B20000CC05DF804EB890028BF40F8042B08BF17
:100B3000704748BF20F8022B11F0804F18BF00F813
:100B4000012B704710B5044610F0030F08BF11F0D9
:100B5000030F40F015804FF0013E121FC0F20E80CF
:100B600051F8043BA3EB0E0C2CEA030C1CEACE1C40
:100B700008BF40F8043BF0D0A1F1040102F10402E7
:100B8000521E08DB11F8013B002B00F8013BF7D1A6
:100B90001146FFF78EFF204610BD70477047704723
:100BA000A0E8004FF0C040F804DB01B5AFF30080CF
:100BB000BDE8024001C10020A1EC068BA1EC02BB04
:100BC000A1EC06CBA1EC02FB704700F12C080C460F
:100BD000B8EC068BB8EC02BBB8EC06CBB8EC02FB69
:100BE00000F12C0858F8040DAFF3008058F8040DFC
:100BF0008546200008BF012038E9F00018E9004FC1
:100C0000704709684A0501D540B27047C905FCD54F
:100C100000B2704709684A0501D5C0B27047C905DE
:100C2000FCD580B270472DE9F0470D4699469246B3
:100C3000044600F124080168880604D5E06921F023
:100C40001001216000E00120A84201DD471B00E007
:100C50000027A1697A1902EB0900081AA06120781F
:100C6000C00602D42046FFF78FFC002608E0D4E936
:100C700001211AF806009047206A401C761C206269
:100C80004E45F4DB2078C0060AD52046FFF77CFCF1
:100C900006E0D4E9012130209047206A401C206200
:100CA000381EA7F10107F4DC07E0D4E9012118F8A8
:100CB00005009047206A401C2062281EA5F101050E
:100CC000F3DC2046FFF776FC2078000602D50220F0
:100CD000BDE8F0870120FBE711680268006A530550
:100CE00001D508700AE0D30501D5088006E0130697
:100CF00003D5C217C1E9000200E008600120704777
:100D000001694A1C02610878704700B58FB0CDE9CF
:100D100001310021059105497944CDE903101146BF
:100D20006846FFF707FD0FB000BD0000E5FFFFFFBD
:100D30000A6802F8010B0A607047D1E900239A4261
:100D400002D2531C0B601070704710B5436913B189
:100D5000AFF3008001E0FFF73EFC012010BD1278E8
:100D600000F124010A7000224A700122EDE71168A7
:100D70004FF0FF32E9E700002DE9FF5F15468A4694
:100D80000446DFF8AC80F8440027D8E900103E465E
:100D9000CDE9001010E03AF816106A4602A800F0FB
:100DA000A7FC411C07D02178890603D5E2693918D0
:100DB00091420DD80744761C2078800602D5E06960
:100DC000B84205DDAE42E6DB3AF816000028E2D173
:100DD000A069C01BA0612046FFF7D6FBD8E9001030
:100DE000CDE90010002017E03AF818106A4602A872
:100DF00000F07EFCB0F1FF3F81460BD000250DF1E5
:100E0000080B05E0D4E901211BF8050090476D1C93
:100E10004D45F7D308F10100B0428046E4DB206A7B
:100E2000384420622046FFF7C5FBBDE8FF9F000065
:100E3000927700002DE9F0418046D21D22F0070292
:100E40000025D2E90002F52915A614D0011E72F181
:100E5000000106DA0023D0EB030063EB020211A6C7
:100E600008E0D8F800108B0701D50FA602E049076B
:100E700001D50EA601251146002408F1240704E03F
:100E800000F04EF830323A55641C50EA0102F7D1B6
:100E90002B46324621464046BDE8F041FFF7C3BE2F
:100EA000000000002D0000002B00000020000000CA
:100EB00030B4002100F1240408E002F00705D20854
:100EC000303542EA4372DB086554491C52EA030597
:100ED000F3D10468002310A2250707D5A40600D487
:100EE00021B1C46901230DA2641EC46130BCFFF7A7
:100EF0009ABE10B5044621461068FFF78BFE0246E5
:100F00002046BDE810400023D2E7D21D22F00701A1
:100F1000D1E90023CCE70000000000003000000011
:100F200030B5B0F10A024FEA900E71F100034EEABB
:100F3000817EB0EB0E0061EB91014FEA101E4EEA8C
:100F4000017E10EB0E0041EB11114FEA102E4EEA1C
:100F5000016E10EB0E0041EB11214FEA104E4EEAEC
:100F6000014E10EB0E0041EB1141401841F1000120
:100F70004FEAD00040EA41704FEAD10110EB800502
:100F80004FEA810444EA907444EB01046D1944EB88
:100F90000404521BA3414FF0000348BF0A3200D59E
:100FA00030BD401C41F1000130BD70472DE9FF4FBD
:100FB0000C461E464FF0FF378BB0D2E90001DDF83A
:100FC00060800A908A46C1F30A5505B93D46002162
:100FD00008464FF00000BAF1000F00F4400005DAB7
:100FE00000EB80004FF4400101EA50004FEA9059B5
:100FF000B9F1010F00DDB9460A9850EA4A000ED057
:1010000044F61050A5F2FF3545432F14B8F1000FF8
:101010001ED07542291E1EDDC9F100021CE0B8F188
:10102000010F4FF0000001D0302103E0F24305E052
:101030002154401CB042FBDB3046002200212154E9
:101040000B99C1F80880C1E900200FB0BDE8F08F0E
:10105000BD1B6D1CDEE74A4600DA694206A800F0B7
:10106000D9FB06AB93E8070003AB83E807005046C3
:101070000A9900F097FC8DE80700A0F500501F3892
:1010800000900398002D0ADD42F21F014A460844F1
:10109000002303A90390684600F000FF09E0A0F5D3
:1010A00000504A461F38002303A90390684600F009
:1010B0000AFF8DE807000004000C03D04FF0FF305A
:1010C000410800E01046B8F1000F03D00022009262
:1010D00015461EE0751E05D4FFF722FF303262551B
:1010E0006D1EF9D5B3460122084302D000227F1CB1
:1010F00004E02078302801D100227F1E002A0997C1
:1011000084D01DE0112D07DAFFF70AFF3032625557
:101110006D1C50EA0102F5D1084302D00098C8B115
:101120000EE00021681E05E0235C625C63542254DB
:10113000401E491C8142F7DBAB46A81B401E0990AC
:10114000002004F80B000B98099AC0F80880C0E949
:10115000002B7AE711264FF0000857E72DE9F04FF2
:1011600088460446D21D22F0070191B0D1E9000162
:10117000CDE90A0103F0D3F802460B98C00F01D065
:101180002D2007E02068810701D52B2002E02021D7
:1011900001EAC000032A099001D0072A05DB0346B3
:1011A0004146204600F0F6FA0BE12078800601D592
:1011B000E06900E00620B8F1650F814606D0B8F17D
:1011C000660F18D0B8F1670F70D131E00020B9F187
:1011D000110F009001DB112301E009F101030AAABC
:1011E00001A90CA8FFF7E2FEDDE90C70002609F169
:1011F0000105834647E001204B4600904FF0004731
:101200000AAA01A90CA8FFF7D1FEDDE90DB00C99DF
:101210005D46002610B909F101000D18B9EB050073
:1012200003D4C0F1FF3609F10105A5EB09002BE05D
:10123000B9F1010F01DA4FF001090020B9F1110FE6
:101240000090484601DD112300E003460AAA01A9E7
:101250000CA8FFF7ABFEDDE90C704D460026834677
:10126000207800070AD4AB4500DA5D4601A8012DBD
:1012700004DD411911F8011C302907D04F4502DA6D
:1012800017F1040F04DA012082460FE06D1EEEE72D
:10129000002F02DCED1B3E4403E0781CA84200DD79
:1012A0007D1CB81B00F1010A4FF0004720780007B1
:1012B00003D4AA4501DB4FF0FF3A0021B7F1004FFC
:1012C0000DF143088DF8431024D002202B23002F6A
:1012D00001DA7F422D230A21021EA0F1010000DC69
:1012E0005FB197FBF1FC97FBF1F201FB1C7C174609
:1012F0000CF1300C08F801CDEEE7A8F10100037005
:101300002188090501D5452100E06521A0F10108EA
:1013100000F8011C09980FA9A1EB0807FF1D00B1F7
:101320000120411901EBEA70A1693844081A401EF6
:10133000A0612078C00602D42046FFF725F909985D
:1013400028B1D4E901219047206A401C206220780E
:10135000C00622D52046FFF717F91EE0002E04DB59
:10136000B34502DD01A8805D00E03020D4E9012111
:101370009047206A401C2062761CAAF101005FEAB7
:10138000000A0AD100F002FAC0680168405CD4E9A2
:1013900001219047206A401C2062281EA5F101050A
:1013A000DCDC07E0D4E9012118F8010B9047206A42
:1013B000401C2062381EA7F10107F3DC2046FFF72E
:1013C000F9F8032011B041E62DE9F04F04460D462F
:1013D000D21D22F0070089B0D0E90097484639466F
:1013E00002F09DFF0246F80F01D02D2307E0206890
:1013F000810701D52B2302E0202101EAC0038DF8EB
:1014000020300BB1012000E00020032A824601D0E9
:10141000072A04DB2946204600F0BCF93FE120788A
:10142000800601D40D2500E0E569C7F30A560D2DAD
:1014300049DA00214FEA175B08464FF00000002F01
:1014400000F4400007DA00EB80004FF4400100EBAD
:10145000D07001EA60008115012901DD4FF0FF31F4
:1014600000224FEA850CBCF1180F06D31346ACF1ED
:1014700018004FF08052C24003E04FF4801323FA6B
:101480000CF30CF10C0CBCF1200F04D3ACF1200CCC
:1014900009FA0CF001E007FA0CF000294FF00048BF
:1014A00001DD18B90FE00ED140450CD319EB02094C
:1014B0005F4121B9404502D19F4329EA0209BBEBB4
:1014C000175F00D0761C2088000502D57B48784441
:1014D00002E07A487844193808AA302302F80A3022
:1014E000037C0AF10101002E0AF1020A53546A46F4
:1014F00002DC4FF0300101E04FF031014FF0010804
:101500008DF8001002D0A6F2FF3603E059EA470139
:1015100000D06B4E002D02DC2178090704D54FF076
:1015200002082E218DF80110C44600210BE0C7F3FC
:1015300003433F01C35C491C6D1E02F808300529B6
:1015400008F1010801DA002DF1DC00210CE000EBCC
:101550001973491C1B786D1E082902F808304FEAE0
:10156000091908F1010801DA002DF0DC21688B0669
:1015700002D516E0A8F10108E04505DD02EB0803FD
:1015800013F8013C302BF5D0B8F1000F09DD02EB68
:10159000080313F8013C2E2B03D1090701D4A8F14D
:1015A0000108002D05DD3E2102F808106D1E08F12E
:1015B0000108407C002E02F8080008F1010804DA56
:1015C0002D20764202F8080002E02B2002F80800E5
:1015D0000A214FF47A70864208F101080BDB96FB72
:1015E000F0F3303302F8083096FBF0F308F101080D
:1015F00000FB136601E0642E0CDB642096FBF0F325
:10160000303302F8083096FBF0F308F1010800FBD4
:10161000136601E00A2E06DB96FBF1F0303002F88B
:10162000080008F1010896FBF1F001FB1060303072
:1016300002F80800A16908F1010808EB050202EBB5
:101640000A00081AA0612078C00602D42046FEF7DE
:101650009BFF216A08AE01EB0A00206204E0D4E996
:10166000012116F8010B9047BAF1010AF7D2207850
:10167000C00602D52046FEF787FF6E4609E016F841
:10168000010B3E280FD0D4E901219047206A401C6D
:101690002062B8F10108F2D22046FEF78BFF09B0B4
:1016A0000320BDE8F08F206A2844206203E0D4E9DB
:1016B0000121302090476D1EEBD3F8E765700000E4
:1016C00002FCFFFF10B5436913B1AFF3008001E0E6
:1016D000FFF752FB012010BD128800F12401828423
:1016E0000022C2840122EDE711684FF0FF32E9E7E2
:1016F00070B516460C46054600F040F8036893F8AE
:101700000101012806D0FF2C0FD8185D68B1012017
:101710002C7070BDD3F807013246214603F207133F
:1017200003442846BDE8704018474FF0FF3070BDB5
:10173000754600F0EBF8AE4605006946534620F0CA
:101740000700854618B020B5FEF742FEBDE82040F0
:101750004FF000064FF000074FF000084FF0000B6D
:1017600021F00701AC46ACE8C009ACE8C009ACE820
:10177000C009ACE8C0098D467047000010B500F004
:1017800005F8001D10BD00BFA167000000487047AC
:10179000885800202DE9F0411F46044603260168C1
:1017A000072A01F4006004DB08B116A505E016A5C0
:1017B00003E008B115A500E015A521F01000206098
:1017C000A069C01EA0610FB1401EA0612046FEF7B7
:1017D000DBFE4FB1D4E9012138469047206A401C16
:1017E0002062C01C206206E0206AFAE7D4E90121E9
:1017F00015F8010B9047761EF8D22046FEF7DAFE68
:10180000BDE8F0814E414E006E616E00494E4600CB
:10181000696E66002DE9F047814616468AB0354864
:1018200078440DC88DE80D0032487844801C03AC24
:101830000DC884E80D0041F69B300844372190FB29
:10184000F1F290FBF1F5A5F1800501FB12041B3CC0
:1018500002D56442012000E00020DFF898A0804615
:101860000027FA44AAF1BE0A0EE0E0070AD0324689
:10187000684607EB470101230AEB810100F023FBD7
:101880008DE8070064107F1C002CEED1194F7F44B7
:10189000AE3F19E0E80715D007EB04100DF1180A68
:1018A00090E80E008AE80E00C068F04201D1981955
:1018B00008903246012306A903A800F004FB03ABFD
:1018C00083E807006D10641C002DE3D14FF0010385
:1018D00032466946B8F1000F03A802D000F0DEFAE4
:1018E00001E000F0F0FAC9E90001C9F808200AB0E7
:1018F000BDE8F087A46D000010B50446AFF300808A
:101900002046BDE81040FEF7E6BC000000487047E6
:1019100068580020704700004FF0013C50F8042B3D
:1019200051F8043B9A4221D1A2EB0C03934313EAF2
:10193000CC1317D150F8042B51F8043B9A4215D11F
:10194000A2EB0C03934313EACC130BD150F8042BF6
:1019500051F8043B9A4209D1A2EB0C03934313EADA
:10196000CC13DBD04FF00000704700BFD01A01BA93
:10197000B1FA81F101F0180122FA01F0CB40C1F176
:101980002001DBB2C0B2C01A2CFA01F3D11A914384
:1019900011EAC311E6D1704701491820ABBEFEE73A
:1019A000260002005FEA400C08BF91F0000F4FEAEA
:1019B0008C234FEAC12243EA51514FEA1C5018BF11
:1019C00000F5F0404FEA300018BF41F000415FEAF7
:1019D0006C5C00F02980BCF1FF3F08BF40F0804004
:1019E0007047130C06BF12044FF0100C4FF0000CA0
:1019F000130E04BF12020CF1080C130F04BF1201E6
:101A00000CF1040C930F04BF92000CF1020CD30FE5
:101A100004BF52000CF1010C11464FF00002A0F17E
:101A20001F00A0EB0C00704711F0004F08BF70477B
:101A300031F000413FF4D5AF0B0C06BF09044FF065
:101A4000100C4FF0000C0B0E04BF09020CF1080C37
:101A50000B0F04BF09010CF1040C8B0F04BF8900AC
:101A60000CF1020CCB0F04BF49000CF1010CCCF1BE
:101A70002003A0EB0C0022FA03F302FA0CF241EA75
:101A8000030100F10100704720F07F4C80EA030061
:101A900023F07F47ACEB070303F57C5300F00040D5
:101AA00003F1FF032DE980494FEA154B09B44FEAD2
:101AB000144325EA0B4E24EA03480FF2042606EBF2
:101AC000132749083E785FEA320203FB0667C7F531
:101AD000000707FB06F64FEA54374FEAD64606F1F1
:101AE000020607FB066CCCF1005C4FEA1C472CEAAF
:101AF000074C07FB06F40CFB06F504EB15464FEA12
:101B0000961634BF00204FF000404FEAD13706FB55
:101B100007FC4FEA1C4C0CFB0BF7D21B03FB0CF72A
:101B200061EB07010CFB0EF7B0EB074072EB1742BD
:101B30000CFB08F734BFA2EB0742B2EB074261EBA4
:101B400017414FEA0C444FEA910706FB07FC4FEAA6
:101B50001C4C0CFB0BF7B0EBC74072EB573203FB8E
:101B60000CF734BFA2EBC742B2EBC74261EB57316F
:101B70000CFB0EF7B0EBC70072EB57720CFB08F7CB
:101B800034BFA2EBC702B2EBC70261EB5771039FF0
:101B90004FEA816141EA921104EBCC044FEAD1375C
:101BA0004FEA826206FB07FC42EA90124FEA80602D
:101BB0004FEA1C4C0CFB0BF7D21B03FB0CF761EB41
:101BC00007010CFB0EF7B0EB074072EB17420CFB62
:101BD00008F734BFA2EB0742B2EB074261EB1741B3
:101BE0004FEA8C554FEA910704EB9C2406FB07FC57
:101BF0004FEA1C4C0CFB0BF7B0EBC74072EB5732B3
:101C000003FB0CF734BFA2EBC742B2EBC74261EB58
:101C100057310CFB0EF7B0EBC70072EB57720CFBA1
:101C200008F734BFA2EBC702B2EBC70261EB5771F2
:101C300015EB4C254FEA816141EA92114FEA82622D
:101C40004FEAD13742EA901206FB07FC44F1000448
:101C50004FEA80604FEA1C4C0CFB0BF7D21B03FBD6
:101C60000CF761EB07010CFB0EF7B0EB074072EBD2
:101C700017420CFB08F734BFA2EB0742B2EB074256
:101C800061EB174115EB1C154FEA813141EA924196
:101C90004FEA823242EA90424FEA80304FEA0C76B5
:101CA00044F1000448EA03434EEA0B484FF0000EAB
:101CB000B2EB080C71EB030724BF624639464EEBCA
:101CC0000E0E4FF0000B0018524149414BEB0B0B2D
:101CD000B2EB080C71EB03077BF1000B24BF6246EB
:101CE00039464EEB0E0E4FF0000B001852414941A1
:101CF0004BEB0B0BB2EB080C71EB03077BF1000B0A
:101D000024BF624639464EEB0E0E51EA020718BF59
:101D100046F0010616EB0E7655F1000254F1000173
:101D200003D5BDE88901BDE80088BDE88901BDE8AB
:101D30000048B619524141EB0101A3F1010370477C
:101D400080807F7E7D7C7B7A7978777676757473F8
:101D5000727171706F6E6E6D6C6C6B6A6A696868B7
:101D6000676666656464636362616160605F5F5E4D
:101D70005E5D5D5C5C5B5B5A5A59595858575756C3
:101D80005655555554545353525252515150505028
:101D90004F4F4F4E4E4D4D4D4C4C4C4B4B4B4A4A7A
:101DA0004A494949484848474747474646464545BE
:101DB00045444444444343434342424242414141F7
:101DC000002B9C4630D477002BD01CB54FEA370748
:101DD00003B44FF010004FF01001BAF1000F06D01D
:101DE000BCF1000FDCBF40F0080040F008014FF0EC
:101DF00000000FBCBDE810400BF1010BBBF1010F5F
:101E000008BF5FEA170722BF12F1010211F10101B9
:101E10004FF0004143F1000300F0004043EA0000AE
:101E20007047F9D35708D0E746EA064613F1400F4A
:101E30004FEA16461FDD13F1200FDFBF16430A4697
:101E4000002120335B42BED0C3F1200746EA06469C
:101E500002FA07F74FEA164646EA0706C3F12007DB
:101E600022FA03F201FA07F721FA03F14FF0000317
:101E700042EA0702A7E746EA020646EA06464FEAB2
:101E8000164646EA0106BCBF46EA0646360C4FF047
:101E900000034FF000024FF0000194E72DE9804C61
:101EA0009A46934670B491E8380007C831EA400C6E
:101EB00048BF34EA430C03D5FFF7E6FDFFF780FF88
:101EC000F0BCBDE8008C2DE9804C9A46934670B476
:101ED00091E8380007C810F0804F08BF13F0804F1A
:101EE00003D100F005F8FFF76BFFF0BCBDE8008CF4
:101EF00020F07F4780EA030023F07F4C07EB0C03C0
:101F0000A3F57C5300F00040A3F1FE0392F0000F14
:101F100000F0B38095F0000F00F077802DE90149C3
:101F20004FEA11404FEA144621EA004800FB06FC44
:101F300024EA064708FB06F607FB08F800FB07F74C
:101F400018EB06484CEB164C4FEA124B18EB0748BF
:101F50004FEA15464CEB174022EA0B4E0BFB06FCF2
:101F600025EA06470EFB06F607FB0EFE0BFB07F7FE
:101F70001EEB064E4CEB164C4FF000061EEB074EC8
:101F80004CEB174B18EB0B0840F1000018EB0E0B55
:101F900058EB000840F100008F1A4FF000013CBFE1
:101FA000C943661B14BFB5EB040C00213CBFC943F9
:101FB000F61B4FEA17444EEA8E0E27EA04454FEA15
:101FC0001C4704FB07622CEA074C05FB07F70CFBD8
:101FD00005F604FB0CFC16EB074642EB174216EB2A
:101FE0000C4642EB1C421BEB060658EB0202414139
:101FF00046EA9E0601D5BDE80189B619524141EB7A
:102000000101A3F10103BDE801894FEA14454FEA3C
:10201000114724EA054621EA074C05FB07F406FBB5
:1020200007F70CFB06F105FB0CFC11EB074144EB39
:1020300017444FEA124711EB0C4144EB1C4422EACF
:10204000074C05FB07F206FB07F70CFB06F605FB42
:102050000CFC16EB074642EB174216EB0C4642EB24
:102060001C456A1854F1000148BF7047B619524127
:1020700041EB0101A3F10103704795F0000F37D048
:102080004FEA11424FEA144721EA024624EA074C7C
:1020900002FB07F106FB07F70CFB06F402FB0CFC46
:1020A00014EB074441EB17414FEA154714EB0C447E
:1020B00041EB1C4125EA074C02FB07F506FB07F73D
:1020C0000CFB06F602FB0CFC16EB074645EB17452E
:1020D00016EB0C4645EB1C42121951F1000148BFAA
:1020E0007047B619524141EB0101A3F1010370475A
:1020F0004FEA14454FEA114724EA054621EA074C06
:1021000005FB07F106FB07F70CFB06F24FF0000694
:1021100005FB0CFC12EB074241EB174112EB0C42A2
:1021200051EB1C4148BF7047921841EB0101A3F1EC
:102130000103704700BFFEE7704772B600BFFEE7BD
:10214000014800687047000018000020034800683C
:1021500003490978084401490860704718000020C5
:102160002000002010B50D48006840F400700B49B5
:1021700008600846006840F480600860084600680F
:1021800040F480700860032000F0D6F80F2000F0C3
:1021900007F800F055F8002010BD0000003C024098
:1021A000F0B587B004460026002700BF002000904D
:1021B0001E48006840F400301C490860084600686A
:1021C00000F40030009000BF00BF01A902A800F099
:1021D00065FA00F08BFA06461548B6FBF0F0471E8C
:1021E00014481549086040F2E7311348C160476060
:1021F000002101618160816100F076FF054695B99B
:102200000D4800F0A5FF05466DB9192000F042F811
:10221000102C07D200222146192000F04FF8074861
:10222000046000E00125284607B0F0BD44380240B4
:1022300040420F0000440140140100201C00002017
:1022400008B500BF002000901148006840F48040AD
:102250000F4908600846006800F48040009000BF05
:1022600000BF00BF00200090081F006840F08050B1
:10227000091F08600846006800F08050009000BF09
:1022800000BF00220F21901E00F018F808BD0000CA
:10229000443802400146084600280DDB00BF00BF5D
:1022A00000F01F0301229A4043099B0003F1E02341
:1022B000C3F8002100BF00BF00BF70472DE9F05FE9
:1022C00080460D461646002702F042F8074639467A
:1022D0002A46334601F00700C0F1070ABAF1040F9D
:1022E00002D94FF0040A01E0C0F1070AD14600F11B
:1022F000040ABAF1070F02D24FF0000A01E0A0F180
:10230000030AD4464FF0010A0AFA09FAAAF1010AAF
:102310000AEA020A0AFA0CFA4FF0010B0BFA0CFB5C
:10232000ABF1010B0BEA030B4AEA0B0421464046D2
:1023300002F016F8BDE8F09F00BF00F00702064B60
:1023400019684FF6FF031940044B0B4343EA02217F
:10235000014B196000BF70470CED00E00000FA056A
:10236000F8B5044600250026207800F0010020B9C9
:10237000207800F00400042831D1002060498866EC
:10238000FFF7DEFE054606E0FFF7DAFE401B0228F7
:1023900001D90320F8BD5B480068C0F3C060002885
:1023A000F2D1D4E9011041EA8011207B41EA0070AA
:1023B000544984310860012051498866FFF7C0FE06
:1023C000054606E0FFF7BCFE401B022801D90320AA
:1023D000E0E74C480068C0F3C0600028F2D02078E5
:1023E00000F0020002287DD100BF00200090454887
:1023F0004030006840F08050424940310860084653
:10240000006800F08050009000BF00BF3E480068A8
:1024100040F480703C490860FFF792FE054606E0F4
:10242000FFF78EFE401B022801D90320B2E7364891
:10243000006800F480700028F2D0324870300068E4
:1024400000F440764EB3208A00F44070B04224D0AD
:102450002C487030006820F4407601202B49086039
:1024600000200860274870300660006800F0010016
:1024700098B1FFF765FE054608E0FFF761FE401BD7
:1024800041F28831884201D9032083E71D4870302A
:102490000068C0F340000028EFD000BF208A00F49D
:1024A0004070B0F5407F0CD116480830006820F429
:1024B000F810174A21691140084312490831086091
:1024C00007E010480830006820F4F8100D49083182
:1024D00008600C4870300068218AC1F30B01084382
:1024E000084900E002E07031086000BF207800F089
:1024F0000800082802D1207D06490860002049E72D
:10250000000047420038024000700040400E474241
:10251000FFFCFF0FE011474270B504460D460CB9B1
:10252000012070BD5848006800F00700A84209D299
:1025300055490D700846006800F00700A84201D018
:102540000120EEE7207800F0020002281DD120785B
:1025500000F00400042805D14C48006840F4E05025
:102560004A490860207800F00800082805D147484B
:10257000006840F46040454908604448006820F025
:10258000F000A168084341490860207800F001008C
:10259000A8B36068012807D13C4808380068C0F338
:1025A0004040B8B90120BCE76068022802D06068EA
:1025B000032807D1354808380068C0F3406048B99F
:1025C0000120AEE7314808380068C0F3400008B980
:1025D0000120A6E72D48006820F003006168084349
:1025E0002A490860FFF7ACFD064609E0FFF7A8FDA1
:1025F000801B41F28831884202D9032091E707E02D
:102600002248006800F00C006168B0EB810FEDD14A
:102610001D48006800F00700A84209D91A490D704A
:102620000846006800F00700A84201D0012078E7C2
:10263000207800F00400042807D11448006820F432
:10264000E050E168084311490860207800F0080074
:10265000082808D10D48006820F46040216940EA4C
:10266000C1000A49086000F051F808490968C1F33F
:102670000311074A515CC8400649086006480068D3
:10268000FFF78EFD00204CE7003C02400838024076
:1026900034800008240000201C0000200F2202606B
:1026A0000D4A126802F0030242600B4A126802F0FF
:1026B000F0028260084A126802F4E052C260064AE0
:1026C000126802F46042D2080261044A126802F001
:1026D00007020A607047000008380240003C0240D0
:1026E00001480068704700002400002000B5FFF793
:1026F000F7FF04490968C1F34231034A515CC840FD
:1027000000BD000008380240448000082DE9F04771
:10271000002400250026A1462548006800F00C0092
:1027200020B1042805D008283AD105E0DFF88490CC
:1027300039E0DFF8849036E01D48001F006800F0A3
:102740003F041B48001F006800F4800078B11A485D
:102750001749091F0968C1F38811A0FB01700146E0
:10276000224600233846FDF74BFE05460EE0114891
:102770000F49091F0968C1F38811A0FB01700146C8
:10278000224600233846FDF73BFE05460848001F59
:102790000068C0F30140401C4600B5FBF6F902E0BA
:1027A000DFF8109000BF00BF4846BDE8F08700008A
:1027B000083802400024F40040787D01F8B5044652
:1027C0000CB90120F8BD207800F00100002874D079
:1027D000F948006800F00C0004280DD0F6480068A5
:1027E00000F00C00082813D1F348001F006800F423
:1027F0008000B0F5800F0BD1EF4808380068C0F3B7
:102800004040002859D06068002856D10120D9E7FF
:1028100000BF6068B0F5803F08D1E748083800681D
:1028200040F48030E449083908601EE06068B0F583
:10283000A02F0DD1E0480838006840F48020DE4920
:10284000083908600846006840F4803008600CE0F1
:10285000D9480838006820F48030D7490839086022
:102860000846006820F48020086000BF606890B1CE
:10287000FFF766FC054606E0FFF762FC401B642894
:1028800001D903209EE7CC4808380068C0F34040D7
:102890000028F1D011E0FFF753FC054606E0FFF7F2
:1028A0004FFC401B642801D903208BE7C24808383D
:1028B0000068C0F340400028F1D1207800F0020009
:1028C00002285FD1BC48006800F00C0058B1BA483B
:1028D000006800F00C0008281CD1B748001F0068F1
:1028E00000F48000B0B9B44808380068C0F3400074
:1028F00020B1E068012801D0012063E7AE48083824
:10290000006820F0F800216940EAC100AA490839AE
:10291000086037E0E06800B30120A8490860FFF7CD
:102920000FFC054606E0FFF70BFC401B022801D90F
:10293000032047E7A04808380068C0F3400000289B
:10294000F1D09D480838006820F0F800216940EA7D
:10295000C10099490839086014E0002097490860CF
:10296000FFF7EEFB054606E0FFF7EAFB401B0228F7
:1029700001D9032026E7904808380068C0F34000DA
:102980000028F1D1207800F0080008282CD16069D7
:10299000A8B101208A490860FFF7D2FB054606E08E
:1029A000FFF7CEFB401B022801D903200AE782482B
:1029B0006C300068C0F340000028F1D014E0002023
:1029C0007F490860FFF7BCFB054606E0FFF7B8FB50
:1029D000401B022801D90320F4E677486C300068D8
:1029E000C0F340000028F1D1207800F00400042852
:1029F00070D1002770483830006800F0805090B9DE
:102A000000BF002000906C483830006840F08050D3
:102A10006949383108600846006800F0805000902D
:102A200000BF00BF01276748006800F48070B0B99C
:102A30006448006840F4807062490860FFF780FBDA
:102A4000054606E0FFF77CFB401B022801D9032066
:102A5000B8E65C48006800F480700028F2D000BF3F
:102A6000A068012808D154486830006840F001008F
:102A70005149683108601DE0A06805280DD14E4815
:102A80006830006840F004004B496831086008462F
:102A9000006840F0010008600CE0474868300068BA
:102AA00020F001004449683108600846006820F0C1
:102AB0000400086000BFA068A8B1FFF741FB05460D
:102AC00009E0FFF73DFB401B41F28831884202D903
:102AD000032077E626E0384868300068C0F34000FD
:102AE0000028EED013E0FFF72BFB054608E0FFF7C8
:102AF00027FB401B41F28831884201D9032061E65F
:102B00002D4868300068C0F340000028EFD1012F45
:102B100007D129483830006820F0805026493831E4
:102B2000086000BFA069002845D02348006800F075
:102B30000C0008285DD0A069022845D100201F495B
:102B40000866FFF7FDFA054606E0FFF7F9FA401BB5
:102B5000022801D9032035E6174808380068C0F379
:102B600040600028F1D1D4E907010843616A40EAD6
:102B700081110122A06AC2EB500041EA00412C20E1
:102B8000005D41EA00600C49091F086001200B4903
:102B90000866FFF7D5FA054606E0FFF7D1FA401BB5
:102BA000022801D903200DE6034808380068C0F365
:102BB00040600028F1D049E0083802400000474258
:102BC000800E474200700040002021490866FFF750
:102BD000B7FA054606E0FFF7B3FA401B022801D911
:102BE0000320EFE51B480068C0F340600028F2D1E5
:102BF0002CE0A069012800D1E4E51648001D066814
:102C0000A069012820D006F48001E06981421BD12F
:102C100006F03F01206A814216D147F6C07030406D
:102C2000616AB0EB811F0FD106F440310122A06A26
:102C3000C2EB5000B1EB004F06D106F070612C20C2
:102C4000005DB1EB006F01D00120BBE50020B9E5CC
:102C500000004742003802402DE9F04104460D468D
:102C60001646002700BF207F012802D10220BDE8C0
:102C7000F0810120207700BF0220607700BFCA20CA
:102C80002168486253202168486200BF206880683C
:102C900000F48060E0B1FFF753FA074612E0FFF757
:102CA0004FFAC01BB0F57A7F0CD900BFFF20216816
:102CB000486200BF0320607700BF0020207700BF7C
:102CC0000320D4E72068C068C0F380000028E6D164
:102CD0002068806820F48060216888602068C0686F
:102CE00000F0800060F490602168C860FFF728FA67
:102CF000074612E0FFF724FAC01BB0F57A7F0CD923
:102D000000BFFF202168486200BF0320607700BF3A
:102D10000020207700BF0320A9E72068C068C0F327
:102D200080000028E6D02068806820F00700216835
:102D30008860206880683043216888602068456129
:102D40002068806840F480602168886000BFFF20B0
:102D50002168486200BF0120607700BF0020207713
:102D600000BF00BF83E7000070B505460B4616465E
:102D70000024286840680E4900EA0104200CD8703D
:102D8000C4F30420587004F03F009870C4F342303C
:102D900018705EB9D87800F0BBFBD870587800F096
:102DA000B7FB5870987800F0B3FB9870002070BDA6
:102DB0003FFFFF0070B504460B461646002520680D
:102DC000806A586020680069C0F30E00986020682F
:102DD00000680E4900EA0105C5F305401870C5F307
:102DE0000620587005F07F009870A80DD8705EB965
:102DF000187800F08DFB1870587800F089FB587037
:102E0000987800F085FB9870002070BD7F7F7F0070
:102E100070B5044601250CB9012070BD607F20B952
:102E200000202077204600F04DF8022060772068CF
:102E3000C068C0F3001000283CD100BFCA20216840
:102E4000486253202168486200BF204600F078FBAA
:102E50000546EDB9206880681949084021688860F6
:102E600021696068084361690843216889680843EB
:102E7000216888602168E06808612068016920890C
:102E800041EA004021680861204600F07EFB0546CB
:102E90005DB92068006C20F48020216808642068F7
:102EA000006CA16908432168086400BFFF20216805
:102EB000486200E000250DB9012060772846ACE7A4
:102EC000BFFF8FFF10B586B0044618216846FDF796
:102ED00012FE0949206888420CD102200090C001EE
:102EE00004906846FFF73CFA08B1FFF726F9012085
:102EF0000249086006B010BD002800403C0E474261
:102F00002DE9F04105460C4617464FF0000800BF7A
:102F1000287F012802D10220BDE8F0810120287716
:102F200000BF022068774FB9607800F010001028C9
:102F300004D1607800F0EF000A30607087B9E07863
:102F400000F0F1FA0304607800F0EDFA43EA0023A0
:102F5000A07800F0E8FA0343207843EA403809E01B
:102F6000E0780004617840EA0120A17808432178E4
:102F700040EA413800BFCA202968486253202968C6
:102F8000486200BF284600F0DBFA064646B90B4807
:102F900008EA000029684860284600F0F6FA06466C
:102FA0000EB90120687700BFFF202968486200BF82
:102FB00000BF0020287700BF3046ADE73FFFFF008D
:102FC0002DE9F04104460D4617464FF0000800BFBA
:102FD000207F012802D10220BDE8F0810120207766
:102FE00000BF02206077CFB92068806800F0400001
:102FF00000B102E00020E87000BF287800F093FAEA
:103000000304687800F08FFA43EA0023A87800F000
:103010008AFA0343E87843EA805812E0206880681F
:1030200000F0400000B102E00020E87000BF287806
:103030000004697840EA0120A9780843E97840EA69
:10304000815800BFCA202168486253202168486225
:1030500000BF204600F074FA0646B6B9124808EAE6
:103060000000216808602068806820F480202168C2
:103070008860D5E90301084321688968084321680D
:103080008860204600F081FA06460EB9012060777C
:1030900000BFFF202168486200BF00BF00202077EA
:1030A00000BF304698E700007F7F7F0070B5044680
:1030B00000250B482168C860FFF742F8054607E085
:1030C000FFF73EF8401BB0F57A7F01D9032070BDB1
:1030D0002068C06800F020000028F1D00020F6E74A
:1030E0005F3F01007047704710B504460CB90120DE
:1030F00010BD94F83D0028B9002084F83C0020461B
:1031000000F025F8022084F83D00211D206800F021
:10311000A7FC012084F8460000BF84F83E0001218E
:103120003F200155402001554120015500BF00BFFF
:10313000012084F8420043200155442001554520D8
:10314000015500BF012084F83D000020D0E7704702
:10315000014691F83D00012801D00120704702206E
:1031600081F83D000868C06840F001000B68D86035
:10317000164B0868984213D00868B0F1804F0FD002
:10318000134B086898420BD0124B0868984207D03E
:10319000114B0868984203D0104B086898420CD134
:1031A0000868806800F00702062A0CD008680068EA
:1031B00040F001000B68186005E00868006840F006
:1031C00001000B6818600020C8E700000000014003
:1031D0000004004000080040000C00400040014096
:1031E000704770B504462068C5682068066906F017
:1031F0000200022819D105F00200022815D1401F53
:1032000021680861012020772068806900F00300B0
:1032100018B12046FFF7E4FF05E0204600F097F8DC
:10322000204600F095F80020207706F004000428DE
:1032300019D105F00400042815D1C04321680861A4
:10324000022020772068806900F4407018B1204681
:10325000FFF7C6FF05E0204600F079F8204600F0B1
:1032600077F80020207706F00800082819D105F02B
:103270000800082815D1C043216808610420207780
:103280002068C06900F0030018B12046FFF7A8FFCE
:1032900005E0204600F05BF8204600F059F80020D9
:1032A000207706F01000102819D105F01000102822
:1032B00015D1C04321680861082020772068C069C3
:1032C00000F4407018B12046FFF78AFF05E0204661
:1032D00000F03DF8204600F03BF80020207706F093
:1032E000010048B105F0010030B16FF00100216824
:1032F0000861204600F02EF806F08000802809D1F1
:1033000005F08000802805D1C0432168086120466F
:10331000FFF7E8FE06F04000402809D105F0400024
:10332000402805D1C04321680861204600F01EF8FE
:1033300006F02000202809D105F02000202805D122
:10334000C043216808612046FFF7CDFE70BD70477D
:103350007047000010B5044603492068884201D137
:10336000FEF7F4FE10BD000000440140704700006D
:1033700010B5154A0421012002F02CFC1349086005
:10338000134A0421012002F025FC12490860124A68
:103390000421012002F01EFC10490860104A00219F
:1033A000104802F064FC10490860104A00211048DF
:1033B00002F05DFC0F4908600F4A00210F4802F03F
:1033C00056FC0F49086010BDD47F00080C00002097
:1033D000EC7F00081000002004800008140000208A
:1033E000687F00087B690008000000208C7F0008CF
:1033F0008969000804000020B07F0008ED6900081A
:103400000800002008B500BF0020009015480068A3
:1034100040F00400134908600846006800F004000A
:10342000009000BF00BF00BF002000900846006869
:1034300040F0800008600846006800F080000090BE
:1034400000BF00BF00BF002000900846006840F0A9
:10345000010008600846006800F00100009000BF0D
:1034600000BF08BD3038024000B587B0142102A863
:10347000FDF741FB0020019021482249086000200F
:1034800048607F211F488160FF21C1604FF4C00167
:1034900001614FF48011416100218161FFF7B8FCA7
:1034A00008B1FEF74AFE00208DF808008DF80900EB
:1034B0008DF80A0005900690002202A91148FFF736
:1034C0007FFD08B1FEF739FE01208DF804008DF86C
:1034D00005008DF8060000208DF80700002201A9E4
:1034E0000848FFF70DFD08B1FEF727FE0422002172
:1034F0000448FFF7B1FB08B1FEF71FFE07B000BD9F
:1035000000280040F400002000BFFEE700BFFEE7F7
:10351000014600BF080900EB8000420001F00F00E7
:103520001044C0B270470146002203E0521CA1F1D2
:103530000A00C1B20A29F9D2100741EA10607047A7
:1035400070B50446002600252068C06800F04000E1
:10355000C8B92068C06840F080002168C860FEF7E4
:10356000EFFD064608E0FEF7EBFD801BB0F57A7F25
:1035700002D90420607701252068C06800F040006F
:1035800008B9012DEFD1284670BD70B5044600255D
:103590002068C06820F080002168C86020688068CA
:1035A00000F0200030B92046FFF780FD10B1042064
:1035B00060770125284670BD10B500F0F5FC10BD00
:1035C0002DE9F0470746884600BFDFF870A09AF85B
:1035D0000000532801D000F0E7FC00BFEFF3118199
:1035E0000846202181F3118800BF00BF07EB470286
:1035F0001249183101EBC204E1684D1CA168A942CF
:1036000000D100256169022903D100BF2169A942C7
:10361000FCD02169A94208D0E268616801EB020987
:1036200089F80080E560012600E00026C1B281F340
:10363000118800BF00BF3046BDE8F087384A00203F
:103640002DE9F04104460D46164600BF0E4F38786E
:10365000532801D000F0A8FC00BFEFF3118007460B
:10366000202080F3118800BF00BF32462946204643
:1036700000F00CF88046F8B280F3118800BF00BF5C
:103680004046BDE8F0810000384A00202DE9F047AF
:10369000074688461646C24607EB47011B4800EB23
:1036A000C109D9F8140020B1012811D0022826D16F
:1036B0001EE0484600F0B0FC0546B54201D20024A9
:1036C00005E0344632465146484600F0FCFD18E01D
:1036D000484600F0A1FC0546B54201D2284600E06C
:1036E0003046044622465146484600F0ECFD08E0CC
:1036F00032465146484600F0ABFD044601E0002446
:1037000000BF00BF2046BDE8F0870000504A0020FF
:1037100070B505460C462046FDF7E2F806463246EF
:1037200021462846FFF78CFF70BD0FB438B504461C
:1037300006A800906A462046059900F007F805465D
:1037400000200090284638BC5DF814FB2DE9F04FAE
:1037500099B083460D46144603A814904020159056
:1037600000201690CDF860B0179000BF2E786D1C29
:1037700006B9E4E0252E79D100274FF0010900BFFA
:103780002E78232E12D02B2E0CD02D2E02D0302EA0
:1037900010D103E047F001076D1C0EE047F002076F
:1037A0006D1C0AE047F004076D1C06E047F00807AF
:1037B0006D1C02E04FF0000900BF00BFB9F1000F1F
:1037C000DED14FF0000800BF2E78302E01DB392EFD
:1037D00000DD07E06D1CA6F1300008EB880100EB6E
:1037E0004108F1E700BF002013902E782E2E12D151
:1037F0006D1C00BF2E78302E01DB392E00DD09E074
:103800006D1CA6F13000139901EB810100EB410022
:103810001390EFE700BF2E7800BF6C2E01D0682E0A
:1038200002D16D1C2E7800E000E0F6E700BF702E9C
:1038300062D008DC252E71D0582E35D0632E09D0E9
:10384000642E70D113E0732E3CD0752E1DD0782ECF
:1038500069D128E02168081D2060D1F8009009F0A6
:10386000FF0A514614A800F0D1FC5DE05FE021683A
:10387000081D2060D1F80090CDE900870A22494652
:1038800014A8139B00F0D6FB4EE02168081D2060B1
:10389000D1F80090CDE900870A22494614A8139B6D
:1038A00000F03EFC40E000BF2168081D2060D1F818
:1038B0000090CDE900871022494614A8139B00F020
:1038C0002FFC31E02168081D2060D1F800A0BAF17A
:1038D000000F01D10FF28C0A00BF9AF800600AF1C4
:1038E000010A06B906E0314614A800F08FFC1798CB
:1038F0000028F2DA00BF17E02168081D2060D1F827
:103900000090002008210B461022CDE90010494606
:1039100014A800F005FC07E000E004E0252114A84D
:1039200000F074FC00E000BF00BF6D1C03E03146F6
:1039300014A800F06BFC17980028BFF617AF00BF63
:10394000179800280ADD169820B103A95846169A40
:10395000FFF776FEDDE9161008441790179819B0A6
:10396000BDE8F08F284E554C4C29000010B54FF0A3
:10397000E020006904F064F8012801D003F080FC25
:1039800010BD000000B593B0302107A8FDF7B3F8D3
:10399000142102A8FDF7AFF800BF002001902548D0
:1039A000006840F08050234908600846006800F035
:1039B0008050019000BF00BF00BF002001901E4852
:1039C000006840F440401C4908600846006800F464
:1039D0004040019000BF00BF052007904FF48030A9
:1039E00008900120099002200D9041050E910C21B4
:1039F0000F9160211091022111910421129107A8C9
:103A0000FEF7DCFE08B1FEF798FB0F2002900220C3
:103A10000390002004904FF4805005900020069001
:103A2000032102A8FEF778FD08B1FEF786FB13B06C
:103A300000BD0000403802400070004003480068AC
:103A400040F47000014908607047000088ED00E014
:103A500010B50248FFF7C5FB10BD0000140100209F
:103A600010B50268244B98420BD0B0F1804F08D0BB
:103A7000224B984205D0224B984202D0214B9842CB
:103A800003D122F070024B681A431B4B984214D0AA
:103A9000B0F1804F11D0194B98420ED0184B98427C
:103AA0000BD0184B984208D0174B984205D0174BB3
:103AB000984202D0164B984203D122F44072CB6850
:103AC0001A4322F080034C6943EA040202608B68C7
:103AD000C3620B688362084B984201D10B69036390
:103AE00001234361036903F001031BB1036923F060
:103AF0000103036110BD000000000140000400400C
:103B000000080040000C004000400140004401401B
:103B10000048014010B504460F48806898B10F482E
:103B200000F006F90E4800F003F90B49886800F030
:103B3000FFF80948C06830B10A4800F0F9F80649B2
:103B4000C86800F0F5F82CB1044800F0F1F8204600
:103B500000F0EEF810BD0000A0570020BD82000864
:103B6000BA840008C48400082DE9F04105460C46DB
:103B700016461F46DDF8188000BF1648006A10B9C7
:103B80001448406A20B1012112482830FDF71DF881
:103B900000BFA5421CD0384600F0F0F90E4800F0F6
:103BA000C7F84146284600F034F90C4800F0C0F848
:103BB0004146204600F02DF93046FFF7ABFF00BF2D
:103BC000012004490862012102482830FCF7FDFF6A
:103BD000BDE8F081A0570020C0820008CB82000819
:103BE000074908600021064A5160116151619161E5
:103BF000D1611162516200BF9160D16000BF704716
:103C0000A057002010B51248406A28B11048C0697A
:103C1000401C0F49C86110E00D48006A40B90C4AC9
:103C20001169106800F08EF90A4800F081F804E08C
:103C300007488069401C06498861002004490862E1
:103C4000486200BF00BF0A21FFF7BAFC10BD0000A8
:103C5000A05700208C82000870B504460D46164619
:103C60001048456006614069401C0E49486100BF2C
:103C700000208860C86000BF00BF00BF01F12800BD
:103C8000FCF78EFF10B902F077FEA04705482830F8
:103C9000FCF786FF08B902F0C1FE00BF00BFFFF7C6
:103CA000B1FF70BDA057002010B50A210020FFF71A
:103CB00087FC184800F03CF80A210020FFF780FC40
:103CC0001549486900F096F8144800F031F8124997
:103CD000886900F08FF8124800F02AF80E49C86988
:103CE00000F088F80F4800F023F80A210020FFF7C1
:103CF00067FC0948806918B90B4800F019F802E020
:103D00000A4800F015F80A210020FFF759FC024884
:103D1000806910BD85840008A05700209D8400089C
:103D2000A5840008B0840008808200089A820008F8
:103D300070B505462C469CB10FE020781B2807D1B2
:103D400060785B2804D1204600F00BF8044404E0BE
:103D5000204600F01DF8641C00BF20780028ECD13C
:103D600070BD70B506463446002505E02178002078
:103D7000FFF726FC641C6D1C207810B120786D289C
:103D8000F4D16D210020FFF71BFC6D1C284670BD8F
:103D900010B5044620787E2807DC2078202804DB34
:103DA00021780020FFF70CFC23E020780D2808D1B3
:103DB0005C210020FFF704FC72210020FFF700FCCB
:103DC00017E020780A2808D15C210020FFF7F8FBD3
:103DD0006E210020FFF7F4FB0BE05C210020FFF7D1
:103DE000EFFB78210020FFF7EBFB2078022100F0A9
:103DF00067F810BD70B504462546002C05DA2D2164
:103E00000020FFF7DDFBE843451C284600F07BF867
:103E100070BD70B504460D4605F01000102839D16C
:103E2000912D33D127210020FFF7CAFB7E2C06DC21
:103E3000202C04DBE1B20020FFF7C2FB21E00D2CB7
:103E400008D15C210020FFF7BBFB72210020FFF7A7
:103E5000B7FB16E00A2C08D15C210020FFF7B0FB6D
:103E60006E210020FFF7ACFB0BE05C210020FFF788
:103E7000A7FB78210020FFF7A3FB0221204600F0DA
:103E80001FF827210020FFF79BFB18E02046FFF7D3
:103E9000B1FF14E005F02000202803D1204600F0F7
:103EA00032F80CE030210020FFF78AFB7821002057
:103EB000FFF786FB2807C10E204600F001F870BD11
:103EC0002DE9F04107460E463546082D00D9082554
:103ED00015E0681EC5B2A80027FA00F000F00F0434
:103EE000092C06DC04F13000C1B20020FFF768FBAA
:103EF00005E004F13700C1B20020FFF761FB002D9F
:103F0000E7DCBDE8F08170B50546012402E004EB72
:103F100084004400B5FBF4F00928F8D800BFB5FBD5
:103F2000F4F00A21B0FBF1F201FB120000F13006BF
:103F300031460020FFF744FB0A20B4FBF0F4002CCC
:103F4000EDD170BD70B505460C462846FFF7F0FE72
:103F50003A210020FFF734FB2046FFF74BFF3A21C0
:103F60000020FFF72DFB04494868FFF7E1FE3A21E6
:103F70000020FFF725FB70BDA057002010B50446B8
:103F8000064908682146FFF7DDFF0548FFF7D0FE28
:103F90003A210020FFF714FB10BD0000A0570020BD
:103FA0009A82000800BFFEE770B5144CA821204695
:103FB000FCF7A1FD03202061606111A0A0611349FD
:103FC000E16140F2DC5121620021A1626162E162A3
:103FD0000BA020660E4961661021A16600212167B1
:103FE000E1666167002505E0C5F10F000949085C3D
:103FF00060556D1C102DF7D370BD0000384A0020AD
:104000005465726D696E616C00000000E04A00202A
:10401000BC5000205C80000810B501460A69CB68DE
:104020009A4204D88C68641EE41AA01801E0D41ADD
:10403000601E10BD2DE9FC5F06460F46924698466D
:10404000DDE90C45002F01DA784200E0384683466E
:104050004FF0010903E09BFBFAFB09F10109D3458D
:10406000F9DAC84500D9C14634B1002F03DB05F0A9
:104070000400042800D1641E05F0020010B1B8F15C
:10408000000F11D005F0010070B96CB108E0641E9A
:104090002021304600F0BAF8F068002800DA02E08B
:1040A0000CB1A145F3D300BFF068002836DB002F28
:1040B00005DA7F422D21304600F0A8F807E005F030
:1040C0000400042803D12B21304600F09FF8F0684B
:1040D000002823DB05F00200022814D105F00100BE
:1040E00088B9B8F1000F0ED16CB108E0641E302120
:1040F000304600F08BF8F068002800DA02E00CB1DE
:10410000A145F3D300BFF068002807DB43465246C1
:1041100039463046CDE9004500F002F8BDE8FC9F85
:104120002DE9FC5F8046894615461E460C9CCDF85D
:1041300004900127BB4605E00198B0FBF5F0019023
:104140000BF1010B0198A842F6D25E4500D9B346A7
:104150000D9800F00100D0B9CCB10D9800F002002C
:10416000022803D116B93020009001E020200090F1
:1041700009E0641E4046009900F048F8D8F80C00A9
:10418000002800DA02E00CB1A345F2D300BFD8F852
:104190000C00002835DB09E0012E01D9761E04E071
:1041A000B9FBF7FAAA4500D201E06F43F4E700BF7C
:1041B00000BFB9FBF7FA0AFB1799134810F80A1069
:1041C000404600F023F8D8F80C00002800DA03E09D
:1041D000B7FBF5F7002FECD100BF0D9800F0010000
:1041E00078B174B109E0641E2021404600F00EF859
:1041F000D8F80C00002800DA02E00CB1A345F2D395
:1042000000BFBDE8FC9F00006D80000870B504464B
:104210000E46A568681C6168814206D32068465531
:10422000681CA060E068401CE060D4E9011088428E
:104230000DD1A26821682069FFF702FAA1688842BF
:1042400003D04FF0FF30E06001E00020A06070BDBF
:104250002DE9F05F0446894617464FF0000AE568ED
:1042600000BFD4F81080A84503D9A8EB0500461E6E
:1042700004E0A5EB0800401CA1680E1AA068401BD2
:10428000B04201D9304601E0A068401B0646BE425C
:1042900001D2304600E038460646606800EB050B68
:1042A000324649465846FCF785FBB244B144BF1B31
:1042B0003544A068A84200D10025E560002FD0D188
:1042C0005046BDE8F09F2DE9F04704468946154663
:1042D000E668A068871BAF420AD9606800EB060A4F
:1042E0002A4649465046FCF765FB7019E06014E029
:1042F000B846606800EB060A424649465046FCF75D
:1043000059FBA5EB0708D4F804A009EB07014246C6
:104310005046FCF74FFBC4F80C80BDE8F08703B4AF
:1043200001984100009850EAC12018BF04204A0DAE
:1043300018BF40F0010040F2FF72B2EB515F08BFBE
:1043400040F00200012808BF052002B070470000BD
:1043500002480068C0F30220704700000CED00E046
:1043600010B5002804DB0A07130E054A135406E0B3
:104370000A07140E034A00F00F031B1FD45410BD8C
:1043800000E400E018ED00E0EFF3058070473038FE
:104390000A2801D201207047002070472DE9FE4F06
:1043A0000646884617463C480068029000253B4870
:1043B00000680090A9463A48007848B33948007828
:1043C000E8B93948826928466D1C46F820203648ED
:1043D0004069441E35480068844210D33348006861
:1043E000334909680844A04209D3202D07D2454526
:1043F00005D228466D1C46F820404FF001092D4893
:10440000007888B16A4602A901A801F0A7FA0BE07A
:10441000FBF7CEFF8246FBF7C8FF824504D16A4610
:1044200002A901A801F09AFA1E48007800B1029F83
:104430002AE03868041F04F0010000B923E038685E
:10444000441E1A480068001D84421BD317480068A8
:10445000174909680844A04214D3202D12D2201F06
:1044600000F01AFA70B145450CD2022D06D1B9F10F
:10447000000F03D07068A04200D104E028466D1CF4
:1044800046F8204000BF3F1D009902980844B842FA
:10449000CFD82846BDE8FE8FDC000020E0000020D9
:1044A000ED000020EE0000205C570020E40000201A
:1044B000E8000020F00000202DE9F04192B007460E
:1044C0000E4635462C46002011902022844909A82A
:1044D000FCF7B5FA834800680890834800680790A5
:1044E0008248007858B9824B82A284A10020FFF74D
:1044F0001CF98AA10020FFF70BF900BFFEE78848EE
:10450000007858B17A4B87A27CA10020FFF70DF903
:1045100082A10020FFF7FCF800BFFEE701208049E0
:10452000087083A10020FFF700F97CA10020FFF7AD
:10453000EFF800F045F9C7F380007E49087008469F
:104540000078D8B101F006FA10B101F003FA00E0EA
:1045500079A080467A484246816A0020FFF7E5F854
:104560006EA10020FFF7D4F8FBF71FFF05460446B5
:1045700007AA08A911A801F0F1F908E07048C16A7A
:104580000020FFF7D2F865A10020FFF7C1F8203521
:104590002946384602F030FA05460898854204D389
:1045A000DDE907100844A84210D2DDE907100844ED
:1045B00000902A4663490020089BFFF7B6F857A1F0
:1045C0000020FFF7A5F801205F4908702A46DDE9C1
:1045D000071000F079F95A48016B0020FFF7A5F8A1
:1045E0004EA10020FFF794F85849206808606068E1
:1045F0004860A0688860E068C860206908616069F8
:104600004861A0698861E069C8610846C0684F4A8E
:104610000C9992680B9BCDE90232CDE904104B480E
:1046200040680A99CDE900104848036848A1002075
:10463000099AFFF77AF839A10020FFF769F8434893
:10464000C069424A109992690F9BCDE90232CDE9C7
:1046500004103E4840690E99CDE900103B480369BB
:104660003BA100200D9AFFF760F82CA10020FFF776
:104670004FF842A10020FFF758F828A10020FFF7CB
:1046800047F84E480068314908624C48001D0078E0
:1046900081F8240049481030006888624748401D6E
:1046A000007881F82C0045481430006808634348BE
:1046B000801D0088888641480830006888633F482C
:1046C0000C300088C8633D4818300088086400F04A
:1046D00081FF284601F028FB12B0BDE8F081000000
:1046E00060820008DC000020E0000020EC000020D8
:1046F0004A820008696E69745F6F6B002825732910
:104700002068617320617373657274206661696CDF
:1047100065642061742025732E0000000D0A0000DE
:10472000ED000020216F6E5F6661756C7400000003
:1047300000000000F00000204E4F5F4E414D45004C
:1047400084810008F48E0008EE0000205C570020F1
:10475000202025733A2025303878202025733A20F0
:1047600025303878202025733A20253038782020CD
:1047700025733A2025303878000000003D3D3D3D4E
:104780003D3D3D3D3D3D3D3D3D3D3D3D3D3D3D3D59
:104790003D3D3D3D3D3D3D3D3D3D3D3D3D3D3D3D49
:1047A0003D3D3D3D3D3D3D3D3D3D3D3D3D3D3D3D39
:1047B0003D3D3D3D3D3D3D3D3D3D000024ED00E0A6
:1047C00008B5074800900748074B084A4168002091
:1047D000FEF7ABFF06A10020FEF79AFF08BD000020
:1047E0001A56002084810008F9550020D855002071
:1047F0000D0A000070B504460E46154620222146DB
:104800001748FCF79FF9202231461648FCF79AF921
:10481000202229461448FCF795F9144814490860E9
:1048200014480968401A144908601448144908607B
:1048300014480968401A144908600F48006848B9CC
:10484000124801680020FEF770FF11A10020FEF75A
:104850005FFF70BD01200F49087000BFF9E700003D
:10486000D8550020F95500201A560020C85A0020BB
:10487000DC000020C85E0020E000002000000008EE
:10488000E400002088900008E800002084810008EF
:104890000D0A0000EC00002001460B884A8802F453
:1048A0007840B0F5784F06D103F47840B0F5704FFA
:1048B00001D10120704702F47F40B0F58E4F01D145
:1048C0000120F7E70020F5E72DE9F04104460E4608
:1048D0001546102723480078F8B12348007850B1D6
:1048E00022482A4681690020FEF71FFF20A10020F0
:1048F000FEF70EFF09E01D482A46C1690020FEF7B9
:1049000014FF1BA10020FEF703FFA54201D225469C
:1049100003E0A019A84200D2A5191448016900209B
:10492000FEF703FF12A10020FEF7F2FE0BE02A467D
:1049300010A100202B68FEF7F8FE0DA10020FEF765
:10494000E7FE2D1D7F1EA019A84201D9002FEED130
:104950000FA10020FEF7E9FE05A10020FEF7D8FE1A
:10496000BDE8F081EE000020F00000208481000806
:104970000D0A00002020616464723A2025303878E6
:1049800020202020646174613A20253038780000AE
:104990003D3D3D3D3D3D3D3D3D3D3D3D3D3D3D3D47
:1049A0003D3D3D3D3D3D3D3D3D3D3D3D3D3D3D3D37
:1049B0003D3D3D3D0000000070B586B00546002D30
:1049C0001CD126480068002811D14FF4F170244909
:1049D00024A229A3CDE90310CDE9013200900B46B2
:1049E0002EA23BA1002000F0A1F800BFFEE74FF48B
:1049F000F1721B491BA0194B1B6898470024052620
:104A0000354890F8F00010B9304606B070BD00F09F
:104A10009FFA00241BE004EB44112F483130084476
:104A200090F82000012810D104EB44122A483130BC
:104A30001044411C1E222846FBF771FF28B904EBE5
:104A4000441125483130465C03E0601CC4B2052C9B
:104A5000E1DB00BF00F0B0FA3046D6E7D800002016
:104A60000F81000874616720213D202828766F6936
:104A700064202A29302900002825732920686173C1
:104A800020617373657274206661696C656420616E
:104A9000742025733A256C642E0000002E2E5C4D88
:104AA0006964646C6577617265735C54686972648B
:104AB0005F50617274795C656173796C6F6767656B
:104AC000725C7372635C656C6F672E63000000003C
:104AD000656C6F6700000000CC50002010B500240A
:104AE000114890F8F000012801D1204610BD00F0D7
:104AF000A5FA04460CB12046F8E7012000F03CFA84
:104B00000020094981F8F30081F8F400012000F049
:104B10000DFC052000F0A2FA00F00AFB012002497A
:104B200081F8F0002046E1E7CC5000200FB42DE9D9
:104B3000F04F8DB005460F469846DDF86890384630
:104B4000FBF7CEFE824600244FF0010B00200B90B5
:104B50000C900790089009900A90052D1CDDCC4818
:104B60000068002811D14FF41070CA49CAA2D1A31D
:104B7000CDE90310CDE9013200900B46D6A2E3A1A6
:104B80000020FFF7D3FF00BFFEE74FF41072C149CA
:104B9000C1A0BF4B1B689847DE4890F8F10020B9D0
:104BA0000DB0BDE8F00F5DF814FBDA480078A842BC
:104BB00004DB3846FFF700FFA84200DAF0E7D549EA
:104BC000491C3846FBF77AFE00B9E9E71CA80690B5
:104BD00000F0BEF9CF4890F8F50078B1CE48011941
:104BE000CEA2204600F068FC0444CD4850F82520B1
:104BF000C9480119204600F05FFC04440121284601
:104C000000F0F0FE40B1C74850F82520C248011915
:104C1000204600F051FC04440221284600F0E2FE48
:104C2000E8B1BD4801193A46204600F045FC04446D
:104C3000BAF10F0F0CD8CAF10F01202207A8FBF719
:104C400030FFB548011907AA204600F035FC04449E
:104C5000B1480119B4A2204600F02EFC04441C21E6
:104C6000284600F0BFFE002852D0AB480119AFA281
:104C7000204600F021FC04440421284600F0B2FE46
:104C8000A8B100F0B5F90590A34801192046059A8E
:104C900000F012FC04441821284600F0A3FE30B1B5
:104CA0009D480119A0A2204600F006FC04440821FA
:104CB000284600F097FEA8B100F092F905909648BA
:104CC00001192046059A00F0F7FB044410212846FC
:104CD00000F088FE30B19048011993A2204600F000
:104CE000EBFB04441021284600F07CFE48B100F0A4
:104CF0007BF90590884801192046059A00F0DCFBF5
:104D00000444854801198AA2204600F0D5FB0444DA
:104D100020212846189A00F0D7FE60B9424640216B
:104D2000284600F0D1FE30B94A468021284600F0DE
:104D3000D9FE002862D0784801197EA2204600F0F2
:104D4000BBFB044420212846189A00F0BDFE08B39E
:104D5000714801192046189A00F0AEFB04444246FF
:104D60004021284600F0B0FE38B16B48011972A20C
:104D7000204600F0A1FB04440CE04A46802128466E
:104D800000F0B0FE30B16448011967A2204600F07F
:104D900093FB04444A468021284600F0A3FEC8B194
:104DA0004B4666A205210BA8FBF7D2FB5A48011916
:104DB0000BAA204600F080FB0444424640212846CE
:104DC00000F082FE30B15448011957A2204600F08D
:104DD00073FB044442464021284600F075FE30B182
:104DE0004D4801194246204600F066FB04444A48FB
:104DF000011953A2204600F05FFB0444C4F5806112
:104E0000454A1019069B1B9AFBF772FB06460020C9
:104E10000690A019B0F5806F03D8002E01DB344452
:104E200001E04FF48064201D5844B0F5806F04D930
:104E30004FF48064241FA4EB0B04364890F8200044
:104E400058B1002034490855324920313248FBF727
:104E500035FD10B900F0B0F8A2E62E4890F8F50044
:104E600030B12D48011937A2204600F025FB04443B
:104E70002948011935A2204600F01EFB04442146B2
:104E8000254800F0DDF800F097F800BF88E6000044
:104E9000D8000020278100086C6576656C203C3DB9
:104EA00020454C4F475F4C564C5F564552424F533E
:104EB0004500000028257329206861732061737301
:104EC000657274206661696C656420617420257365
:104ED0003A256C642E0000002E2E5C4D6964646CD3
:104EE0006577617265735C54686972645F50617262
:104EF00074795C656173796C6F676765725C7372F6
:104F0000635C656C6F672E6300000000656C6F6703
:104F100000000000CC500020C45100201B5B0000AA
:104F2000C0000020A8000020200000005B0000005E
:104F30005D200000280000003A000000256C64009D
:104F4000290000001B5B306D000000000A0000001B
:104F500010B5084890F8F20030B100F07AF801205E
:104F6000044981F8F40003E00120024981F8F300CC
:104F700010BD0000CC50002010B504460D4880F84C
:104F8000F24090F8F200A0B10A4890F8F40030B96D
:104F9000084890F8F30010B100F05BF809E005480C
:104FA00090F8F40028B1034890F8F30008B900F035
:104FB00052F810BDCC50002010B5084890F8F2000F
:104FC00030B100F048F80020044981F8F40003E013
:104FD0000020024981F8F30010BD0000CC500020F1
:104FE00000A070470000000000A070470000000013
:104FF00000B587B0002201A90A48FDF7DBFE0022B8
:1050000006A90848FDF7B0FE9DF8060000909DF83F
:1050100005309DF8042004A10748FBF783FA0648F1
:1050200007B000BDF4000020253032643A2530324C
:10503000643A253032640000C455002000207047D7
:1050400070B504460D462A4621460020FEF7F8FAC0
:1050500070BD72B6704762B67047000010B586B07A
:105060000446052C1CDD10480068002811D14FF4BF
:10507000AE700E490EA215A3CDE90310CDE90132A1
:1050800000900B461AA227A10020FFF74FFD00BF9A
:10509000FEE74FF4AE72054905A0034B1B68984725
:1050A0002248047006B010BDD8000020E38000083C
:1050B0006C6576656C203C3D20454C4F475F4C56F7
:1050C0004C5F564552424F53450000002825732936
:1050D0002068617320617373657274206661696C06
:1050E00065642061742025733A256C642E000000ED
:1050F0002E2E5C4D6964646C6577617265735C54D7
:10510000686972645F50617274795C656173796C0F
:105110006F676765725C7372635C656C6F672E6343
:1051200000000000656C6F6700000000CC5000209C
:1051300010B5002400BF13E004EB44120A491144E7
:10514000481C1F21FBF7B5FC002104EB4412064864
:10515000815404EB4412104480F82010601CC4B247
:10516000052CE9DB10BD0000FD50002030B585B0F6
:1051700004460D46052C1CDD10480068002811D19E
:105180004FF4A1700E490FA215A3CDE90310CDE98C
:10519000013200900B461BA227A10020FFF7C6FC9E
:1051A00000BFFEE74FF4A172054906A0034B1B6840
:1051B0009847234840F8245005B030BDD80000205F
:1051C000C68000086C6576656C203C3D20454C4FE0
:1051D000475F4C564C5F564552424F5345000000C6
:1051E00028257329206861732061737365727420A8
:1051F0006661696C65642061742025733A256C646E
:105200002E0000002E2E5C4D6964646C657761721F
:1052100065735C54686972645F50617274795C652F
:105220006173796C6F676765725C7372635C656CE0
:105230006F672E6300000000656C6F670000000060
:10524000A451002010B586B00446002C1ED0012CBD
:105250001CD011480068002811D140F217100F49E6
:105260000FA219A3CDE90310CDE9013200900B463E
:105270001EA22BA10020FFF759FC00BFFEE740F261
:105280001712064906A0044B1B689847264880F869
:10529000F14006B010BD0000D80000209280000848
:1052A00028656E61626C6564203D3D2066616C73AB
:1052B0006529207C7C2028656E61626C6564203DD8
:1052C0003D20747275652900282573292068617353
:1052D00020617373657274206661696C6564206116
:1052E000742025733A256C642E0000002E2E5C4D30
:1052F0006964646C6577617265735C546869726433
:105300005F50617274795C656173796C6F67676512
:10531000725C7372635C656C6F672E6300000000E3
:10532000656C6F6700000000CC50002010B586B09F
:105330000446002C1ED0012C1CD011480068002807
:1053400011D140F223100F490FA219A3CDE9031088
:10535000CDE9013200900B461EA22BA10020FFF7E1
:10536000E5FB00BFFEE740F22312064906A0044B0E
:105370001B689847264880F8F54006B010BD00002D
:10538000D8000020AA80000828656E61626C656400
:10539000203D3D2066616C736529207C7C2028655A
:1053A0006E61626C6564203D3D20747275652900F4
:1053B00028257329206861732061737365727420D6
:1053C0006661696C65642061742025733A256C649C
:1053D0002E0000002E2E5C4D6964646C657761724E
:1053E00065735C54686972645F50617274795C655E
:1053F0006173796C6F676765725C7372635C656C0F
:105400006F672E6300000000656C6F67000000008E
:10541000CC5000200EB50B4890F8F00000B90EBD3E
:105420000120FFF70FFF08A009A1F822124BCDE9D8
:105430000021029011A21EA10320FFF777FB00BFFD
:10544000EDE70000CC500020322E322E393900001A
:10545000456173794C6F67676572205625732069C3
:105460007320696E697469616C697A65207375630C
:10547000636573732E0000007D8000082E2E5C4D46
:105480006964646C6577617265735C5468697264A1
:105490005F50617274795C656173796C6F67676581
:1054A000725C7372635C656C6F672E630000000052
:1054B000656C6F6700000000F0B585B006460D46CC
:1054C00014462746002D1AD125480068002810D11F
:1054D0002C20244924A225A3CDE90310CDE90132D3
:1054E00000900B462AA238A10020FFF71FFB00BF47
:1054F000FEE72C221B491CA0194B1B689847002C67
:105500001AD117480068002810D12D20154930A263
:1055100016A3CDE90310CDE9013200900B461CA281
:1055200029A10020FFF702FB00BFFEE72D220D4955
:1055300027A00B4B1B6898470AE03046761CB0F555
:10554000806F04D214F8010B05F8010B00E002E0B3
:1055500020780028F1D100BFE01B05B0F0BD0000AD
:10556000D80000205F810008647374002825732927
:105570002068617320617373657274206661696C61
:1055800065642061742025733A256C642E00000048
:105590002E2E5C4D6964646C6577617265735C5432
:1055A000686972645F50617274795C656173796C6B
:1055B0006F676765725C7372635C656C6F675F755C
:1055C00074696C732E630000656C6F6700000000E7
:1055D0007372630010B5D74890F83800C0F34000EC
:1055E00040B1D548416B0020FEF79FF8D3A10020C1
:1055F000FEF78EF8CF48806BC0F3807000287DD016
:10560000CC4890F82400002867D0CA4890F82400BD
:1056100000F0010040B1C848816B0020FEF785F81A
:10562000C6A10020FEF774F8C24890F82400C0F329
:10563000400040B1C048C16B0020FEF776F8BFA122
:105640000020FEF765F8BB4890F82400C0F3C000C6
:1056500040B1B948016C0020FEF767F8B7A10020FF
:10566000FEF756F8B34890F82400C0F3001040B19C
:10567000B148416C0020FEF758F8B0A10020FEF7B9
:1056800047F8AC4890F82400C0F3401040B1AA4855
:10569000816C0020FEF749F8A8A10020FEF738F839
:1056A000A44890F82400C009B8B1A24890F824009A
:1056B00000F0010028B99F4890F82400C0F3400092
:1056C00058B19C48826A9C48D0F890100020FEF7A0
:1056D0002CF89AA10020FEF71BF8964890F82C00B1
:1056E000002872D0934890F82C0000F0010050B1CF
:1056F0009148C16C0020FEF718F800E0C1E08FA1CE
:105700000020FEF705F88B4890F82C00C0F340000D
:1057100040B18948016D0020FEF707F887A10020FD
:10572000FDF7F6FF834890F82C00C0F3800040B1ED
:105730008148416D0020FDF7F8FF80A10020FDF7B2
:10574000E7FF7C4890F82C00C0F3C00040B17A48D5
:10575000816D0020FDF7E9FF78A10020FDF7D8FF5B
:10576000744890F82C00C0F3001040B17248C16D2D
:105770000020FDF7DAFF71A10020FDF7C9FF6D4899
:1057800090F82C00C0F3401040B16B48016E00202F
:10579000FDF7CBFF69A10020FDF7BAFF654890F83F
:1057A0002C00C00988B1634890F82C00C0F3400079
:1057B00058B16048026B6048D0F894100020FDF7A3
:1057C000B4FF5EA10020FDF7A3FF5A48808E002899
:1057D00057D0584890F8340000F0010040B15648C6
:1057E000416E0020FDF7A1FF54A10020FDF790FFBE
:1057F000504890F83400C0F3400040B14E48816EEC
:105800000020FDF792FF4DA10020FDF781FF4948E0
:1058100090F83400C0F3800040B14748C16E0020CA
:10582000FDF783FF45A10020FDF772FF414890F886
:105830003400C0F3C00040B13F48016F0020FDF7C5
:1058400074FF3EA10020FDF763FF3A48808EC0F34D
:10585000002040B13848416F0020FDF766FF37A1B6
:105860000020FDF755FF3348808EC0F3402040B143
:105870003148816F0020FDF758FF30A10020FDF76F
:1058800047FF2C48806BC00F002852D02948C06BBE
:1058900000284ED0274890F83C0000F0010040B1AD
:1058A0002548C16F0020FDF740FF24A10020FDF72F
:1058B0002FFF204890F83C00C0F3400048B11E483C
:1058C000D0F880100020FDF730FF1CA10020FDF76C
:1058D0001FFF184890F83C00C0F3800048B11648FC
:1058E000D0F884100020FDF720FF14A10020FDF760
:1058F0000FFF104890F83C00C0F3C00048B10E48BC
:10590000D0F888100020FDF710FF0CA10020FDF753
:10591000FFFE084890F83C00C0F3001048B106486C
:10592000D0F88C100020FDF700FF04A10020FDF747
:10593000EFFE10BD5C570020848100080D0A0000B6
:1059400001460A2311B94FF0FF30704793FBF1F283
:105950001046FAE710B501F0E5FA10BD70B506463D
:105960000C4615465CB9104B10A213A10020FDF7A0
:10597000DCFE19A10020FDF7CBFE00BFFEE75DB9FC
:10598000094B16A20CA10020FDF7CFFE12A10020AA
:10599000FDF7BEFE00BFFEE701F006FB206001F050
:1059A00009FB8000286070BD1C820008737461725E
:1059B000745F616464720000282573292068617334
:1059C00020617373657274206661696C656420611F
:1059D000742025732E0000000D0A000073697A659B
:1059E0000000000030B585B004460D46052C1CDDD6
:1059F00013480068002811D140F2E120114912A299
:105A000018A3CDE90310CDE9013200900B461EA288
:105A10002AA10020FFF78AF800BFFEE740F2E1224A
:105A2000084909A0064B1B689847264850F82400EF
:105A3000284010B1012005B030BD0020FBE7000078
:105A4000D8000020338100086C6576656C203C3DF1
:105A500020454C4F475F4C564C5F564552424F5382
:105A60004500000028257329206861732061737345
:105A7000657274206661696C6564206174202573A9
:105A80003A256C642E0000002E2E5C4D6964646C17
:105A90006577617265735C54686972645F506172A6
:105AA00074795C656173796C6F676765725C73723A
:105AB000635C656C6F672E6300000000656C6F6748
:105AC00000000000A451002070B505460E461446A3
:105AD00034B131462846FFF785FF08B1012070BD7B
