:020000040800F2
:10000000F8540024F903000897200008F31F0008A3
:1000100095200008430600087D2800080000000025
:10002000000000000000000000000000390300088C
:10003000450600080000000095030008C9250008D7
:100040001304000813040008130400081304000834
:100050001304000813040008130400081304000824
:100060001304000813040008130400081304000814
:100070001304000813040008130400081304000804
:1000800013040008130400081304000813040008F4
:1000900013040008130400081304000813040008E4
:1000A00013040008130400081304000813040008D4
:1000B00013040008130400081304000813040008C4
:1000C00013040008130400081304000813040008B4
:1000D00013040008130400081304000813040008A4
:1000E00013040008130400080000000013040008B3
:1000F0001304000813040008130400081304000884
:100100001304000813040008130400081304000873
:100110001304000813040008A127000813040008B2
:100120001304000813040008130400081304000853
:100130001304000813040008130400081304000843
:1001400000000000000000000000000000000000AF
:100150001304000813040008130400081304000823
:100160001304000813040008130400081304000813
:100170001304000813040008130400080000000022
:1001800013040008130400081304000813040008F3
:1001900013040008130400081304000813040008E3
:1001A00013040008130400081304000813040008D3
:1001B00013040008130400081304000813040008C3
:1001C00013040008130400081304000813040008B3
:1001D00013040008130400081304000813040008A3
:1001E0001304000813040008130400081304000893
:1001F0001304000813040008130400081304000883
:100200001304000813040008130400081304000872
:100210001304000813040008130400081304000862
:100220001304000813040008130400080000000071
:100230001304000813040008000000001304000861
:100240001304000813040008130400081304000832
:100250001304000813040008130400081304000822
:100260001304000813040008130400081304000812
:100270001304000813040008130400080000000021
:100280001304000813040008130400080000000011
:10029000000000001304000800F002F800F03CF831
:1002A0000AA090E8000C82448344AAF10107DA45D1
:1002B00001D100F031F8AFF2090EBAE80F0013F0E7
:1002C000010F18BFFB1A43F00103184788420000D2
:1002D000A8420000103A24BF78C878C1FAD8520763
:1002E00024BF30C830C144BF04680C6070470000B0
:1002F0000023002400250026103A28BF78C1FBD82F
:10030000520728BF30C148BF0B6070471FB504F0CB
:10031000CBF81FBD10B510BD00F059F91146FFF71D
:10032000F5FF02F038FC00F077F903B4FFF7F2FFB5
:1003300003BC00F07FF900002C4B19680868B0E896
:10034000F04F80F30988BFF36F8F4FF0000080F308
:10035000118870470000000008480068006880F3BA
:1003600008884FF0000080F3148862B661B6BFF3CE
:100370004F8FBFF36F8F00DF00BF00BF08ED00E0BD
:10038000DFF80C00016841F470010160704700BFA4
:1003900088ED00E0EFF30980BFF36F8F134B1A680D
:1003A0001EF0100F08BF20ED108A20E9F04F1060FA
:1003B00009B44FF0500080F31188BFF34F8FBFF3A3
:1003C0006F8F03F01BFB4FF0000080F3118809BC16
:1003D00019680868B0E8F04F1EF0100F08BFB0ECC5
:1003E000108A80F30988BFF36F8F70471C000024C8
:1003F000EFF305807047000009488047094800472F
:10040000FEE7FEE7FEE7FEE7FEE7FEE7FEE7FEE7C4
:10041000FEE7FEE704480549054A064B7047000021
:10042000C526000899020008F84E0024F85400245C
:10043000F8500024F8500024032A40F2308010F0D5
:10044000030C00F0158011F8013BBCF1020F62446F
:1004500098BF11F801CB00F8013B38BF11F8013B00
:10046000A2F1040298BF00F801CB38BF00F8013BAD
:1004700011F0030300F07980083AC0F0088051F8C9
:10048000043B083A51F804CBA0E80810F5E7121D28
:100490005CBF51F8043B40F8043BAFF30080D20747
:1004A00024BF11F8013B11F801CB48BF11F8012B13
:1004B00024BF00F8013B00F801CB48BF00F8012B36
:1004C000704702F0FF0343EA032242EA024200F0CF
:1004D00002B84FF000020429C0F0128010F0030CA3
:1004E00000F01B80CCF1040CBCF1020F18BF00F827
:1004F000012BA8BF20F8022BA1EB0C0100F00DB8D6
:100500005FEAC17C24BF00F8012B00F8012B48BF33
:1005100000F8012B70474FF0000200B513469446D7
:100520009646203922BFA0E80C50A0E80C50B1F14B
:100530002001BFF4F7AF090728BFA0E80C5048BF5F
:100540000CC05DF804EB890028BF40F8042B08BFFD
:10055000704748BF20F8022B11F0804F18BF00F8F9
:10056000012B704770477047704710B5203AC0F0B4
:100570000B80B1E81850203AA0E81850B1E81850A4
:10058000A0E81850BFF4F5AF5FEA027C24BFB1E8E1
:100590001850A0E8185044BF18C918C0BDE8104052
:1005A0005FEA827C24BF51F8043B40F8043B08BF5B
:1005B0007047D20728BF31F8023B48BF11F8012B22
:1005C00028BF20F8023B48BF00F8012B7047754652
:1005D00000F02CF8AE4605006946534620F00700AF
:1005E000854618B020B5FFF715FFBDE820404FF055
:1005F00000064FF000074FF000084FF0000B21F00D
:100600000701AC46ACE8C009ACE8C009ACE8C009D9
:10061000ACE8C0098D46704710B50446AFF30080C2
:100620002046BDE81040FFF780BE0000004870473C
:10063000984E002401491820ABBEFEE726000200B8
:100640007047FEE7704772B6FEE700000148006899
:10065000000C70470010005C014880687047000083
:1006600008000024024881680278114481607047C4
:1006700008000024032010B500F0FEF800F09EFFF3
:100680000F4A104914681368C4F3032203F00F03E0
:100690008A5CC95C02F01F0201F01F01D0400A4AC7
:1006A00020FA01F11160094908600F2000F010F8EC
:1006B00008B1012010BD00F09FF8002010BD00001F
:1006C00018440258F04400081800002414000024C4
:1006D00010B5102804468AB02CD2002201463620DC
:1006E00000F0AAF8362000F099F81748046017487F
:1006F000016841F010010160006809A900F01000D4
:100700000890684600F0F8FE0598B0B100F044FF8C
:1007100040000F4900220F4CB0FBF1F10E4840F2AF
:10072000E7330460C0E90332491EC0E9011201F059
:1007300034FB28B101200AB010BD00F02DFFE8E71E
:10074000054801F05DFBF6E70C000024E844025880
:1007500040420F0000100040C0000024154BF0B5CF
:10076000083B427813491A600B680A1F23F0010303
:100770000B6043681360057BC67A827A437B2D0742
:10078000847B45EA0665C77B90F809C0067A90F835
:1007900000E045EAC24040EA834040EA444040EA83
:1007A000074040EA0C2040EA460040EA0E0008609C
:1007B000F0BD0000A0ED00E0BFF35F8F0448002112
:1007C0000368034A23F4803303607032116070477A
:1007D00024ED00E0074A40F0010006497032106045
:1007E000086840F480300860BFF34F8FBFF36F8F0D
:1007F0007047000024ED00E0074882B0016841F036
:1008000002010160006800220F2100F00200009048
:10081000901E02B000F010B8F4440258002809DB22
:10082000410900F01F028900012001F1E021904000
:10083000C1F80001704700000E4BF0B41B680D4674
:10084000C3F30223C3F10706042E00D90426191DA1
:10085000072901D2002300E0DB1E012404FA06F17F
:100860009C40491E2940641E994014402143F0BC1D
:1008700002F080B90CED00E0064900F0070210B567
:100880004FF6FF040868044B204040EA022018435A
:10089000086010BD0CED00E00000FA05134970B5CA
:1008A0000A68D243520705D5096801F00701814261
:1008B00013D118E00A6822F0070202430A60FFF72A
:1008C000CBFE0A4D4FF47A760446083D07E000BFA0
:1008D000FFF7C2FE001BB04201D9012070BD28689D
:1008E000C0438004F4D4002070BD00000C480258BE
:1008F0002DE9FE4F0546DFF8E48350F8081B00247D
:10090000F64FC943019005F12800264608F1240856
:10091000009008011DD4A86E50B1B0F5801F0CD016
:10092000B0F5001F0ED0B0F5401F1ED001240FE01F
:10093000386840F40030386017E00198022101F077
:10094000ABFB03E00098022101F036FC04000CD060
:1009500026462888C043C00523D4A86D05281ED28A
:10096000DFE800F00C11161B1B00AA6ED8F800106F
:1009700021F440111143C8F80010EAE7386840F448
:100980000030386009E00198002101F085FB03E0A8
:100990000098002101F010FC044674B100E001242D
:1009A00026462888C043800528D4E86D80281ED0BC
:1009B0000CDC90B140280ED114E0AA6DD8F80010DC
:1009C00021F007011143C8F80010EAE7C02813D04E
:1009D000B0F5807F10D001240FE0386840F400307B
:1009E000386009E00198002101F056FB03E000980F
:1009F000002101F0E1FB04469CB126462888DFF87F
:100A0000DC92C04309F12C0940052CD4D5F8A8008C
:100A1000B0F5800F20D00DDCA0B1B0F5001F0FD1D4
:100A200015E0EA6DD8F8001021F4E0711143C8F820
:100A30000010E3E7B0F5C00F13D0B0F5000F10D0F1
:100A400001240FE0386840F40030386009E0019874
:100A5000002101F021FB03E00098002101F0ACFB34
:100A600004467CB126462888C04300052DD4D5F81D
:100A7000AC00B0F1007F21D00EDCA8B1B0F1807FD6
:100A800010D116E0D5F8A820D9F8001021F46001A3
:100A90001143C9F80010E6E7B0F1407F13D0B0F180
:100AA000806F10D001240FE0386840F400303860C7
:100AB00009E00198002101F0EFFA03E0009800211D
:100AC00001F07AFB044674B126462868C0438001D1
:100AD0001FD4E86CD8B110280FD0202812D03028AD
:100AE00015D0012414E0D5F8AC20D9F8001021F07D
:100AF000E0611143C9F80010E7E7386840F40030BE
:100B0000386004E00198022101F0C6FA044674B18D
:100B100026462888C043C0042BD4286EB0F5005F59
:100B200020D00DDCA0B1B0F5805F0FD115E06B488F
:100B3000EA6C2030016821F0300111430160E8E7E0
:100B4000B0F5405F13D0B0F5804F10D001240FE016
:100B5000386840F40030386009E00198002101F065
:100B60009BFA03E00098002101F026FB04468CB1BB
:100B700026462888C043800429D4686EB0F5403FDB
:100B800023D010DC08B3B0F5803F14D0B0F5003F9F
:100B90000FD115E02A6ED8F8001021F4E04111437E
:100BA000C8F80010E5E7B0F5802F0ED0B0F5A02F03
:100BB0000BD001240AE00198012101F06DFA03E055
:100BC0000098012101F0F8FA044694B126462888DD
:100BD000C04340042AD4D5F8B000B0F1405F23D020
:100BE00010DC08B3B0F1805F14D0B0F1005F0FD11A
:100BF00015E06A6ED8F8001021F4E0211143C8F81E
:100C00000010E4E7B0F1804F0ED0B0F1A04F0BD050
:100C100001240AE00198012101F03EFA03E0009866
:100C2000012101F0C9FA044674B126462888C04360
:100C300000041FD4286FD8B1B0F1805F0ED0B0F19E
:100C4000005F10D0012414E0D5F8B020D9F80010CE
:100C500021F0E0411143C9F80010E7E7386840F49B
:100C60000030386004E00198012101F015FA0446D3
:100C700074B126462868C043C0011ED4A86CD0B108
:100C800001280ED0022811D0032814D0012413E02B
:100C90002A6FD8F8001021F040511143C8F8001015
:100CA000E8E7386840F40030386004E00198022139
:100CB00001F0F2F90446ACB126462868DFF81CB012
:100CC000C043ABF11C0B400252D40548016841F40B
:100CD00080710160FFF7C0FC824611E02C4402588D
:100CE00000480258FA48AA6C016821F00301114338
:100CF0000160E2E7FFF7B0FCA0EB0A00642835D8FA
:100D0000F4480068C005F5D58CBBDFF8C4A3B5F87E
:100D1000B4100AF1240ADAF8000001F4407100F47A
:100D20004070884211D0DAF80010DAF8002021F47F
:100D3000407142F48032CAF80020DAF8002022F430
:100D40008032CAF80020CAF80010D5F8B400B0F517
:100D5000807F1AD1FFF780FC029012E0FFF77CFC45
:100D60000299411A41F2883081420AD90324264669
:100D70002878DFF85CA3C0430AF1080AC00721D035
:100D80003CE0DAF800008007E8D5D5F8B410C1F3EC
:100D90000120032858460DD0016821F47C510160E0
:100DA000B5F8B420DAF80010C2F30B021143CAF808
:100DB0000010DDE7C84A036802EA111223F47C51EF
:100DC0001143ECE7E86F182816D005DCA0B108281D
:100DD00008D0102804D10AE020280DD028280BD0F4
:100DE00001240AE00198012101F056F903E000987E
:100DF000012101F0E1F9044664B126462878C04398
:100E000080071ED4A86F062819D2DFE800F0160C60
:100E100011161616EA6FDAF8001021F038011143A6
:100E2000CAF80010EAE70198012101F035F903E062
:100E30000098012101F0C0F904467CB100E00124D2
:100E400026462878C04340071FD4D5F894000628CA
:100E500019D2DFE800F0160C11161616AA6FDAF890
:100E6000001021F007011143CAF80010E9E70198CA
:100E7000012101F011F903E00098012101F09CF932
:100E80000446A4B100E0012426462878C043800629
:100E90002BD4D5F89000B0F1405F24D011DC10B312
:100EA000B0F1805F15D0B0F1005F10D116E0D5F839
:100EB0009420D9F8001021F007011143C9F800105F
:100EC000E3E7B0F1804F0ED0B0F1A04F0BD001247A
:100ED0000AE00198002101F0DFF803E00098022108
:100EE00001F06AF9044694B126462878C0434006CA
:100EF0002BD4D5F89C00B0F5406F24D011DC10B392
:100F0000B0F5806F15D0B0F5006F10D116E0D5F8B0
:100F10009020DAF8001021F0E0411143CAF80010E7
:100F2000E3E7B0F5805F0ED0B0F5A05F0BD00124F1
:100F30000AE00198002101F0AFF803E000980221D7
:100F400001F03AF9044694B126462878C0430006D9
:100F50002BD4D5F8A000B0F5C04F24D011DC10B3CD
:100F6000B0F5005F15D0B0F5804F10D116E0D5F880
:100F70009C20D9F8001021F4E0511143C9F8001069
:100F8000E3E7B0F5004F0ED0B0F5204F0BD00124B1
:100F90000AE00198002101F07FF803E000980221A7
:100FA00001F00AF9044654B126462878C0430007E8
:100FB0001ED4D5F88400B0F5805F0AD00FE0D5F8D4
:100FC000A020D9F8001021F460411143C9F80010A5
:100FD000EBE70098022101F0EFF800B10126D5F807
:100FE0008420DAF8001021F440511143CAF80010AF
:100FF0002878C043C00613D4D5F89800B0F5807F98
:1010000005D10098022101F0D7F800B10126D5F8EA
:101010009820D9F8001021F440711143C9F800104C
:101020002868C043000316D4D5F8A40038B1B0F541
:10103000803F09D0B0F5003F0BD001240AE00198B1
:10104000002101F029F803E00098022101F0B4F832
:1010500004468CB126462868C043400322D4D5F804
:101060008800B0F5801F11D0B0F5001F13D0B0F587
:10107000401F15D0012414E0D5F8A420D9F80010A1
:1010800021F440311143C9F80010E4E7386840F416
:101090000030386004E00098012101F08DF804462A
:1010A0005CB126462868C043C00323D4286DA8B18C
:1010B000B0F5803F17D001241BE0D5F88820DAF87E
:1010C000001021F440111143CAF80010EAE70000B3
:1010D0004C44025800480258CFFFFF00386840F4E3
:1010E0000030386004E00198022100F0D5FF04468A
:1010F000E4B126462868C043800005D40098022148
:1011000001F05AF800B101262868C04380031BD4BF
:10111000D5F88000B0B1B0F5807F0FD0B0F5007F7A
:1011200010D0B0F5407F0DD001240CE05A482A6D54
:10113000016821F4803111430160DBE7386840F435
:1011400000303860ECB326462868C043C00207D49C
:101150006A6FD8F8001021F000411143C8F8001060
:101160002868C043C00008D4D5F8B820DBF80010C8
:1011700021F480411143CBF800102868C04380025D
:1011800007D4EA6ED8F8001021F080711143C8F836
:1011900000102868C04340000CD4DBF8001021F494
:1011A0000041CBF80010DBF80010D5F8BC2011434B
:1011B000CBF800102868C04308D437486A6D01682E
:1011C00000E018E021F04051114301602868C0435D
:1011D000000208D4D5F88C20DAF8001021F4400180
:1011E0001143CAF8001028790024C04300F0010020
:1011F00020430AD00FE0D5F88020DAF8001021F45F
:1012000040711143CAF800109EE70198002100F0D8
:1012100043FF00B106462879C04300F00200204396
:1012200005D10198012100F037FF00B10646287969
:10123000C04300F00400204305D10198022100F0D2
:101240002BFF00B106462879C04300F00800204378
:1012500005D10098002100F0AFFF00B106462879C3
:10126000C04300F01000204305D10098012100F098
:10127000A3FF00B106462879C04300F020000443D4
:1012800004D10098022100F097FF00B916B10120A7
:10129000BDE8FE8F0020FBE74C4402582DE9F05FCB
:1012A00004000F467ED0DFF83882D8F8000000F046
:1012B0000F00B8420CD2D8F8001021F00F013943CA
:1012C000C8F80010D8F8000000F00F00B84269D14B
:1012D0002078844D40070AD52069296801F0700103
:1012E000884204D9296821F07001014329602078DF
:1012F0007C4E361D00070AD56069316801F0700127
:10130000884204D9316821F07001014331602078AE
:10131000C0060AD5A069316801F4E061884204D9A9
:10132000316821F4E061014331602078DFF8B4B125
:1013300080060BF1080B0CD5E1695846DBF800205C
:1013400002F07002914204D9026822F070020A434E
:101350000260207880070AD5E068296801F00F0153
:10136000884204D9296821F00F01014329602078BF
:10137000C0073ED05B49A2682868183920F4706025
:10138000104328606068022818D0032819D0096823
:10139000012819D0490700294ADADFF848A1AAF143
:1013A000080A00E044E0DAF8002022F007020243D5
:1013B000CAF80020FFF750F9814612E00968890356
:1013C000E9E709688901E6E7C905E4E7FFF744F9B9
:1013D000A0EB090141F28830814202D90320BDE827
:1013E000F09F6168DAF8000000F03800B0EBC10F40
:1013F000ECD1207880070AD5E068296801F00F0158
:10140000884204D2296821F00F0101432960D8F8ED
:101410000010404601F00F01B9420BD9016821F0DC
:101420000F0139430160006800F00F00B84201D09D
:101430000120D4E7207840070AD52069296801F007
:101440007001884204D2296821F0700101432960AB
:10145000207800070AD56069316801F07001884280
:1014600004D2316821F07001014331602078C00658
:101470000AD5A069316801F4E061884204D231687C
:1014800021F4E06101433160207880060CD5E169E8
:101490005846DBF8002002F07002914204D2026844
:1014A00022F070020A43026000F088F80E492A68B0
:1014B0002B68C2F3032203F00F038A5CC95C02F0BD
:1014C0001F0201F01F01D040084A20FA01F111600B
:1014D0000749086007480068BDE8F05FFFF7F8B803
:1014E0000020005218440258F0440008180000245C
:1014F000140000240C00002470B5144C3F2202603C
:10150000124A24680832131D114D04F00704446088
:1015100016681C1D06F470668660166806F00F06D5
:10152000C660126802F0700202611A6802F070026E
:1015300042611A6802F4E0628261226802F070027D
:10154000C261286800F00F00086070BD10440258A6
:101550000020005230B500F031F80B4A0B490C4B1B
:1015600015681468C5F3032204F00F048A5C095D52
:1015700002F01F0201F01F01D040064A20FA01F1DB
:1015800019601060084630BD18440258F044000845
:10159000180000241400002400B5FFF7DBFF054904
:1015A0000968054AC1F30211515C01F01F01C840EE
:1015B00000BD00001C440258F0440008454970B5C5
:1015C00045480968434B103B11F0380208D001111F
:1015D000082A03D0102A0BD0182A0BD0084670BD59
:1015E00019688906FBD51968C1F3C101C84070BDEF
:1015F0003A4870BD3749374D18310C1D24350A68FB
:10160000096826682D6802F0030406F00102C1F3A0
:101610000511C5F3CC0515FB02F200EE102AB8EE59
:10162000400AE9B32F4ADFED2E0AB7EE001A6CB17B
:10163000DFED2D1A012C01D0022C43D002EE101A3E
:101640001068F8EE422A81EEA22A1EE01C68A40669
:1016500011D51B6801EE901A1168C3F3C103F8EEAF
:10166000612AD84001EE900AC1F30800F8EE611A31
:1016700081EEA22A0BE001EE901ADFED1C2A00BFDA
:10168000F8EE611A106882EEA12AC0F3080001EE9C
:10169000900AF8EE611A40EE201A31EE810A00E05D
:1016A00015E022EE000A1068C0F34620401C00EE50
:1016B000900AF8EE600A80EE201ABCEEC10A10EE25
:1016C000100A70BD01EE901ADFED092AD8E700205C
:1016D00070BD0000104402580090D00340787D0196
:1016E00000000039304402580024744A0024744C2D
:1016F00020BCBE4B2DE9F05F04007DD0FF4F207869
:10170000FE4D1837DFF8F493103DC00748D0D9F8E4
:101710000000396800F03800102815D0182803D1CF
:1017200001F0030002280FD06068B0F5803F12D0AE
:1017300010B1B0F5A02F18D0286820F480302860B0
:10174000286820F4802009E02868800328D5606894
:101750000028D2D024E0286840F4803028606068F7
:1017600088B1FEF779FF064609E0286840F480203A
:101770002860F0E7FEF770FF801B64286FD82868A8
:101780008003F7D50CE0FEF767FF064605E000BFD3
:10179000FEF762FF801B6428F0D828688003F7D426
:1017A000207841F20308D54E0C3E800769D5D9F860
:1017B0000000396810F038000ED0182801D18807D1
:1017C0000AD0E06890B3296821F01901014329602B
:1017D000FEF742FF824631E02868400702D5E06804
:1017E00000288AD0E168286820F0190008432860A2
:1017F000FEF732FF824607E0DFE000BFFEF72CFF76
:10180000A0EB0A000228B9D828684007F6D500BF27
:10181000FEF71CFF40451BD82069402812D03168D4
:1018200021F47C3141EA003030602AE018E000BF4A
:10183000FEF712FFA0EB0A0002289FD82868400795
:10184000F6D5E5E7306820F47C3040F40030EBE773
:10185000207C316821F0FE4141EA0060E4E70DE1BF
:10186000286820F001002860FEF7F6FE824605E0B9
:10187000FEF7F2FEA0EB0A0002288DD82868400788
:10188000F6D42078C0065DD5D9F80000DFF86CB238
:10189000396800F03800ABF1040B082810D0182884
:1018A00003D101F0030001280AD0E069002828686C
:1018B00038D040F080002860FEF7CEFE824623E05C
:1018C0002868C00523D5E069802876D11FE0206A0A
:1018D000202821D0316821F0F84141EA8060306051
:1018E00030E000BF94F82010DBF8002022F07C529A
:1018F00042EA0161CBF8001024E000BFFEF7ACFE25
:10190000A0EB0A00022898D82868C005F6D5FEF793
:101910009DFE4045E6D8DAE7306820F0F84040F018
:101920008040DCE720F080002860FEF795FE064648
:1019300005E000BFFEF790FE801B02289DD82868B6
:10194000C005F7D42078000729D56C486169643058
:1019500000298046016811D041F001010160FEF7C5
:101960007BFE064605E000BFFEF776FE801B0228E0
:10197000C9D8D8F800008007F6D510E021F00101A1
:101980000160FEF769FE064605E000BFFEF764FE53
:10199000801B022872D8D8F800008007F6D420787F
:1019A000800623D5A0690028286810D040F4805014
:1019B0002860FEF751FE064605E036E1FEF74CFED4
:1019C000801B02285AD828688004F7D50EE020F43E
:1019D00080502860FEF740FE064604E0FEF73CFE1D
:1019E000801B02284AD828688004F7D42078400752
:1019F0004FD5DFF80C81D8F8001041F48071C8F899
:101A00000010FEF729FE064605E000BFFEF724FEA3
:101A1000801B642832D8D8F80000C005F6D5374EB0
:101A2000A068603601280AD008B1052813D03068B4
:101A300020F001003060306820F0040002E03068DF
:101A400040F001003060A06841F2883A90B1FEF7A2
:101A500003FE80460AE0306840F004003060EEE7A4
:101A6000FEF7FAFDA0EB0801514507D83068800762
:101A7000F6D50EE0FEF7F0FD804607E084E000BFFB
:101A8000FEF7EAFDA0EB080151457DD830688007DC
:101A9000F6D4606AB0B3DFF86480D9F8001008F1BA
:101AA00020084FF6F87B08F10409C1F3C2010329AD
:101AB000A8F1040A69D00228286820F08070286004
:101AC00003D0FEF7C9FD044684E0FEF7C5FD0646D7
:101AD00005E000BFFEF7C0FD801B022877D828680C
:101AE0008001F7D4E26A40F2F331386854F8283FB5
:101AF000884340EA02101843386004E0104402585A
:101B000000480258B5E0217B434622894FF4FE0C81
:101B1000208A4FF0FE474902267D521E401EA1F545
:101B20000071C2F308088AB2761E0CEA004042EA4D
:101B300008020243504607EA06610A431A60DAF8CF
:101B4000002022F00102CAF80020D9F80020266AFD
:101B500022EA0B0242EAC602C9F80020DAF80010B5
:101B6000A26921F00C011143CAF800100168E26972
:101B700021F0020111430160016841F480310160EC
:101B8000016841F4003101E021E027E001600168D3
:101B900041F480210160016841F001010160286881
:101BA00040F080702860FEF757FD044605E000BF56
:101BB000FEF752FD001B022809D828688001F7D5DE
:101BC00057E000BFFEF748FD001B022802D90320A2
:101BD000BDE8F09F28688001F4D44AE03968012804
:101BE000D8F8000021D0A26A01F0030393421CD16F
:101BF000E26AC1F305118A4217D1216BC0F30802D2
:101C0000491E8A4211D1616BC0F34622491E91429E
:101C10000BD1A16BC0F30642491E914205D1E16B85
:101C2000C0F30660491E814201D00120D0E7A16CBB
:101C30004E46D9F80000C0F3CC00814219D0DAF842
:101C40000000554620F00100CAF80000FEF704FD30
:101C50004FEA0007FEF700FDB842FBD0A26C3068E7
:101C600020EA0B0040EAC2003060286840F0010022
:101C700028600020ACE7000070B504004FF00100C0
:101C800041D094F8210028B9002084F82000204693
:101C900000F042F8022084F821002068C168C9439E
:101CA000C90631D5CA2242625321206841622046CA
:101CB00000F012FB18BB2068164A81681140816051
:101CC000D4E90003A569226981682A4319431143B5
:101CD000816022682189E06840EA01401061204665
:101CE00000F01EFB58B92168CA6C22F00302CA64D6
:101CF00022686369E169D56C19432943D16422687C
:101D0000FF21516208B170BD0020012184F821102B
:101D100070BD0000BFFF8FFF10B5B0B00446C021FA
:101D20006846FEF7F8FB0B492068884210D1010293
:101D300000204A132D92CDE900106846FEF7D8FD29
:101D400008B1FEF780FC0448016841F400410160DD
:101D500030B010BD004000587044025870B50168A2
:101D600004460B48C860FEF777FC4FF47A760546C8
:101D700007E000BFFEF770FC401BB04201D9032012
:101D800070BD2068C0688006F4D5002070BD0000DA
:101D90005FFF030070477047704710B5040003D021
:101DA00094F83D0010B107E0012010BD002084F838
:101DB0003C00204600F022F8022084F83D00206814
:101DC000211D00F0F3FC012084F8480084F83E0057
:101DD00084F83F0084F8400084F8410084F8420011
:101DE00084F8430084F8440084F8450084F84600F1
:101DF00084F8470084F83D00002010BD70470000C3
:101E000090F83D10012901D001207047174A0221A6
:101E100080F83D100168CB6843F00103CB60006897
:101E2000904214D0B0F1804F11D0114988420ED0A9
:101E3000104988420BD01049884208D00F49884287
:101E400005D00F49884202D00E49884207D18168E7
:101E50000D4A1140062906D0B1F5803F03D0016834
:101E600041F00101016000207047000000000140C6
:101E70000004004000080040000C00400004014045
:101E800000180040004001400700010070472DE9A4
:101E9000F041044600680027C6680569A90713D504
:101EA000B10711D5FA1E02610121217720688069EE
:101EB0008007204602D0FFF7E9FF04E000F08BF82E
:101EC000204600F089F82777680716D5700714D5E3
:101ED000226802206FF00401116120772068806978
:101EE00010F4407F204602D0FFF7D0FF04E000F05E
:101EF00072F8204600F070F82777280715D53007CC
:101F000013D5226804206FF0080111612077206842
:101F1000C0698007204602D0FFF7B8FF04E000F058
:101F20005AF8204600F058F82777E80616D5F0064C
:101F300014D5226808206FF0100111612077206805
:101F4000C06910F4407F204602D0FFF79FFF04E0F5
:101F500000F041F8204600F03FF82777E80708D066
:101F6000F00706D021686FF001000861204600F0FC
:101F700035F8280601D4A80408D5300606D521680E
:101F80006FF4025008612046FFF705FFE80508D509
:101F9000300606D521686FF4807008612046FFF78F
:101FA000F9FE680608D5700606D521686FF0400076
:101FB0000861204600F01CF8A8060AD5B00608D52E
:101FC00021686FF0200008612046BDE8F041FFF76E
:101FD000E3BEBDE8F0817047704700000068034928
:101FE000884201D1FEF73EBB704700000010004060
:101FF0007047FEE7074A0421012010B500F03EFEBD
:10200000054C0021034A243A6060044800F062FE57
:10201000206010BDD84400080000002409360008E4
:102020000D4808B5016841F004010160016801F044
:1020300004010091016841F080010160016801F034
:1020400080010091016841F001010160006800F029
:102050000100009008BD0000E04402580C48002137
:102060000A4A7F2310B5FF2404C080E81A00C1602B
:10207000416181610161001FFFF7FEFD002803D06F
:10208000BDE81040FEF7DFBA10BD00000040005868
:102090009C000024FEE7FEE72DE9F047454D04468D
:1020A00089464FF0000A2868C04380070AD0414E95
:1020B000283E306820F080603060FEF7CDFA074699
:1020C000B04608E00120BDE8F08700BFFEF7C4FA83
:1020D000C01B022867D8D8F800000001F6D4206899
:1020E00029684FF4FE0721F47C313E0241EA0030BA
:1020F0002860207AA389B4F804C040022D4D2D49F0
:102100005B1E227CACF1010C1035091DA0F500709E
:1021100080B2521ECCF3080C07EA034340EA0C00DD
:10212000184306EA0262104328600868626920F0DA
:10213000C000104308600A68A06922F02002024330
:102140000A60281D0A6822F010020A6002684FF631
:10215000F873E4699A4342EAC40202600868B9F17C
:10216000000F40F010020A6011D00868B9F1010FA9
:1021700011D040F400100860D8F80000444640F048
:102180008060C8F80000FEF767FA05460DE00868B1
:1021900040F40020EFE740F48010ECE7FEF75CFA33
:1021A000401B022801D903208DE720680001F5D5E6
:1021B000504688E7284402582DE9F047454D04462B
:1021C00089464FF0000A2868C04380070AD0414E74
:1021D000283E306820F080503060FEF73DFA074618
:1021E000B04608E00120BDE8F08700BFFEF734FAF2
:1021F000C01B022867D8D8F800008000F6D42088D9
:1022000029684FF4FE0721F07C713E0241EA00503C
:102210002860207AA389B4F804C040022D4D2D49CE
:102220005B1E227CACF1010C1835091DA0F5007075
:1022300080B2521ECCF3080C07EA034340EA0C00BC
:10224000184306EA0262104328600868626920F4B5
:102250004060104308600A68A06922F400720243DB
:102260000A60281D0A6822F480720A6002684FF62C
:10227000F873E4699A4342EAC40202600868B9F15B
:10228000000F40F480720A6011D00868B9F1010FA4
:1022900011D040F080700860D8F80000444640F04B
:1022A0008050C8F80000FEF7D7F905460DE0086831
:1022B00040F48000EFE740F40000ECE7FEF7CCF9D3
:1022C000401B022801D903208DE720688000F5D546
:1022D000504688E7284402582DE9F041044600683A
:1022E0000025C168490617D4691EC160FEF7B4F91C
:1022F000032706464FF47A7808E000BFFEF7ACF9F2
:10230000801B404502D9032584F821702068C068ED
:10231000400601D4032DF1D12846BDE8F08100002C
:102320002DE9F041124C032706460025E06820F015
:102330008000E060A068800607D43046FFF70EFDFD
:1023400090B1032586F821700EE0A06820F02000EF
:10235000A0603046FFF702FD10B1032586F821701A
:10236000A06840F02000A0602846BDE8F081000091
:102370000040005800F084BA2DE9F04107460B48B0
:1023800015460E460078532801D000F079FAEFF395
:102390001184202080F311882A463146384600F007
:1023A00007F8E1B281F31188BDE8F081E04900242B
:1023B00070B500EB40000E461349144601EBC00512
:1023C000E86A183520B101280FD0022805D113E0A2
:1023D000284600F087FAA04201D2002411E02246EC
:1023E0003146284600F0A4FB0BE0284600F07AFABC
:1023F000A042F4D20446F2E73146284600F06BFBD7
:102400000446204670BD0000E04900240FB408B522
:1024100004A96A460091039900F004F801B05DF840
:1024200014FB00002DE9F04198B0904602AA0C463A
:1024300000250646402107A882E82300CDE905567D
:1024400014F8011B002973D0252908D002A800F038
:1024500023FB05980028F3DA18B0BDE8F0810020CE
:1024600001212278232A1ED02B2A19D02D2A02D00E
:10247000302A08D102E040F0010001E040F0020003
:10248000641C0029EDD100222178A1F130030A2B30
:102490000CD202EB820201EB4202303A641CF3E7F9
:1024A00040F00400ECE740F00800E9E70023CFB279
:1024B0002E2F0BD114F8011FA1F130070A2F05D2DE
:1024C00003EB830301EB4303303BF3E76C290DD0AF
:1024D00068290BD0702956D00BDC252916D0582935
:1024E00031D063290CD0642913D114E014F8011FF2
:1024F000ECE7732934D075291BD0782909D122E063
:10250000D8F80000011DC8F80010017802A800F0FA
:10251000C3FA641C9DE7D8F800100F1DC8F80070BE
:102520000968CDE900200A2202A800F0E7F9F0E7E7
:1025300035E0D8F800100F1DC8F800700968CDE923
:1025400000200A2208E0D8F800100F1DC8F800701B
:102550000968CDE9002020E002A800F033FAD8E7AE
:10256000D8F80000011DC8F80010076807B914A7C3
:1025700017F8011B0029CCD002A800F08DFA0598AD
:102580000028F5DAC5E7D8F8000008221346011D37
:10259000C8F800100168CDE900251022DCE7059895
:1025A00000287FF759AF049820B107A902463046AA
:1025B000FFF7E2FEDDE90410084405904CE7000057
:1025C000284E554C4C2900004FF0E02010B5006912
:1025D00001F0B6FD012803D0BDE8104001F0BABA01
:1025E00010BD0000F0B59DB04C216846FDF793FF8B
:1025F000202113A8FDF78FFF0220FEF74FF92E4987
:1026000000242E480A6822F001020A600A68026863
:1026100042F440420260026802F440421B920268A7
:102620009204FCD5264A136843F002031360126833
:1026300002F002021B92026842F440420260026809
:102640000A6842F001020A60096801F001011B9169
:1026500001688904FCD50DF1280C022009900123A2
:1026600005930521C0228CE80700C7030F900825B9
:102670000D9009260E90CDE91054CDE9006768460B
:102680001294FFF737F808B172B6FEE740201A90AF
:102690003F210301CDE916500322CDE9180313AB06
:1026A00013A883E816000421FEF7F8FD002801D0E6
:1026B00072B6FEE71DB0F0BD2C0400581848025851
:1026C000F44402582C48F0B52C4A016841F47001DA
:1026D0000160106800F00F00072804D2106820F095
:1026E0000F00C01D106026490020254C10340B68D7
:1026F000244D43F001030B6020600B682B400B60FE
:10270000136803F00F03072B04D9136823F00F039A
:10271000DB1D13601A4C1C4A18341C4B261D371D38
:102720002060174C1A4D28343060261D3860371D44
:1027300023603B1D35601C1D3A60251D2E1D186051
:10274000331D22602860326018600A680C4B114CFF
:1027500022F4802260330A60186020686FF30F0053
:10276000B0F1005F03D20C490120C1F8080143F227
:10277000D2000A490860F0BD88ED00E00020005258
:10278000004402587FEDF6EA8002010100020202D5
:102790000000FF010010005C00800051004000526A
:1027A0000148FFF774BB0000C00000242DE9F0478A
:1027B0002A4B4FF0804A2A4D02689842294E2A4FF0
:1027C0002A4C09D0504507D0A84205D0B04203D0CA
:1027D000B84201D0A04205D1D1F804C022F0700265
:1027E0004CEA0202DFF888C0DFF888809842DFF800
:1027F00088900FD050450DD0A8420BD0B04209D0E0
:10280000B84207D0A04205D0604503D0404501D072
:10281000484503D1CD6822F440722A434D6922F025
:1028200080022A43026098428A68C2620A68826211
:1028300007D0A04205D0604503D0404501D04845AF
:1028400001D109690163012141610169C90703D00F
:10285000016921F001010161BDE8F087000001403C
:102860000004004000080040000C0040000401404B
:10287000004001400044014000480140FEE70000E4
:1028800070B5134CA8212046FDF745FE03212161B8
:10289000002010A24FF480630EA561611026A26192
:1028A00004F1A801E1612362A0626062E062256632
:1028B00001F580616166A6662067E0666067084989
:1028C000C0F10F028A5C2254401C1028F8D370BD5E
:1028D000E04900245465726D696E616C000000006F
:1028E000104500080269C1688A4203D88068401A0E
:1028F000104400E0501A401E704700002DE9FC5FB4
:102900000E008146C6F100009846DDE90C4793466B
:10291000824600D40846012503E000BF90FBFBF08F
:102920006D1C5845FADAA84500D9454624B1002E59
:1029300001DB780700D5641EB80702D5B8F1000F97
:102940000FD0F8070DD164B1A5420AD22021484624
:10295000641E00F0A1F8D9F80C000028F3DABDE8F5
:10296000FC9FD9F80C000028F9DB002E02DA2D219B
:10297000564602E0780707D52B21484600F08CF830
:10298000D9F80C000028EADB07F0030002280FD179
:10299000B8F1000F0CD15CB1A54209D230214846F4
:1029A000641E00F079F8D9F80C000028F3DAD6E7B5
:1029B000CDE9004743465A463146484600F002F802
:1029C000CDE700002DE9F84F0126984691460D46C7
:1029D000DDE90A4B82460846374602E0B0FBF9F0D3
:1029E0007F1C4845FAD2B84500D947465FEACB700C
:1029F00017D1B4B15FEA8B7002D5B8F1000F02D0E5
:102A0000202000900BE03020FBE70099641E504628
:102A100000F042F8DAF80C00002838DB0CB1A742CD
:102A2000F3D3DAF80C00002831DB00BFB8F1010F56
:102A300002D9A8F1010803E0B5FBF6F0484502D33E
:102A400006FB09F6F2E7DFF84C8000BFB5FBF6F0B5
:102A500000FB165518F80010504600F01DF8DAF883
:102A60000C00002803DBB6FBF9F6002EEED15FEA7E
:102A7000CB700CD0002C0AD0A74208D2202150469F
:102A8000641E00F009F8DAF80C000028F2DABDE85C
:102A9000F88F00002145000810B50446D4E9013044
:102AA000421C934205D323681954A260E068401C7D
:102AB000E060D4E90102824209D121682069FFF770
:102AC0005BFCA168884203D04FF0FF30E06010BD8E
:102AD0000020A06010BD2DE9F047C4681746894664
:102AE00006464FF000083069A04201D9051B02E0FC
:102AF000B168201A0D1AB0686D1E001BA84200D8DC
:102B00000546BD4200D33D4670682A4649462044EA
:102B1000FDF792FCB1687F1B2C44A142A844A94454
:102B200000D10024F460002FDDD14046BDE8F087DD
:102B30002DE9F0410446164688464068D4E9022152
:102B40000F46D51BB542084407D932464146FDF72A
:102B500073FCB819E060BDE8F0812A464146FDF7F4
:102B60006BFC761B606808EB05013246FDF764FCE0
:102B7000E660F0E7090700284FEA116104DB00F185
:102B8000E02080F80014704700F00F0000F1E02012
:102B900080F8141D70471FB500240094019402941E
:102BA0000394FDF709FE01208DF80C001F218DF81C
:102BB000081087228DF809208DF80D008DF800008F
:102BC00068468DF80A408DF80E408DF8014001945A
:102BD0008DF80B408DF80F40FDF7C0FD0420FDF788
:102BE000F9FDFDF747FDFFF7FDFCFFF719FAFFF7C9
:102BF00035FAFFF7BFFB00F013F8FFF7FBF900F021
:102C000021F8FEE710B5EFF3058111B16FF005046F
:102C100004E04FF0000408B100F03CFE204610BD77
:102C2000EFF3058010B16FF00500704704490868A4
:102C300010B14FF0FF30704701220A60002070474A
:102C40006C00002410B5EFF3058010B16FF00500A3
:102C500010BD08480168012902D04FF0FF3010BDB7
:102C6000054A002182F8141D0221016000F07AFE5D
:102C7000002010BD6C0000240BE000E0F8B5144605
:102C80004FF00005EFF3058212BB08B301B3A4B106
:102C9000D4E9023263B1502A1AD32269C2B100FBCF
:102CA00001F66769B74213D3009500F08AFF07E089
:102CB00072B9226962B9626952B9002200F060FFFC
:102CC000050005D00CB1216800E0002100F0ACFD4A
:102CD0002846F8BD2DE9FF414FEA01034FF00005FA
:102CE000EFF30581039561BB58B34FF080064FF0B9
:102CF00018014FF000044AB3176807B13C469769C2
:102D00001FB139467F1E382F02D21779FF0703D033
:102D1000002004B0BDE8F081576907B1BE08D2F8C1
:102D200008C0BCF1000F0DD0D5685C2D18D3126916
:102D30003AB137B18DE806103246214601F0D5F997
:102D400003900DE0D7685FB912694AB903AACDE9CB
:102D50000012B2B2214601F09BF9012800D0039580
:102D60000398D6E72DE9F041134C0F460546E66877
:102D70002068001D00F058FC681C07D137B121689D
:102D8000BDE8F0410D48091D00F0A0BC20683544A5
:102D9000B5424560216805D2A06B091DBDE8F04130
:102DA00000F07CBC606B091D00F078FCA06A8542D5
:102DB00000D2A562BDE8F0811C000024FC050024BF
:102DC0002DE9F041054600F08DFC2D4C2D4FA068FB
:102DD000401CA060206810B1606930B32BE0256012
:102DE000A068012827D1002606EB860007EB8000AB
:102DF00000F046FC761C382EF6D3234800F040FC49
:102E00002148143000F03CFC1F48283000F038FC0A
:102E10001D483C3000F034FC1B48503000F030FCC2
:102E2000194860631430A06305E0E86A2168C96A44
:102E3000814200D82560606A401C60626864E86A6C
:102E40002169884200D9206100EB8000291D07EB31
:102E5000800000F03BFC00F065FC606900280CD0AD
:102E60002068E96AC06A884207D208494FF080505A
:102E70000860BFF34F8FBFF36F8FBDE8F081000094
:102E80001C0000244C010024AC05002404ED00E0EB
:102E900038B500F027FC104C2068C8B90F4800F086
:102EA000EFFB0E48143000F0EBFB0C490020E16012
:102EB00014312161A1F582730090A1F1B4021021B7
:102EC0000A2000F07EFE206010B105A100F0ACFCED
:102ED000BDE8384000F026BC58000024000700245C
:102EE000546D72510000000030B4026C0B46002A91
:102EF0000BD0D0E902411144C160A14201D3016865
:102F0000C160184630BCFDF797BA30BC70472DE958
:102F1000F041856B1746026C0446002682B1C7B1AA
:102F2000E068FDF789FAE168206C2268091AE1601F
:102F3000914202D2A168081AE060022F16D017E071
:102F40002068A8B9A06801F073F906460020A060C7
:102F50000EE06068FDF770FAD4E90101226C1044BC
:102F60006060884204D32068606001E005B16D1E96
:102F70006D1CA5633046BDE8F08110B5044690F89D
:102F8000590058B101280CD002280FD0502080F3EE
:102F90001188BFF34F8FBFF36F8FFEE7206B00F0F8
:102FA000D5FB2046BDE8104000F0D0BB10BD0000AE
:102FB00011484FF4705110B5420706D00E49C01D9C
:102FC00020F00700411AC1F570510C4C0023014458
:102FD0000839A4F1180221F00701C4E900030C1A12
:102FE00011604B600B60C0E9001494604FF0004129
:102FF0005460516110BD0000E00D002488000024E1
:10300000144E4FF08058144CDFF85090A6F29C47B5
:1030100012E000BF00F066FBF068C568281D00F0F4
:1030200003FBA068401EA0606068401E606000F066
:1030300079FB2846FFF7A1FF60680028EAD13868CD
:103040000128F9D9C9F80080BFF34F8FBFF36F8F04
:10305000F2E70000E80500241C00002404ED00E075
:1030600070B51D46049C51B1C4F80020C4E90F019D
:103070000121204600F0D8FD84F84C5070BD24603A
:10308000F4E72DE9F05F88469A4691001546DDE9A0
:103090000B940A9EA5228346206BFDF712FA206B43
:1030A0006FF0030101EB8501084420F00707780762
:1030B00007D0502080F31188BFF34F8FBFF36F8F7D
:1030C000FEE7B8F1000F4FF000050ED000202218E7
:1030D00018F8001082F8341018F8001011B1401CD4
:1030E0001028F4D384F8435001E084F83450382E8B
:1030F00000D33726E662201DC4E9136500F0CBFA41
:1031000004F1180000F0C7FA6565C6F13800A06147
:1031100084F858505246246159463846646200F09B
:103120005BFAB9F1000F206001D0C9F80040BDE89A
:10313000F09F000030B5114900E011460A68824254
:10314000FBD34B685C18844203D14468084623448F
:103150004B6043681D18954209D1084C183C2468FF
:10316000A24209D052681A4442600A68126802609A
:10317000814200D0086030BD0460F9E78800002477
:1031800070B50D4D914241604FF00004006106D8CA
:103190008169D21A8A4206D2011D286907E09A4243
:1031A00003D2994201D3012403E0011DE86800F035
:1031B00075FA204670BD00005800002410B5044682
:1031C00000F090FAA06B28B15FF0000400F0AAFABA
:1031D000204610BD0124F9E730B53C4D89B06BE0C5
:1031E0000498002806DA059ADDE90601904704985C
:1031F000002861DB069C606910B1201D00F014FA04
:1032000003A800F0D5F8024604980A2854D2DFE853
:1032100000F00505052D304705052D3094F82800F0
:1032200040F0010084F82800A06905990B4601448C
:103230002046FFF7A5FF50B3216A2046884794F83F
:103240002800400738D50020009005980023A16988
:1032500042181946204601F0F3F8C0B9502080F317
:103260001188BFF34F8FBFF36F8FFEE794F82800EC
:103270001EE094F8280040F0010084F8280005982A
:10328000A06128B1811813462046FFF779FF13E0AB
:10329000502080F31188BFF34F8FBFF36F8FFEE78D
:1032A00094F82800810703D4204600F04FFA03E089
:1032B00020F0010084F828002868002204A900F00A
:1032C0000DFE00288CD109B030BD0000580000244C
:1032D0002DE9FC410F46054600F088FB01A800F0EF
:1032E00067F80446019818B101F018F8BDE8FC81B0
:1032F000254EAFB130690068D0B300273068291B74
:103300003A4600F0A5FA01F009F80028EED11F496D
:103310004FF080500860BFF34F8FBFF36F8FE5E72A
:10332000A542EBD800F0FAFFF0682746C068C468F1
:10333000201D00F079F994F82800410719D5A069FB
:103340002B463A4641192046FFF71AFFA8B1002044
:103350002A46034601460090204601F071F860B904
:10336000502080F31188BFF34F8FBFF36F8FFEE7BC
:1033700007E020F0010084F82800216A20468847F1
:10338000B4E70127BAE700005800002404ED00E08C
:103390000648416B096829B1416BC968C968496829
:1033A000816270474FF0FF31FAE700001C000024F3
:1033B00070B5054600F0D2FE064E0446B068844261
:1033C00003D200F009F8012000E000202860204628
:1033D000B46070BD58000024F8B5194D20E0C068F5
:1033E000C4680668201D00F01FF9216A204688473E
:1033F00094F82800400713D5A0693044B04206D99C
:103400002461211D6060E86800F048F908E00020B0
:103410003246034601460090204601F011F838B1CB
:10342000E86801680029DAD12969C5E90310F8BD07
:10343000502080F31188BFF34F8FBFF36F8FFEE7EB
:103440005800002408484068401C4FF0500080F3AA
:10345000118804D0BFF34F8FBFF36F8FFEE7BFF328
:103460004F8FBFF36F8FFEE790000024074CE0689A
:10347000016841B1C0680021D0F80000FFF728FFC3
:10348000FFF7AAFEF3E701210020F7E75800002428
:103490002DE9F041044600F025F994F9455004F176
:1034A000240609E0606A48B1304600F0FFFE08B12A
:1034B00000F01EFA6D1E6DB2002DF3DC4FF0FF36EA
:1034C00084F8456000F02EF900F00CF994F94450AE
:1034D00004F1100709E0206948B1384600F0E6FE23
:1034E00008B100F005FA6D1E6DB2002DF3DC84F812
:1034F0004460BDE8F04100F015B900002DE9F0414D
:103500000027044600F072FA324E306808B9FFF71F
:103510004FFD706904424ED1C4B3083460070ED029
:1035200004F00700C0F108000444600707D05020F1
:1035300080F31188BFF34F8FBFF36F8FFEE72CB37B
:103540007068844237D82348183001460D6801E07E
:1035500028460D466968A14202D229680029F7D1A0
:1035600031688D4227D0076829680160083768688C
:10357000011B10290FD92819420708D0502080F3C9
:103580001188BFF34F8FBFF36F8FFEE713E04160E9
:103590006C60FFF7CFFD69687068401A7060B268B0
:1035A000904200D2B060002072691143C5E9000169
:1035B000F068401CF06000F0B1FE780707D05020A2
:1035C00080F31188BFF34F8FBFF36F8FFEE738464C
:1035D000BDE8F0817000002470B5041F094E231F60
:1035E0004FF0807521F0010125601C1F1960A0F1CA
:1035F00020010B1F266044380A606FF002051D6031
:1036000070BD000045340008002003A1FEF7FEFE57
:10361000C820FFF7F7FAF7E748656C6C6F2C20526B
:1036200054542E200A000000D0E9013201699A604A
:10363000D0E901235A604A68824201D182684A6017
:10364000002202610868401E086008687047000098
:1036500010B5044C8023046004F15C000860136022
:1036600010BD00002807002410B5044C4FF48073EF
:10367000046004F15C000860136010BD840900243C
:103680004FF0FF3300F108010022C0E9011302608E
:10369000C1600161704700210161704730B50B685E
:1036A0005A1C02D000F1080202E0026904E022463E
:1036B000546825689D42FAD953684B6099608A60C6
:1036C000516008610168491C016030BD42684A6070
:1036D00093688B6093685960916008610168491C28
:1036E00001607047502080F31188BFF34F8FBFF304
:1036F0006F8F0A494868401C486001280CD108486F
:10370000006810F0FF0F07D0502080F31188BFF33E
:103710004F8FBFF36F8FFEE77047000090000024CB
:1037200004ED00E00849486828B1401E486001D116
:1037300080F311887047502080F31188BFF34F8FBA
:10374000BFF36F8FFEE700009000002470B50028E3
:103750002AD0164DA0F1080461686869014207D1BA
:10376000502080F31188BFF34F8FBFF36F8FFEE7B8
:1037700022683AB1502080F31188BFF34F8FBFF316
:103780006F8FFEE78143616000F030F9606869681F
:10379000084468602046FFF7CDFC2869401C28617A
:1037A000BDE8704000F0BABD70BD0000700000249C
:1037B0004FF0E020002101614FF47A72816107230C
:1037C00003490968B1FBF2F1491E41610361704789
:1037D0001400002410B5FCF70BFE114910280ED37D
:1037E00000F1E0200A7890F8F003904207D25020D0
:1037F00080F31188BFF34F8FBFF36F8FFEE7094847
:103800008968006800F4E060884207D9502080F39E
:103810001188BFF34F8FBFF36F8FFEE710BD00001D
:10382000900000240CED00E0084B5FF0000210B5A2
:1038300053F832401CB1521C082AF9D310BD03EBD7
:10384000C20443F83210606010BD00000C01002477
:1038500070B515460E460446FFF744FF94F9441030
:103860000020491C01D184F8440094F94510491CFA
:1038700001D184F84500FFF755FFA06B28B904F18A
:1038800024002A46314600F051F82046BDE8704039
:10389000FFF7FEBD020010B514D00F48006B38B121
:1038A000502080F31188BFF34F8FBFF36F8FFEE777
:1038B00000F09CF800211046FFF754FA00F02EFDAE
:1038C000002807D105494FF080500860BFF34F8FA3
:1038D000BFF36F8F10BD00001C00002404ED00E05A
:1038E00002490A6A0260C968416070471C000024EE
:1038F00001490120C86170471C00002410B50C4626
:1039000050B1094909681831FFF7C8FE2046BDE8E3
:1039100010400121FFF726BA502080F31188BFF331
:103920004F8FBFF36F8FFEE71C00002470B5144665
:103930000D4668B10A4909681831FFF7C7FE0CB196
:103940004FF0FF3521462846BDE87040FFF70ABA20
:10395000502080F31188BFF34F8FBFF36F8FFEE7C6
:103960001C00002430B587B0002405AA04A90394E4
:1039700003A80494FFF76CFEDDE903010094002323
:10398000CDE90110174815A1059A00F0AEFB164DC0
:103990000028E8621FD000F023FD012809D0401C58
:1039A00019D1502080F31188BFF34F8FBFF36F8F71
:1039B000FEE7502080F31188BFF34F8FBFF36F8F66
:1039C00001214FF0FF30A8626961EC6007B0BDE8EB
:1039D000304000F045B807B030BD000049444C45C8
:1039E00000000000013000081C0000240248016BA8
:1039F000491C0163704700001C000024164810B5E4
:103A0000016B11B10121C16110BD0021C161134AD7
:103A1000016901E0B9B1491E01EB810352F823307D
:103A2000002BF7D001EB810302EB830202F10804C3
:103A300053685B685360A34201D15B685360DA68E6
:103A40000260016110BD502080F31188BFF34F8FD9
:103A5000BFF36F8FFEE700001C0000244C01002420
:103A600037481CB5374902688A4207D1502080F395
:103A70001188BFF34F8FBFF36F8FFEE731490068A6
:103A8000491E884207D1502080F31188BFF34F8F21
:103A9000BFF36F8FFEE72C49FF200A780192087070
:103AA00008788DF800009DF800209DF8000002F0D5
:103AB000F002824207D0502080F31188BFF34F8F6D
:103AC000BFF36F8FFEE79DF8002007201F4C02F028
:103AD00050022270A06005E09DF8002052008DF891
:103AE0000020401E9DF800201206F5D40328A06097
:103AF00007D0502080F31188BFF34F8FBFF36F8F33
:103B0000FEE74FF44070A060019808700C48203028
:103B1000016841F470010160016841F07041016089
:103B2000FFF746FE00206060FCF72AFC08480168A9
:103B300041F040410160FCF70FFC00201CBD00007B
:103B400000ED00E071C20F4100E400E090000024AD
:103B500034EF00E0502010B580F31188BFF34F8F91
:103B6000BFF36F8F00F000FB18B104494FF0805095
:103B70000860002080F3118810BD000004ED00E013
:103B8000F8B5050017460E4613D005FB06F0503079
:103B9000FFF7B4FC04000AD0002084F8460004F1CA
:103BA00050023B46314628460094FFF759FA20461A
:103BB000F8BD502080F31188BFF34F8FBFF36F8F94
:103BC000FEE7F8B5069D18B153B1CAB181B120E046
:103BD000502080F31188BFF34F8FBFF36F8FFEE744
:103BE000502080F31188BFF34F8FBFF36F8FFEE734
:103BF000502080F31188BFF34F8FBFF36F8FFEE724
:103C000039B1502080F31188BFF34F8FBFF36F8F0E
:103C1000FEE750241C46012683F8466000932B469D
:103C2000FFF71EFA2046F8BD2DE9F04704008A464A
:103C300029D0FFF757FD21680025D4E90F23D4F8D8
:103C400040C004F1100810460E46401E4FF0FF39E8
:103C500002FB031200FB0C10BAF1000FA5636660B3
:103C600084F8449084F84590C4E9022013D040467B
:103C7000FFF706FD04F12400FFF702FDFFF752FDF8
:103C80000120BDE8F087502080F31188BFF34F8FEB
:103C9000BFF36F8FFEE720690028EFD0404600F0A9
:103CA00005FB0028EAD004494FF080500860BFF3BC
:103CB0004F8FBFF36F8FE1E704ED00E02DE9FF4781
:103CC00004001D4682B08A464FF0000803D0BAF1C6
:103CD000000F08D011E0502080F31188BFF34F8F00
:103CE000BFF36F8FFEE7206C38B1502080F311884E
:103CF000BFF34F8FBFF36F8FFEE7022D0AD1E06B4A
:103D0000012807D0502080F31188BFF34F8FBFF3F5
:103D10006F8FFEE700F014FA3F4F4FF080564FF0E0
:103D2000000948B9049838B1502080F31188BFF3D6
:103D30004F8FBFF36F8FFEE7FFF7D4FCA06BE16BF3
:103D4000884207D3022D05D00498D0B1B8F1000FF6
:103D50001AD01EE02A4651462046FFF7D8F8616A7D
:103D600019B104F1240000F0A1FA20B13E60BFF3C4
:103D70004F8FBFF36F8FFFF7D5FC012006B0BDE872
:103D8000F087FFF7CFFC22E06846FFF7A9FD4FF070
:103D90000108FFF7C7FCFFF729FEFFF7A3FC94F922
:103DA0004400401C01D184F8449094F94500401C23
:103DB00001D184F84590FFF7B5FC04A9684600F0EE
:103DC0002BF930B12046FFF763FB00F0A7FA002083
:103DD000D4E7FFF787FCA06BE16B884213D1FFF7B4
:103DE000A1FC049904F11000FFF788FD2046FFF7BD
:103DF0004FFB00F093FA00289ED13E60BFF34F8F37
:103E0000BFF36F8F98E7FFF78DFC2046FFF740FB6D
:103E100000F084FA90E7000004ED00E02DE9F0479F
:103E200004001F469046894603D0B9F1000F08D020
:103E300011E0502080F31188BFF34F8FBFF36F8FD5
:103E4000FEE7206C38B1502080F31188BFF34F8F0C
:103E5000BFF36F8FFEE7022F0AD1E06B012807D076
:103E6000502080F31188BFF34F8FBFF36F8FFEE7B1
:103E7000FFF7B0FC5020EFF3118680F31188BFF3F9
:103E80004F8FBFF36F8FA06BE16B884206D3022F79
:103E900004D0002086F31188BDE8F08794F94550DE
:103EA000A06B3A4649462046FFF731F8681C04D01B
:103EB0006D1C84F845500120ECE7606A0028FAD0B8
:103EC00004F1240000F0F2F90028F4D0B8F1000F5A
:103ED000F1D00121C8F80010EDE700002DE9F74707
:103EE00004008A4683B04FF0000603D0BAF1000FF9
:103EF00008D011E0502080F31188BFF34F8FBFF33B
:103F00006F8FFEE7206C38B1502080F31188BFF32B
:103F10004F8FBFF36F8FFEE700F012F9DFF8F480E8
:103F20004FF080574FF0000948B9059838B150203C
:103F300080F31188BFF34F8FBFF36F8FFEE7FFF75A
:103F4000D1FBA56BC5B151462046FEF7CDFF6D1ED6
:103F5000A563206950B104F1100000F0A7F928B161
:103F6000C8F80070BFF34F8FBFF36F8FFFF7DAFB16
:103F7000012006B0BDE8F087059808B11EB106E043
:103F8000FFF7D0FB27E06846FFF7AAFC0126FFF702
:103F9000C9FBFFF72BFDFFF7A5FB94F94400401C7C
:103FA00001D184F8449094F94500401C01D184F873
:103FB0004590FFF7B7FB05A9684600F02DF80028EB
:103FC00020460AD0FFF764FA00F0A8F92046FFF770
:103FD000F5F80028B3D00020CBE7FFF7EFF890B159
:103FE000059904F12400FFF789FC2046FFF750FAF9
:103FF00000F094F90028A2D1C8F80070BFF34F8FE9
:10400000BFF36F8F9BE72046FFF742FA00F086F977
:1040100095E7000004ED00E02DE9F04105000C46B5
:1040200012D0CCB1FFF75EFB184E2068F268471C37
:104030006B68A2EB030117D02F68366AB74215D020
:10404000934213D801251CE0502080F31188BFF360
:104050004F8FBFF36F8FFEE7502080F31188BFF3BF
:104060004F8FBFF36F8FFEE700250AE0884205D926
:10407000401A20602846FFF733FCF5E70020206057
:104080000125FFF74FFB2846BDE8F0811C00002406
:104090002DE9FF5F994616468A4683469000DDE982
:1040A0000E87FFF72BFA05001CD05C20FFF726FADD
:1040B000040014D00020256384F859004B46CDE954
:1040C0000087CDE90240324651465846FEF7D9FFF7
:1040D0002046FEF775FE012004B0BDE8F09F28469B
:1040E000FFF734FB4FF0FF30F6E7F0B585B0DDE9C0
:1040F0000B740A9DA7B1DCB15C262763022684F805
:104100005960002703970DF1100C0095CDE901C40B
:10411000FEF7B7FF2046FEF753FE049805B0F0BD4A
:10412000502080F31188BFF34F8FBFF36F8FFEE7EE
:10413000502080F31188BFF34F8FBFF36F8FFEE7DE
:104140000548416919B1006B18B100207047012082
:1041500070470220704700001C0000240148C0681E
:10416000704700001C0000242DE9F0412E4C206B0C
:10417000002728B1A069401CA0613846BDE8F08145
:10418000E668761CE66013D1606B006838B1502099
:1041900080F31188BFF34F8FBFF36F8FFEE7606B23
:1041A000A16B6163A063206A401C2062FFF7F0F8F6
:1041B000DFF87880A06A864209D3606B0068A0B1FE
:1041C000606BC068C5686868864211D2A0622068CA
:1041D000C06A00EB800158F82100012800D90127AE
:1041E000E0690028C9D00127C7E74FF0FF30EDE7AD
:1041F000281DFFF719FAA86A18B105F11800FFF792
:1042000013FAE86A2169884200D9206100EB800135
:1042100008EB8100291DFFF759FA2068E96AC06A96
:104220008142CAD30127C8E71C0000244C010024A6
:1042300070B504464FF0000190B31A4D28688442CF
:1042400007D0502080F31188BFF34F8FBFF36F8FDB
:10425000FEE7206D38B1E36C401EE26A20659A42A9
:104260001ED040B11CE0502080F31188BFF34F8F67
:10427000BFF36F8FFEE7201DFFF7D6F9E06CC0F1AA
:104280003801A161E0622969884200D9286100EB08
:104290008000054901EB8000211DFFF717FA01217D
:1042A000084670BD1C0000244C01002470B5C06895
:1042B000C46854B104F118000646FFF7B5F9144D6F
:1042C000286B50B11348314615E0502080F3118817
:1042D000BFF34F8FBFF36F8FFEE7201DFFF7A4F9E9
:1042E000E06A2969884200D9286100EB80000A4908
:1042F00001EB8000211DFFF7E9F9E06A2968C96A2E
:10430000884203D90121E961084670BD002070BDD3
:104310001C000024D40500244C0100242DE9F047A2
:104320002C4D286B0024274638B1FFF7DBF9286BAA
:10433000401E2863286B40B147E0502080F311886D
:10434000BFF34F8FBFF36F8FFEE7234E0120A968A5
:10435000D9B3A6F5916980463068E0B1F068C468C9
:1043600004F11800FFF760F9201DFFF75DF9E06A1E
:104370002969884200D9286100EB800109EB81009E
:10438000211DFFF7A3F9E06A2968C96A8842E3D3CF
:10439000C5F81C80E0E70CB1FEF7FAFFAC694CB140
:1043A0004FEA0806FFF7E0FE00B1EE61641EF9D1A6
:1043B0000020A861E86940B1084901274FF080500A
:1043C0000860BFF34F8FBFF36F8FFFF7ABF938462D
:1043D000BDE8F0871C000024D405002404ED00E0B3
:1043E00010B586B0FEF754FD114C2068B8B100201E
:1043F000039005AA049004A903A8FFF735F9DDE9A5
:104400000321022000238DE807000C4809A1059A2A
:10441000FFF76BFE606010B106B0012010BD5020A8
:1044200080F31188BFF34F8FBFF36F8FFEE700005B
:1044300058000024546D7220537663006D340008D8
:104440002DE9FF411E46134602004FF000000A9D71
:1044500016D0144C2768002F0FD006290292CDE900
:10446000001317DAFFF76CFE02284FF000030FD09D
:10447000002220686946FFF721FC04B0BDE8F08106
:10448000502080F31188BFF34F8FBFF36F8FFEE78B
:104490002A46EEE70023324669463846FFF7BEFC5F
:1044A000EBE70000580000244FF04070E1EE100AE6
:1044B00070470000444500080000000000000000B4
:1044C00000000000000000000002000018000000D2
:1044D000000000000000000034450008000000005B
:1044E00000000000000000000000000000000000CC
:1044F000000000000102030401020304060708098A
:104500003031323334353637383941424344454609
:1045100000000000000054545220524547474553C4
:10452000003031323334353637383941424344452F
:104530004600000071756575655F64656661756C40
:10454000740000007461736B5F64656661756C7400
:104550000000000074450008000000249C000000DA
:10456000D4020008104600089C0000245C5400009F
:10457000F002000800000000000000000100000040
:1045800010000000000000000090D0030090D00355
:10459000000000000000000000000000000000001B
:1045A000000000000000000000000000000000000B
:1045B00000000000000000000000000000000000FB
:1045C00000000000000000000000000000000000EB
:1045D00000000000000000000000000000000000DB
:1045E00000000000000000000000000000000000CB
:1045F00000000000000000000000000000000000BB
:104600000000000000000000AAAAAAAA0000000002
:040000050800029954
:00000001FF
