:020000040800F2
:100000007850002009030008A3190008931800087D
:10001000A1190008F70800084D1D000800000000A5
:10002000000000000000000000000000490200087D
:10003000F908000800000000A5020008AB1900083C
:1000400023030008230300082303000823030008F8
:1000500023030008A919000823030008230300084C
:1000600023030008230300082303000823030008D8
:1000700023030008230300082303000823030008C8
:1000800023030008230300082303000800000000E6
:100090000000000000000000000000002303000832
:1000A0002303000823030008230300082303000898
:1000B0002303000823030008230300082303000888
:1000C0002303000823030008230300082303000878
:1000D0002303000823030008411D0008000000005E
:1000E0002303000823030008230300080000000086
:1000F00000000000000000000000000023030008D2
:100100000000000023030008651A0008230300080C
:1001100000000000000000000000000000000000DF
:100120002303000823030008230300082303000817
:100130002303000800000000000000000000000091
:100140000000000000000000000000002303000881
:1001500023030008230300082303000823030008E7
:100160002303000823030008000000000000000033
:10017000000000000000000000000000000000007F
:100180000000000023030008000000000000000041
:10019000230300082303000800F002F800F044F8ED
:1001A0000AA090E8000C82448344AAF10107DA45D2
:1001B00001D100F039F8AFF2090EBAE80F0013F0E0
:1001C000010F18BFFB1A43F001031847C4390000A0
:1001D000E4390000103A24BF78C878C1FAD8520731
:1001E00024BF30C830C144BF04680C6070470000B1
:1001F0000023002400250026103A28BF78C1FBD830
:10020000520728BF30C148BF0B607047752900F006
:100210008581732900F0DD82002070471FB503F04F
:1002200047FC1FBD10B510BD00F02BFB1146FFF7BA
:10023000F5FF01F0DFFD00F049FB03B4FFF7F2FF2B
:1002400003BC00F051FB00002C4B19680868B0E8B3
:10025000F04F80F30988BFF36F8F4FF0000080F3F9
:10026000118870470000000008480068006880F3AB
:1002700008884FF0000080F3148862B661B6BFF3BF
:100280004F8FBFF36F8F00DF00BF00BF08ED00E0AE
:10029000DFF80C00016841F470010160704700BF95
:1002A00088ED00E0EFF30980BFF36F8F134B1A68FE
:1002B0001EF0100F08BF20ED108A20E9F04F1060EB
:1002C00009B44FF0500080F31188BFF34F8FBFF394
:1002D0006F8F02F09BFE4FF0000080F3118809BC85
:1002E00019680868B0E8F04F1EF0100F08BFB0ECB6
:1002F000108A80F30988BFF36F8F704724000020B5
:10030000EFF305807047000009488047094800471F
:10031000FEE7FEE7FEE7FEE7FEE7FEE7FEE7FEE7B5
:10032000FEE7FEE704480549054A064B7047000012
:10033000551A000899010008784A002078500020DA
:10034000784C0020784C002053EA020C00F06980C1
:100350002DE9F04B4FF00006002B1FBFB3FA83F5D9
:1003600003FA05F424FA05F65E4012BF1643B2FA0A
:1003700082F502FA05F4C5F120051EBF22FA05FC3C
:1003800044EA0C04203556EA044C4FEA144418BFE2
:10039000641C4FF000084FF00009904271EB030C11
:1003A00039D3002919BFB1FA81F701FA07F6B0FA7B
:1003B00080F700FA07F6C7F120071EBF20FA07FCF6
:1003C00046EA0C062037B6FBF4FCA7EB0507103F06
:1003D00007F01F0BCBF120060CFA0BFB2CFA06F6EC
:1003E00044BFB3460026202FA4BF5E464FF0000B4B
:1003F0005BEA060C08BF4FF0010B19EB0B09ABFBD6
:10040000027C48EB0608C01B06FB02CC0BFB03CCAE
:1004100071EB0C01C1E70B46024641464846BDE878
:10042000F08B13B54FF000004FF00001AFF30080E8
:10043000BDE81C40704700000FB41CB5074B06AA6E
:100440007B4469460090059800F099F900206946C0
:1004500000F0A8F91CBC5DF814FB0000610300006B
:100460002DE9F0410E460446002020622046E16856
:10047000884730B3252805D0D4E901219047206A68
:10048000401CF2E7E168204600278847050018D0A5
:10049000A5F14100192802D820354FF400673246F3
:1004A000294620462760FFF7B1FE40B1012804D05D
:1004B000F61D26F007060836D8E7361DD6E728468B
:1004C000DAE7206ABDE8F08170B50C460546012ADE
:1004D00005D02878800600D5EA69002302E00123D0
:1004E00005E05B1C934202D2E05C0028F9D1A869C8
:1004F000E618C01AA861286A184428622846AFF393
:10050000008004E0D5E9012114F8010B9047B442C2
:10051000F8D32846AFF3008070BD00002DE9F0410C
:100520000646002410687529314616A510D0AFF391
:100530000080002802DA404213A507E031688A07EC
:1005400001D512A502E0490704D511A5012401E057
:10055000AFF3008000210A2206F1240709E0B0FB76
:10056000F2FCB0FBF2F302FB1C003030785418466A
:10057000491C0028F3D123462A463046BDE8F04105
:1005800000F09EB8000000002D0000002B000000CD
:100590002000000010B5431C02E010F8011B71B1EF
:1005A0008107FAD14FF0013202C88C1A8C4314EA49
:1005B000C211F9D0C01A0A0603D0C01E10BDC01A5D
:1005C00010BD0A0401D0801E10BD0902FCD0401EDF
:1005D00010BD032A40F2308010F0030C00F01580AB
:1005E00011F8013BBCF1020F624498BF11F801CB36
:1005F00000F8013B38BF11F8013BA2F1040298BF9B
:1006000000F801CB38BF00F8013B11F0030300F004
:10061000E480083AC0F0088051F8043B083A51F8E9
:1006200004CBA0E80810F5E7121D5CBF51F8043BAD
:1006300040F8043BAFF30080D20724BF11F8013B20
:1006400011F801CB48BF11F8012B24BF00F8013B82
:1006500000F801CB48BF00F8012B704702F0FF0300
:1006600043EA032242EA024200F0EBB84FF00002F4
:1006700000B5134694469646203922BFA0E80C5098
:10068000A0E80C50B1F12001BFF4F7AF090728BF73
:10069000A0E80C5048BF0CC05DF804EB890028BFEF
:1006A00040F8042B08BF704748BF20F8022B11F018
:1006B000804F18BF00F8012B704770477047704794
:1006C0002DE9F0470D4699469246044600F124086C
:1006D0000168880604D5E06921F01001216000E07E
:1006E0000120A84201DD471B00E00027A1697A191B
:1006F00002EB0900081AA0612078C00602D4204647
:10070000AFF30080002608E0D4E901211AF80600C2
:100710009047206A401C761C20624E45F4DB20780E
:10072000C0060AD52046AFF3008006E0D4E90121D7
:1007300030209047206A401C2062381EA7F1010734
:10074000F4DC07E0D4E9012118F805009047206A9D
:10075000401C2062281EA5F10105F3DC2046AFF302
:1007600000802078000602D50220BDE8F087012035
:10077000FBE7000001694A1C02610878704700B578
:100780008FB0CDE901310021059105497944CDE9CA
:10079000031011466846FFF763FE0FB000BD00006E
:1007A000E5FFFFFF0A6802F8010B0A60704710B509
:1007B000436913B1AFF3008001E0FFF785FE01202C
:1007C00010BD127800F124010A7000224A70012243
:1007D000EDE711684FF0FF32E9E710B5203AC0F0BD
:1007E0000B80B1E81850203AA0E81850B1E8185032
:1007F000A0E81850BFF4F5AF5FEA027C24BFB1E86F
:100800001850A0E8185044BF18C918C0BDE81040DF
:100810005FEA827C24BF51F8043B40F8043B08BFE8
:100820007047D20728BF31F8023B48BF11F8012BAF
:1008300028BF20F8023B48BF00F8012B70474FF05B
:1008400000020429C0F0128010F0030C3FF410AF36
:10085000CCF1040CBCF1020F18BF00F8012BA8BFAB
:1008600020F8022BA1EB0C01FFF702BF5FEAC17C6D
:1008700024BF00F8012B00F8012B48BF00F8012B22
:100880007047754600F02CF8AE46050069465346A1
:1008900020F00700854618B020B5FFF743FDBDE8FE
:1008A00020404FF000064FF000074FF000084FF0D7
:1008B000000B21F00701AC46ACE8C009ACE8C00968
:1008C000ACE8C009ACE8C0098D46704710B50446D5
:1008D000AFF300802046BDE81040FFF7AEBC00003B
:1008E00000487047144A002001491820ABBEFEE7BB
:1008F000260002007047FEE7704772B6FEE72DE95A
:10090000F0410446876D00F057F9064694F835002B
:100910000025022806D08020606584F8345001202C
:10092000BDE8F0812068016821F0160101602068AF
:10093000416921F080014161206C08B9A06C20B1AF
:100940002068016821F0080101602068016821F039
:10095000010101600CE000F02FF9801B052807D988
:1009600020206065032084F8350084F83450D7E7F0
:1009700020680068C007EED194F85C103F208840E2
:10098000B860012084F8350084F834500020C7E7AF
:1009900090F83510022903D080214165012070476D
:1009A000052180F835100068016821F0010101601F
:1009B000002070472DE9F84FDFF8B8A1002201248C
:1009C00003254FF00F090AF1040BAAF1040E00BF32
:1009D0000B6804FA02F63340B34273D10F7907F083
:1009E0000307012F01D0022F16D187684FEA420872
:1009F00005FA08FC27EA0C07D1F80CC00CFA08FC31
:100A00004CEA070CC0F808C04768B7430E79C6F334
:100A1000001696403E4346600E79F643B6070DD069
:100A2000C768560005FA06FC27EA0C07D1F808C08B
:100A30000CFA06FC4CEA070CC0F80CC00E7906F064
:100A40000306022E10D1D60800EB8608D8F82060E5
:100A500057074FEAD76C09FA0CF7BE430F6907FA3C
:100A60000CF73743C8F8207006684FEA420C05FAC5
:100A70000CF7BE430F7907F0030707FA0CF737436B
:100A800007604E6816F4403F6DD03B4E376847F420
:100A900080473760366822F0030706F480460096E8
:100AA000364E07EB060CDCF8086897073F0F09FA8B
:100AB00007F826EA0806DFF8C880404503D14FF062
:100AC00000081EE04FE0DFF8BC80404502D14FF047
:100AD000010816E0DFF8B080404502D14FF002086F
:100AE0000FE0DFF8A880404502D14FF0030808E08E
:100AF000DFF89C80404502D14FF0040801E04FF040
:100B0000070808FA07F848EA0608CCF80888DAF86F
:100B100000605746D1F804C09E435FEACC2C00D554
:100B20001E433E60DBF800605F46D1F804C09E4380
:100B30005FEA8C2C00D51E433E60DEF800607746ED
:100B4000D1F804C09E435FEA8C3C00D51E433E6052
:100B5000084F083F3E68D1F804C09E435FEACC3C92
:100B600000D51E433E60521C102AFFF431AFBDE891
:100B7000F88F0000083C014044380240003001403A
:100B8000000002400004024000080240000C024045
:100B9000001002400069084000D0012070474269FF
:100BA00021EA02030A4043EA0241816170470AB127
:100BB000816170470904FBE70148806870470000C5
:100BC0001400002002488168027811448160704757
:100BD000140000200B4810B5016841F40071016059
:100BE000016841F480610160016841F48071016035
:100BF000032000F0A9F80F2000F006F800F050F8EC
:100C0000002010BD003C024030B505461F4887B0AB
:100C10000024016841F008010160006806A900F0A5
:100C20000800009001A800F03BF90498A8B100F07A
:100C300057F940001649174AB0FBF1F11648491E12
:100C4000026040F2E732C0E90324C0E90114846184
:100C500000F050FB040003D015E000F041F9E9E793
:100C60000D4800F075FB04000DD1322000F03EF875
:100C7000102D07D200222946322000F045F80748FF
:100C8000056000E0012407B0204630BD4038024036
:100C900040420F00000C0040F80000201800002027
:100CA000114808B5016841F480410160006800F412
:100CB000804000900C48001F016841F080510160A5
:100CC0000068002200F0805000900F21901E00F07C
:100CD0001BF805210022084600F016F8BDE8084080
:100CE000052000F003B8000044380240002809DB6A
:100CF00000F01F02012191404009800000F1E02036
:100D0000C0F8001170470000F0B40E4B1B680C4691
:100D1000C3F30223C3F10705042D00D90425191DCF
:100D2000072901D2002300E0DB1E012606FA05F1A7
:100D3000491E214099409E40761E16403143F0BC2A
:100D400001F005B80CED00E0064900F00702086864
:100D50004FF6FF03184040EA0220034A10430860A0
:100D6000704700000CED00E00000FA052DE9F047A7
:100D70000E46050065D0DFF81481D8F80000F7B200
:100D800000F00700B04207D288F80070D8F80000E1
:100D900000F00700B04254D128683D4C810712D5BD
:100DA000400703D5206840F4E05020602878000711
:100DB00003D5206840F4604020602068A96820F0D6
:100DC000F000084320602878C0072DD030496868BB
:100DD0000839012812D0022813D0032811D009683D
:100DE000890700292DDA216821F0030101432160E0
:100DF000FFF7E2FE814641F2883A0EE00968890376
:100E0000EFE709688901ECE7FFF7D6FEA0EB0901DF
:100E1000514502D90320BDE8F0872068696800F0D9
:100E20000C00B0EB810FEFD1D8F80010404601F074
:100E30000701B14207D90770006800F00700B0420F
:100E400001D00120E7E72878400705D52068E96848
:100E500020F4E050084320602878000706D5206879
:100E6000296920F4604040EAC100206000F058F891
:100E70002168084AC1F30311515CC8400649086063
:100E800006480068FFF7C0FE0020C4E7003C0240AF
:100E900008380240403B00082000002018000020D5
:100EA0000F2202600C4A136803F0030343601368C7
:100EB00003F0F0038360136803F4E053C360126827
:100EC0004FF4E05303EAD20202610448006800F0E4
:100ED000070008607047000008380240003C0240EC
:100EE0000448054900680968044AC1F38221515C3D
:100EF000C84070472000002008380240503B0008DE
:100F00000448054900680968044AC1F34231515C4C
:100F1000C84070472000002008380240503B0008BD
:100F2000154810B5006810F00C02144813D014498D
:100F3000042A0FD0082A0ED10F4C241F22682368E0
:100F400002F03F025B0207D52068C0F38810A0FBC7
:100F5000010106E0084610BD2168C1F38811A1FB1C
:100F600000010023FFF7F0F92168C1F30141491C9A
:100F70004900B0FBF1F010BD083802400024F40035
:100F800040787D012DE9F84F04006ED02078DFF81D
:100F90004C93C007A9F104054AD009F10400016887
:100FA000C1F38101012908D00068C0F38100022843
:100FB0000AD1D9F80000400206D52868800337D549
:100FC00060680028E1D033E06068B0F5803F10D061
:100FD000B0F5A02F286810D020F480302860286851
:100FE00020F4802028606068A8B1FFF7E5FD064680
:100FF0000DE0286840F48030F4E740F48020286059
:10100000F7E700BFFFF7D8FD801B642873D8286876
:101010008003F7D50CE0FFF7CFFD064605E000BFE3
:10102000FFF7CAFD801B6428F0D828688003F7D436
:101030002078DFF8AC8280074FF0000A3ED5A74841
:10104000001D016811F00C0F08D00068C0F381008A
:1010500002280BD1D9F80000400207D42868800785
:1010600016D5E068012800D112E033E1E068B8B19C
:101070000120C8F80000FFF79FFD064605E000BF0D
:10108000FFF79AFD801B0228C0D828688007F7D593
:101090002868216920F0F80040EAC10028600DE0CE
:1010A000C8F800A0FFF788FD064604E0FFF784FDBE
:1010B000801B02281FD828688007F7D420780007F3
:1010C00022D5864F87486169703771B1012101606F
:1010D000FFF772FD064604E0FFF76EFD801B022855
:1010E00009D838688007F7D50EE0C0F800A0FFF7F0
:1010F00063FD064605E082E0FFF75EFD801B0228E7
:101100007DD838688007F7D42078400768D5DFF8A5
:10111000CCB100270BF13C0BDBF80000C0000BD476
:10112000DBF8001041F08051CBF80010DBF8000034
:10113000012700F0805000906B4E3068C00510D43D
:10114000306840F480703060FFF736FD009005E0B5
:10115000FFF732FD0099401A022850D83068C005C8
:10116000F6D55E4EA0686C3601280FD00528306891
:1011700010D020F001003060306820F004003060B2
:10118000A068B8B1FFF718FD00900FE0306840F09C
:101190000100F4E740F004003060F7E7FFF70CFDD2
:1011A0000099411A41F28830814266D83068800740
:1011B000F4D50EE0FFF700FD009007E0FFF7FCFC20
:1011C0000099411A41F28830814256D83068800730
:1011D000F4D42FB1DBF8001021F08051CBF80010CF
:1011E000A069C8B33D49091D0968C1F381010229FD
:1011F0004AD00228504607D0C8F8600000E03CE022
:10120000FFF7DAFC04463BE04746C8F86000FFF70A
:10121000D3FC064605E000BFFFF7CEFC801B02288A
:101220002BD828688001F7D4D4E907010843A16AC4
:101230002E4A490802EB0141626A41EA82110843E1
:1012400094F82C1040EA0161C9F8001001203866BA
:10125000FFF7B2FC044606E03EE000BFFFF7ACFC3F
:10126000001B022809D828688001F7D534E000BFA8
:10127000FFF7A2FC001B022802D90320BDE8F88F6B
:1012800028688001F4D427E00128F7D0D9F80000BD
:10129000E26900F4800191421CD1226A00F03F0112
:1012A000914217D147F6C071626A0140B1EB821FCB
:1012B00010D1A26A4FF0FF3300F4403103EB520229
:1012C000B1EB024F06D194F82C1000F07060B0EB37
:1012D000016F01D00120D1E70020CFE704380240A0
:1012E00000004742800E4742007000400000FFFFB0
:1012F0007047704710B5040003D094F83D0010B15A
:1013000007E0012010BD002084F83C00204600F0DA
:101310001EF8022084F83D00211D206800F0A8FB83
:10132000012084F8460084F83E0084F83F0084F8E9
:10133000400084F8410084F8420084F8430084F8B7
:10134000440084F8450084F83D00002010BD70473B
:1013500090F83D10012901D001207047022180F84A
:101360003D100168CA6842F00102CA6000680E4977
:1013700088420ED0B0F1804F0BD00C49884208D083
:101380000B49884205D00B49884202D00A4988425D
:1013900004D1816801F00701062903D0016841F0FA
:1013A000010101600020704700000140000400407E
:1013B00000080040000C00400040014070472DE94B
:1013C000F04104460068C66805694FF00007A907A8
:1013D00013D5B10711D5F91E0161012020772068CE
:1013E00080698007204602D0FFF7E8FF04E000F0A4
:1013F0007EF8204600F07CF82777680716D570073E
:1014000014D521686FF0040008610220207720685D
:10141000806910F4407F204602D0FFF7CFFF04E040
:1014200000F065F8204600F063F82777280715D507
:10143000300713D521686FF0080008610420207779
:101440002068C0698007204602D0FFF7B7FF04E09C
:1014500000F04DF8204600F04BF82777E80616D547
:10146000F00614D521686FF010000861082020777D
:101470002068C06910F4407F204602D0FFF79EFF2D
:1014800004E000F034F8204600F032F82777E8074F
:1014900008D0F00706D021686FF0010008612046EF
:1014A00000F028F8280608D5300606D521686FF028
:1014B000800008612046FFF71BFF680608D570060C
:1014C00006D521686FF040000861204600F01CF846
:1014D000A8060AD5B00608D521686FF0200008617B
:1014E0002046BDE8F041FFF704BFBDE8F08170473A
:1014F0007047000000680349884201D1FFF762BBD2
:1015000070470000000C00407047704770470000B3
:10151000F8B5016804460868CA684B6910F00F0FF7
:101520004FF0000559D003F0010602F490773743DD
:1015300065D0C10705D0D10503D5616C41F001012B
:101540006164410705D5D90703D0616C41F0020100
:101550006164810705D5D90703D0616C41F00401AE
:101560006164010707D502F02001314303D0616CAB
:1015700041F008016164616C00293AD0800604D50D
:10158000900602D5204600F0F4FA20684069616CAC
:10159000C0F38010090700D460B3204600F0C2FAFF
:1015A00020684069400621D52068143050E8001FAB
:1015B00021F0400140E80012002AF5D1E06BA8B10B
:1015C0006E490165E06BFFF7E3F9002811D0E06B8D
:1015D000016D01B0BDE8F040084783060FD59306C2
:1015E0000DD52046BDE8F84000F0C3BA2046FFF70D
:1015F0008DFFF8BD2046FFF789FF6564F8BD266BB7
:101600002023012E7DD1C6067BD5D60679D5086864
:101610004868009048694FF00206400641D5E16BEA
:10162000086840680004000CE8D0A28D8242E5D929
:10163000E085C869B0F5807F2DD020680C3050E877
:10164000001F21F4807140E80012002AF5D12068C3
:10165000143050E8001F21F0010140E80012002A78
:10166000F5D12068143050E8001F21F0400140E817
:101670000012002AF5D184F84230256320680C302E
:1016800050E8001F21F0100140E80012002AF5D1B7
:10169000E06BFFF734F96663A08DE18D401A81B2EB
:1016A0002AE0A08DE18D401A81B2E08D0028A5D0FE
:1016B0000029A3D022680C3252E8000F20F4907069
:1016C00042E80007002FF5D12068143050E8002FC1
:1016D00022F0010240E80027002FF5D184F84230C3
:1016E000256320680C3050E8002F22F0100240E8FB
:1016F0000023002BF5D166632046FFF706FFF8BDF7
:10170000FFE705062BD5150629D594F841002128B9
:10171000F5D1A068B0F5805F01D12069B0B1206A31
:10172000411C2162216800784860E08C401E000462
:10173000000CE084E3D12068C16821F08001C16021
:101740002068C16841F04001C160D8E7206A008884
:10175000C0F308004860206A801C2062E5E740066C
:10176000CDD55006CBD5CA68204622F04002CA60CB
:1017700084F8413000F08CF8C1E70000151B000828
:1017800070B5040004D094F84100002510B106E0C3
:10179000012070BD84F84050204600F023F824203A
:1017A00084F841002068C16821F40051C1602046DE
:1017B00000F040FA2068016921F49041016120683D
:1017C000416921F02A0141612068C16841F400515A
:1017D000C1606564202084F8410084F8420065639C
:1017E000002070BD10B586B0044614216846FEF78F
:1017F0003DFF17492068884228D116480021026819
:1018000042F400320260006800F400300590114894
:101810001038026842F001020260006800F0010026
:1018200005900C2000900220CDE9010103200390D7
:101830000720049069460848FFF7BCF800220521FC
:101840002620FFF761FA2620FFF750FA06B010BDF8
:10185000004400404038024000000240704790F8C9
:101860004130202B01D00220704779B172B1016262
:101870008284C28400214164212180F841100068E3
:10188000C16841F08001C1600020704701207047AD
:101890007047FEE710B50E4A01210A2000F0F4FA65
:1018A0000C4C0B4A002120616C3A0B4800F018FBED
:1018B000074A6060483A0021084800F011FB044ADA
:1018C000A060243A0021064800F00AFBE06010BD49
:1018D000283B000800000020B12800082529000846
:1018E000A929000870B586B014216846FEF7BEFE2F
:1018F0001A480025016841F080010160016801F08B
:1019000080010591016841F001010160016801F069
:1019100001010591016841F0020101600068104E6B
:1019200000F002004FF4C0540590002221463046DA
:10193000FFF73DF90221CDE90015029169460948FA
:10194000FFF738F80120CDE9004002900320039012
:1019500069463046FFF72EF806B070BD30380240B9
:1019600000000240000402400C4810B50A49016022
:101970004FF4E1314160002181600C22C160C0E977
:1019800004128161C161FFF7FBFE002803D0BDE8AE
:101990001040FEF7B2BF10BD00440040B000002070
:1019A000FEE7FEE770477047704710B54FF0E02044
:1019B000006901F0C3FE012803D0BDE8104001F02A
:1019C000D1BB10BD30B593B030216846FEF74EFE56
:1019D00014210CA8FEF74AFE1C480025016841F0BE
:1019E00080510160006800F0805011901848016833
:1019F00041F4404101600068022400F4404011902D
:101A000001200090000401908001CDE906400C20E7
:101A100008906020CDE9090404200B906846FFF788
:101A2000B1FA08B172B6FEE70CA90F2081E83100C7
:101A30004FF48050CDE90F0503210CA8FFF796F96C
:101A4000002801D072B6FEE713B030BD4038024026
:101A5000007000400248016841F470010160704765
:101A600088ED00E00148FFF7AABC0000F800002064
:101A7000F0B50268204B214C9F03214D214E984226
:101A800007D0B84205D0A04203D0A84201D0B0424E
:101A900004D122F0700C4A6842EA0C02984210D03D
:101AA000B8420ED0A0420CD0A8420AD0B04208D012
:101AB000154CA04205D0154CA04202D0144CA042B7
:101AC00003D122F44074CA6822434C6922F0800298
:101AD000224302608A68C2620A688262984201D127
:101AE00009690163012141610169C90703D00169E5
:101AF00021F001010161F0BD00000140000400403F
:101B000000080040000C004000400140004401403B
:101B10000048014010B5806B0021C185C184FFF7EA
:101B2000F5FC10BD01680C3151E8002F22F49072D1
:101B300041E80023002BF5D10168143151E8002F52
:101B400022F0010241E80023002BF5D1016B0129AD
:101B500009D101680C3151E8002F22F0100241E850
:101B60000023002BF5D1202180F8421000210163D1
:101B7000704708B590F84210222901D0022008BD14
:101B800082684FF480539A4201D1016921B1816A80
:101B90009A421BD04AB10AE00268816A5268C2F3D5
:101BA00008020A80816A891C08E0026972B1026831
:101BB000526802F07F020A70816A491C8162C18DFD
:101BC000491E0904090CC18503D01BE00268526854
:101BD000F1E70168CA6822F02002CA600168CA6899
:101BE00022F48072CA6001684A6922F001024A61E7
:101BF000202180F8421000214163026B012A03D0AA
:101C0000FFF72CFE002008BD016301680C3151E88C
:101C1000002F22F0100241E80023002BF5D10168CB
:101C20000A68D20602D50A6849680091818DFFF7DB
:101C30006CFCE7E770B5044600680169E26821F4CE
:101C40004051114301612169A068E269084361695B
:101C5000114308432168CA6849F20C639A4302435E
:101C6000CA6020684169A26921F440711143416151
:101C700031492068884202D03049884202D1FFF7BA
:101C80003FF901E0FFF72CF9E269002319216425EF
:101C90003226B2F5004F626828D0A0FB0101930FF5
:101CA0009200FEF751FB0146B0FBF5F06FF0180211
:101CB000504301EB800006EB0010B0FBF5F000F0A4
:101CC000F002B1FBF5F002EB0012B1FBF5F06FF0A2
:101CD0001803584301EB800006EB0010B0FBF5F051
:101CE00000F00F0021681044886070BDA0FB010166
:101CF00092185B41FEF728FB0146B0FBF5F00201AC
:101D0000B1FBF5F06FF01803584301EB800006EBD0
:101D1000C000B0FBF5F000F0F80002EB4002B1FBB0
:101D2000F5F0584301EB800006EBC000B0FBF5F086
:101D300000F00700D6E70000001001400014014049
:101D40000148FFF7E5BB0000B0000020FEE70907EF
:101D5000090E002804DB00F1E02080F80014704731
:101D600000F00F0000F1E02080F8141D7047000023
:101D700009490120096809B1002070470749CA696B
:101D8000002AF9D1044A283212688968491E8A4219
:101D9000F3D1022070470000080600202400002034
:101DA0002DE9F04101F0D8FC114F04464FF496762E
:101DB00002213D463846FEF7EDFE01280AD001F02B
:101DC000CBFC051B0A2000F024F8B542F0D300201C
:101DD000BDE8F081142000E00A2000F01AF802218A
:101DE0002846FEF7D7FE0128F6D00120F0E70000D4
:101DF00000040240FEF7EEFEFFF7E4FDFFF772FD80
:101E0000FFF7B2FD00F012F8FFF744FD00F020F8F4
:101E1000FEE710B5EFF3058111B16FF0050403E0A3
:101E2000002408B101F02AF8204610BDEFF3058028
:101E300010B16FF0050070470448016811B14FF010
:101E4000FF307047012101600020704774000020BE
:101E500010B5EFF3058010B16FF0050010BD084814
:101E60000168012902D04FF0FF3010BD054A002162
:101E700082F8141D0221016001F068F8002010BDF5
:101E8000740000200BE000E0F8B514464FF00005A8
:101E9000EFF3058212BB08B301B3A4B1D4E9023257
:101EA00063B1502A1AD32269C2B1676900FB01F6F7
:101EB000B74213D3009501F08CF907E072B922699B
:101EC00062B9626952B9002201F062F9050005D0D9
:101ED0000CB1216800E0002100F09AFF2846F8BD0F
:101EE0002DE9FF414FEA01034FF00005EFF30581B3
:101EF000039549BB40B38027182100244AB31668D4
:101F000006B1344696691EB13146761E382E02D28D
:101F10001679F60703D0002004B0BDE8F0815669B9
:101F200006B1B708D2F808C0BCF1000F0DD0D568D3
:101F30005C2D18D312693AB136B18DE806103A46D5
:101F4000214601F0D0FB03900DE0D6685EB912691E
:101F50004AB903AACDE90012BAB2214601F096FBB4
:101F6000012800D003950398D6E70000034610B57A
:101F70000020074A014600BF02EBC10464689C428E
:101F800002D152F8310010BD491C0829F4D310BD0C
:101F9000400100202DE9F041134C0F460546E6684C
:101FA0002068001D00F0A4FD681C07D137B121682E
:101FB000BDE8F0410D48091D00F0FEBD2068354424
:101FC000B5424560216805D2A06BBDE8F041091D0E
:101FD00000F0DABD606B091D00F0D6FDA06A8542F5
:101FE00000D2A562BDE8F081240000203006002068
:101FF0002DE9F041054600F0EBFD2D4CA068401C9A
:10200000A06020682B4F10B1606930B32BE02560D1
:10201000A068012827D1002606EB860007EB800088
:1020200000F0A4FD761C382EF6D3234800F09EFD68
:102030002148143000F09AFD1F48283000F096FD2A
:102040001D483C3000F092FD1B48503000F08EFDE2
:10205000194860631430A06305E02068E96AC06A2B
:10206000884200D82560606A401C60626864E86A43
:102070002169884200D9206100EB800007EB8000D5
:10208000291D00F099FD00F0C3FD606900280CD007
:102090002068E96AC06A884207D208494FF0805038
:1020A0000860BFF34F8FBFF36F8FBDE8F081000072
:1020B0002400002080010020E005002004ED00E065
:1020C00038B500F085FD104C2068C8B90F4800F005
:1020D0004DFD0E48143000F049FD0C48E06014300E
:1020E00020610A4B0020F03B009003F150021021C8
:1020F0000A2001F06EF8206010B105A100F088FE02
:10210000BDE8384000F084BD6000002034070020A6
:10211000546D72510000000030B4026C0B46002A6E
:102120000BD0C1681144C1608468A14201D3016829
:10213000C16030BC1846FEF74CBA30BC70472DE980
:10214000F041856B174604460026026C82B1C7B188
:10215000E068FEF73EFAE168206C091AE160226847
:10216000914202D2A168081AE060022F16D017E04F
:102170002068A8B9A06801F059FB06460020A060BD
:102180000EE06068FEF725FA216C60680844606024
:10219000A168884204D32068606001E005B16D1E2B
:1021A0006D1CA5633046BDE8F08110B5044690F87B
:1021B000590058B101280CD002280FD0502080F3CC
:1021C0001188BFF34F8FBFF36F8FFEE7206B00F0D6
:1021D00033FD2046BDE8104000F02EBD10BD0000CC
:1021E00009480021026902B101210268D26A0AB1DC
:1021F00000207047054A1268012AF9D80029F7D152
:10220000816AC068081A70472400002080010020FD
:1022100010484FF47051420706D0C01D0D4920F000
:102220000700411AC1F570510B4A00230144C2E96D
:1022300000030839183A21F0070111604B600B6068
:102240000B1AC0E9001393604FF0004053605061D7
:1022500070470000140E0020900000201F4C204EFC
:1022600012E000BF00F0B4FCF068C568281D00F063
:102270003FFCA068401EA0606068401E606000F0E7
:10228000C7FC2846FFF791FF60680028EAD115488F
:102290000068012807D914494FF080500860BFF347
:1022A0004F8FBFF36F8FFFF79BFF0228D7D300F04C
:1022B000A5FEA06AE168884207D2502080F3118809
:1022C000BFF34F8FBFF36F8FFEE7FFF789FF022841
:1022D00001D300F007FD01F025FBC0E7240000203A
:1022E0001C0600208001002004ED00E070B51D46B2
:1022F000049C51B1C4F80020C4E90F01012120461B
:1023000000F09AFF84F84C5070BD2460F4E70000A0
:102310002DE9F05F8846DDE90B9415468346910070
:102320009A460A9EA522206BFEF798F96FF00301EA
:10233000206B01EB8501084420F00707780707D0E0
:10234000502080F31188BFF34F8FBFF36F8FFEE7EC
:102350000025B8F1000F0FD05FF00000221818F828
:10236000001082F8341018F8001011B1401C102829
:10237000F4D384F8435001E084F83450382E00D36D
:102380003726E662C4E91365201D00F0FAFB04F16C
:10239000180000F0F6FB2461C6F138006462A06109
:1023A000656584F8585052465946384600F05AFA46
:1023B0002060B9F1000F01D0C9F80040BDE8F09FDE
:1023C00030B5114900E011460A688242FBD34B68E0
:1023D0005C18844203D1406818444860084643684A
:1023E0001C18944209D1084C183C2468A24209D018
:1023F00052681A4442600A6812680260814200D042
:10240000086030BD0460F9E79000002070B500243A
:1024100041600B4D0061914206D8D11A8269914208
:1024200006D2011D286907E09A4203D2994201D3DE
:10243000012403E0011DE86800F0A6FB204670BD02
:102440006000002010B5044600F0C2FBA06B28B16C
:102450005FF0000400F0DCFB204610BD0124F9E72A
:1024600030B589B03C4D6EE00498002806DADDE90D
:102470000601059A90470498002864DB069C606971
:1024800010B1201D00F034FB03A800F0D7F802467D
:1024900004980A2857D2DFE800F00505052D334AD5
:1024A00005052D3394F8280040F0010084F8280039
:1024B0000599A069059B01442046FFF7A7FF68B373
:1024C000216A2046884794F8280040073BD5002021
:1024D00000900598A169002342181946204601F092
:1024E000B3FAD8B9502080F31188BFF34F8FBFF3F0
:1024F0006F8FFEE714F8280F20F00100207022E013
:1025000094F8280040F0010084F828000598A061A4
:1025100028B1811813462046FFF778FF13E05020BA
:1025200080F31188BFF34F8FBFF36F8FFEE794F8EE
:102530002800810703D4204600F07EFB03E020F052
:10254000010084F82800002204A9286800F0C8FFD0
:10255000002889D109B030BD600000202DE9FC4180
:102560000F46054600F04AFD01A800F067F8044652
:10257000019818B101F0D6F9BDE8FC81254EAFB144
:1025800030690068D0B30027291B3A46306800F054
:1025900053FC01F0C7F90028EED11F494FF08050DD
:1025A0000860BFF34F8FBFF36F8FE5E7A542EBD80D
:1025B00001F0B8F9F0682746C068C468201D00F033
:1025C00097FA94F82800410719D5A0692B464119BC
:1025D0003A462046FFF71AFFA8B1002003460146FD
:1025E00000902A46204601F02FFA60B9502080F36F
:1025F0001188BFF34F8FBFF36F8FFEE707E020F026
:10260000010084F82800216A20468847B4E70127A2
:10261000BAE700006000002004ED00E00648416BCE
:10262000096829B1416BC968C96849688162704706
:102630004FF0FF31FAE700002400002070B5054696
:1026400001F08AF8064E0446B068844203D200F0D6
:1026500009F8012000E0002028602046B46070BD29
:1026600060000020F8B5194D20E0C068C468066815
:10267000201D00F03DFA216A2046884794F8280082
:10268000400713D5A0693044B04206D92461606088
:10269000211DE86800F078FA08E0002003460146B2
:1026A00000903246204601F0CFF938B1E868016861
:1026B0000029DAD12969C5E90310F8BD502080F35B
:1026C0001188BFF34F8FBFF36F8FFEE760000020CC
:1026D00008484068401C4FF0500080F3118804D037
:1026E000BFF34F8FBFF36F8FFEE7BFF34F8FBFF383
:1026F0006F8FFEE798000020074CE068016841B149
:10270000C0680021D0F80000FFF728FFFFF7A8FEFF
:10271000F3E701210020F7E7600000202DE9F041F8
:10272000044600F055FA94F9455004F1240609E0F6
:10273000606A48B1304601F0B9F808B100F0CCFB4E
:102740006D1E6DB2002DF3DC4FF0FF3684F845604E
:1027500000F05EFA00F03CFA94F9445004F11007DE
:1027600009E0206948B1384601F0A0F808B100F04E
:10277000B3FB6D1E6DB2002DF3DC84F84460BDE840
:10278000F04100F045BA00002DE9F0410546002770
:1027900000F034FC324E306808B9FFF739FD70693B
:1027A00005424ED1C5B3083568070ED005F00700C5
:1027B000C0F108000544680707D0502080F3118855
:1027C000BFF34F8FBFF36F8FFEE72DB37068854265
:1027D00037D82348183001460C6801E020460C46E3
:1027E0006168A94202D221680029F7D131688C4280
:1027F00027D007682168016060680837411B1029ED
:102800000FD96019420708D0502080F31188BFF318
:102810004F8FBFF36F8FFEE713E041606560FFF7F6
:10282000CFFD61687068401A7060B268904200D253
:10283000B060706901430020C4E90001F068401CE9
:10284000F06001F06FF8780707D0502080F311880E
:10285000BFF34F8FBFF36F8FFEE73846BDE8F081BF
:102860007800002010B5031F4FF080741C601B1F00
:1028700021F001011960191F044B0B6014390A6023
:10288000091F6FF0020244380A6010BDD12600080B
:1028900013B504460023322201A900F011FD18B936
:1028A0000021204600F0C8FCC82000F0E7FA1CBD5B
:1028B00000251A4F1A4C4FF480594FF4006B4FF01B
:1028C00004084FF0050A2E46607804280FD005282A
:1028D0000FD0062813D020788542F5D0A17899B181
:1028E000012914D0022915D066700546ECE7494647
:1028F00000E059463846FEF752F96670E4E749466B
:102900003846FEF74CF9F4E784F80180EDE784F8E7
:1029100001A0EAE706216170E7E70000000002403D
:10292000000000201E4F1F4C0026607830B10128A7
:1029300012D002282FD0032829D12EE002213846B8
:10294000FEF728F920B11420FFF763FA012018E000
:102950000A20FFF75EFAE8E7002506E0322D01D2F3
:102960006D1CEDB20A20FFF754FA02213846FEF73B
:1029700011F90128F2D0322D0BD2FFF711FA10B164
:1029800003206070D1E700212069FFF781FF6670A6
:10299000CBE70220F5E70121F6E70221F4E700008A
:1029A0000004024000000020C0B02EA20DF1F00C87
:1029B00007CA8CE807002EA30DF1D00C0FCB8CE8D2
:1029C0000F002FA30DF1E00C0FCB8CE80F00304C63
:1029D00000208DF8CC00206900F09DF805462069A4
:1029E000FFF7C4FA02462B462AA101A8FDF724FDF1
:1029F00001A8FDF7CFFD82B201A93048FEF72FFFF5
:102A0000322233A9206900F06BFD012821D1206911
:102A100000F081F805462069FFF7A8FA02469DF804
:102A2000CC00D0B101281AD038A800902B4624A1A0
:102A300001A8FDF701FD01A8FDF7ACFD82B201A9D7
:102A40001E48FEF70CFF9DF8CC00A0702078401CBB
:102A50002070C82000F012FAD2E734A8E5E73CA8BD
:102A6000E3E700006C6F6E6720696E70757400009C
:102A700073686F727420696E7075740000000000D6
:102A8000646F75626C6520696E707574000000007B
:102A9000000000207175657565206E616D652069A7
:102AA000732025732C2071756575652073697A65AF
:102AB0002069732025752E200A000000B000002038
:102AC0007175657565206E616D653A2025732C20E2
:102AD00071756575652073697A653A2025752C20B6
:102AE0006974277320612025732E200A00000000DE
:102AF000D0E9013201699A60D0E901235A604A683D
:102B0000824201D182684A60002202610868401E48
:102B100008600868704710B5040008D000F058F845
:102B2000D4E90E10441A00F073F8204610BD50206E
:102B300080F31188BFF34F8FBFF36F8FFEE7000064
:102B4000034B036003F15C00086080201060704755
:102B50005C070020044B036003F15C0008604FF445
:102B60008070106070470000B809002000F1080173
:102B70004FF0FF32C0E90112C16001610021016024
:102B8000704700210161704730B50B685A1C02D0B4
:102B900000F1080202E0026904E022465468256858
:102BA0009D42FAD953684B6099608A605160086110
:102BB0000168491C016030BD42684A6093688B60BF
:102BC00093685960916008610168491C0160704711
:102BD000502080F31188BFF34F8FBFF36F8F0A49E6
:102BE0004868401C486001280CD10848006810F073
:102BF000FF0F07D0502080F31188BFF34F8FBFF332
:102C00006F8FFEE7704700009800002004ED00E0A1
:102C10000849486828B1401E486001D180F31188F6
:102C20007047502080F31188BFF34F8FBFF36F8F31
:102C3000FEE700009800002070B500282AD0164D4D
:102C4000A0F1080460686969084207D1502080F348
:102C50001188BFF34F8FBFF36F8FFEE722683AB141
:102C6000502080F31188BFF34F8FBFF36F8FFEE7C3
:102C70008843606000F0C2F9606869680844686071
:102C80002046FFF79DFB2869401C2861BDE8704085
:102C900000F048BE70BD0000780000200F4810B55D
:102CA00001684FF47A72B1FBF2F30D486FF07F4484
:102CB0008360B4FBF3F3C360B1FBF1F32D24B4FBE9
:102CC000F3F303614FF0E020002303618361B1FB64
:102CD000F2F1491E41610721016110BD2000002071
:102CE000980000202DE9F041334E0546F0688542FA
:102CF00000D905464FF0E024206920F00100206152
:102D0000A169B268681E02FB00173069874200D9CA
:102D10003F1A72B6BFF34F8FBFF36F8FFFF728F8DC
:102D200058B367614FF000084046C4F81880216925
:102D300041F001012161FEF736FE2846FEF732FE22
:102D400062B6BFF34F8FBFF36F8F72B6BFF34F8F73
:102D5000BFF36F8F062020612069C00314D5A069DE
:102D6000B168381A081A3269401E904201D388426D
:102D700000D9481E6061681E10E0A069606120698A
:102D800040F00100206111E0B168A0694D432A1AAA
:102D9000B2FBF1F0431C4B43991A6161C4F81880EF
:102DA000216941F00101216100F014F9B068401E71
:102DB000606162B6BDE8F0819800002010B5FDF7B3
:102DC0009FFA114910280ED300F1E02090F8F0038B
:102DD0000A78904207D2502080F31188BFF34F8FBA
:102DE000BFF36F8FFEE709480068496900F4E060AF
:102DF000884207D9502080F31188BFF34F8FBFF36B
:102E00006F8FFEE710BD0000980000200CED00E081
:102E100010B5084B002200BF53F832401CB1521CC1
:102E2000082AF9D310BD43F8321003EBC201486001
:102E300010BD00004001002070B515460E46044646
:102E4000FFF7C6FE94F944100020491C01D184F814
:102E5000440094F94510491C01D184F84500FFF75E
:102E6000D7FEA06B28B92A46314604F1240000F0B1
:102E700051F82046BDE87040FFF750BC10B5020085
:102E800014D00F48006B38B1502080F31188BFF385
:102E90004F8FBFF36F8FFEE700F0B0F800211046B0
:102EA000FFF778F800F03EFD002807D105494FF004
:102EB00080500860BFF34F8FBFF36F8F10BD0000CD
:102EC0002400002004ED00E002490A6A0260C9689B
:102ED000416070472400002001490120C86170470B
:102EE0002400002010B50C4650B10949096818317A
:102EF000FFF74AFE2046BDE810400121FFF74AB81F
:102F0000502080F31188BFF34F8FBFF36F8FFEE720
:102F10002400002070B514460D4668B10A490968BE
:102F20001831FFF749FE0CB14FF0FF352146284616
:102F3000BDE87040FFF72EB8502080F31188BFF332
:102F40004F8FBFF36F8FFEE72400002030B587B0AE
:102F50000024039405AA04A903A80494FFF7F0FD34
:102F6000DDE903010094CDE90110002315A1174804
:102F7000059A00F0B8FB164D0028E8621FD000F05B
:102F800033FD012809D0401C19D1502080F311884D
:102F9000BFF34F8FBFF36F8FFEE7502080F3118890
:102FA000BFF34F8FBFF36F8F4FF0FF30A862012048
:102FB0006861EC6007B0BDE8304000F059B807B078
:102FC00030BD000049444C45000000005D2200086F
:102FD000240000200849CA688B6A02449A4207D933
:102FE000502080F31188BFF34F8FBFF36F8FFEE740
:102FF000CA681044C8607047240000200248016B72
:10300000491C01637047000024000020164810B5D9
:10301000016B11B10121C16110BD0021C1610169C4
:10302000124A01E0B9B1491E01EB810352F8233085
:10303000002BF7D001EB810302EB830202F10804BD
:1030400053685B685360A34201D15B685360DA68E0
:103050000260016110BD502080F31188BFF34F8FD3
:10306000BFF36F8FFEE700002400002080010020E6
:103070001CB537480168374A914207D1502080F388
:103080001188BFF34F8FBFF36F8FFEE700683149A0
:10309000491E884207D1502080F31188BFF34F8F1B
:1030A000BFF36F8FFEE72C4908780190FF2008706E
:1030B00008788DF800009DF800009DF8002000F0D1
:1030C000F000904207D0502080F31188BFF34F8F5B
:1030D000BFF36F8FFEE79DF80000204C00F050001A
:1030E00020700720606105E09DF8002052008DF8F7
:1030F0000020401E9DF800201206F5D460610328D0
:1031000007D0502080F31188BFF34F8FBFF36F8F2C
:10311000FEE74FF440706061019808700C48203061
:10312000016841F470010160016841F07041016083
:10313000FFF7B4FD00206060FDF7AAF808480168B9
:1031400041F040410160FDF78FF800201CBD0000F8
:1031500000ED00E071C20F4100E400E098000020A3
:1031600034EF00E010B5502080F31188BFF34F8F8B
:10317000BFF36F8F00F0F6FA18B104494FF080509A
:103180000860002080F3118810BD000004ED00E00D
:10319000F8B517460E46050013D005FB06F0503073
:1031A000FFF7F2FA04000AD0002084F8460004F188
:1031B00050023B46314628460094FFF797F82046D8
:1031C000F8BD502080F31188BFF34F8FBFF36F8F8E
:1031D000FEE738B5049D18B153B1CAB181B120E002
:1031E000502080F31188BFF34F8FBFF36F8FFEE73E
:1031F000502080F31188BFF34F8FBFF36F8FFEE72E
:10320000502080F31188BFF34F8FBFF36F8FFEE71D
:1032100039B1502080F31188BFF34F8FBFF36F8F08
:10322000FEE750241C46012384F846302B460094C8
:10323000FFF75CF8204638BD70B50D46040025D078
:10324000FFF7C6FCD4E90F20216802FB0011A16042
:103250000021A163216861600A46D4E90F01401E84
:1032600000FB0121E16021464FF0FF3001F8440FDF
:10327000487004F110008DB1FFF778FC04F12400D0
:10328000FFF774FCFFF7C4FC012070BD502080F3F1
:103290001188BFF34F8FBFF36F8FFEE721690029BD
:1032A000F0D000F003FB0028ECD004494FF0805030
:1032B0000860BFF34F8FBFF36F8FE3E704ED00E0CB
:1032C0002DE9FF4782B01D468A464FF000080400F2
:1032D00003D0BAF1000F08D011E0502080F311881C
:1032E000BFF34F8FBFF36F8FFEE7206C38B15020D4
:1032F00080F31188BFF34F8FBFF36F8FFEE7022D6E
:103300000AD1E06B012807D0502080F31188BFF369
:103310004F8FBFF36F8FFEE700F010FA3F4F4FF073
:1033200000094FF0805648B9049838B1502080F316
:103330001188BFF34F8FBFF36F8FFEE7FFF748FC95
:10334000A06BE16B884207D3022D05D00498D0B161
:10335000B8F1000F1AD01EE02A4651462046FEF76B
:10336000EEFE616A19B104F1240000F09FFA20B169
:103370003E60BFF34F8FBFF36F8FFFF749FC012013
:1033800006B0BDE8F087FFF743FC22E06846FFF790
:103390009BFD4FF00108FFF73BFCFFF72FFEFFF707
:1033A00017FC94F94400401C01D184F8449094F92E
:1033B0004500401C01D184F84590FFF729FC04A981
:1033C000684600F029F930B12046FFF7A7F900F070
:1033D000A9FA0020D4E7FFF7FBFBA06BE16B884262
:1033E00013D1FFF715FC04F110000499FFF77AFDE3
:1033F0002046FFF793F900F095FA00289ED13E6031
:10340000BFF34F8FBFF36F8F98E7FFF701FC2046A4
:10341000FFF784F900F086FA90E7000004ED00E081
:103420002DE9F0471F4690468946040003D0B9F1C4
:10343000000F08D011E0502080F31188BFF34F8FA8
:10344000BFF36F8FFEE7206C38B1502080F31188F6
:10345000BFF34F8FBFF36F8FFEE7022F0AD1E06BF0
:10346000012807D0502080F31188BFF34F8FBFF39E
:103470006F8FFEE7FFF7A2FC5020EFF3118680F379
:103480001188BFF34F8FBFF36F8FA06BE16B884242
:1034900006D3022F04D0002086F31188BDE8F08700
:1034A00094F94550A06B3A4649462046FEF747FE40
:1034B000681C04D06D1C84F845500120ECE7606A5C
:1034C0000028FAD004F1240000F0F0F90028F4D02C
:1034D000B8F1000FF1D00121C8F80010EDE70000AD
:1034E0002DE9F747002683B08A46040003D0BAF1DD
:1034F000000F08D011E0502080F31188BFF34F8FE8
:10350000BFF36F8FFEE7206C38B1502080F3118835
:10351000BFF34F8FBFF36F8FFEE700F00FF9DFF8B7
:10352000F4804FF000094FF0805748B9059838B142
:10353000502080F31188BFF34F8FBFF36F8FFEE7EA
:10354000FFF746FBA56BC5B151462046FEF7E4FDEB
:103550006D1EA563206950B104F1100000F0A6F9BA
:1035600028B1C8F80070BFF34F8FBFF36F8FFFF71C
:103570004FFB012006B0BDE8F087059808B11EB1E9
:1035800006E0FFF745FB27E06846FFF79DFC0126B4
:10359000FFF73EFBFFF732FDFFF71AFB94F94400FB
:1035A000401C01D184F8449094F94500401C01D19D
:1035B00084F84590FFF72CFB05A9684600F02CF82D
:1035C000002820460AD0FFF7A9F800F0ABF9204602
:1035D000FEF738FF0028B3D00020CBE7FEF732FF1C
:1035E00090B104F124000599FFF77CFC2046FFF719
:1035F00095F800F097F90028A2D1C8F80070BFF341
:103600004F8FBFF36F8F9BE72046FFF787F800F0DF
:1036100089F995E704ED00E02DE9F0410C4605003D
:1036200011D0C4B1FFF7D4FA174BDA686E6820687E
:10363000911B471C17D02F681B6A9F4219D09642D6
:1036400017D8012410E0502080F31188BFF34F8F6A
:10365000BFF36F8FFEE7502080F31188BFF34F8FC9
:10366000BFF36F8FFEE70024FFF7D2FA2046BDE8D4
:10367000F081884205D9401A20602846FFF724FCD3
:10368000F1E700202060DCE7240000202DE9FF5F47
:103690008346DDE90E87994616468A469000FFF775
:1036A00073F805001CD05C20FFF76EF8040014D0FE
:1036B0000020256384F85900CDE90240CDE9008758
:1036C0004B46324651465846FEF722FE2046FEF74C
:1036D0008FFC012004B0BDE8F09F2846FFF7ACFA4C
:1036E0004FF0FF30F6E7F0B585B0DDE90B640A9DD9
:1036F000A6B1DCB15C2700972663022684F85960E6
:10370000002604AFCDE90246CDE90057FEF700FEE2
:103710002046FEF76DFC049805B0F0BD502080F304
:103720001188BFF34F8FBFF36F8FFEE7502080F3F8
:103730001188BFF34F8FBFF36F8FFEE705484169D4
:1037400019B1006B18B100207047012070470220AA
:1037500070470000240000200148C0687047000046
:10376000240000202DE9F0412E4C0027206B28B1C9
:10377000A069401CA0613846BDE8F081E668761C6F
:10378000E66013D1606B006838B1502080F3118877
:10379000BFF34F8FBFF36F8FFEE7606BA16B616369
:1037A000A063206A401C2062FEF738FFA06ADFF8A1
:1037B0007880864209D3606B0068A0B1606BC068F6
:1037C000C5686868864211D2A0622068C06A00EBB2
:1037D000800158F82100012800D90127E06900285C
:1037E000C9D00127C7E74FF0FF30EDE7281DFFF7ED
:1037F0007FF9A86A18B105F11800FFF779F9E86AAE
:103800002169884200D9206100EB800108EB81002A
:10381000291DFFF7D1F9E86A2168C96A8842CAD32D
:103820000127C8E7240000208001002070B50400B3
:103830004FF0000133D01B4D2868844207D0502040
:1038400080F31188BFF34F8FBFF36F8FFEE7206DBA
:1038500038B1401E2065E36CE26A9A421FD040B145
:103860001DE0502080F31188BFF34F8FBFF36F8F9F
:10387000FEE7201DFFF73CF9E06CE062C0F1380084
:10388000A061E06A2969884200D92861064900EBF5
:10389000800001EB8000211DFFF78EF90121084611
:1038A00070BD0000240000208001002070B5C068B9
:1038B000C4689CB104F118000646FFF719F9164DCB
:1038C000286B98B131461548FFF776F9E06A296808
:1038D000C96A88421DD90120E86170BD502080F37B
:1038E0001188BFF34F8FBFF36F8FFEE7201DFFF7E7
:1038F000FFF8E06A2969884200D92861084900EB8D
:10390000800001EB8000211DFFF756F9FEF786FECF
:10391000DCE7002070BD0000240000200806002025
:10392000800100202DE9F0472C4D00242746286B0C
:1039300038B1FFF74DF9286B401E2863286B40B162
:1039400046E0502080F31188BFF34F8FBFF36F8F95
:10395000FEE7A968224E0120D1B3A6F59169804601
:103960003068E0B1F068C46804F11800FFF7C0F8EF
:10397000201DFFF7BDF8E06A2969884200D9286157
:1039800000EB800109EB8100211DFFF715F9E06ACA
:103990002968C96A8842E3D3C5F81C80E0E70CB106
:1039A000FEF73CFEAC694CB14FEA0806FFF7DAFEC1
:1039B00000B1EE61641EF9D10020A861E86938B158
:1039C0000849012738070860BFF34F8FBFF36F8F97
:1039D000FFF71EF93846BDE8F087000024000020FC
:1039E0000806002004ED00E010B586B0FEF768FB85
:1039F000114C2068B8B100200390049005AA04A9D6
:103A000003A8FFF7A7F8DDE9032102208DE80700EE
:103A100000230AA10B48059AFFF765FE606010B10C
:103A200006B0012010BD502080F31188BFF34F8FE6
:103A3000BFF36F8FFEE7000060000020546D72201E
:103A400053766300F92600082DE9FF411E46134610
:103A500002000A9D4FF0000016D0144C2768002F7A
:103A60000FD0CDE900130292062917DAFFF766FEA0
:103A700002284FF000030FD0002269462068FFF7AC
:103A80001FFC04B0BDE8F081502080F31188BFF323
:103A90004F8FBFF36F8FFEE72A46EEE700233246D3
:103AA00069463846FFF7BCFCEBE7000060000020E9
:103AB0004FF04070E1EE100A70470000783B0008BC
:103AC00000000000000000000000000000000000F6
:103AD00000040000180000000000000000000000CA
:103AE000683B00080000000000000000000000002B
:103AF00000000000000400002000000000000000A2
:103B000000000000843B00080000000000000000EE
:103B10000000000000000000000800001800000085
:103B20000000000000000000583B000800000000FA
:103B30000000000000000000000000000000000085
:103B4000000000000000000001020304060708094D
:103B5000000000000102030471756575655F627500
:103B600074746F6E000000007461736B5F72656146
:103B7000645F627574746F007461736B5F6C696706
:103B8000687400007461736B5F756172740000008B
:103B9000B03B000800000020B0000000D401000885
:103BA000603C0008B0000020C84F0000F001000891
:103BB0000000000000000000000000000000000005
:103BC00000000000010000001000000000000000E4
:103BD0000024F400000000000000000000000000CD
:103BE00000000000000000000000000000000000D5
:103BF00000000000000000000000000000000000C5
:103C000000000000000000000000000000000000B4
:103C100000000000000000000000000000000000A4
:103C20000000000000000000000000000000000094
:103C30000000000000000000000000000000000084
:103C4000000000000000000000000000AAAAAAAACC
:103C50000000000000000000000000000000000064
:040000050800019955
:00000001FF
