:020000040800F2
:10000000005B0020AD0300085F400008733E00085D
:100010005D4000085524000815430008000000005A
:10002000000000000000000000000000ED020008D9
:10003000092500080000000049030008A14100084C
:10004000C7030008C7030008C7030008FD400008F5
:10005000C7030008C7030008C7030008C703000858
:10006000C7030008C7030008C7030008C703000848
:10007000C7030008C7030008C7030008C703000838
:10008000C7030008C7030008212300080000000080
:10009000000000000000000000000000C70300088E
:1000A000C703000865420008C7030008C70300082B
:1000B000C7030008C7030008C7030008C7030008F8
:1000C000C7030008C7030008C7030008C7030008E8
:1000D000C7030008C7030008C703000800000000AA
:1000E000C7030008C7030008C7030008000000009A
:1000F000000000000000000000000000C70300082E
:1001000000000000C7030008C7030008C703000879
:1001100000000000000000000000000000000000DF
:1001200059240008C7030008C7030008C7030008D4
:10013000C7030008000000000000000000000000ED
:10014000000000000000000000000000C7030008DD
:10015000C7030008C7030008C7030008C703000857
:10016000C7030008C70300080000000000000000EB
:10017000000000000000000000000000000000007F
:1001800000000000C703000800000000000000009D
:10019000C7030008C703000800F002F800F096F853
:1001A0000AA090E8000C82448344AAF10107DA45D2
:1001B00001D100F08BF8AFF2090EBAE80F0013F08E
:1001C000010F18BFFB1A43F0010318478C700000A1
:1001D000AC700000103A24BF78C878C1FAD8520732
:1001E00024BF30C830C144BF04680C6070470000B1
:1001F0000023002400250026103A28BF78C1FBD830
:10020000520728BF30C148BF0B6070476E2900F00D
:100210007385702900F0A782662906F03686652965
:1002200006F03386672906F03086612906F02F86AE
:1002300003681B0A28BF41F08001692900F0188279
:10024000642900F01582752900F012826F2900F0F0
:100250006086782900F07382E92900F0FB85E429A3
:1002600000F0F885F52900F0F585EF2900F05D86AE
:10027000F82900F072820368DB0928BF41F0800191
:10028000632900F07C85732900F08185E32901F062
:100290008382F32901F08882002070471FB506F0A1
:1002A000EFFD9DE8030000F05FFC01F0D7FA0400C9
:1002B0000020002106F0CEFD401C606000200021DF
:1002C00006F0B2FDE0601FBD10B510BD01F098FA58
:1002D0001146FFF7E3FF04F0F7FD01F075FB03B4EF
:1002E000FFF7F2FF03BC01F0A5FB00002C4B1968DF
:1002F0000868B0E8F04F80F30988BFF36F8F4FF0C4
:10030000000080F311887047000000000848006872
:10031000006880F308884FF0000080F3148862B60C
:1003200061B6BFF34F8FBFF36F8F00DF00BF00BF19
:1003300008ED00E0DFF80C00016841F47001016095
:10034000704700BF88ED00E0EFF30980BFF36F8FC7
:10035000134B1A681EF0100F08BF20ED108A20E919
:10036000F04F106009B44FF0500080F31188BFF3D4
:100370004F8FBFF36F8F05F05FFE4FF0000080F3EB
:10038000118809BC19680868B0E8F04F1EF0100F1A
:1003900008BFB0EC108A80F30988BFF36F8F7047F5
:1003A00040000020EFF305807047000009488047B7
:1003B00009480047FEE7FEE7FEE7FEE7FEE7FEE747
:1003C000FEE7FEE7FEE7FEE704480549054A064B5F
:1003D00070470000554200089901000800550020B0
:1003E000005B0020005700200057002070B5064633
:1003F00000F09EFB056806F10B0020F00704B442F4
:100400009CBF002070BD2B466A68BAB11068A0423C
:1004100010D304F1080188423CBF5068586007D3EC
:100420005168101941601168091B0160586014601F
:10043000101D70BD13465268002AE7D12146284698
:1004400000F07EFB0028DED170BD53EA020C00F004
:1004500069802DE9F04B4FF00006002B1FBFB3FA67
:1004600083F503FA05F424FA05F65E4012BF16433D
:10047000B2FA82F502FA05F4C5F120051EBF22FA90
:1004800005FC44EA0C04203556EA044C4FEA1444B7
:1004900018BF641C4FF000084FF00009904271EB48
:1004A000030C39D3002919BFB1FA81F701FA07F615
:1004B000B0FA80F700FA07F6C7F120071EBF20FA4E
:1004C00007FC46EA0C062037B6FBF4FCA7EB050751
:1004D000103F07F01F0BCBF120060CFA0BFB2CFA98
:1004E00006F644BFB3460026202FA4BF5E464FF059
:1004F000000B5BEA060C08BF4FF0010B19EB0B0970
:10050000ABFB027C48EB0608C01B06FB02CC0BFBD6
:1005100003CC71EB0C01C1E70B460246414648464D
:10052000BDE8F08B13B54FF000004FF00001AFF3C2
:100530000080BDE81C4070477CB51D4616460C0087
:10054000009001D02044401E074B7B442A46694658
:100550000190304600F0E9FB05461CB100206946D9
:1005600000F0F6FB28467CBD0D0800000FB41CB55A
:10057000084B06AA7B4469460090059800F0D5FB1D
:1005800004460020694600F0E3FB20461CBC5DF8F1
:1005900014FB0000D90700000FB47CB50C0009AAB9
:1005A000009001D02044401E084B7B4469460190D6
:1005B000089800F0BAFB05461CB10020694600F01F
:1005C000C7FB28467CBC5DF814FB0000AD070000AB
:1005D00070B5044685690068C10601D5302600E083
:1005E0002026C00707D070BDD4E9012130469047CE
:1005F000206A401C20626D1EF6D570BD70B50446A1
:1006000085690078C00707D170BDD4E90121202099
:100610009047206A401C20626D1EF6D570BD70B5F3
:100620000C460546012A05D02878800600D5EA69DF
:10063000002302E0012305E05B1C934202D2E05C50
:100640000028F9D1A869E618C01AA861286A1844D8
:1006500028622846FFF7BCFF04E0D5E9012114F821
:10066000010B9047B442F8D32846FFF7C7FF70BD8F
:100670002DE9F0410646002410687529314616A57B
:1006800010D000F0CEFA002802DA404213A507E0AD
:1006900031688A0701D512A502E0490704D511A5E2
:1006A000012401E000F0C6FA00210A2206F1240725
:1006B00009E0B0FBF2FCB0FBF2F302FB1C003030AF
:1006C00078541846491C0028F3D123462A46304660
:1006D000BDE8F04100F0B7BA000000002D000000B6
:1006E0002B00000020000000F0B40D460188090531
:1006F00002D5214C7C4402E01F4C7C440E34002186
:1007000000F1240608E002F00F071209E75D42EA53
:1007100003721B097754491C52EA0307F3D102788C
:100720000023120704D5702D06D009B1022311341D
:100730002246F0BC00F087BA01231034F8E770B508
:1007400004460D462146106800F074FA0246294618
:100750002046BDE870400023C6E7D21D22F0070303
:10076000D3E90023C0E70368126843F02003036065
:100770000823C3610023B7E7C06900002DE9F05FDB
:10078000894604464FF0000ADFF874B1FB44C0F814
:1007900020A02046E1688847002874D0252806D08C
:1007A000D4E901219047206A401C2062F1E700262D
:1007B0005F462046E16888472028054607DB312D43
:1007C00005D2781910F8200C08B10643F1E7B007FC
:1007D00001D526F00406C4F81CA00027C4F818A010
:1007E0002A2D09D0284603F04AFE38B304EB8708C7
:1007F000303DC8F8185019E059F8041B204604EBA6
:1008000087029161E1688847012F054618D1E069A8
:10081000002820DA26F020061DE0D8F8180000EBAA
:10082000800005EB40003038C8F818002046E16829
:100830008847054603F023FE0028EED1012F0AD099
:100840002E2D08D12046E16888477F1C0546022FDF
:1008500046F02006C4DBA069002803DA404246F0D7
:100860000106A061F00701D026F010066C2D0BD018
:10087000682D09D04C2D39D06A2D35D0742D35D046
:100880007A2D33D016E038E0E1682F4620468847BD
:10089000B842054609D16C2F26D04FF48060E1683C
:1008A000064320468847054604E06C2F1AD04FF4D3
:1008B000807006430DB3A5F14100192802D82035F8
:1008C00046F400664A462946204626604E46FFF713
:1008D0009DFC80B101280BD0F61D26F0070000F129
:1008E000080956E74020E4E78020D8E70020D6E753
:1008F00006F104094DE7284652E7206ABDE8F09F5B
:100900005069000030B505460B462A4613F8014BE6
:1009100012F8010B08B1A042F8D01CB1002802D097
:100920006D1CF1E7284630BD10B5431C02E010F8FD
:10093000011B71B18107FAD14FF0013202C88C1A44
:100940008C4314EAC211F9D0C01A0A0603D0C01EA3
:1009500010BDC01A10BD0A0401D0801E10BD0902CE
:10096000FCD0401E10BD40EA010370B59B072ED19C
:100970004FF00136042A2AD308C810C99D1B9D4395
:10098000121F15EAC61517D0D8B2E1B2401A50EAC4
:10099000056110D198B2A1B2401A50EA05410AD1BE
:1009A00023F07F4024F07F41401A50EA052102D114
:1009B000180EA0EB146070BDA342DBD018BA21BAA8
:1009C000884201D9012070BD4FF0FF3070BD0AB9D7
:1009D000002070BD10F8013B11F8014B63B1A34238
:1009E0000AD1521E08D010F8013B11F8014B1BB17F
:1009F000A34201D1521EEDD1181B70BD032A40F253
:100A0000308010F0030C00F0158011F8013BBCF1B0
:100A1000020F624498BF11F801CB00F8013B38BFC8
:100A200011F8013BA2F1040298BF00F801CB38BFD6
:100A300000F8013B11F0030300F08282083AC0F095
:100A4000088051F8043B083A51F804CBA0E808109C
:100A5000F5E7121D5CBF51F8043B40F8043BAFF3CF
:100A60000080D20724BF11F8013B11F801CB48BF29
:100A700011F8012B24BF00F8013B00F801CB48BF5F
:100A800000F8012B704702F0FF0343EA032242EA19
:100A9000024200F002B84FF000020429C0F01280B8
:100AA00010F0030C00F01B80CCF1040CBCF1020F21
:100AB00018BF00F8012BA8BF20F8022BA1EB0C01F6
:100AC00000F00DB85FEAC17C24BF00F8012B00F8EC
:100AD000012B48BF00F8012B70474FF0000200B512
:100AE000134694469646203922BFA0E80C50A0E851
:100AF0000C50B1F12001BFF4F7AF090728BFA0E8FF
:100B00000C5048BF0CC05DF804EB890028BF40F8CA
:100B1000042B08BF704748BF20F8022B11F0804F0C
:100B200018BF00F8012B70477047704770470000EE
:100B300000487047A45400207047704770477047C2
:100B400038B504460A4600206946AFF30080002805
:100B500008BF38BD02460099204600F027FA012060
:100B600038BD012000F044BEF8B5AFF30080054663
:100B700000200C46102000BF0646A819A0420DD93F
:100B8000324669460020AFF30080070008BF00F03E
:100B90002FFE0098A04218BF0546C419FFF7C8FFF2
:100BA00005600746F01D20F007004619284600F0B2
:100BB0000AF8B44208BFF8BDA21B31463868BDE848
:100BC000F84000F0F3B900210160C0E9011070475E
:100BD0001020704770B50446051FFFF7A9FF006895
:100BE000002C14BF446870BD002C18BFAC423CBF41
:100BF00020466468F8D301680A18AA4218BF456005
:100C000003D12A6805461144016028684119A142B0
:100C10001CBF6C6070BD6168696021680844286011
:100C200070BD09684A0501D540B27047C905FCD5B9
:100C300000B2704709684A0501D5C0B27047C905BE
:100C4000FCD580B270472DE9F0470D469946924693
:100C5000044600F124080168880604D5E06921F003
:100C60001001216000E00120A84201DD471B00E0E7
:100C70000027A1697A1902EB0900081AA0612078FF
:100C8000C00602D42046FFF7A3FC002608E0D4E902
:100C900001211AF806009047206A401C761C206249
:100CA0004E45F4DB2078C0060AD52046FFF790FCBD
:100CB00006E0D4E9012130209047206A401C2062E0
:100CC000381EA7F10107F4DC07E0D4E9012118F888
:100CD00005009047206A401C2062281EA5F10105EE
:100CE000F3DC2046FFF78AFC2078000602D50220BC
:100CF000BDE8F0870120FBE711680268006A530530
:100D000001D508700AE0D30501D5088006E0130676
:100D100003D5C217C1E9000200E008600120704756
:100D200001694A1C02610878704700B58FB0CDE9AF
:100D300001310021059105497944CDE9031011469F
:100D40006846FFF71BFD0FB000BD0000E5FFFFFF89
:100D50000A6802F8010B0A607047D1E900239A4241
:100D600002D2531C0B601070704710B5436913B169
:100D7000AFF3008001E0FFF752FC012010BD1278B4
:100D800000F124010A7000224A700122EDE7116887
:100D90004FF0FF32E9E700002DE9FF5F15468A4674
:100DA0000446DFF8AC80F8440027D8E900103E463E
:100DB000CDE9001010E03AF816106A4602A800F0DB
:100DC000F7FC411C07D02178890603D5E269391860
:100DD00091420DD80744761C2078800602D5E06940
:100DE000B84205DDAE42E6DB3AF816000028E2D153
:100DF000A069C01BA0612046FFF7EAFBD8E90010FC
:100E0000CDE90010002017E03AF818106A4602A851
:100E100000F0CEFCB0F1FF3F81460BD000250DF174
:100E2000080B05E0D4E901211BF8050090476D1C73
:100E30004D45F7D308F10100B0428046E4DB206A5B
:100E4000384420622046FFF7D9FBBDE8FF9F000031
:100E50004A6300002DE9F0418046D21D22F00702CE
:100E60000025D2E90002F52915A614D0011E72F161
:100E7000000106DA0023D0EB030063EB020211A6A7
:100E800008E0D8F800108B0701D50FA602E049074B
:100E900001D50EA601251146002408F1240704E01F
:100EA00000F09EF830323A55641C50EA0102F7D146
:100EB0002B46324621464046BDE8F041FFF7C3BE0F
:100EC000000000002D0000002B00000020000000AA
:100ED00030B4002100F1240408E002F00705D20834
:100EE000303542EA4372DB086554491C52EA030577
:100EF000F3D10468002310A2250707D5A40600D467
:100F000021B1C46901230DA2641EC46130BCFFF786
:100F10009ABE10B5044621461068FFF78BFE0246C4
:100F20002046BDE810400023D2E7D21D22F0070181
:100F3000D1E90023CCE700000000000030000000F1
:100F400010B5203AC0F00B80B1E81850203AA0E864
:100F50001850B1E81850A0E81850BFF4F5AF5FEA98
:100F6000027C24BFB1E81850A0E8185044BF18C94B
:100F700018C0BDE810405FEA827C24BF51F8043BF2
:100F800040F8043B08BF7047D20728BF31F8023B46
:100F900048BF11F8012B28BF20F8023B48BF00F8DA
:100FA000012B7047004870479C540020034640685E
:100FB0008C46002818BF88423CBF03464068F8D3DF
:100FC00018681844884207D00CF1030020F007008D
:100FD000001D411A521A0146081D0A60FFF7FABDAA
:100FE00030B5B0F10A024FEA900E71F100034EEAFB
:100FF000817EB0EB0E0061EB91014FEA101E4EEACC
:10100000017E10EB0E0041EB11114FEA102E4EEA5B
:10101000016E10EB0E0041EB11214FEA104E4EEA2B
:10102000014E10EB0E0041EB1141401841F100015F
:101030004FEAD00040EA41704FEAD10110EB800541
:101040004FEA810444EA907444EB01046D1944EBC7
:101050000404521BA3414FF0000348BF0A3200D5DD
:1010600030BD401C41F1000130BD70472DE9FF4FFC
:101070000C461E464FF0FF378BB0D2E90001DDF879
:1010800060800A908A46C1F30A5505B93D460021A1
:1010900008464FF00000BAF1000F00F4400005DAF6
:1010A00000EB80004FF4400101EA50004FEA9059F4
:1010B000B9F1010F00DDB9460A9850EA4A000ED096
:1010C00044F61050A5F2FF3545432F14B8F1000F38
:1010D0001ED07542291E1EDDC9F100021CE0B8F1C8
:1010E000010F4FF0000001D0302103E0F24305E092
:1010F0002154401CB042FBDB304600220021215429
:101100000B99C1F80880C1E900200FB0BDE8F08F4D
:10111000BD1B6D1CDEE74A4600DA694206A800F0F6
:10112000E1FB06AB93E8070003AB83E807005046FA
:101130000A9900F0E6FC8DE80700A0F500501F3882
:1011400000900398002D0ADD42F21F014A46084430
:10115000002303A90390684600F04FFF09E0A0F5C3
:1011600000504A461F38002303A90390684600F048
:1011700059FF8DE807000004000C03D04FF0FF304A
:10118000410800E01046B8F1000F03D000220092A1
:1011900015461EE0751E05D4FFF722FF303262555A
:1011A0006D1EF9D5B3460122084302D000227F1CF0
:1011B00004E02078302801D100227F1E002A099700
:1011C00084D01DE0112D07DAFFF70AFF3032625597
:1011D0006D1C50EA0102F5D1084302D00098C8B155
:1011E0000EE00021681E05E0235C625C635422541B
:1011F000401E491C8142F7DBAB46A81B401E0990EC
:10120000002004F80B000B98099AC0F80880C0E988
:10121000002B7AE711264FF0000857E72DE9F04F31
:1012200088460446D21D22F0070191B0D1E90001A1
:10123000CDE90A0103F0FBF802460B98C00F01D07C
:101240002D2007E02068810701D52B2002E0202116
:1012500001EAC000032A099001D0072A05DB0346F2
:101260004146204600F0FEFA0BE12078800601D5C9
:10127000E06900E00620B8F1650F814606D0B8F1BC
:10128000660F18D0B8F1670F70D131E00020B9F1C6
:10129000110F009001DB112301E009F101030AAAFB
:1012A00001A90CA8FFF7E2FEDDE90C70002609F1A8
:1012B0000105834647E001204B4600904FF0004770
:1012C0000AAA01A90CA8FFF7D1FEDDE90DB00C991F
:1012D0005D46002610B909F101000D18B9EB0500B3
:1012E00003D4C0F1FF3609F10105A5EB09002BE09D
:1012F000B9F1010F01DA4FF001090020B9F1110F26
:101300000090484601DD112300E003460AAA01A926
:101310000CA8FFF7ABFEDDE90C704D4600268346B6
:10132000207800070AD4AB4500DA5D4601A8012DFC
:1013300004DD411911F8011C302907D04F4502DAAC
:1013400017F1040F04DA012082460FE06D1EEEE76C
:10135000002F02DCED1B3E4403E0781CA84200DDB8
:101360007D1CB81B00F1010A4FF0004720780007F0
:1013700003D4AA4501DB4FF0FF3A0021B7F1004F3B
:101380000DF143088DF8431024D002202B23002FA9
:1013900001DA7F422D230A21021EA0F1010000DCA8
:1013A0005FB197FBF1FC97FBF1F201FB1C7C174648
:1013B0000CF1300C08F801CDEEE7A8F10100037044
:1013C0002188090501D5452100E06521A0F101082A
:1013D00000F8011C09980FA9A1EB0807FF1D00B137
:1013E0000120411901EBEA70A1693844081A401E36
:1013F000A0612078C00602D42046FFF7E9F80998DA
:1014000028B1D4E901219047206A401C206220784D
:10141000C00622D52046FFF7DBF81EE0002E04DBD5
:10142000B34502DD01A8805D00E03020D4E9012150
:101430009047206A401C2062761CAAF101005FEAF6
:10144000000A0AD100F00AFAC0680168405CD4E9D9
:1014500001219047206A401C2062281EA5F1010549
:10146000DCDC07E0D4E9012118F8010B9047206A81
:10147000401C2062381EA7F10107F3DC2046FFF76D
:10148000BDF8032011B041E62DE9F04F04460D46AA
:10149000D21D22F0070089B0D0E9009748463946AE
:1014A00002F0C5FF0246F80F01D02D2307E02068A7
:1014B000810701D52B2302E0202101EAC0038DF82A
:1014C00020300BB1012000E00020032A824601D029
:1014D000072A04DB2946204600F0C4F93FE12078C2
:1014E000800601D40D2500E0E569C7F30A560D2DED
:1014F00049DA00214FEA175B08464FF00000002F41
:1015000000F4400007DA00EB80004FF4400100EBEC
:10151000D07001EA60008115012901DD4FF0FF3133
:1015200000224FEA850CBCF1180F06D31346ACF12C
:1015300018004FF08052C24003E04FF4801323FAAA
:101540000CF30CF10C0CBCF1200F04D3ACF1200C0B
:1015500009FA0CF001E007FA0CF000294FF00048FE
:1015600001DD18B90FE00ED140450CD319EB02098B
:101570005F4121B9404502D19F4329EA0209BBEBF3
:10158000175F00D0761C2088000502D57B48784480
:1015900002E07A487844193808AA302302F80A3061
:1015A000037C0AF10101002E0AF1020A53546A4633
:1015B00002DC4FF0300101E04FF031014FF0010843
:1015C0008DF8001002D0A6F2FF3603E059EA470179
:1015D00000D06B4E002D02DC2178090704D54FF0B6
:1015E00002082E218DF80110C44600210BE0C7F33C
:1015F00003433F01C35C491C6D1E02F808300529F6
:1016000008F1010801DA002DF1DC00210CE000EB0B
:101610001973491C1B786D1E082902F808304FEA1F
:10162000091908F1010801DA002DF0DC21688B06A8
:1016300002D516E0A8F10108E04505DD02EB08033C
:1016400013F8013C302BF5D0B8F1000F09DD02EBA7
:10165000080313F8013C2E2B03D1090701D4A8F18C
:101660000108002D05DD3E2102F808106D1E08F16D
:101670000108407C002E02F8080008F1010804DA95
:101680002D20764202F8080002E02B2002F8080024
:101690000A214FF47A70864208F101080BDB96FBB1
:1016A000F0F3303302F8083096FBF0F308F101084C
:1016B00000FB136601E0642E0CDB642096FBF0F364
:1016C000303302F8083096FBF0F308F1010800FB14
:1016D000136601E00A2E06DB96FBF1F0303002F8CB
:1016E000080008F1010896FBF1F001FB10603030B2
:1016F00002F80800A16908F1010808EB050202EBF5
:101700000A00081AA0612078C00602D42046FEF71D
:101710005FFF216A08AE01EB0A00206204E0D4E911
:10172000012116F8010B9047BAF1010AF7D220788F
:10173000C00602D52046FEF74BFF6E4609E016F8BC
:10174000010B3E280FD0D4E901219047206A401CAC
:101750002062B8F10108F2D22046FEF74FFF09B02F
:101760000320BDE8F08F206A2844206203E0D4E91A
:101770000121302090476D1EEBD3F8E77D5B000020
:1017800002FCFFFF10B5436913B1AFF3008001E025
:10179000FFF702FB012010BD128800F124018284B2
:1017A0000022C2840122EDE711684FF0FF32E9E721
:1017B00070B516460C46054600F048F8036893F8E5
:1017C0000101012806D0FF2C0FD8185D68B1012057
:1017D0002C7070BDD3F807013246214603F207137F
:1017E00003442846BDE8704018474FF0FF3070BDF5
:1017F00010B500F0F7F8BDE8104000F0EEB8704703
:101800007546FFF7CFFBAE4605006946534620F00C
:101810000700854618B020B5FEF7D6FDBDE820408C
:101820004FF000064FF000074FF000084FF0000B9C
:1018300021F00701AC46ACE8C009ACE8C009ACE84F
:10184000C009ACE8C0098D467047000010B500F033
:1018500005F8001D10BD00BFFD5500000048704791
:10186000BC5400202DE9F0411F46044603260168C0
:10187000072A01F4006004DB08B116A505E016A5EF
:1018800003E008B115A500E015A521F010002060C7
:10189000A069C01EA0610FB1401EA0612046FEF7E6
:1018A00097FE4FB1D4E9012138469047206A401C89
:1018B0002062C01C206206E0206AFAE7D4E9012118
:1018C00015F8010B9047761EF8D22046FEF796FEDB
:1018D000BDE8F0814E414E006E616E00494E4600FB
:1018E000696E66002DE9F047814616468AB0354894
:1018F00078440DC88DE80D0032487844801C03AC54
:101900000DC884E80D0041F69B300844372190FB58
:10191000F1F290FBF1F5A5F1800501FB12041B3CEF
:1019200002D56442012000E00020DFF898A0804644
:101930000027FA44AAF1BE0A0EE0E0070AD03246B8
:10194000684607EB470101230AEB810100F06AFBBF
:101950008DE8070064107F1C002CEED1194F7F44E6
:10196000AE3F19E0E80715D007EB04100DF1180A97
:1019700090E80E008AE80E00C068F04201D1981984
:1019800008903246012306A903A800F04BFB03ABE5
:1019900083E807006D10641C002DE3D14FF00103B4
:1019A00032466946B8F1000F03A802D000F025FBCB
:1019B00001E000F037FBC9E90001C9F808200AB0CE
:1019C000BDE8F087AC58000010B50446AFF30080C6
:1019D0002046BDE81040FEF782BC002801D000F090
:1019E00029B8704710B5012805D0002103A000F0E8
:1019F00027F8012010BD09A1F8E70000534947521C
:101A0000544D454D3A204F7574206F6620686561CE
:101A100070206D656D6F7279000000003A20486596
:101A20006170206D656D6F727920636F7272757071
:101A30007465640001491820ABBEFEE72600020071
:101A400070B505460C460A2000E06D1C00F052F807
:101A500035B128780028F8D102E0641C00F04AF87B
:101A600014B120780028F8D1BDE870400A2000F0B9
:101A700041B800004FF0013C50F8042B51F8043BF2
:101A80009A4221D1A2EB0C03934313EACC1317D152
:101A900050F8042B51F8043B9A4215D1A2EB0C03E9
:101AA000934313EACC130BD150F8042B51F8043BA9
:101AB0009A4209D1A2EB0C03934313EACC13DBD077
:101AC0004FF00000704700BFD01A01BAB1FA81F19F
:101AD00001F0180122FA01F0CB40C1F12001DBB284
:101AE000C0B2C01A2CFA01F3D11A914311EAC31102
:101AF000E6D1704708B569468DF800000320ABBEFB
:101B000008BD5FEA400C08BF91F0000F4FEA8C233C
:101B10004FEAC12243EA51514FEA1C5018BF00F569
:101B2000F0404FEA300018BF41F000415FEA6C5CC2
:101B300000F02980BCF1FF3F08BF40F080407047B3
:101B4000130C06BF12044FF0100C4FF0000C130ED4
:101B500004BF12020CF1080C130F04BF12010CF1A8
:101B6000040C930F04BF92000CF1020CD30F04BFBE
:101B700052000CF1010C11464FF00002A0F11F00C1
:101B8000A0EB0C00704711F0004F08BF704731F018
:101B900000413FF4D5AF0B0C06BF09044FF0100C09
:101BA0004FF0000C0B0E04BF09020CF1080C0B0FD8
:101BB00004BF09010CF1040C8B0F04BF89000CF168
:101BC000020CCB0F04BF49000CF1010CCCF1200337
:101BD000A0EB0C0022FA03F302FA0CF241EA030133
:101BE00000F10100704720F07F4C80EA030023F0F1
:101BF0007F47ACEB070303F57C5300F0004003F193
:101C0000FF032DE980494FEA154B09B44FEA14430D
:101C100025EA0B4E24EA03480FF2042606EB1327AD
:101C200049083E785FEA320203FB0667C7F5000702
:101C300007FB06F64FEA54374FEAD64606F102068E
:101C400007FB066CCCF1005C4FEA1C472CEA074C02
:101C500007FB06F40CFB06F504EB15464FEA961657
:101C600034BF00204FF000404FEAD13706FB07FC9D
:101C70004FEA1C4C0CFB0BF7D21B03FB0CF761EB80
:101C800007010CFB0EF7B0EB074072EB17420CFBA1
:101C900008F734BFA2EB0742B2EB074261EB1741F2
:101CA0004FEA0C444FEA910706FB07FC4FEA1C4C35
:101CB0000CFB0BF7B0EBC74072EB573203FB0CF792
:101CC00034BFA2EBC742B2EBC74261EB57310CFB0A
:101CD0000EF7B0EBC70072EB57720CFB08F734BF7E
:101CE000A2EBC702B2EBC70261EB5771039F4FEA49
:101CF000816141EA921104EBCC044FEAD1374FEAFB
:101D0000826206FB07FC42EA90124FEA80604FEACB
:101D10001C4C0CFB0BF7D21B03FB0CF761EB070110
:101D20000CFB0EF7B0EB074072EB17420CFB08F709
:101D300034BFA2EB0742B2EB074261EB17414FEA17
:101D40008C554FEA910704EB9C2406FB07FC4FEAF5
:101D50001C4C0CFB0BF7B0EBC74072EB573203FB8C
:101D60000CF734BFA2EBC742B2EBC74261EB57316D
:101D70000CFB0EF7B0EBC70072EB57720CFB08F7C9
:101D800034BFA2EBC702B2EBC70261EB577115EB90
:101D90004C254FEA816141EA92114FEA82624FEA93
:101DA000D13742EA901206FB07FC44F100044FEAE7
:101DB00080604FEA1C4C0CFB0BF7D21B03FB0CF7AB
:101DC00061EB07010CFB0EF7B0EB074072EB17421B
:101DD0000CFB08F734BFA2EB0742B2EB074261EB02
:101DE000174115EB1C154FEA813141EA92414FEA48
:101DF000823242EA90424FEA80304FEA0C7644F158
:101E0000000448EA03434EEA0B484FF0000EB2EBE1
:101E1000080C71EB030724BF624639464EEB0E0EE9
:101E20004FF0000B0018524149414BEB0B0BB2EB4A
:101E3000080C71EB03077BF1000B24BF62463946A7
:101E40004EEB0E0E4FF0000B0018524149414BEB88
:101E50000B0BB2EB080C71EB03077BF1000B24BFFB
:101E6000624639464EEB0E0E51EA020718BF46F0A5
:101E7000010616EB0E7655F1000254F1000103D570
:101E8000BDE88901BDE80088BDE88901BDE80048DA
:101E9000B619524141EB0101A3F101037047808063
:101EA0007F7E7D7C7B7A79787776767574737271B4
:101EB00071706F6E6E6D6C6C6B6A6A69686867666C
:101EC00066656464636362616160605F5F5E5E5DFE
:101ED0005D5C5C5B5B5A5A59595858575756565572
:101EE00055555454535352525251515050504F4FD4
:101EF0004F4E4E4D4D4D4C4C4C4B4B4B4A4A4A4924
:101F00004949484848474747474646464545454466
:101F10004444444343434342424242414141002BF3
:101F20009C4630D477002BD01CB54FEA370703B45A
:101F30004FF010004FF01001BAF1000F06D0BCF1C5
:101F4000000FDCBF40F0080040F008014FF0000037
:101F50000FBCBDE810400BF1010BBBF1010F08BF36
:101F60005FEA170722BF12F1010211F101014FF0E0
:101F7000004143F1000300F0004043EA00007047D5
:101F8000F9D35708D0E746EA064613F1400F4FEA67
:101F900016461FDD13F1200FDFBF16430A4600214E
:101FA00020335B42BED0C3F1200746EA064602FA60
:101FB00007F74FEA164646EA0706C3F1200722FA5A
:101FC00003F201FA07F721FA03F14FF0000342EAA6
:101FD0000702A7E746EA020646EA06464FEA164621
:101FE00046EA0106BCBF46EA0646360C4FF000033F
:101FF0004FF000024FF0000194E72DE9804C9A4623
:10200000934670B491E8380007C831EA400C48BFE5
:1020100034EA430C03D5FFF7E6FDFFF780FFF0BC81
:10202000BDE8008C2DE9804C9A46934670B491E847
:10203000380007C810F0804F08BF13F0804F03D15D
:1020400000F005F8FFF76BFFF0BCBDE8008C20F056
:102050007F4780EA030023F07F4C07EB0C03A3F5D6
:102060007C5300F00040A3F1FE0392F0000F00F05B
:10207000B38095F0000F00F077802DE901494FEA19
:1020800011404FEA144621EA004800FB06FC24EA0E
:10209000064708FB06F607FB08F800FB07F718EBF6
:1020A00006484CEB164C4FEA124B18EB07484FEA28
:1020B00015464CEB174022EA0B4E0BFB06FC25EABB
:1020C00006470EFB06F607FB0EFE0BFB07F71EEBA3
:1020D000064E4CEB164C4FF000061EEB074E4CEB39
:1020E000174B18EB0B0840F1000018EB0E0B58EBE8
:1020F000000840F100008F1A4FF000013CBFC943B7
:10210000661B14BFB5EB040C00213CBFC943F61B92
:102110004FEA17444EEA8E0E27EA04454FEA1C4761
:1021200004FB07622CEA074C05FB07F70CFB05F6DE
:1021300004FB0CFC16EB074642EB174216EB0C4671
:1021400042EB1C421BEB060658EB0202414146EAF9
:102150009E0601D5BDE80189B619524141EB010146
:10216000A3F10103BDE801894FEA14454FEA114785
:1021700024EA054621EA074C05FB07F406FB07F7AE
:102180000CFB06F105FB0CFC11EB074144EB17447B
:102190004FEA124711EB0C4144EB1C4422EA074C76
:1021A00005FB07F206FB07F70CFB06F605FB0CFC2C
:1021B00016EB074642EB174216EB0C4642EB1C456A
:1021C0006A1854F1000148BF7047B619524141EBFB
:1021D0000101A3F10103704795F0000F37D04FEADA
:1021E00011424FEA144721EA024624EA074C02FB57
:1021F00007F106FB07F70CFB06F402FB0CFC14EBE3
:10220000074441EB17414FEA154714EB0C4441EBEF
:102210001C4125EA074C02FB07F506FB07F70CFB00
:1022200006F602FB0CFC16EB074645EB174516EBD2
:102230000C4645EB1C42121951F1000148BF704792
:10224000B619524141EB0101A3F1010370474FEA76
:1022500014454FEA114724EA054621EA074C05FBDD
:1022600007F106FB07F70CFB06F24FF0000605FB33
:102270000CFC12EB074241EB174112EB0C4251EB05
:102280001C4148BF7047921841EB0101A3F10103C3
:10229000704710B50146806B026C12F0500F05D0EC
:1022A000026CD20626D500F002FA10BD016C41F492
:1022B0000071016401688A6812F0405F17D1027EE4
:1022C000AAB9CA6A12F4700F02D08A6852050ED4F5
:1022D0004A6822F020024A60016C21F48071016496
:1022E000016CC90403D4016C41F00101016400F0E8
:1022F000C1F910BD806BC26CBDE8104008461047A4
:1023000010B5806B40210164416C41F004014164CF
:1023100000F0CDF910BD10B5806B00F0C7F910BD0D
:10232000014800F0C5B90000F4000020464910B58E
:102330004A6822F440324A604A6843681A434A6055
:1023400001684A6822F480724A6001684A68036939
:1023500042EA03224A6001684A6822F040724A60F9
:1023600001684A6883681A434A6001688A6822F4EF
:1023700000628A6001688A68C3681A438A60816A59
:102380006FF07062D14201688A6822F070628A60E0
:1023900001688A680CD0836A1A438A6001688A6877
:1023A00022F040528A6001688A68C36A1A4301E0D9
:1023B00022F040528A6001688A6822F002028A6034
:1023C00001688A68037E42EA43028A6090F820101E
:1023D000002901684A680FD042F400624A6001682F
:1023E0004A6822F460424A6001684A68174C436AAE
:1023F00004EB43331A4301E022F400624A600168AF
:10240000CA6A22F47002CA620168CA6A838B104CDD
:1024100004EB03531A43CA6201688A6822F400720B
:102420008A6001688A6890F8303042EA43228A6004
:1024300001688A6822F480628A6001688A6840695B
:1024400042EA8020886010BD0023014000E0FFFFC9
:102450000000F0FFFEE70000014800F051BB000063
:102460003C01002001681823CAB2103AB2FBF3F213
:10247000054B6FF30901032A9B5CC36500D9091D55
:102480008165084670470000726F000810B501466C
:1024900000208B698A6A4FF0C07453B1B3F5005FB6
:1024A00015D072B1012A0CD0022A0AD0032A09D110
:1024B00004E01AB1012A06D0022A03D1C96AC9016F
:1024C00000D5012010BDC96AA142FAD010BD002A72
:1024D000F7D0012AF2D0022AF3D0032AF3D010BD9C
:1024E00030B50468256825F480252560046863609C
:1024F0008368402B036803D099600068C26030BDD8
:102500009A600068C16030BD704772B6FEE77047E0
:1025100078B50024009490F83C20012A19D00122BB
:1025200080F83C200A6807230568092A13D9EE6859
:102530000A3A02EB420293409E43EE600B788A68AF
:102540000A3B03EB43039A400368DD682A43DA60E1
:1025500010E0022078BD2E6902EB420293409E43B8
:102560002E610B788A6803EB43039A4003681D6968
:102570002A431A614A681F23072A13D205686E6B23
:10258000521E02EB820293409E436E630A8893B20E
:102590000A79521E02EB820293400268556B2B436C
:1025A000536327E005680D2A12D22E6BD21F02EB6F
:1025B000820293409E432E630B790A88DB1F92B2FE
:1025C00003EB83039A4003681D6B2A431A6311E0EF
:1025D000EE6A0D3A02EB820293409E43EE620B7963
:1025E0000A880D3B92B203EB83039A400368DD6ACD
:1025F0002A43DA621B4B0568194A9D420AD10D68CD
:10260000122D07D1556825F400055560556845F42D
:102610008005556005689D421DD1134D0B68AB4286
:1026200001D0112B17D1536823F4800353605368F2
:1026300043F4000353600968A9420CD10B490C4ACA
:102640000968B1FBF2F101EB8101490000E0491E8C
:1026500000910029FBD180F83C40002078BD0000AB
:102660000023014000200140120000103C00002027
:1026700040420F0008B500200346009009486A4612
:102680000749006803F0FAFE0098002807D00649C1
:102690004FF080500860BFF34F8FBFF36F8F08BDBE
:1026A0000C0000201000002004ED00E0704770478F
:1026B00070B5044600680668456816F0020F05F01C
:1026C00020012AD049B3216CC90603D4216C41F4FE
:1026D00000712164816811F0405F17D1217EA9B992
:1026E000C16A11F4700F02D0816849050ED44168A7
:1026F00021F020014160206C20F480702064206C67
:10270000C00403D4206C40F0010020642046FFF791
:10271000B1FF21686FF01200086016F0040F05F099
:10272000800132D089B3206CC00603D4206C40F401
:10273000005020642068816811F4401F1ED1816B15
:1027400011F4401F02D08168490517D4416849053A
:1027500014D4816811F0405F10D1217E71B94168B5
:1027600021F080014160206C20F480502064206CB6
:10277000C00503D4206C40F0010020642046FFF720
:10278000C6FE21686FF00C00086016F0010F05F01E
:1027900040010FD071B120680068C0070AD0206CDA
:1027A00040F480302064204600F043F821686FF048
:1027B0000100086016F0200F05F080610ED000299E
:1027C0000CD0606C40F00200606420686FF020055F
:1027D00005602046FFF76BFF2068056070BD70B58F
:1027E00004004FF0000503D0206C002610B107E074
:1027F000012070BD204600F01DF8666484F83C603E
:10280000206CC00610D4206C20F4885040F00200E8
:1028100020642046FFF78AFD6664206C20F00200E9
:1028200040F00100206400E0012584F83C60284667
:1028300070BD704770B586B0064614216846FEF735
:102840004CF92149306888423BD120480025016875
:1028500041F480710160006800F4807005901B48AD
:102860001438016841F0010101600068694600F018
:1028700001000590022000900320CDE901051448D5
:1028800000F0B0FA144C1348C4E900050015A56027
:10289000C4E90350800060618000C4E90605256238
:1028A0002046656200F0FCF908B1FFF72EFEB46324
:1028B000002207211220A66300F01CFC122000F069
:1028C0000BFC06B070BD00000020014044380240FF
:1028D00000000240106402403C010020F8B50446AC
:1028E00000200E46009094F83C10012907D00121E9
:1028F00084F83C1021688B68DB0702D011E00220CD
:10290000F8BD8B6843F001038B603649364B09688C
:10291000B1FBF3F101EB410100E0491E00910029F8
:10292000FBD121688B68DB0503D58B6823F48073AA
:102930008B6021688B68DB0749D0236C40F201650E
:10294000AB4343F4807323644968490505D5216C82
:1029500021F4005141F480512164216CC90404D553
:10296000616C21F00601616400E0606484F83C0061
:10297000A16B1F481D4DC863A16B1E480864A16B65
:102980001D48C86421686FF0220008602068416813
:1029900041F0806141602068816841F4807181600C
:1029A0002168134632464C31A06B00F0E3F96868A9
:1029B000C006206802D01149884210D1816811F008
:1029C000405F0CD1816841F08041816007E0206C5C
:1029D00040F010002064606C40F001006064002052
:1029E000F8BD00003C00002040420F0000230140E1
:1029F000932200081723000801230008002001404B
:102A000010B50446002094F83C1001290CD0012197
:102A100084F83C1021688A6822F001028A602168EB
:102A20008A68D20702D01DE0022010BD8A6822F415
:102A300080728A60A16B91F83520022A07D108467E
:102A400000F014F818B1216C41F0400121642168B4
:102A50004A6822F080624A60216C21F4885141F07A
:102A600001012164002184F83C1010BD2DE9F041E2
:102A70000446876D00F0A6FA064694F83500002556
:102A8000022806D08020606584F834500120BDE81B
:102A9000F0812068016821F0160101602068416919
:102AA00021F080014161206C08B9A06C20B1206840
:102AB000016821F0080101602068016821F001012E
:102AC00001600CE000F07EFA801B052807D9202069
:102AD0006065032084F8350084F83450D7E7206817
:102AE0000068C007EED194F85C103F208840B860C1
:102AF000012084F8350084F834500020C7E7000036
:102B00002DE9F84304464FF00009CDF800906348E2
:102B10004FF41651A56D0068B0FBF1F72E6894F8DC
:102B20005C10082000FA01F131420FD021680A68D8
:102B300052070BD50A6822F004020A6094F85C1070
:102B40008840A860606D40F00100606594F85C10FA
:102B50004FF0010808FA01F0304208D021684969B5
:102B6000090604D5A860606D40F00200606594F825
:102B70005C1004208840304208D021680968890729
:102B800004D5A860606D40F00400606594F85C10A6
:102B900010208840304218D021680968090714D5F0
:102BA000A86020680168490304D50068000308D5BF
:102BB000A16C07E00168C90503D4016821F0080190
:102BC0000160216C09B12046884794F85C102020F0
:102BD0008840304231D021680968C9062DD5A860E7
:102BE00094F8350005282068016806D0490347D5C8
:102BF000006800031DD4616C1CE021F01601016027
:102C00002068416921F080014161206C08B9A06C05
:102C100020B12068016821F00801016094F85C107F
:102C20003F208840A86084F8358084F83490216D76
:102C30001FE0E16B09B120468847606D00282BD06A
:102C4000606DC00714D0052084F835002068016845
:102C500021F0010101600098401C0090B84203D8A7
:102C600020680068C007F6D184F8358084F8349075
:102C7000E16C002910D001B02046BDE8F0430847C0
:102C80000168C905D5D4016821F01001016084F8FC
:102C9000358084F83490CCE7BDE8F8833C00002010
:102CA0002DE9F041044600F08DF906465CB10220A2
:102CB00084F83500002584F834502068016821F03C
:102CC000010101600DE00120BDE8F08100F07AF91A
:102CD000801B052805D920206065032084F8350075
:102CE000F2E720680068C007F0D122681168204828
:102CF0000140D4E901031843D4E9033633431843B0
:102D000063691843A3691843E3691843236A1843A6
:102D10000843616A042903D1D4E90B13194308431A
:102D2000106020684069666A20F0070130460E4353
:102D3000012704280CD1A06A0643E06A40B120466E
:102D4000FFF7A4FB20B14020606584F83570BAE736
:102D5000206846612046FFF785FB94F85C203F2100
:102D600091408160656584F835700020ACE7000013
:102D70003F8010F02DE9F0410446866D90F8340054
:102D8000002501280DD0012084F8340094F8357016
:102D90000020012F07D084F8340002252846BDE822
:102DA000F0810220FBE7022784F835706065204639
:102DB000FFF796FB94F85C103F208840B0602068D5
:102DC000016841F016010160206C20B120680168A3
:102DD00041F0080101602068016841F001010160D3
:102DE000DCE700002DE9F84FDFF8B8A1002201244C
:102DF00003254FF00F090AF1040BAAF1040E00BFDE
:102E00000B6804FA02F63340B34273D10F7907F02E
:102E10000307012F01D0022F16D187684FEA42081D
:102E200005FA08FC27EA0C07D1F80CC00CFA08FCDC
:102E30004CEA070CC0F808C04768B7430E79C6F3E0
:102E4000001696403E4346600E79F643B6070DD015
:102E5000C768560005FA06FC27EA0C07D1F808C037
:102E60000CFA06FC4CEA070CC0F80CC00E7906F010
:102E70000306022E10D1D60800EB8608D8F8206091
:102E800057074FEAD76C09FA0CF7BE430F6907FAE8
:102E90000CF73743C8F8207006684FEA420C05FA71
:102EA0000CF7BE430F7907F0030707FA0CF7374317
:102EB00007604E6816F4403F6DD03B4E376847F4CC
:102EC00080473760366822F0030706F48046009694
:102ED000364E07EB060CDCF8086897073F0F09FA37
:102EE00007F826EA0806DFF8C880404503D14FF00E
:102EF00000081EE04FE0DFF8BC80404502D14FF0F3
:102F0000010816E0DFF8B080404502D14FF002081A
:102F10000FE0DFF8A880404502D14FF0030808E039
:102F2000DFF89C80404502D14FF0040801E04FF0EB
:102F3000070808FA07F848EA0608CCF80888DAF81B
:102F400000605746D1F804C09E435FEACC2C00D500
:102F50001E433E60DBF800605F46D1F804C09E432C
:102F60005FEA8C2C00D51E433E60DEF80060774699
:102F7000D1F804C09E435FEA8C3C00D51E433E60FE
:102F8000084F083F3E68D1F804C09E435FEACC3C3E
:102F900000D51E433E60521C102AFFF431AFBDE83D
:102FA000F88F0000083C01404438024000300140E6
:102FB000000002400004024000080240000C0240F1
:102FC0000010024001488068704700003000002077
:102FD0000248816802781144816070473000002007
:102FE0000B4810B5016841F400710160016841F4BB
:102FF00080610160016841F480710160032000F08C
:1030000099F80F2000F006F800F04AF8002010BDF3
:10301000003C024030B505461C4887B000240168DA
:1030200041F400310160006806A900F4003000900E
:1030300001A800F0D5F900F0F3F91549154AB0FBE5
:10304000F1F11548491E026040F2E732C0E903245D
:10305000C0E90114846100F001FE040012D10E48A1
:1030600000F02AFE04000DD1192000F035F8102DD3
:1030700007D200222946192000F03CF807480560D5
:1030800000E0012407B0204630BD00004438024073
:1030900040420F0000440140BC01002034000020E9
:1030A0000C4882B0016841F480410160006800F47E
:1030B000804000900748001F016841F08051016086
:1030C0000068002200F0805000900F21901E02B096
:1030D00000F010B844380240002809DB00F01F025D
:1030E000012191404009800000F1E020C0F800116A
:1030F00070470000F0B40E4B1B680C46C3F302236C
:10310000C3F10705042D00D90425191D072901D293
:10311000002300E0DB1E012606FA05F1491E2140CE
:1031200099409E40761E16403143F0BC01F097B99D
:103130000CED00E0064900F0070208684FF6FF03B7
:10314000184040EA0220034A10430860704700001C
:103150000CED00E00000FA052DE9F8430446006894
:103160004FF00109C1074FF0000601D1400729D5F2
:10317000DFF82081C8F86860FFF724FF0746464D56
:1031800005E000BFFFF71EFFC01B022859D82868C2
:103190000001F7D4A068217B800140EA01706168DA
:1031A00008433D4984310860C8F86890FFF70AFF7A
:1031B000074604E0FFF706FFC01B022841D8286835
:1031C0000001F7D52078800752D533484030016898
:1031D00041F0805101600068304D00F08050009057
:1031E000286840F480702860FFF7ECFE074604E092
:1031F000FFF7E8FEC01B022823D82868C005F7D5D2
:10320000254D7035286810F4407020D0218A01F4D3
:10321000407181421BD02868214920F44070C1F8D8
:1032200000900E6028602868C00710D0FFF7CAFE23
:10323000064641F2883707E0FFF7C4FE801BB8421C
:1032400002D90320BDE8F88328688007F4D52169F6
:103250001148C1F301220830032A12D0016821F479
:10326000F81101602868218AC1F30B010843286026
:103270002078000703D50B49207DC1F8E00100202C
:10328000E0E70268084B22F4F81219400A43026092
:10329000E8E70000000047420038024000700040AC
:1032A000400E474200104742FFFCFF0F2DE9F04758
:1032B0000E46050065D0DFF81481D8F80000F7B29B
:1032C00000F00700B04207D288F80070D8F800007C
:1032D00000F00700B04254D128683D4C810712D558
:1032E000400703D5206840F4E050206028780007AC
:1032F00003D5206840F4604020602068A96820F071
:10330000F000084320602878C0072DD03049686855
:103310000839012812D0022813D0032811D00968D7
:10332000890700292DDA216821F00301014321607A
:10333000FFF748FE814641F2883A0EE009688903AA
:10334000EFE709688901ECE7FFF73CFEA0EB090114
:10335000514502D90320BDE8F0872068696800F074
:103360000C00B0EB810FEFD1D8F80010404601F00F
:103370000701B14207D90770006800F00700B042AA
:1033800001D00120E7E72878400705D52068E968E3
:1033900020F4E050084320602878000706D5206814
:1033A000296920F4604040EAC100206000F048F83C
:1033B0002168084AC1F30311515CC84006490860FE
:1033C00006480068FFF726FE0020C4E7003C0240E4
:1033D000083802407A6F00083C00002034000020CA
:1033E0000F2202600C4A136803F003034360136862
:1033F00003F0F0038360136803F4E053C3601268C2
:103400004FF4E05303EAD20202610448006800F07E
:10341000070008607047000008380240003C024086
:103420000448054900680968044AC1F34231515C07
:10343000C84070473C000020083802408A6F0008EE
:10344000154810B5006810F00C02144813D0144948
:10345000042A0FD0082A0ED10F4C241F226823689B
:1034600002F03F025B0207D52068C0F38810A0FB82
:10347000010106E0084610BD2168C1F38811A1FBD7
:1034800000010023FCF7E1FF2168C1F30141491C61
:103490004900B0FBF1F010BD083802400024F400F0
:1034A00040787D012DE9F84F04006ED02078DFF8D8
:1034B0004C93C007A9F104054AD009F10400016842
:1034C000C1F38101012908D00068C0F381000228FE
:1034D0000AD1D9F80000400206D52868800337D504
:1034E00060680028E1D033E06068B0F5803F10D01C
:1034F000B0F5A02F286810D020F48030286028680C
:1035000020F4802028606068A8B1FFF75BFD0646C4
:103510000DE0286840F48030F4E740F48020286013
:10352000F7E700BFFFF74EFD801B642873D82868BB
:103530008003F7D50CE0FFF745FD064605E000BF28
:10354000FFF740FD801B6428F0D828688003F7D47B
:103550002078DFF8AC8280074FF0000A3ED5A748FC
:10356000001D016811F00C0F08D00068C0F3810045
:1035700002280BD1D9F80000400207D42868800740
:1035800016D5E068012800D112E033E1E068B8B157
:103590000120C8F80000FFF715FD064605E000BF52
:1035A000FFF710FD801B0228C0D828688007F7D5D8
:1035B0002868216920F0F80040EAC10028600DE089
:1035C000C8F800A0FFF7FEFC064604E0FFF7FAFC8F
:1035D000801B02281FD828688007F7D420780007AE
:1035E00022D5864F87486169703771B1012101602A
:1035F000FFF7E8FC064604E0FFF7E4FC801B022826
:1036000009D838688007F7D50EE0C0F800A0FFF7AA
:10361000D9FC064605E082E0FFF7D4FC801B0228B7
:103620007DD838688007F7D42078400768D5DFF860
:10363000CCB100270BF13C0BDBF80000C0000BD431
:10364000DBF8001041F08051CBF80010DBF80000EF
:10365000012700F0805000906B4E3068C00510D4F8
:10366000306840F480703060FFF7ACFC009005E0FB
:10367000FFF7A8FC0099401A022850D83068C0050E
:10368000F6D55E4EA0686C3601280FD0052830684C
:1036900010D020F001003060306820F0040030606D
:1036A000A068B8B1FFF78EFC00900FE0306840F0E2
:1036B0000100F4E740F004003060F7E7FFF782FC18
:1036C0000099411A41F28830814266D830688007FB
:1036D000F4D50EE0FFF776FC009007E0FFF772FCF0
:1036E0000099411A41F28830814256D830688007EB
:1036F000F4D42FB1DBF8001021F08051CBF800108A
:10370000A069C8B33D49091D0968C1F381010229B7
:103710004AD00228504607D0C8F8600000E03CE0DC
:10372000FFF750FC04463BE04746C8F86000FFF74F
:1037300049FC064605E000BFFFF744FC801B022859
:103740002BD828688001F7D4D4E907010843A16A7F
:103750002E4A490802EB0141626A41EA821108439C
:1037600094F82C1040EA0161C9F800100120386675
:10377000FFF728FC044606E03EE000BFFFF722FC0E
:10378000001B022809D828688001F7D534E000BF63
:10379000FFF718FC001B022802D90320BDE8F88FB0
:1037A00028688001F4D427E00128F7D0D9F8000078
:1037B000E26900F4800191421CD1226A00F03F01CD
:1037C000914217D147F6C071626A0140B1EB821F86
:1037D00010D1A26A4FF0FF3300F4403103EB5202E4
:1037E000B1EB024F06D194F82C1000F07060B0EBF2
:1037F000016F01D00120D1E70020CFE7043802405B
:1038000000004742800E4742007000400000FFFF6A
:103810002DE9F84389463D494FF4FA4C4FF47A7349
:103820000F68B7FBFCF159430091017F012965D076
:1038300001250577022141770368CA21596203688F
:103840005321596201688B684FF0FF045FEA4358C7
:103850004FF000034FF003060CD500BFDDF80080E9
:10386000B8F10108CDF800804AD0D1F80C805FEAA9
:103870004878F3D4D1F8088028F48068C1F808802B
:103880000168D1F80C8008F0800868F49068C1F8ED
:103890000C80B7FBFCF14FF47A7779430091016813
:1038A000009F7F1E00972BD0CF687F07F8D58E68CA
:1038B00026F007068E6001688E6816438E600268E7
:1038C000C2F8149012490A6842F480020A60104952
:1038D00008310A6842F480020A6001688A6842F48A
:1038E00080428A6001688A6842F480628A60016866
:1038F0004C62457703770020BDE8F8830220FBE7A0
:103900004C62467703770320F6E700003C00002076
:10391000003C01407047000010B50A4904464FF4CE
:10392000800008602068C168490508D5C16801F0B9
:10393000800161F49061C1602046FFF7EBFF012038
:10394000607710BD143C014010B500680B4641681B
:103950000D480140080CD870C1F304245C7001F0DC
:103960003F049C70C1F34231197052B900F078FBEA
:10397000D870587800F074FB5870987800F070FB9D
:103980009870002010BD00003FFFFF0010B50B46EF
:103990000168896A596001680969C1F30E0199607B
:1039A000006801680D480140C1F305401870C1F37B
:1039B00006245C7001F07F049C70890DD97052B9A7
:1039C00000F04EFB1870587800F04AFB5870987859
:1039D00000F046FB9870002010BD00007F7F7F0044
:1039E00010B5040002D0607F10B106E0012010BDC8
:1039F00000202077204600F041F802206077206800
:103A0000C168C943C90632D5CA2141622168532021
:103A10004862204600F038FB20BB20688168164AC7
:103A2000114081602168886862681043D4E90423EA
:103A30001A43104388602168E068086120680169C2
:103A4000228941EA02410161204600F041FB48B968
:103A500021680A6C22F480220A6421680A6CA36936
:103A60001A430A642268FF21516208B110BD002088
:103A70000121617710BD0000BFFF8FFF10B586B038
:103A8000044618216846FDF728F80D492068884249
:103A900014D102200090C00104906846FFF75CFB3F
:103AA00008B1FEF732FD0749012008600022052118
:103AB0000320FFF71FFB0320FFF70EFB06B010BD2E
:103AC000002800403C0E474270B50446007F0B467C
:103AD000012819D00126267702206077B2B19878A4
:103AE000D97840EA014558781978000240EA413017
:103AF00005432168CA204862216853204862204655
:103B000000F0C2FAD0B122E0022070BD5878C106A0
:103B100003D500F0EF000A305870D87800F0A9FA09
:103B20000204587800F0A5FA42EA0022987800F0E2
:103B3000A0FA0243187842EA4035DAE70748054020
:103B400020684560204600F0C3FA00B96677226815
:103B5000FF2151620021217770BD00003FFFFF006F
:103B60002DE9F0410446007F0D46012823D04FF097
:103B7000010884F81C800220607720680027806894
:103B80004FEA4060D2B1002800DBEF70A8782978B6
:103B900040EA01466878E978000240EA815006432D
:103BA0002168CA204862216853204862204600F0FC
:103BB0006BFAB8B12CE00220BDE8F081002800DBF0
:103BC000EF70287800F055FA0204687800F051FA96
:103BD00042EA0022A87800F04CFA0243E87842EA70
:103BE0008056DDE70D480640206806602068816841
:103BF00021F480218160D5E90301084321688A68A6
:103C000010438860204600F063FA08B984F81D80EC
:103C10002268FF2151622777CEE700007F7F7F0077
:103C200070B504460B482168C860FFF7CBF905461C
:103C30004FF47A7607E000BFFFF7C4F9401BB042AB
:103C400001D9032070BD2068C0688006F4D500202B
:103C500070BD00005F3F01007047704710B5040061
:103C600003D094F83D0010B107E0012010BD002002
:103C700084F83C00204600F01EF8022084F83D0045
:103C8000211D206800F0F4FA012084F8460084F831
:103C90003E0084F83F0084F8400084F8410084F836
:103CA000420084F8430084F8440084F8450084F816
:103CB0003D00002010BD704790F83D10012901D053
:103CC00001207047022180F83D100168CA6842F067
:103CD0000102CA6000680E4988420ED0B0F1804FE0
:103CE0000BD00C49884208D00B49884205D00B49BB
:103CF000884202D00A49884204D1816801F0070154
:103D0000062903D0016841F00101016000207047DD
:103D1000000001400004004000080040000C00408A
:103D20000040014070472DE9F04104460068C66834
:103D300005694FF00007A90713D5B10711D5F91E82
:103D4000016101202077206880698007204602D029
:103D5000FFF7E8FF04E000F07EF8204600F07CF872
:103D60002777680716D5700714D521686FF004000F
:103D70000861022020772068806910F4407F204687
:103D800002D0FFF7CFFF04E000F065F8204600F016
:103D900063F82777280715D5300713D521686FF00A
:103DA00008000861042020772068C0698007204649
:103DB00002D0FFF7B7FF04E000F04DF8204600F016
:103DC0004BF82777E80616D5F00614D521686FF072
:103DD00010000861082020772068C06910F4407F37
:103DE000204602D0FFF79EFF04E000F034F82046A2
:103DF00000F032F82777E80708D0F00706D02168EE
:103E00006FF001000861204600F028F8280608D568
:103E1000300606D521686FF0800008612046FFF764
:103E20001BFF680608D5700606D521686FF04000B4
:103E30000861204600F01CF8A8060AD5B00608D58F
:103E400021686FF0200008612046BDE8F041FFF7CF
:103E500004BFBDE8F0817047704700000068034967
:103E6000884201D1FFF7B4B8704700000044014018
:103E70007047FEE77FB50024154800940194029432
:103E80001249039401604FF48031C0E901140461C8
:103E9000047680F820400F49C0E90A140125C56165
:103EA000C46080F830404561FEF799FC08B1FEF728
:103EB0002CFB0095CDE9015469460548FEF728FB27
:103EC000002801D0FEF721FB7FBD0000002001404B
:103ED000F40000200100000F094808B5016841F412
:103EE000800101600068002200F48000009006213B
:103EF0003820FFF7FFF8BDE808403820FFF7ECB89E
:103F00003038024010B51B4801F04CF81A4C194AE1
:103F10000421E062483A012001F018F8154A2062B5
:103F2000303A0421012001F011F8124A6062183A77
:103F30000421012001F00AF8A062002208210120DA
:103F400002F054F90B4A2061B43A00210B4801F009
:103F50005DF8084A6061903A0021094801F056F87E
:103F6000044AA0616C3A0021064801F04FF8E06174
:103F700010BD0000486F00080000002065590008CF
:103F80004D5A0008855B00080D4808B5016841F0EE
:103F900004010160016801F004010091016841F031
:103FA00080010160016801F080010091016841F029
:103FB00001010160006800F00100009008BD0000F0
:103FC0003038024010B586B014216846FCF785FDF4
:103FD000214800241F490594C0E900147F21816015
:103FE000FF21C1604FF4C00101614FF48011C0E9AD
:103FF0000514FFF7F5FC08B1FEF787FA8DF80040CD
:104000008DF801408DF80240039400226946124861
:104010000494FFF7A5FD08B1FEF777FA01208DF8AB
:1040200014008DF815008DF816008DF81740002249
:1040300005A90948FFF748FD08B1FEF766FA042212
:1040400000210548FFF7E4FB002801D0FEF75DFAE8
:1040500006B010BD002800409C010020FEE7FEE7EE
:10406000010901EB810100F00F0000EB4100C0B23B
:104070007047002102E00A38C0B2491C0A28FAD26F
:10408000090740EA116070472DE9F04104460068D5
:104090000025C168490618D4C16841F08001C1609B
:1040A000FEF790FF06464FF47A78042707E000BF3A
:1040B000FEF788FF801B404501D9677701252068FE
:1040C000C068400601D4002DF2D02846BDE8F0813A
:1040D00070B5044600680025C16821F08001C16008
:1040E00020688068800606D42046FFF799FD10B14D
:1040F000042060770125284670BD00000148FFF7C5
:104100000BBC00009C01002000F006B92DE9F04135
:1041100007460B4815460E460078532801D000F09C
:10412000FBF8EFF31184202080F311882A463146F2
:10413000384600F007F8E1B281F31188BDE8F0815C
:10414000D84A002070B50E46144900EB400001EB40
:10415000C0051446E86A183520B101280FD002289E
:1041600005D113E0284600F009F9A04201D200244D
:1041700011E022463146284600F038F90BE0284687
:1041800000F0FCF8A042F4D20446F2E7314628469B
:1041900000F0FFF80446204670BD0000D84A002019
:1041A00010B54FF0E020006902F04CFC012803D06C
:1041B000BDE8104001F0ECBF10BD000030B593B079
:1041C00030216846FCF789FC14210CA8FCF785FC1B
:1041D0001E480025016841F080510160006800F030
:1041E000805011901A48016841F440410160006814
:1041F000022400F440401190052000904FF48030DC
:104200000190012002908005CDE906400C20089025
:104210006020CDE9090404200B906846FFF742F9BD
:1042200008B172B6FEE70CA90F2081E831004FF407
:104230008050CDE90F0503210CA8FFF737F80028BF
:1042400001D072B6FEE713B030BD00004038024026
:10425000007000400248016841F47001016070473D
:1042600088ED00E00148FFF75EBD0000BC010020C2
:10427000F0B50268204B214C9F03214D214E9842FE
:1042800007D0B84205D0A04203D0A84201D0B04226
:1042900004D122F0700C4A6842EA0C02984210D015
:1042A000B8420ED0A0420CD0A8420AD0B04208D0EA
:1042B000154CA04205D0154CA04202D0144CA0428F
:1042C00003D122F44074CA6822434C6922F0800270
:1042D000224302608A68C2620A688262984201D1FF
:1042E00009690163012141610169C90703D00169BD
:1042F00021F001010161F0BD000001400004004017
:1043000000080040000C0040004001400044014013
:1043100000480140FEE7000010B5134CA8212046DC
:10432000FCF7DBFB03202061606110A0A06104F1B9
:10433000A800E0614FF4806020620020A06260620B
:10434000E0620AA1216604F5956161661021A1660B
:104350002067E06660670849C0F10F028A5C22545A
:10436000401C1028F8D310BDD84A00205465726D47
:10437000696E616C00000000A26F00080269C168EC
:104380008A4203D88068401A104400E0501A401E48
:1043900070472DE9F047C4681746894606464FF036
:1043A00000083069A04201D9051B02E0B168201A5B
:1043B0000D1AB0686D1E001BA84200D80546BD420C
:1043C00000D33D4670682A4620444946FCF716FB58
:1043D000B0687F1B2C44A844A944A04200D100240B
:1043E000F460002FDDD14046BDE8F0872DE9F041B3
:1043F00004468846D4E90207C51BE1686068164692
:104400000844B54206D94146FCF7F8FAB819E0600D
:10441000BDE8F0812A464146FCF7F0FA761B08EB2E
:10442000050132466068FCF7E9FAE660F0E703B49C
:1044300001984100009850EAC12018BF04204A0D9D
:1044400018BF40F0010040F2FF72B2EB515F08BFAD
:1044500040F00200012808BF052002B0704709079C
:10446000090E002804DB00F1E02080F800147047FA
:1044700000F00F0000F1E02080F8141D7047303884
:104480000A2801D20120704700207047F0B585B09E
:10449000070007D11F484FF4F1720368A3B11E490A
:1044A0001EA09847224D0024052695F8F00000280C
:1044B00019D000F07BFA00BF04EB4410411991F8C9
:1044C0005100012812D017E01348CDE903020092F1
:1044D00012A118A3CDE9013103461FA22BA1002090
:1044E00000F08CF8FEE705B03046F0BD1E223846DD
:1044F0003231FCF738FA30B1641CE4B2052CDBD35E
:1045000000F07AFAEFE704EB4410284490F83160A9
:10451000F6E70000C00000204570000874616720C5
:10452000213D202828766F6964202A29302900003F
:1045300090530020282573292068617320617373CC
:10454000657274206661696C6564206174202573EE
:104550003A256C642E0000002E2E5C4D6964646C5C
:104560006577617265735C54686972645F506172EB
:1045700074795C656173796C6F676765725C73727F
:10458000635C656C6F672E6300000000656C6F678D
:10459000000000002DE9F041174D002095F8F010C3
:1045A000012927D000F066FA060023D1012000F08F
:1045B0000DFA002785F8F37085F8F470012085F86E
:1045C000F500052000F062FA0024B84604EB441020
:1045D000471907F132001F21FCF75DFA641C87F8C8
:1045E0003180E4B287F85180052CEFD3012085F8A3
:1045F000F0003046BDE8F081905300200FB42DE963
:10460000F04F06468BB08B460846FCF78DF9002428
:104610000A940746A14609940594069407940894C1
:10462000052E08D9B3484FF410720368002B7DD0D3
:10463000B149B2A09847B84D95F8F100002876D05E
:104640002878B04273D35846FFF720FFB0426ED3AC
:10465000691C5846FCF756F9002868D00DF1680A25
:1046600000F0A4F9A84695F8F500A5F5806570B1AD
:104670002946AAA2204600F025FB04469D48291998
:104680001C3050F82620204600F01CFB0444012179
:10469000304600F09BFB40B196482919001D50F8A8
:1046A0002620204600F00EFB04440221304600F094
:1046B0008DFBC8B129195A46204600F003FB04447B
:1046C0000F2F0BD8C7F10F01202205A8FCF7DBF94B
:1046D000291905AA204600F0F5FA0444291990A2E8
:1046E000204600F0EFFA04441C21304600F06EFB37
:1046F00000284BD029198BA2204600F0E3FA04448D
:104700000421304600F062FBA8B100F08DF90246AA
:104710002919204600F0D6FA04441821304600F04A
:1047200055FB40B129197EA2204601E036E0DCE0CD
:1047300000F0C8FA04440821304600F047FB90B16D
:1047400000F06AF902462919204600F0BBFA044439
:104750001021304600F03AFB28B1291970A22046FA
:1047600000F0B0FA04441021304600F02FFB38B1BD
:1047700000F056F902462919204600F0A3FA044435
:10478000291969A2204600F09DFA044420213046F0
:10479000169A00F087FB00281CD10EE05648CDE9A0
:1047A0000302009255A161A3CDE90131034668A23D
:1047B00074A10020FFF722FFFEE740213046179A40
:1047C00000F070FB30B980213046189A00F073FB7E
:1047D000002856D029196DA2204600F073FA04442F
:1047E00020213046169A00F05DFBD0B129192046F1
:1047F000169A00F067FA044440213046179A00F0F8
:1048000051FB10B1291962A207E080213046189AA5
:1048100000F051FB28B1291941A2204600F052FABC
:10482000044480213046189A00F045FBB8B159A2E3
:10483000052109A8189BFBF7AFFE291909AA2046F4
:1048400000F040FA044440213046179A00F02AFB59
:1048500028B1291932A2204600F034FA044440213C
:104860003046179A00F01EFB28B129192046179AE6
:1048700000F028FA0444291947A2204600F022FA41
:104880000444C4F5806128195346199AFBF754FE75
:1048900004444FF48062944204D8002802DB601D77
:1048A000904201D940F2FB3498F82000464640B1CE
:1048B000194905F804902031A1F58460FCF722F82D
:1048C00088B196F8F50028B1291934A2204600F0E5
:1048D000F9F90444291933A2204600F0F3F901192B
:1048E000314800F0C9F800F087F80BB0BDE8F00FD0
:1048F0005DF814FBC00000205D7000086C657665F3
:104900006C203C3D20454C4F475F4C564C5F564514
:1049100052424F5345000000905300201B5B0000A3
:10492000200000005B0000005D20000028257329A6
:104930002068617320617373657274206661696CAD
:1049400065642061742025733A256C642E00000094
:104950002E2E5C4D6964646C6577617265735C547E
:10496000686972645F50617274795C656173796CB7
:104970006F676765725C7372635C656C6F672E63EB
:1049800000000000656C6F67000000002800000058
:104990003A000000256C6400290000001B5B306DAC
:1049A000000000000A000000904F002070B5064C87
:1049B000012594F8F20020B100F063F884F8F45077
:1049C00070BD84F8F35070BD905300200949002851
:1049D00081F8F2000DD0074891F8F41090F8F30038
:1049E00019B1002805D100F04EB8002801D000F020
:1049F00048B870479053002070B5064C002594F8D5
:104A0000F20020B100F03FF884F8F45070BD84F853
:104A1000F35070BD9053002000A0704700000000CC
:104A200000A070470000000000B587B0002201A977
:104A30000A48FEF7ABFF002206A90848FEF784FFEC
:104A40009DF8060000909DF805309DF8042004A113
:104A50000748FBF78BFD07B0054800BD9C0100200F
:104A6000253032643A253032643A25303264000011
:104A700088540020002070470A4601460020FFF7B6
:104A800045BB72B6704762B67047000010B586B07D
:104A90000446052807D90D484FF4AE72036833B1B8
:104AA0000B490CA098471248047006B010BD084886
:104AB000CDE90302009207A10EA3CDE9013103461F
:104AC00015A222A10020FFF799FDFEE7C0000020FB
:104AD000197000086C6576656C203C3D20454C4F94
:104AE000475F4C564C5F564552424F5345000000BD
:104AF0009053002028257329206861732061737307
:104B0000657274206661696C656420617420257328
:104B10003A256C642E0000002E2E5C4D6964646C96
:104B20006577617265735C54686972645F50617225
:104B300074795C656173796C6F676765725C7372B9
:104B4000635C656C6F672E6300000000656C6F67C7
:104B50000000000030B585B00D460446052807D991
:104B60000E484FF4A17203684BB10D490DA0984750
:104B7000134800EB8400C0F8D85005B030BD084899
:104B8000CDE90302009207A10EA3CDE9013103464E
:104B900015A222A10020FFF731FDFEE7C000002092
:104BA000FC6F00086C6576656C203C3D20454C4FE1
:104BB000475F4C564C5F564552424F5345000000EC
:104BC0009053002028257329206861732061737336
:104BD000657274206661696C656420617420257358
:104BE0003A256C642E0000002E2E5C4D6964646CC6
:104BF0006577617265735C54686972645F50617255
:104C000074795C656173796C6F676765725C7372E8
:104C1000635C656C6F672E6300000000656C6F67F6
:104C2000000000000EB50A4890F8F01000290DD0E1
:104C3000012180F8F11007A208A1F8208DE80700F3
:104C4000104B11A21DA10320FFF7D8FC0EBD0000E0
:104C500090530020322E322E39390000456173798D
:104C60004C6F676765722056257320697320696EE3
:104C7000697469616C697A652073756363657373C0
:104C80002E000000B36F00082E2E5C4D6964646C2A
:104C90006577617265735C54686972645F506172B4
:104CA00074795C656173796C6F676765725C737248
:104CB000635C656C6F672E6300000000656C6F6756
:104CC000000000002DE9F043DFF88C90DFF88C80C5
:104CD00085B00D0006461446174606D1D8F80030B8
:104CE0002BB12C2249461EA098477CB115E01CA28E
:104CF00002922C20CDE903901AA3CDE90003164BB4
:104D000021A22FA10020FFF779FCFEE7D8F80030A0
:104D10007BB12D2210492CA098474FF48062207857
:104D2000B0B13146761C914212D205F8010B641CD9
:104D3000F5E725A202922D20CDE9039009A3CDE944
:104D40000003054B10A21EA10020FFF757FCFEE751
:104D500005B0E01BBDE8F08395700008C00000209E
:104D6000647374002825732920686173206173734C
:104D7000657274206661696C6564206174202573B6
:104D80003A256C642E0000002E2E5C4D6964646C24
:104D90006577617265735C54686972645F506172B3
:104DA00074795C656173796C6F676765725C737247
:104DB000635C656C6F675F7574696C732E6300006C
:104DC000656C6F67000000007372630030B585B0DA
:104DD0000D460446052807D9104840F2E122036831
:104DE00063B10F490FA09847154800EB8400D0F835
:104DF000D800284000D0012005B030BD0848CDE9DA
:104E00000302009207A10FA3CDE90131034616A2C8
:104E100022A10020FFF7F2FBFEE70000C000002007
:104E2000697000086C6576656C203C3D20454C4FF0
:104E3000475F4C564C5F564552424F534500000069
:104E400090530020282573292068617320617373B3
:104E5000657274206661696C6564206174202573D5
:104E60003A256C642E0000002E2E5C4D6964646C43
:104E70006577617265735C54686972645F506172D2
:104E800074795C656173796C6F676765725C737266
:104E9000635C656C6F672E6300000000656C6F6774
:104EA0000000000010B522B1FFF790FF08B101200B
:104EB00010BD002010BD10B522B1FFF787FF08B16B
:104EC000012010BD002010BDFEF78AF8FFF776F92B
:104ED000FFF75AF8FFF700F8FFF774F8FEF7CAFF7C
:104EE00000F006F8FFF70EF800F014F8FEE70000F7
:104EF000EFF3058010B16FF00500704704480168BA
:104F000011B14FF0FF307047012101600020704760
:104F10009000002010B5EFF3058010B16FF0050090
:104F200010BD08480168012902D04FF0FF3010BDC4
:104F3000054A002182F8141D0221016001F030F8B9
:104F4000002010BD900000200BE000E0F8B51446F2
:104F50004FF00005EFF3058212BB08B301B3A4B113
:104F6000D4E9023263B1502A1AD32269C2B1676907
:104F700000FB01F6B74213D3009501F058F907E0A2
:104F800072B9226962B9626952B9002201F02EF940
:104F9000050005D00CB1216800E0002100F01AFFE7
:104FA0002846F8BD70B505464FF00004EFF30580C4
:104FB00050BB0DB1686800E00020C10701D0012698
:104FC00000E0002600071FD46DB1D5E9021021B121
:104FD000502819D31EB1042002E020B114E00120B2
:104FE00001F0F7F805E00EB1042000E0012001F027
:104FF000E5F8040008D00DB1296800E0002100F0B8
:10500000E9FE0EB144F00104204670BD2DE9FF41D8
:105010004FEA01034FF00005EFF30581039549BB0B
:1050200040B38027182100244AB3166806B13446DD
:1050300096691EB13146761E382E02D21679F607D1
:1050400003D0002004B0BDE8F081566906B1B7086E
:10505000D2F808C0BCF1000F0DD0D5685C2D18D374
:1050600012693AB136B18DE806103A46214601F090
:10507000BEFC03900DE0D6685EB912694AB903AA76
:10508000CDE90012BAB2214601F084FC012800D01B
:1050900003950398D6E700002DE9F041134C0F4625
:1050A0000546E6682068001D00F096FD681C07D1E3
:1050B00037B12168BDE8F0410D48091D00F0DCBDA5
:1050C00020683544B5424560216805D2A06BBDE833
:1050D000F041091D00F0B8BD606B091D00F0B4FD82
:1050E000A06A854200D2A562BDE8F08140000020A0
:1050F000F40600202DE9F041054600F0C9FD2D4CD5
:10510000A068401CA06020682B4F10B1606930B3CC
:105110002BE02560A068012827D1002606EB860039
:1051200007EB800000F082FD761C382EF6D3234872
:1051300000F07CFD2148143000F078FD1F48283035
:1051400000F074FD1D483C3000F070FD1B485030ED
:1051500000F06CFD194860631430A06305E020681E
:10516000E96AC06A884200D82560606A401C6062B3
:105170006864E86A2169884200D9206100EB8000F8
:1051800007EB8000291D00F077FD00F0A1FD6069AC
:1051900000280CD02068E96AC06A884207D2084912
:1051A0004FF080500860BFF34F8FBFF36F8FBDE8A3
:1051B000F08100004000002044020020A4060020EE
:1051C00004ED00E038B500F063FD104C2068C8B96C
:1051D0000F4800F02BFD0E48143000F027FD0C485E
:1051E000E060143020610A4B0020F03B009003F196
:1051F000500210210A2001F01AF8206010B105A118
:1052000000F0E8FDBDE8384000F062BD7C00002001
:10521000F8070020546D72510000000030B4026C99
:105220000B46002A0BD0C1681144C1608468A142BA
:1052300001D30168C16030BC1846FBF7DFBB30BC4E
:1052400070472DE9F041856B174604460026026C35
:1052500082B1C7B1E068FBF7D1FBE168206C091AA5
:10526000E1602268914202D2A168081AE060022F30
:1052700016D017E02068A8B9A06801F05BFC0646CC
:105280000020A0600EE06068FBF7B8FB216C60684E
:1052900008446060A168884204D32068606001E02F
:1052A00005B16D1E6D1CA5633046BDE8F08110B5DB
:1052B000044690F8590058B101280CD002280FD0AC
:1052C000502080F31188BFF34F8FBFF36F8FFEE73D
:1052D000206B00F011FD2046BDE8104000F00CBD31
:1052E00010BD000010484FF47051420706D0C01D99
:1052F0000D4920F00700411AC1F570510B4A0023F7
:105300000144C2E900030839183A21F0070111608D
:105310004B600B600B1AC0E9001393604FF0004024
:105320005360506170470000D80E0020AC00002090
:10533000144E154CA6F29C474FF08058DFF84C9065
:1053400012E000BF00F0A4FCF068C568281D00F062
:1053500043FCA068401EA0606068401E606000F0D2
:10536000B7FC2846FFF7A3FF60680028EAD1386839
:105370000128F9D9C9F80080BFF34F8FBFF36F8FB1
:10538000F2E70000E00600204000002004ED00E00D
:10539000002807D00021816001600B460A46C160E9
:1053A00000F0BCBF7047000070B51D46049C51B1B1
:1053B000C4F80020C4E90F010121204600F06AFF73
:1053C00084F84C5070BD2460F4E700002DE9F05FD4
:1053D0008846DDE90B941546834691009A460A9E5D
:1053E000A522206BFBF74FFB6FF00301206B01EB55
:1053F0008501084420F00707780707D0502080F384
:105400001188BFF34F8FBFF36F8FFEE70025B8F110
:10541000000F0FD05FF00000221818F8001082F87B
:10542000341018F8001011B1401C1028F4D384F87F
:10543000435001E084F83450382E00D33726E6621A
:10544000C4E91365201D00F0FCFB04F1180000F016
:10545000F8FB2461C6F138006462A061656584F8D8
:10546000585052465946384600F066FA2060B9F165
:10547000000F01D0C9F80040BDE8F09F30B51149D8
:1054800000E011460A688242FBD34B685C188442F4
:1054900003D1406818444860084643681C18944289
:1054A00009D1084C183C2468A24209D052681A4419
:1054B00042600A6812680260814200D0086030BD14
:1054C0000460F9E7AC00002070B5002441600B4D8A
:1054D0000061914206D8D11A8269914206D2011D1B
:1054E000286907E09A4203D2994201D3012403E0DC
:1054F000011DE86800F0A8FB204670BD7C0000207C
:1055000010B5044600F0C4FBA06B28B15FF00004A6
:1055100000F0DEFB204610BD0124F9E730B589B06C
:105520003C4D6EE00498002806DADDE90601059A94
:1055300090470498002864DB069C606910B1201D28
:1055400000F04AFB03A800F0D7F8024604980A28A6
:1055500057D2DFE800F00505052D334A05052D3348
:1055600094F8280040F0010084F828000599A0690B
:10557000059B01442046FFF7A7FF68B3216A204638
:10558000884794F8280040073BD5002000900598F4
:10559000A169002342181946204601F011FCD8B930
:1055A000502080F31188BFF34F8FBFF36F8FFEE75A
:1055B00014F8280F20F00100207022E094F8280051
:1055C00040F0010084F828000598A06128B18118F6
:1055D00013462046FFF778FF13E0502080F3118830
:1055E000BFF34F8FBFF36F8FFEE794F8280081075A
:1055F00003D4204600F080FB03E020F0010084F893
:105600002800002204A9286801F032F8002889D176
:1056100009B030BD7C0000202DE9FC410F46054655
:1056200000F002FD01A800F067F80446019818B1E7
:1056300001F034FBBDE8FC81254EAFB13069006854
:10564000D0B30027291B3A46306800F0D7FB01F0A1
:1056500025FB0028EED11F494FF080500860BFF3B2
:105660004F8FBFF36F8FE5E7A542EBD801F016FB34
:10567000F0682746C068C468201D00F0ADFA94F8B1
:105680002800410719D5A0692B4641193A46204602
:10569000FFF71AFFA8B100200346014600902A46F2
:1056A000204601F08DFB60B9502080F31188BFF3D4
:1056B0004F8FBFF36F8FFEE707E020F0010084F803
:1056C0002800216A20468847B4E70127BAE700008E
:1056D0007C00002004ED00E00648416B096829B118
:1056E000416BC968C9684968816270474FF0FF31F2
:1056F000FAE700004000002070B5054601F0B0F95F
:10570000064E0446B068844203D200F009F8012036
:1057100000E0002028602046B46070BD7C000020BE
:10572000F8B5194D20E0C068C4680668201D00F077
:1057300053FA216A2046884794F82800400713D579
:10574000A0693044B04206D924616060211DE86838
:1057500000F07AFA08E00020034601460090324645
:10576000204601F02DFB38B1E86801680029DAD144
:105770002969C5E90310F8BD502080F31188BFF3F3
:105780004F8FBFF36F8FFEE77C0000200848406812
:10579000401C4FF0500080F3118804D0BFF34F8FAE
:1057A000BFF36F8FFEE7BFF34F8FBFF36F8FFEE73F
:1057B000B4000020074CE068016841B1C0680021D6
:1057C000D0F80000FFF728FFFFF7A8FEF3E701215C
:1057D0000020F7E77C0000202DE9F041044600F0AE
:1057E00057FA94F9455004F1240609E0606A48B17B
:1057F000304601F01BFA08B100F050FB6D1E6DB28F
:10580000002DF3DC4FF0FF3684F8456000F060FABD
:1058100000F03EFA94F9445004F1100709E02069C1
:1058200048B1384601F002FA08B100F037FB6D1EAE
:105830006DB2002DF3DC84F84460BDE8F04100F067
:1058400047BA00002DE9F0410546002700F0ECFBC7
:10585000324E306808B9FFF745FD706905424ED1F8
:10586000C5B3083568070ED005F00700C0F1080081
:105870000544680707D0502080F31188BFF34F8F8D
:10588000BFF36F8FFEE72DB37068854237D823488A
:10589000183001460C6801E020460C466168A942B8
:1058A00002D221680029F7D131688C4227D00768DD
:1058B0002168016060680837411B10290FD9601901
:1058C000420708D0502080F31188BFF34F8FBFF3F9
:1058D0006F8FFEE713E041606560FFF7CFFD616801
:1058E0007068401A7060B268904200D2B06070690F
:1058F00001430020C4E90001F068401CF06001F0A1
:10590000CDF9780707D0502080F31188BFF34F8F6F
:10591000BFF36F8FFEE73846BDE8F08194000020AA
:105920000449086818B10868026D521C02650868CD
:10593000704700004000002010B5031F4FF0807436
:105940001C601B1F21F001011960191F044B0B6023
:1059500014390A60091F6FF0020244380A6010BD52
:105960008D5700080EB5002002900420FAF73EFD86
:10597000244C60600420FAF739FDA0606368A3B38B
:1059800098B3FF2204211846FBF77DF8FF2204217B
:10599000A068FBF778F8616801221B48E160FCF71A
:1059A0009DFF4FF0FF352A4602A9206900F0C6FD91
:1059B0000128F8D12A4602A9206900F059FE29469B
:1059C000E06A00F0F1FE0128EDD10F48FDF718F86C
:1059D00000232A460B49206A00F0A0FC00231A4647
:1059E0001946E06A00F09AFCDDE7FFE707A1B52061
:1059F000CDE900010C4B0DA212A10120FEF7FEFD26
:105A0000FEE7000000000020F40000204D656D6DF1
:105A10006F7279206D616C6C6F636564206661697B
:105A20006C65642E200A0000586F00082E2E2F434C
:105A30006F72652F5372632F6672656572746F7330
:105A40002E6300004E4F5F54414700001FB5FEF724
:105A50005BFBFEF79FFDF7210020FFF77BF8072196
:105A60000120FFF777F807210220FFF773F80721DD
:105A70000320FFF76FF8B7210420FFF76BF8B72179
:105A80000520FFF767F8FFF7CDF821A1E720CDE962
:105A90000001244B24A22AA10320FEF7AFFD2A4CCB
:105AA0004FF0FF352A4603A9206A00F047FD012880
:105AB000F8D12A4603A9206A00F0DAFD207878B1EF
:105AC000626822A1F12012688DE80700154B16A22A
:105AD0001BA10320FEF792FD00202070A0680EE0BD
