:020000040800F2
:10000000000002204D350008710500087305000846
:100010007505000877050008790500080000000054
:100020000000000000000000000000008132000815
:100030007B0500080000000021330008772D000830
:100040009D3500089D3500089D3500089D35000848
:100050009D3500089D3500089D3500089D35000838
:100060009D3500089D3500089D3500089D35000828
:100070009D3500089D3500089D3500089D35000818
:100080009D3500089D3500089D35000800000000E2
:100090000000000000000000000000009D35000886
:1000A0009D3500087D0500089D3500089D35000838
:1000B0009D3500089D3500089D3500089D350008D8
:1000C0009D3500089D3500089D3500089D350008C8
:1000D0009D3500089D3500089D3500080000000092
:1000E0009D3500089D3500089D3500080000000082
:1000F0000000000000000000000000009D35000826
:10010000000000009D3500089D3500089D35000861
:1001100000000000000000000000000000000000DF
:100120009D3500089D3500089D3500089D35000867
:100130009D350008000000000000000000000000E5
:100140000000000000000000000000009D350008D5
:100150009D3500089D3500089D3500089D35000837
:100160009D3500089D3500080000000000000000DB
:10017000000000000000000000000000000000007F
:10018000000000009D350008000000000000000095
:080190009D3500089D350008B3
:1001A00053B94AB9002908BF00281CBF4FF0FF31DE
:1001B0004FF0FF3000F00CB8ADF1080C6DE904CE43
:1001C00003F028FADDF804E0DDE9022304B070470B
:1001D000704700BF0348044B834202D0034B03B176
:1001E0001847704710000020100000200000000099
:1001F0000548064B1B1AD90F01EBA301491002D089
:10020000034B03B118477047100000201000002076
:100210000000000010B5064C237843B9FFF7DAFF61
:10022000044B13B10448AFF300800123237010BDC9
:1002300010000020000000000C39000808B5054B34
:100240001BB105490548AFF30080BDE80840FFF742
:10025000CFBF00BF00000000140000200C390008D0
:1002600008B50268034B9A4200D008BD01F0D0F8EF
:10027000FBE700BF0044014072B6FEE710B594B042
:1002800008AC30220021204603F089F900230393B3
:1002900004930593069307930193204A116C41F050
:1002A00080511164126C02F080520192019A029303
:1002B0001B4B1A6842F440421A601B6803F4404327
:1002C0000293029B052308934FF480330993012383
:1002D0000A9302230E934FF480020F920C22109285
:1002E00060221192129304231393204600F02EFBF8
:1002F00080B90F23039302230493002305934FF443
:10030000805206920793032103A800F06FFD18B9ED
:1003100014B010BDFFF7B0FFFFF7AEFF003802408A
:100320000070004008B501F059F8FFF7A7FF00F092
:1003300009F800F0A5F802F02BFD00F057F802F0E4
:1003400039FDFEE730B589B003AC00220392049278
:100350000592069207920092174B196B41F0040127
:100360001963196B01F00401009100990192196B56
:1003700041F080011963196B01F08001019101992D
:100380000292196B41F0010119631B6B03F0010329
:100390000293029B094D0121284600F0A7FF01238B
:1003A000039304930593032306932146284600F004
:1003B000B9FE09B030BD00BF003802400000024065
:1003C00008B50121034800F097FF4FF4FA7002F0DE
:1003D00067FDF6E70000024008B5012002F060FD6D
:1003E000FBE708B5012002F05BFDFBE708B5154A05
:1003F0000421012002F062FD134B1860134A04210E
:10040000012002F05BFD124B1860124A042101200A
:1004100002F054FD104B1860104A0021104802F001
:10042000E5FC104B1860104A0021104802F0DEFC79
:100430000F4B18600F4A00210F4802F0D7FC0F4BFA
:10044000186008BDBC39000834000020A439000839
:10045000300000208C3900082C0000201C3A0008D5
:10046000C103000840000020F8390008D903000843
:100470003C000020D4390008E303000838000020C5
:1004800000B587B00023019302930393049305936F
:1004900000932248224A026043607F228260FF224A
:1004A000C2604FF4C00202614FF480124261836166
:1004B00001F012F828BB00228DF804208DF80520E9
:1004C0008DF806200492059201A9144801F05EF807
:1004D000D0B901238DF800308DF801308DF802304D
:1004E00000228DF8032069460C4801F0AFF870B97E
:1004F00004220021094801F0F7F858B907B05DF867
:1005000004FBFFF7B9FED6E7FFF7B6FEE1E7FFF71A
:10051000B3FEEDE7FFF7B0FEF0E700BF44000020B8
:100520000028004000B587B0002300930193029398
:1005300003930493059302680B4B9A4202D007B0D1
:100540005DF804FB022300934FF480730493684624
:1005500000F030FD20B9054B0122C3F83C2EEEE738
:10056000FFF78AFEF7E700BF00280040000047427F
:10057000FEE7FEE7FEE7FEE7FEE7704708B5024844
:1005800000F0B0F808BD00BF6400002000B583B0E3
:10059000002200920D4B596C41F480415964596C12
:1005A00001F48041009100990192196C41F0805151
:1005B00019641B6C03F080530193019B0F216FF0B2
:1005C000010000F0F7FE03B05DF804FB00380240C4
:1005D00030B589B00546002401941D4B5A6C42F495
:1005E00000325A645B6C03F400330193019B02A94F
:1005F00003A800F0C1FC00F0AFFC164AA2FB0023E8
:100600009B0C013B1448154A026040F2E732C2607D
:10061000436004618460846100F06AF9044610B1AB
:10062000204609B030BD0C4800F01EF804460028F2
:10063000F6D1192000F0CEFE0F2D01D90124EFE7ED
:1006400000222946192000F0B5FE054B1D60E7E7A2
:100650000038024083DE1B43640000200044014058
:10066000040000207047000090F83D30012B2FD18E
:10067000022380F83D300268D36843F00103D36061
:100680000368154A934218D0B3F1804F15D0A2F5F4
:100690007C42934211D002F5806293420DD002F564
:1006A0008062934209D002F59A32934205D01A68CB
:1006B00042F001021A60002070479A6802F00702B7
:1006C000062A07D01A6842F001021A60002070471B
:1006D00001207047002070470000014070477047BC
:1006E0007047704770B504460368DE681D6915F0F1
:1006F000020F10D016F0020F0DD06FF002021A6137
:100700000123037703689B6913F0030F5ED0FFF7A3
:10071000E6FF0023237715F0040F12D016F0040F24
:100720000FD023686FF004021A6102232377236835
:100730009B6913F4407F4FD02046FFF7D0FF002382
:10074000237715F0080F12D016F0080F0FD023688A
:100750006FF008021A61042323772368DB6913F022
:10076000030F40D02046FFF7BAFF0023237715F090
:10077000100F12D016F0100F0FD023686FF0100278
:100780001A61082323772368DB6913F4407F31D093
:100790002046FFF7A4FF0023237715F0010F02D0B6
:1007A00016F0010F2DD115F0800F02D016F0800F3A
:1007B0002FD115F0400F02D016F0400F31D115F0B7
:1007C000200F02D016F0200F33D170BDFFF786FF47
:1007D0002046FFF785FF9CE72046FFF77FFF204676
:1007E000FFF77EFFABE72046FFF778FF2046FFF7D5
:1007F00077FFBAE72046FFF771FF2046FFF770FF4B
:10080000C9E723686FF001021A612046FFF728FD4F
:10081000C9E723686FF080021A61204600F095F85E
:10082000C7E723686FF040021A612046FFF759FFBF
:10083000C5E723686FF020021A61204600F084F8B3
:10084000C3E700000368294A90420ED0B0F1804F00
:100850000BD0A2F57C42904207D002F58062904214
:1008600003D002F58062904203D123F070034A68FE
:1008700013431E4A90421AD0B0F1804F17D0A2F510
:100880007C42904213D002F5806290420FD002F574
:10089000806290420BD002F59A32904207D002F566
:1008A0008062904203D002F58062904203D123F42B
:1008B0004073CA68134323F080034A6913430360FB
:1008C0008B68C3620B688362084B98420AD001238D
:1008D0004361036913F0010F03D0036923F001039F
:1008E000036170470B690363F1E700BF000001403B
:1008F00040B310B5044690F83D30F3B1022384F8BC
:100900003D30214651F8040BFFF79CFF012384F88A
:10091000463084F83E3084F83F3084F8403084F824
:10092000413084F8423084F8433084F8443084F80D
:10093000453084F83D30002010BD80F83C30FFF792
:1009400091FEDBE70120704770477047002800F0F8
:10095000E08170B582B00446036813F0010F3BD00C
:100960009F4B9B6803F00C03042B2CD09C4B9B6883
:1009700003F00C03082B21D06368B3F5803F4FD000
:10098000B3F5A02F52D0964B1A6822F480321A6029
:100990001A6822F480221A606368002B50D000F09D
:1009A00043FD05468E4B1B6813F4003F14D100F045
:1009B0003BFD401B6428F5D90320B1E1884B5B68FF
:1009C00013F4800FD8D0864B1B6813F4003F03D07C
:1009D0006368002B00F09F81236813F0020F54D04E
:1009E0007F4B9B6813F00C0F3ED07D4B9B6803F050
:1009F0000C03082B33D0E368002B68D0794B01221D
:100A00001A6000F011FD0546754B1B6813F0020FCC
:100A100054D100F009FD401B0228F5D903207FE1E5
:100A20006F4A136843F480331360B5E76C4B1A6860
:100A300042F480221A601A6842F480321A60ABE7EE
:100A400000F0F2FC0546664B1B6813F4003FC3D070
:100A500000F0EAFC401B6428F5D9032060E1604BFC
:100A60005B6813F4800FC6D15D4B1B6813F0020F57
:100A700003D0E368012B40F05081594A136823F0FA
:100A8000F803216943EAC1031360236813F0080FD8
:100A900042D063696BB3534B0122C3F8802E00F040
:100AA000C3FC05464E4B5B6F13F0020F34D100F0D0
:100AB000BBFC401B0228F5D9032031E1484A1368EA
:100AC00023F0F803216943EAC1031360DDE7454BD6
:100AD00000221A6000F0A8FC0546414B1B6813F089
:100AE000020FD2D000F0A0FC401B0228F5D9032051
:100AF00016E13C4B0022C3F8802E00F095FC054621
:100B0000374B5B6F13F0020F06D000F08DFC401BDB
:100B10000228F5D9032003E1236813F0040F77D0EE
:100B20002F4B1B6C13F0805F33D1002301932C4BB0
:100B30001A6C42F080521A641B6C03F080530193CC
:100B4000019B0125284B1B6813F4807F23D0A368E9
:100B5000012B34D0052B38D0214B1A6F22F0010223
:100B60001A671A6F22F004021A67A368002B3DD09F
:100B700000F05AFC06461A4B1B6F13F0020F46D1C9
:100B800000F052FC801B41F288339842F3D90320D5
:100B9000C6E00025D6E7144A136843F48073136057
:100BA00000F042FC0646104B1B6813F4807FCED148
:100BB00000F03AFC801B0228F5D90320B0E0084A77
:100BC000136F43F001031367CFE7054B1A6F42F031
:100BD00004021A671A6F42F001021A67C5E700BFE4
:100BE00000380240000047420070004000F01CFC4A
:100BF0000646524B1B6F13F0020F08D000F014FC96
:100C0000801B41F288339842F3D9032088E0EDB984
:100C1000A369002B00F08380484A926802F00C021E
:100C2000082A51D0022B17D0454B00221A6600F03B
:100C3000FBFB0446414B1B6813F0007F42D000F0E1
:100C4000F3FB001B0228F5D9032069E03B4A136C33
:100C500023F080531364DBE7394B00221A6600F05F
:100C6000E3FB0546354B1B6813F0007F06D000F010
:100C7000DBFB401B0228F5D9032051E0E369226A1F
:100C80001343626A43EA8213A26A5208013A43EAB2
:100C90000243E26A43EA0263284A5360284B012276
:100CA0001A6600F0C1FB0446244B1B6813F0007F5A
:100CB00006D100F0B9FB001B0228F5D903202FE074
:100CC00000202DE000202BE0012B2BD01B4B5B687C
:100CD00003F48001E269914226D103F03F02216AC8
:100CE0008A4223D1616A47F6C0721A40B2EB811F73
:100CF0001ED103F44031A26A5208013AB1EB024F0F
:100D000018D103F07063E26AB3EB026F14D10020D4
:100D100006E001207047012002E0012000E00020F1
:100D200002B070BD0120FBE70120F9E70120F7E7E1
:100D30000120F5E70120F3E70120F1E70038024048
:100D40000000474208B5264B9B6803F00C03042BB8
:100D500041D0082B41D1224B5A6802F03F025B6818
:100D600013F4800F12D01E4B5968C1F388111D482F
:100D70000023A1FB0001FFF713FA194B5B68C3F3D3
:100D8000014301335B00B0FBF3F008BD144B58681E
:100D9000C0F388104FEA401CBCEB000C6EEB0E0E4B
:100DA0004FEA8E1343EA9C634FEA8C11B1EB0C01BE
:100DB00063EB0E03DB0043EA5173C90011EB000C37
:100DC00043F10003990200234FEA8C2041EA9C5131
:100DD000FFF7E6F9D1E70348D7E70348D5E700BFB7
:100DE0000038024040787D010024F400002800F023
:100DF0009B8070B50D4604464F4B1B6803F00703FC
:100E00008B4208D2CBB24C4A1370136803F007032D
:100E10008B4240F08B80236813F0020F17D013F041
:100E2000040F04D0454A936843F4E0539360236869
:100E300013F0080F04D0414A936843F46043936071
:100E40003E4A936823F0F003A1680B439360236844
:100E500013F0010F32D06368012B21D09A1E012AB2
:100E600025D9364A126812F0020F61D033498A68D8
:100E700022F0030213438B6000F0D6FA06462F4B94
:100E80009B6803F00C036268B3EB820F16D000F08E
:100E9000CBFA801B41F288339842F0D9032042E01C
:100EA000264A126812F4003FE0D101203BE0234AB9
:100EB000126812F0007FD9D1012034E01E4B1B686C
:100EC00003F00703AB4207D9EAB21B4B1A701B6849
:100ED00003F00703AB422DD1236813F0040F06D0B3
:100EE000164A936823F4E053E1680B439360236848
:100EF00013F0080F07D0114A936823F46043216967
:100F000043EAC1039360FFF71DFF0C4B9B68C3F3DB
:100F100003130B4AD35CD8400A4B18600A4B18687D
:100F2000FFF756FB002070BD012070470120FAE753
:100F30000120F8E70120F6E7003C024000380240BB
:100F4000483A00080800002004000020014B1868FF
:100F5000704700BF0800002008B5FFF7F7FF044BFB
:100F60009B68C3F34233034AD35CD84008BD00BF3B
:100F700000380240403A00080F2303600B4B9A6888
:100F800002F0030242609A6802F0F00282609A68FE
:100F900002F4E052C2609B68DB0803F4E053036193
:100FA000034B1B6803F007030B60704700380240D7
:100FB000003C024030B583B00446036813F0050FCF
:100FC0000ED1236813F0020F38D1236813F0080FF5
:100FD00000F09D80227D4F4BC3F8E021002097E078
:100FE0004D4B00229A6600F01FFA05464B4B1B68DA
:100FF00013F0006F06D000F017FA431B022BF5D94F
:10100000032085E06368A26843EA8213E26843EA4A
:101010000273424AC2F884303F4B01229A6600F0C4
:1010200003FA05463D4B1B6813F0006FC9D100F071
:10103000FBF9401B0228F5D9032069E00023019346
:10104000364B1A6C42F080521A641B6C03F08053CA
:101050000193019B324A136843F48073136000F0DC
:10106000E3F905462E4B1B6813F4807F06D100F090
:10107000DBF9431B022BF5D9032049E0274B1B6FFB
:1010800013F4407314D0226902F440729A420FD0D4
:10109000224B1A6F22F440721F490120C1F8400E02
:1010A0000020C1F8400E1A671B6F13F0010F12D118
:1010B000236903F44072B2F5407F1DD0174A93684C
:1010C00023F4F813936015490B6F2269C2F30B02E6
:1010D00013430B6779E700F0A7F905460F4B1B6F29
:1010E00013F0020FE4D100F09FF9401B41F2883366
:1010F0009842F3D903200BE008498A6822F4F812D9
:1011000023F0704323F4407313438B60DBE700202C
:1011100003B030BD00104742000047420038024093
:101120000070004000230F2B00F2D78070B582B012
:1011300065E085684FEA430E032404FA0EF425EABD
:101140000405CC6804FA0EF42C438460446824EA55
:1011500002044A68C2F300129A40224342605CE0F3
:10116000DC08083450F8242003F00705AD004FF0E8
:101170000F0E0EFA05FE22EA0E0E0A69AA4042EA96
:101180000E0240F824205CE0042200E0002202FA73
:101190000EF22A430234514D45F82420504A9468F7
:1011A0006FEA0C0224EA0C054E6816F4801F01D089
:1011B0004CEA04054A4CA560E46802EA04054E685E
:1011C00016F4001F01D04CEA0405454CE560646844
:1011D00002EA04054E6816F4003F01D04CEA04050B
:1011E0003F4C6560246822404D6815F4803F01D073
:1011F0004CEA04023A4C226001330F2B6BD80122D7
:101200009A400C6804EA020C32EA0404F4D14C68F7
:1012100004F00304013C012C8BD94A6802F003025C
:10122000032A09D0C4685D000322AA4024EA02040C
:101230008A68AA402243C2604A6802F00302022A76
:101240008ED004684FEA430E032202FA0EF224EA1B
:1012500002044A6802F0030202FA0EF2224302601C
:101260004A6812F4403FC7D0002201921D4A546CD4
:1012700044F480445464526C02F480420192019A16
:101280009C08A51C154A52F8255003F0030E4FEA9E
:101290008E0E0F2202FA0EF225EA0205124A904241
:1012A0003FF474AF02F5806290420ED002F5806286
:1012B00090420CD002F5806290420AD002F5806222
:1012C00090423FF461AF072261E701225FE702220B
:1012D0005DE703225BE702B070BD70470038014054
:1012E000003C014000380240000002400AB1816128
:1012F0007047090481617047436901EA030221EAEA
:10130000030141EA0241816170470000002807DBC8
:1013100000F01F02400901239340024A42F82030A6
:10132000704700BF00E100E0002808DB0901C9B2F6
:1013300000F1604000F5614080F80013704700F054
:101340000F000901C9B2014B1954704714ED00E0B8
:1013500000B500F00700C0F1070CBCF1040F28BF76
:101360004FF0040C031D062B0FD9C31E4FF0FF3E98
:101370000EFA0CF021EA000199400EFA03FE22EA6F
:101380000E0241EA02005DF804FB0023EEE70000D4
:10139000074AD36823F4E0631B041B0C000200F42B
:1013A000E060034343F0BF6343F40033D36070470E
:1013B00000ED00E010B50446054BD868C0F30220EC
:1013C000FFF7C6FF01462046FFF7AEFF10BD00BF86
:1013D00000ED00E008B5FFF799FF08BD08B50B4B1D
:1013E0001A6842F400721A601A6842F480621A6045
:1013F0001A6842F480721A600320FFF7C9FF0F20B9
:10140000FFF7E6F8FFF7C2F8002008BD003C0240F5
:10141000034A1168034B1B780B441360704700BFED
:10142000AC00002000000020014B1868704700BF8E
:10143000AC00002038B5044603680A4ADA60FFF7BA
:10144000F3FF05462368DB6813F0200F07D1FFF791
:10145000EBFF401BB0F57A7FF4D9032000E00020B9
:1014600038BD00BF5F3F010070B50368DA6812F055
:10147000400F02D00025284670BD0446DA6842F0CD
:101480008002DA60FFF7D0FF064600252368DB689C
:1014900013F0400FEFD1002DEDD1FFF7C5FF831BF7
:1014A000B3F57A7FF2D9042363770125EEE702686A
:1014B000D36823F08003D36003689B6813F0200F88
:1014C00001D00020704710B50446FFF7B3FF10B1FC
:1014D00004236377012010BD00284AD010B50446CC
:1014E000437F53B1022363772368DA6812F0100F49
:1014F00007D000200123637710BD0377FFF712F8B0
:10150000F0E7CA225A62236853225A622046FFF744
:10151000ABFF28B12368FF225A620028ECD1E9E72B
:101520002268936823F4E00323F04003936021686A
:101530008A686368206903436069034313438B60CF
:101540002368E2681A6122681369A16843EA0143CB
:1015500013612046FFF7ABFF0028DBD12268136C34
:1015600023F4802313642268136CA1690B43136472
:10157000D0E701207047002302E001330A38C0B2EF
:101580000928FAD81B01DBB218437047037F012BEF
:101590005AD070B504460E460123037702234377E1
:1015A00032BB03689B6813F0400F01D10023CB705E
:1015B0003078FFF7E0FF05047078FFF7DCFF45EABD
:1015C0000025B078FFF7D7FF0543F37845EA835548
:1015D0002368CA225A62236853225A622046FFF7C0
:1015E00043FFB8B12368FF225A620023237770BDFE
:1015F00003689B6813F0400F01D10023CB70337850
:1016000075782D0245EA0345B3781D43F37845EA22
:101610008355DDE7236805F07F3525F0FE451D6025
:101620002268936823F48023936021688B68F268B2
:101630003069024313438B602046FFF738FF0028D0
:10164000D0D101236377CDE702207047037F012BC0
:1016500048D070B504460E46012303770223437732
:10166000CAB1CB784D782D0245EA03458B781D43EE
:101670000B7845EA43352368CA225A62236853220D
:101680005A622046FFF7F0FEF0B12368FF225A624B
:101690000023237770BD4B7813F0100F03D003F0B5
:1016A000EF030A334B70F078FFF765FF050470789D
:1016B000FFF761FF45EA0025B078FFF75CFF0543BF
:1016C000337845EA4335D6E7236825F07F4525F092
:1016D000C0055D602046FFF7EAFE0028D5D1012352
:1016E0006377D2E702207047F8B5037F012B5FD004
:1016F00004460D4616460123037702234377036809
:10170000CA225A62036853225A6203689B6813F420
:10171000806F15D0FFF788FE07462368DB6813F05B
:10172000040F0DD0FFF780FEC01BB0F57A7FF4D90F
:101730002368FF225A62032060770023237736E074
:101740002268936823F4806393602268D368DBB2D5
:1017500063F49063D360FFF767FE07462368DA6897
:1017600012F0040F0DD1FFF75FFEC01BB0F57A7FBA
:10177000F4D92368FF225A6203206077002323777D
:1017800015E09A6822F007029A6022689368334352
:10179000936023685D612268936843F4806393607B
:1017A0002368FF225A620123637700202077F8BD67
:1017B0000220FCE7034AD2F8883043F47003C2F8F1
:1017C0008830704700ED00E000F1080343604FF0FF
:1017D000FF328260C360036100230360704700230F
:1017E0000361704743684B609A688A6051609960F2
:1017F0000861036801330360704730B40D68B5F1C8
:10180000FF3F11D000F108031C465B681A68AA422A
:10181000FAD963684B6099608C6061600861036805
:101820000133036030BC70470469F2E70369416823
:1018300082688A60416851605A68824206D00022FC
:1018400002611A68013A1A601868704782685A6023
:10185000F5E710B5044601F025FDA26BE36B9A4253
:1018600004D0002401F040FD204610BD0124F9E71A
:1018700010B5044601F016FDA36B23B9012401F055
:1018800033FD204610BD0024F9E770B50446154627
:10189000866B026C5AB903681BB100200136A6633F
:1018A00070BD806800F0F6FF0023A360F6E76DB915
:1018B000406801F0A1FE6368226C13446360A26873
:1018C000934219D3236863602846E7E7C06801F0B4
:1018D00093FEE368226C51429B1AE36022689342B4
:1018E00002D2A3680B44E360022D01D00020D5E7AB
:1018F00026B1013E0020D1E72846CFE70020CDE702
:101900000346026C6AB110B50846D9681144D96023
:101910009C68A14201D31968D960D96801F06CFEB6
:1019200010BD704738B5054601F0BCFC95F8454040
:1019300064B201E0013C64B2002C0ADD6B6A43B181
:1019400005F1240000F0FAFE0028F3D000F08CFF2F
:10195000F0E7FF2385F8453001F0C6FC01F0A2FC5A
:1019600095F8444064B201E0013C64B2002C0ADD09
:101970002B6943B105F1100000F0E0FE0028F3D020
:1019800000F072FFF0E7FF2385F8443001F0ACFC73
:1019900038BD38B5E0B10D46044601F083FC23683C
:1019A000E26B216C01FB0230A0600020A063636049
:1019B000013A02FB0133E360FF2384F8443084F8EA
:1019C0004530FDB9236963B901F08EFC012038BDB3
:1019D0004FF0500383F31188BFF36F8FBFF34F8F26
:1019E000FEE704F1100000F0A9FE0028ECD04FF053
:1019F000E0234FF08052C3F8042DBFF34F8FBFF3A5
:101A00006F8FE1E704F11000FFF7DEFE04F1240020
:101A1000FFF7DAFED8E738B51D46049C0B4649B9F6
:101A20002460E063236401212046FFF7B2FF84F8BD
:101A30004C5038BD2260F4E740B94FF0500383F3B7
:101A40001188BFF36F8FBFF34F8FFEE710B584B0DF
:101A50001C46844653B192B189B94FF0500383F3C9
:101A60001188BFF36F8FBFF34F8FFEE74FF0500326
:101A700083F31188BFF36F8FBFF34F8FFEE76AB117
:101A800050230393039B502B13D04FF0500383F349
:101A90001188BFF36F8FBFF34F8FFEE70029EFD0A0
:101AA0004FF0500383F31188BFF36F8FBFF34F8F55
:101AB000FEE7039B012384F8463000949DF818301C
:101AC0006046FFF7A8FF204604B010BD40B94FF0B4
:101AD000500383F31188BFF36F8FBFF34F8FFEE77F
:101AE000F0B583B00D461446064601FB00F05030B9
:101AF00001F0ACFA074650B1002380F84630009060
:101B0000234600F1500229463046FFF784FF38464D
:101B100003B0F0BDF0B585B0019288B10F461D4607
:101B20000446B1B1022D20D1E36B012B1DD04FF043
:101B3000500383F31188BFF36F8FBFF34F8FFEE71E
:101B40004FF0500383F31188BFF36F8FBFF34F8FB4
:101B5000FEE7036C002BE5D04FF0500383F31188B0
:101B6000BFF36F8FBFF34F8FFEE700F083FE064693
:101B700058B9019B002B48D04FF0500383F31188D4
:101B8000BFF36F8FBFF34F8FFEE700263DE02A467D
:101B900039462046FFF779FE636A7BB948B14FF0BA
:101BA000E0234FF08052C3F8042DBFF34F8FBFF3F3
:101BB0006F8F01F099FB012005B0F0BD04F1240006
:101BC00000F0BCFD0028F4D04FF0E0234FF080522D
:101BD000C3F8042DBFF34F8FBFF36F8FE9E701F018
:101BE00083FB0020E8E702A800F0EEFD012619E0E3
:101BF000002384F8443021E0002384F8453023E0BA
:101C00002046FFF78FFE00F077FC01F04BFBA26B44
:101C1000E36B9A42BBD3022DB9D0019B002BDED0DF
:101C2000002EE0D001F060FB00F0CCFB01F03AFBAD
:101C300094F8442052B2B2F1FF3FD9D094F8452035
:101C400052B2B2F1FF3FD7D001F04EFB01A902A87A
:101C500000F0C6FDD8B92046FFF7FBFD0028CFD025
:101C6000019904F1100000F035FD2046FFF75AFEFF
:101C700000F042FC0028C8D14FF0E0234FF0805222
:101C8000C3F8042DBFF34F8FBFF36F8FBDE720461E
:101C9000FFF748FE00F030FC00208DE72DE9F84307
:101CA00090B10F4616461C460546B1B1022C20D114
:101CB000EB6B012B1DD04FF0500383F31188BFF362
:101CC0006F8FBFF34F8FFEE74FF0500383F3118800
:101CD000BFF36F8FBFF34F8FFEE7036C002BE5D090
:101CE0004FF0500383F31188BFF36F8FBFF34F8F13
:101CF000FEE701F0FDFBEFF311884FF0500383F393
:101D00001188BFF36F8FBFF34F8FAA6BEB6B9A42B3
:101D100006D3022C04D0002088F31188BDE8F88394
:101D200095F845904FFA89F9AB6B2246394628461B
:101D3000FFF7ABFDB9F1FF3F06D009F101035BB23C
:101D400085F845300120E7E76B6A0BB90120E3E72E
:101D500005F1240000F0F2FC18B126B1012030603A
:101D6000DAE70120D8E70120D6E7F0B585B0019287
:101D700090B10F460446C1B100F07CFD064600BBA1
:101D8000019B002B5ED04FF0500383F31188BFF30B
:101D90006F8FBFF34F8FFEE74FF0500383F311882F
:101DA000BFF36F8FBFF34F8FFEE7036C002BE3D0C1
:101DB0004FF0500383F31188BFF36F8FBFF34F8F42
:101DC000FEE700263EE039462046FFF799FD013D3B
:101DD000A563236923B901F087FA012005B0F0BD9E
:101DE00004F1100000F0AAFC0028F4D04FF0E0232A
:101DF0004FF08052C3F8042DBFF34F8FBFF36F8FA6
:101E0000E9E701F071FA0020E8E702A800F0DCFC45
:101E1000012621E0002384F8443029E0002384F8DF
:101E200045302BE02046FFF77DFD00F065FB09E023
:101E30002046FFF777FD00F05FFB2046FFF718FD17
:101E400000283FD101F02EFAA56B002DBBD1019BDC
:101E5000002BD6D0002ED8D001F046FA00F0B2FA0E
:101E600001F020FA94F844305BB2B3F1FF3FD1D0D7
:101E700094F845305BB2B3F1FF3FCFD001F034FAB4
:101E800001A902A800F0ACFC0028D1D12046FFF740
:101E9000EFFC0028C6D0019904F1240000F01AFCE0
:101EA0002046FFF73FFD00F027FB0028CAD14FF086
:101EB000E0234FF08052C3F8042DBFF34F8FBFF3E0
:101EC0006F8FBFE7002089E70023072B0CD8074A54
:101ED00052F833200AB10133F7E7044A42F83310CD
:101EE00002EBC30250607047704700BFB000002093
:101EF00070B504460D46164601F0D4F994F8443006
:101F00005BB2B3F1FF3F0DD094F845305BB2B3F153
:101F1000FF3F0BD001F0E8F9A36B5BB12046FFF760
:101F200001FD70BD002384F84430EDE7002384F800
:101F30004530EFE73246294604F1240000F0E2FB89
:101F4000ECE70000084B1B681B6823B9074B4FF0F8
:101F5000FF321A607047044B1B68DB68DB685A6805
:101F6000024B1A60704700BF60010020F80000209B
:101F70002DE9F04780460D4617469946089EDDF844
:101F800024A00A9C9200A521206B01F008FB236B82
:101F900007F18042013A03EB820727F00707A5B358
:101FA0004FF0000CBCF10F0F09D815F80C3004EB02
:101FB0000C0282F8343013B10CF1010CF2E700236B
:101FC00084F84330372E00D93726E662E6640025D0
:101FD0002565201DFFF703FC04F11800FFF7FFFB48
:101FE0002461C6F13806A6616462656584F85850BC
:101FF0004A464146384601F027F92060BAF1000F01
:1020000001D0CAF80040BDE8F087002384F83430DE
:10201000D8E7000038B5002407E004EB8402930001
:102020000E481844FFF7D0FB0134372CF5D90C4D7E
:102030002846FFF7C9FB0B4C2046FFF7C5FB0A48B3
:10204000FFF7C2FB0948FFF7BFFB0948FFF7BCFBDE
:10205000084B1D60084B1C6038BD00BF8C01002080
:102060007801002064010020480100203401002094
:102070001C010020600100205C01002010B5044616
:1020800001F010F9224A136801331360214B1B68D9
:102090005BB1214B1B686BB91E4B1B68DA6AE36AA4
:1020A0009A4207D81B4B1C6004E01A4B1C60136853
:1020B000012B29D0194A1368013313606364E06A65
:1020C000174B1B68984201D9154B186000EB800034
:1020D000211D144B03EB8000FFF784FB01F004F992
:1020E0000D4B1B687BB10B4B1B68DA6AE36A9A42A3
:1020F00009D24FF0E0234FF08052C3F8042DBFF314
:102100004F8FBFF36F8F10BDFFF784FFD2E700BF83
:1021100018010020EC0500200C010020FC0000202C
:10212000100100208C01002010B5044690F85930B1
:1021300063B1012B11D0022B0ED04FF0500383F36B
:102140001188BFF36F8FBFF34F8FFEE7006B00F076
:10215000FFFF204600F0FCFF10BD00F0F9FFFBE799
:102160000F4B1B68D3B110B501F09CF80D4BDB6829
:10217000DC68201DFFF75AFB0B4A1368013B136014
:10218000074A1368013B136001F0AEF82046FFF7E1
:10219000CBFF034B1B68002BE6D110BD704700BF7F
:1021A00030010020340100201801002008B5FFF79D
:1021B000D7FF074B1B68012BF9D94FF0E0234FF0F5
:1021C0008052C3F8042DBFF34F8FBFF36F8FEEE73C
:1021D0008C01002070B504460D46174B1E68174B46
:1021E00018680430FFF722FBB4F1FF3F0DD03444F0
:1021F000124B1B685C60A64210D9114B18680F4B3C
:1022000019680431FFF7F9FA70BD002DEFD00B4BC0
:10221000196804310B48FFF7E5FAF5E70A4B18682F
:10222000064B19680431FFF7E8FA084B1B68A34214
:10223000EAD9064B1C60E7E714010020EC050020FA
:102240005C0100201C01002060010020F80000203B
:1022500030B587B00B9C7CB10C9DB5B15C25049565
:10226000049D5C2D1AD04FF0500383F31188BFF307
:102270006F8FBFF34F8FFEE74FF0500383F311884A
:10228000BFF36F8FBFF34F8FFEE74FF0500383F321
:102290001188BFF36F8FBFF34F8FFEE7049D0C9D36
:1022A0002C63022485F8594000240394029505AC60
:1022B00001940A9C0094FFF75BFE0C98FFF7DEFE8A
:1022C000059807B030BD2DE9F04385B00746884634
:1022D00014461E46900000F0B9FE08B381465C200B
:1022E00000F0B4FE0546A8B1C0F83090002380F895
:1022F0005930039302900D9B01930C9B009333463E
:10230000224641463846FFF733FE2846FFF7B6FE21
:10231000012007E0484600F01BFF4FF0FF3001E0CE
:102320004FF0FF3005B0BDE8F083000010B588B075
:1023300000240594069407AA06A905A800F00AFE41
:10234000059B0293069B019300942346079A174925
:102350001748FFF77DFF174B1860C0B100F04EFB28
:10236000012815D14FF0500383F31188BFF36F8F0D
:10237000BFF34F8F104B4FF0FF321A600F4B01220B
:102380001A600F4B00221A6001F026F803E00020CB
:10239000B0F1FF3F01D008B010BD4FF0500383F300
:1023A0001188BFF36F8FBFF34F8FFEE774390008BA
:1023B000AD210008F4000020F80000200C010020EE
:1023C00014010020024A136801331360704700BFF4
:1023D000F0000020014B1868704700BF1401002076
:1023E000F8B53A4B1B68002B69D1394B1D68013594
:1023F0001D60C5B9374B1B681B6843B14FF05003D4
:1024000083F31188BFF36F8FBFF34F8FFEE7314A1D
:102410001168314B186810601960304A1368013335
:102420001360FFF78FFD2E4B1B68AB423DD9002791
:102430002C4B1B68DB6A03EB83039A002A4B9B58E7
:10244000012B00D90127294B1B68002B3CD0012709
:102450003AE001271F4B1B681B6843B31D4B1B68E9
:10246000DB68DC6863689D4226D3261D3046FFF793
:10247000DDF9A36A1BB104F11800FFF7D7F9E36A8D
:102480001B4A1268934201D9194A136003EB830374
:102490009A00314614481044FFF7A4F9E26A114B40
:1024A0001B68DB6A9A42D4D2D4E70027D2E70C4BF0
:1024B0004FF0FF321A60BBE7094A1360B8E70D4AD4
:1024C00013680133136000273846F8BDF000002080
:1024D00014010020600100205C01002000010020A8
:1024E000F8000020EC0500208C01002004010020F1
:1024F000100100200801002038B5354B1B6843B996
:102500004FF0500383F31188BFF36F8FBFF34F8FEA
:10251000FEE700F0C7FE2E4B1A68013A1A601B68EE
:10252000002B4FD12B4B1B680BB900244BE0002430
:10253000294B1B681BB3284BDB68DC6804F11800CF
:10254000FFF774F9251D2846FFF770F9E06A234B61
:102550001B68984201D9214B186000EB8000294686
:102560001F4B03EB8000FFF73DF9E26A1D4B1B6830
:10257000DB6A9A42DCD31C4B01221A60D8E70CB10B
:10258000FFF7E0FC194B1C6884B9174B1C68D4B1E9
:102590004FF0E0234FF08052C3F8042DBFF34F8F6C
:1025A000BFF36F8F01240EE0013C07D0FFF718FF47
:1025B0000028F9D00C4B01221A60F5E70B4B0022E2
:1025C0001A60E2E7002400F08FFE204638BD00BF0D
:1025D000F000002018010020480100201001002018
:1025E0008C010020EC0500200401002008010020DF
:1025F00010B5A8B10446104B1B6843B14FF050030F
:1026000083F31188BFF36F8FBFF34F8FFEE7FFF7A0
:10261000D9FE00212046FFF7DDFDFFF76DFF48B929
:102620004FF0E0234FF08052C3F8042DBFF34F8FDB
:10263000BFF36F8F10BD00BFF0000020204B1B6860
:102640001BB1204B01221A6070471E4B00221A60FA
:102650001D4B1B6803EB83018A001C498A585AB939
:102660000BB1013BF6E74FF0500383F31188BFF342
:102670006F8FBFF34F8FFEE7084603EB83018A009D
:10268000024451684968516003EB830C4FEA8C02A5
:102690000832024491420BD003EB830291000B4AB3
:1026A0000A445268D1680A4A1160074A13607047A9
:1026B000486862469100054A0A445060ECE700BF52
:1026C000F000002004010020100100208C010020F7
:1026D000EC05002058B110B50C46094A11681831B4
:1026E000FFF78BF801212046FFF774FD10BD4FF076
:1026F000500383F31188BFF36F8FBFF34F8FFEE753
:10270000EC05002038B570B10D4614460A4A116830
:102710001831FFF767F80CB14FF0FF352146284616
:10272000FFF758FD38BD4FF0500383F31188BFF316
:102730006F8FBFF34F8FFEE7EC05002038B5C368FD
:10274000DC6824B304F118052846FFF76FF8184B2E
:102750001B682BBB251D2846FFF768F8E06A154B60
:102760001B68984201D9134B186000EB8000294682
:10277000114B03EB8000FFF735F8E26A0F4B1B6843
:10278000DB6A9A4211D901200D4B186038BD4FF019
:10279000500383F31188BFF36F8FBFF34F8FFEE7B2
:1027A00029460848FFF71EF8E7E70020EEE700BFDC
:1027B000F0000020100100208C010020EC0500201A
:1027C0000401002048010020034B1B680360034BF9
:1027D0001B684360704700BF000100201401002007
:1027E000E0B170B50C46054609B300F05BFD1C4B2B
:1027F00019686B68C81A2268B2F1FF3F28D0DFF869
:1028000064C0DCF800C02E68664501D08B4224D934
:10281000824215D80023236001241AE04FF05003B0
:1028200083F31188BFF36F8FBFF34F8FFEE74FF035
:10283000500383F31188BFF36F8FBFF34F8FFEE711
:102840005B1A134423602846FFF7BEFF002400E014
:10285000002400F049FD204670BD0124F9E700BFC7
:102860001401002000010020014B01221A60704772
:1028700004010020054B1B6833B1054B1B680BB1ED
:102880000020704702207047012070470C01002093
:10289000F000002000283BD038B504461E4B1B68D2
:1028A000834208D04FF0500383F31188BFF36F8F3A
:1028B000BFF34F8FFEE7036D43B94FF0500383F32F
:1028C0001188BFF36F8FBFF34F8FFEE7013B0365A6
:1028D000C16AC26C91421DD00BB1002038BD051DEC
:1028E0002846FEF7A3FFE06CE062C0F13803A36165
:1028F0000A4B1B68984201D9084B186000EB800016
:102900002946074B03EB8000FEF76CFF0120E5E74B
:10291000002070470020E1E7EC05002010010020B6
:102920008C010020064B1A6813682BB90123036041
:1029300023B9D368186870470023F8E70020704770
:10294000F006002008B54160006191420CD8D21A0F
:1029500083699A4201D3012008BD011D094B186803
:10296000FEF74BFF0020F7E79A4201D2994206D2C8
:10297000011D054B1868FEF740FF0020ECE7012021
:10298000EAE700BFEC060020F006002030B583B077
:1029900000F088FC114B1B681BB100F0A5FC03B0D4
:1029A00030BD0F4D2846FEF70FFF0E4C2046FEF7B8
:1029B0000BFF0D4B1D600D4B1C60002300930C4B57
:1029C0000C4A10210A20FFF737F8044B1860002842
:1029D000E3D00949FFF778FADFE700BFE8060020F7
:1029E00008070020F4060020F0060020EC06002076
:1029F000F0050020400600207C39000810B588B0A2
:102A0000FFF7C4FF124B1B68CBB10024059406945A
:102A100007AA06A905A800F0A9FA059B0293069B40
:102A20000193022300932346079A0A490A48FFF7B5
:102A30000FFC0A4B186010B1012008B010BD4FF018
:102A4000500383F31188BFF36F8FBFF34F8FFEE7FF
:102A5000E806002084390008612D0008E406002003
:102A6000B8B19C4603461848006858B300B585B015
:102A700000910192029305291CDCFFF7FBFE02285E
:102A800010D000231A4669460F480068FFF742F845
:102A900015E04FF0500383F31188BFF36F8FBFF33E
:102AA0004F8FFEE70023069A694607480068FFF744
:102AB00031F804E0002362466946FFF7EFF805B0FD
:102AC0005DF804FB00207047E806002070B582B076
:102AD0001B4B1B681A6862B3DB681E68DC68251D27
:102AE0002846FEF7A3FE236A2046984794F828302C
:102AF00013F0040FECD0A36933449E4207D2636005
:102B0000246129460E4B1868FEF777FEE0E70021A6
:102B100000910B4632462046FFF7A2FF0028D7D18E
:102B20004FF0500383F31188BFF36F8FBFF34F8FC4
:102B3000FEE7044A106802490860136002B070BDE5
:102B4000F0060020EC06002038B50546FFF742FCF1
:102B50000446074B1B68834205D800232B60044BB7
:102B60001C60204638BDFFF7B1FF01232B60F6E75C
:102B7000E006002070B582B006460D461749096888
:102B8000C968CC68201DFEF751FE94F828C01CF0DF
:102B9000040F08D12CF0010C84F828C0236A2046C9
:102BA000984702B070BDA16933462A463144204699
:102BB000FFF7C8FE0028F1D0002100910B463246F5
:102BC0002046FFF74DFF0028E8D14FF0500383F374
:102BD0001188BFF36F8FBFF34F8FFEE7F006002021
:102BE00070B582B006460C46FFF7ECFB01A8FFF774
:102BF000ABFF019B33BB0546E4B9B04213D222467A
:102C0000711B124B1868FFF773F9FFF775FCD8B901
:102C10004FF0E0234FF08052C3F8042DBFF34F8FE5
:102C2000BFF36F8F10E0FFF767FC29463046FFF7D0
:102C3000A1FF09E0064A126812680AB90124DEE71A
:102C40001C46DCE7FFF758FC02B070BDE806002028
:102C5000EC06002010B588B002E0049B002B0FDAD0
:102C6000002204A93D4B1868FFF77FF8002872D0B6
:102C7000049B002BF1DA07990698059B9847ECE72F
:102C8000069C636913B1201DFEF7D0FD03A8FFF772
:102C90005BFF0246049B092BE2D8DFE803F0050541
:102CA000052F364E05052F3694F8283043F00103E2
:102CB00084F82830059BA16919442046FFF742FE9D
:102CC0000028CDD0236A2046984794F8283013F086
:102CD000040FC5D0A269002100910B46059802445B
:102CE0002046FFF7BDFE0028BAD14FF0500383F312
:102CF0001188BFF36F8FBFF34F8FFEE794F8283032
:102D000023F0010384F82830AAE794F8283043F030
:102D1000010384F828300599A16129B103460144D3
:102D20002046FFF70FFE9BE74FF0500383F3118817
:102D3000BFF36F8FBFF34F8FFEE794F8283013F087
:102D4000020F04D023F0010384F8283088E72046DE
:102D500000F0FEF984E708B010BD00BFE8060020CF
:102D600000B583B001A8FFF7DDFD0199FFF738FF3B
:102D7000FFF770FFF6E708B54FF0E0231B69FFF798
:102D800079FD012800D108BD00F0FCFAFBE7000046
:102D9000EFF305832BB9064B186828B901221A6096
:102DA00070476FF0050070474FF0FF30704700BF6D
:102DB000D40D0020EFF3058373B90A4B1B68012B78
:102DC0000DD110B50024084BDC77064B02221A60A7
:102DD000FFF7ACFA204610BD6FF0050070474FF0CA
:102DE000FF307047D40D002000ED00E0F0B587B053
:102DF00000240594EFF3058404BBF8B1002A34D015
:102E0000156893692BB11E46013B372B02D9002070
:102E100015E01826536813F0010F3FD1546984B1AF
:102E20004FEA940C93682BB1D7685B2F02D91769CE
:102E300007B184B943B14FF0FF330BB3059807B026
:102E4000F0BD4FF0800CEDE7D368A3B91369ABB1C7
:102E50004FF0FF33F1E70293019700960B4662466D
:102E60002946FFF7F5F90590E8E7154600231826EF
:102E70004FF0800CE1E74FF0FF33DEE70023DCE7A3
:102E800005AB019300960B461FFA8CF22946FFF71B
:102E90001AFA0128D2D000230593CFE70020CEE70D
:102EA00008B5EFF3058333B908B9002008BDFFF773
:102EB0009FFB0020FAE76FF00500F7E770B582B0DE
:102EC000EFF30583002B3AD1144600283BD00029AC
:102ED0003BD06AB393684BB1D2684F2A06D92269B6
:102EE00022B101FB00F56669AE421BD273B14FF00F
:102EF000FF3363BB0022FEF7E9FD054605B304B1CD
:102F0000246821462846FEF7DFFF19E0E3688BB905
:102F1000236913B14FF0FF33EBE763696BB14FF0F7
:102F2000FF33E6E700250095FEF786FD0546E5E759
:102F30000023DEE74FF0FF33DBE70023D9E700256E
:102F4000284602B070BD0025FAE70025F8E7002505
:102F5000F6E70000034B0360034B0B608023136014
:102F6000704700BF780D0020780B0020034B0360F2
:102F7000034B0B604FF48073136070471C0B0020F1
:102F80001C070020124A12F0070F1ED0D11D21F09D
:102F90000701C1F5705313440A460E480260002130
:102FA00041601344083B23F007030B48036059605A
:102FB0001960991A51601360084B1960084B196029
:102FC000084B4FF000421A6070474FF47053E4E72B
:102FD000F80D0020F00D0020EC0D0020E40D002085
:102FE000E80D0020D80D0020164B1A461B688342BE
:102FF000FBD3516802EB010C844509D0416800EB1A
:10300000010C634509D00360904219D010607047ED
:103010004068014451601046F0E710B40A4C24683F
:10302000A3420BD05B681944416013681B680360BE
:10303000904200D010605DF8044B70470460F7E7E1
:10304000704700BFF00D0020EC0D002038B504469D
:10305000FFF7B8F9384B1B68B3B1384B1B681C42FB
:1030600050D1002C50D004F1080214F0070F02D008
:1030700022F007020832002A55D0314B1B689342D8
:1030800053D330490C6804E0FFF77CFFE5E72146A5
:103090001C466368934202D22368002BF7D1264B6B
:1030A0001B68A34243D00D68083523680B60636832
:1030B0009B1A102B10D9A01810F0070F08D04FF052
:1030C000500383F31188BFF36F8FBFF34F8FFEE779
:1030D00043606260FFF788FF626819490B689B1ABA
:1030E0000B60194909688B4201D217490B60134BD9
:1030F0001B681343636000232360144A1368013381
:10310000136002E0002500E00025FFF7F5F915F057
:10311000070F0ED04FF0500383F31188BFF36F8F6A
:10312000BFF34F8FFEE70025EFE70025EDE7002511
:10313000EBE7284638BD00BFEC0D0020D80D00207D
:10314000E80D0020F00D0020E40D0020E00D00202F
:10315000002834D038B50446A0F1080550F8043CE6
:10316000174A1268134208D14FF0500383F31188B5
:10317000BFF36F8FBFF34F8FFEE750F8081C41B1CC
:103180004FF0500383F31188BFF36F8FBFF34F8F5E
:10319000FEE723EA020340F8043CFFF713F954F872
:1031A000041C084A13680B4413602846FFF71CFFF1
:1031B000054A136801331360FFF79EF938BD704765
:1031C000D80D0020E80D0020DC0D002082B0002387
:1031D00001930D4B1B68B3F1FF3F08D04FF0500334
:1031E00083F31188BFF36F8FBFF34F8FFEE74FF06C
:1031F000500383F31188BFF36F8FBFF34F8F019B91
:10320000002BFCD002B070470C000020084800687A
:10321000006880F308884FF0000080F3148862B6DD
:1032200061B6BFF34F8FBFF36F8F00DF00BF0000A9
:1032300008ED00E0DFF80C00016841F47001016066
:103240007047000088ED00E04FF0807340F8043CC8
:1032500021F0010140F8081C054B40F80C3C40F8F7
:10326000202C6FF0020340F8243C4438704700BF24
:10327000CD31000800000000000000000000000048
:10328000074B19680868B0E8F04F80F30988BFF36E
:103290006F8F4FF0000080F311887047AFF300800C
:1032A000EC0500204FF0500383F31188BFF36F8FBC
:1032B000BFF34F8F0B4A136801331360012B00D00B
:1032C00070474FF0E023D3F8043D13F0FF0FF7D021
:1032D0004FF0500383F31188BFF36F8FBFF34F8F0D
:1032E000FEE700BF0C000020094B1B6843B94FF0FC
:1032F000500383F31188BFF36F8FBFF34F8FFEE747
:10330000013B034A13600BB983F31188704700BF78
:103310000C00002000000000000000000000000081
:10332000EFF30980BFF36F8F154B1A681EF0100F73
:1033300008BF20ED108A20E9F04F10602DE9090048
:103340004FF0500080F31188BFF34F8FBFF36F8FA2
:10335000FFF774F94FF0000080F3118809BC196879
:103360000868B0E8F04F1EF0100F08BFB0EC108AEC
:1033700080F30988BFF36F8F704700BFAFF3008001
:10338000EC05002008B54FF0500383F31188BFF31C
:103390006F8FBFF34F8FFFF723F828B14FF0E02373
:1033A0004FF08052C3F8042D002383F3118808BD29
:1033B0004FF0E022002313619361054B1B68054920
:1033C000A1FB03139B09013B536107231361704762
:1033D00008000020D34D62104FF0E023D3F8002DF9
:1033E0003D4B9A421CD04FF0E023D3F8002D3B4BCD
:1033F0009A421ED030B583B0394B1A78D2B20192BE
:10340000FF221A701B78DBB28DF803309DF8033071
:1034100003F05003334A1370334B07221A601BE04A
:103420004FF0500383F31188BFF36F8FBFF34F8FBB
:10343000FEE74FF0500383F31188BFF36F8FBFF3A4
:103440004F8FFEE7284A1368013B13609DF8033055
:103450005B00DBB28DF803309DF8033013F0800F72
:10346000F0D1214B1B68032B08D04FF0500383F39E
:103470001188BFF36F8FBFF34F8FFEE71B021A4A0D
:10348000136003F4E0631360019BDBB2144A137012
:103490004FF0E024D4F8203D43F47003C4F8203DFD
:1034A000D4F8203D43F07043C4F8203DFFF780FF7F
:1034B00000250E4B1D60FFF7BDFED4F8343F43F0EE
:1034C0004043C4F8343FFFF7A1FEFFF7B7F8FFF71A
:1034D0007DFE284603B030BD71C20F4170C20F415E
:1034E00000E400E0FC490020F84900200C00002026
:1034F000EFF305830F2B0ED9114A9A5C114B1B7801
:103500009A4208D24FF0500383F31188BFF36F8FB4
:10351000BFF34F8FFEE74FF0E023D3F80C3D03F4E9
:10352000E063094A1268934208D94FF0500383F3CD
:103530001188BFF36F8FBFF34F8FFEE7704700BF57
:10354000F0E300E0FC490020F8490020DFF834D027
:10355000FEF730F90C480D490D4A002302E0D4581B
:10356000C4500433C4188C42F9D30A4A0A4C0023CD
:1035700001E013600432A242FBD300F019F8FCF71B
:10358000D1FE704700000220000000201000002043
:10359000683A000810000020004A0020FEE70244BC
:1035A0000346934200D1704703F8011BF9E700007E
:1035B00070B50D4B0D4D5B1B9C100026A64209D12A
:1035C00000F0A4F90A4D0B4B5B1B9C100026A64291
:1035D00005D170BD55F8043B98470136EEE755F824
:1035E000043B98470136F2E7603A0008603A000869
:1035F000603A0008643A00080A44914200F1FF333F
:1036000000D1704710B511F8014B03F8014F9142FA
:10361000F9D110BD2DE9F047089D0F4604468C46B0
:10362000002B48D18A42164661D9B2FA82F34BB1D7
:10363000C3F1200201FA03FC20FA02F29E4042EAA2
:103640000C0C9C404FEA164EB7B2BCFBFEF1220CAC
:103650000EFB11CC42EA0C4201FB07F0904209D963
:10366000B21801F1FF3C80F0EE80904240F2EB8016
:1036700002393244121AA4B2B2FBFEF00EFB102241
:1036800044EA024400FB07F7A74209D9341900F1C4
:10369000FF3280F0DA80A74240F2D780344402380B
:1036A00040EA0140E41B00211DB1DC400023C5E9D4
:1036B0000043BDE8F0878B4206D90DB1C5E9000192
:1036C00000210846BDE8F087B3FA83F1002948D10C
:1036D000BB4202D3824200F20781841A67EB0302E5
:1036E00001209446002DE4D0C5E9004CE1E7002A12
:1036F00000F09280B2FA82F3002B40F0A8808A1A80
:103700004FEA164E1FFA86FC0121200CB2FBFEF791
:103710000EFB172240EA02420CFB07F0904207D949
:10372000B21807F1FF3802D2904200F2E280474619
:10373000121AA4B2B2FBFEF00EFB102244EA0244BD
:103740000CFB00FCA44507D9341900F1FF3202D26A
:10375000A44500F2CB801046A4EB0C0440EA0740DD
:10376000A2E7C1F120068B4022FA06FC4CEA030CCA
:1037700007FA01F420FA06F3F7404FEA1C49234305
:1037800000FA01F81FFA8CFEB7FBF9F01C0C09FBDC
:10379000107744EA074400FB0EF7A74202FA01F251
:1037A0000AD91CEB040400F1FF3A80F09B80A74289
:1037B00040F2988002386444E41B9FB2B4FBF9F3F2
:1037C00009FB134447EA044403FB0EFEA64509D94E
:1037D0001CEB040403F1FF3780F08280A6457FD9FB
:1037E000023B644443EA0040A4EB0E04A0FB02E762
:1037F000BC427346B94663D360D05DB1B8EB0302F7
:1038000064EB090404FA06F622FA01F31E43CC40E5
:10381000C5E9006400214CE76208480842EAC1712A
:103820000B0C43EA00438AB242EA0342B3FBF6F1CF
:10383000E407B4463746B6461F23B0FBF6F0D21B6A
:1038400041EA004161E7614614E7104628E7C3F109
:10385000200120FA01F29E4027FA01F19F403A43ED
:103860004FEA164E1FFA86FCB1FBFEF70EFB17104F
:10387000110C41EA004107FB0CF8884504FA03F4F7
:103880003AD9711807F1FF3001D288451FD8A1EB52
:103890000801B1FBFEF808FB0CF70EFB181192B201
:1038A00042EA0142BA422FD2B21808F1FF31C6D221
:1038B000BA42C4D2A8F102013244C0E7F0459CD21A
:1038C000BEEB020367EB0C070138B94695E7A6EBA0
:1038D00008084144B81EB1FBFEF808FB0CF7DCE712
:1038E0003B467FE7504667E70846FBE6344402382C
:1038F00032E7023F32441BE7A1EB08013846B1FB37
:10390000FEF808FB0CF7C8E7414698E7F8B500BF9A
:10391000F8BC08BC9E467047F8B500BFF8BC08BCB0
:043920009E46704708
:103924006D5F6F75747075745F746F5F696E7075B9
:10393400740000006D5F6C6F675F746F5F6F757408
:10394400707574006D5F696E7075745F746F5F6C11
:103954006F670000745F6F75747075740000000009
:10396400745F6C6F67000000745F696E707574003B
:1039740049444C4500000000546D725100000000A1
:10398400546D72205376630024390008000000004F
:103994000000000000000000000000000000000023
:1039A400383900080000000000000000000000009A
:1039B400000000000000000048390008000000007A
:1039C40000000000000000000000000000000000F3
:1039D400583900080000000000000000000000004A
:1039E40000000000000200001800000000000000B9
:1039F400000000006439000800000000000000001E
:103A04000000000000000000000200001800000098
:103A140000000000000000006C39000800000000F5
:103A24000000000000000000000000000002000090
:103A34002000000000000000000000000000000062
:103A4400010203040000000000000000010203045E
:043A54000607080950
:083A5800BCFBFF7F0100000030
:043A60003D0200081B
:043A6400150200083F
:103A680001000000100000000024F400AAAAAAAA7D
:040000050800354D6D
:00000001FF
