:020000040800F2
:10000000A0150020D5020008A32000089F200008AA
:10001000A12000089F1E0008612C000800000000BD
:10002000000000000000000000000000712800082F
:10003000A11E000800000000B12000080D2A0008E1
:10004000EF020008EF020008EF020008EF020008CC
:10005000EF020008EF020008EF020008EF020008BC
:10006000EF020008EF020008EF020008EF020008AC
:10007000EF020008EF020008EF020008EF0200089C
:10008000EF020008EF020008EF020008EF0200088C
:10009000EF020008EF020008EF020008EF0200087C
:1000A000EF020008EF020008EF020008EF0200086C
:1000B000EF020008EF020008EF020008EF0200085C
:1000C000EF020008EF020008EF020008EF0200084C
:1000D000EF020008EF020008EF020008EF0200083C
:1000E000EF020008EF020008EF020008EF0200082C
:1000F000EF020008EF020008EF020008EF0200081C
:10010000EF020008EF020008EF020008EF0200080B
:10011000EF020008EF020008EF020008EF020008FB
:10012000EF020008EF020008EF020008EF020008EB
:10013000EF020008EF020008EF020008EF020008DB
:10014000EF020008EF020008EF020008EF020008CB
:10015000EF020008EF020008EF020008EF020008BB
:10016000EF020008EF020008EF020008EF020008AB
:10017000EF020008EF020008EF020008EF0200089B
:10018000EF020008EF02000800F002F800F092F819
:100190000AA090E8000C82448344AAF10107DA45E2
:1001A00001D100F087F8AFF2090EBAE80F0013F0A2
:1001B000010F18BFFB1A43F0010318471440000059
:1001C00034400000103A24BF78C878C1FAD85207EA
:1001D00024BF30C830C144BF04680C6070470000C1
:1001E0000023002400250026103A28BF78C1FBD840
:1001F000520728BF30C148BF0B6070476E2900F01E
:10020000EF83702900F09D81662903F076866529C9
:1002100003F07386672903F07086612903F06F8607
:1002200003681B0A28BF41F08001692900F00E8194
:10023000642900F00B81752900F008816F2900F016
:10024000DC84782900F06981E92900F07784E429C9
:1002500000F07484F52900F07184EF2900F0D9844E
:10026000F82900F068810368DB0928BF41F08001AC
:10027000632900F0F883732900F0FD83E32901F07E
:10028000E180F32901F0E680002070471FB503F0FC
:100290002FFE01F031F904000020002103F012FECE
:1002A000401C60600020002103F0F6FDE0601FBDEF
:1002B00010B510BD01F0F2F81146FFF7E7FF03F0AB
:1002C00053FD01F0CFF903B4FFF7F2FF03BC01F0D7
:1002D00017FA00000948804709480047FEE7FEE793
:1002E000FEE7FEE7FEE7FEE7FEE7FEE7FEE7FEE7E6
:1002F00004480549054A064B70470000852A000856
:1003000089010008A00F0020A0150020A0110020E6
:10031000A01100207CB51D4616460C00009001D0AF
:100320002044401E074B7B442A46694601903046D4
:1003300000F06FFB05461CB10020694600F07CFB15
:1003400028467CBD190700000FB41CB5084B06AA4F
:100350007B4469460090059800F05BFB0446002052
:10036000694600F069FB20461CBC5DF814FB0000E8
:10037000E50600000FB47CB50C0009AA009001D07E
:100380002044401E084B7B4469460190089800F0C9
:1003900040FB05461CB10020694600F04DFB284695
:1003A0007CBC5DF814FB0000B906000070B5044683
:1003B00085690068C10601D5302600E02026C00707
:1003C00007D070BDD4E9012130469047206A401C17
:1003D00020626D1EF6D570BD70B504468569007843
:1003E000C00707D170BDD4E9012120209047206AC1
:1003F000401C20626D1EF6D570BD70B50C460546DA
:10040000012A05D02878800600D5EA69002302E099
:10041000012305E05B1C934202D2E05C0028F9D185
:10042000A869E618C01AA861286A184428622846F4
:10043000FFF7BCFF04E0D5E9012114F8010B904758
:10044000B442F8D32846FFF7C7FF70BD2DE9F0414D
:100450000646002410687529314616A510D000F014
:1004600054FA002802DA404213A507E031688A07EF
:1004700001D512A502E0490704D511A5012401E028
:1004800000F04CFA00210A2206F1240709E0B0FB33
:10049000F2FCB0FBF2F302FB1C003030785418463B
:1004A000491C0028F3D123462A463046BDE8F041D6
:1004B00000F03DBA000000002D0000002B000000FD
:1004C00020000000F0B40D460188090502D5214C3A
:1004D0007C4402E01F4C7C440E34002100F12406D1
:1004E00008E002F00F071209E75D42EA03721B09F8
:1004F0007754491C52EA0307F3D10278002312070C
:1005000004D5702D06D009B1022311342246F0BC67
:1005100000F00DBA01231034F8E770B504460D461B
:100520002146106800F0FAF9024629462046BDE847
:1005300070400023C6E7D21D22F00703D3E9002351
:10054000C0E70368126843F0200303600823C36117
:100550000023B7E7B53B00002DE9F05F894604466C
:100560004FF0000ADFF874B1FB44C0F820A0204629
:10057000E1688847002874D0252806D0D4E90121F5
:100580009047206A401C2062F1E700265F46204623
:10059000E16888472028054607DB312D05D2781908
:1005A00010F8200C08B10643F1E7B00701D526F09A
:1005B0000406C4F81CA00027C4F818A02A2D09D0EE
:1005C000284602F0D8FD38B304EB8708303DC8F860
:1005D000185019E059F8041B204604EB870291617A
:1005E000E1688847012F054618D1E069002820DA24
:1005F00026F020061DE0D8F8180000EB800005EB7F
:1006000040003038C8F818002046E16888470546A1
:1006100002F0B1FD0028EED1012F0AD02E2D08D115
:100620002046E16888477F1C0546022F46F02006D9
:10063000C4DBA069002803DA404246F00106A0614D
:10064000F00701D026F010066C2D0BD0682D09D0D4
:100650004C2D39D06A2D35D0742D35D07A2D33D02C
:1006600016E038E0E1682F4620468847B842054644
:1006700009D16C2F26D04FF48060E16806432046F4
:100680008847054604E06C2F1AD04FF4807006436B
:100690000DB3A5F14100192802D8203546F40066B3
:1006A0004A462946204626604E46FFF7A7FD80B100
:1006B00001280BD0F61D26F0070000F1080956E7C7
:1006C0004020E4E78020D8E70020D6E706F10409BF
:1006D0004DE7284652E7206ABDE8F09F453B000001
:1006E00030B505460B462A4613F8014B12F8010BAC
:1006F00008B1A042F8D01CB1002802D06D1CF1E76F
:10070000284630BD10B5431C02E010F8011B71B142
:100710008107FAD14FF0013202C88C1A8C4314EAD7
:10072000C211F9D0C01A0A0603D0C01E10BDC01AEB
:1007300010BD0A0401D0801E10BD0902FCD0401E6D
:1007400010BD40EA010370B59B072ED14FF0013672
:10075000042A2AD308C810C99D1B9D43121F15EAFD
:10076000C61517D0D8B2E1B2401A50EA056110D1CF
:1007700098B2A1B2401A50EA05410AD123F07F4055
:1007800024F07F41401A50EA052102D1180EA0EB57
:10079000146070BDA342DBD018BA21BA884201D9D7
:1007A000012070BD4FF0FF3070BD0AB9002070BD50
:1007B00010F8013B11F8014B63B1A3420AD1521E5C
:1007C00008D010F8013B11F8014B1BB1A34201D135
:1007D000521EEDD1181B70BD032A40F2308010F07C
:1007E000030C00F0158011F8013BBCF1020F6244CC
:1007F00098BF11F801CB00F8013B38BF11F8013B5D
:10080000A2F1040298BF00F801CB38BF00F8013B09
:1008100011F0030300F00882083AC0F0088051F894
:10082000043B083A51F804CBA0E80810F5E7121D84
:100830005CBF51F8043B40F8043BAFF30080D207A3
:1008400024BF11F8013B11F801CB48BF11F8012B6F
:1008500024BF00F8013B00F801CB48BF00F8012B92
:10086000704702F0FF0343EA032242EA024200F02B
:1008700002B84FF000020429C0F0128010F0030CFF
:1008800000F01B80CCF1040CBCF1020F18BF00F883
:10089000012BA8BF20F8022BA1EB0C0100F00DB832
:1008A0005FEAC17C24BF00F8012B00F8012B48BF90
:1008B00000F8012B70474FF0000200B51346944634
:1008C0009646203922BFA0E80C50A0E80C50B1F1A8
:1008D0002001BFF4F7AF090728BFA0E80C5048BFBC
:1008E0000CC05DF804EB890028BF40F8042B08BF5A
:1008F000704748BF20F8022B11F0804F18BF00F856
:10090000012B704770477047704709684A0501D549
:1009100040B27047C905FCD500B2704709684A0566
:1009200001D5C0B27047C905FCD580B270472DE92A
:10093000F0470D4699469246044600F124080168A6
:10094000880604D5E06921F01001216000E0012053
:10095000A84201DD471B00E00027A1697A1902EBDC
:100960000900081AA0612078C00602D42046FFF7CB
:100970001DFD002608E0D4E901211AF80600904781
:10098000206A401C761C20624E45F4DB2078C006AD
:100990000AD52046FFF70AFD06E0D4E90121302000
:1009A0009047206A401C2062381EA7F10107F4DC42
:1009B00007E0D4E9012118F805009047206A401C9F
:1009C0002062281EA5F10105F3DC2046FFF704FD97
:1009D0002078000602D50220BDE8F0870120FBE761
:1009E00011680268006A530501D508700AE0D30552
:1009F00001D5088006E0130603D5C217C1E900023D
:100A000000E008600120704701694A1C0261087813
:100A1000704700B58FB0CDE901310021059105493E
:100A20007944CDE9031011466846FFF795FD0FB0F4
:100A300000BD0000E5FFFFFF0A6802F8010B0A6035
:100A40007047D1E900239A4202D2531C0B60107008
:100A5000704710B5436913B1AFF3008001E0FFF7B1
:100A6000CCFC012010BD127800F124010A70002294
:100A70004A700122EDE711684FF0FF32E9E700000C
:100A80002DE9FF5F15468A460446DFF8AC80F8443E
:100A90000027D8E900103E46CDE9001010E03AF8F2
:100AA00016106A4602A800F0D9FC411C07D0217834
:100AB000890603D5E269391891420DD80744761C9E
:100AC0002078800602D5E069B84205DDAE42E6DB5B
:100AD0003AF816000028E2D1A069C01BA0612046A8
:100AE000FFF764FCD8E90010CDE90010002017E002
:100AF0003AF818106A4602A800F0B0FCB0F1FF3FC7
:100B000081460BD000250DF1080B05E0D4E9012149
:100B10001BF8050090476D1C4D45F7D308F1010007
:100B2000B0428046E4DB206A384420622046FFF76A
:100B300053FCBDE8FF9F0000323600002DE9F04174
:100B40008046D21D22F007020025D2E90002F529D5
:100B500015A614D0011E72F1000106DA0023D0EBB5
:100B6000030063EB020211A608E0D8F800108B071F
:100B700001D50FA602E0490701D50EA601251146B1
:100B8000002408F1240704E000F080F830323A55E0
:100B9000641C50EA0102F7D12B46324621464046FA
:100BA000BDE8F041FFF7C3BE000000002D000000CB
:100BB0002B0000002000000030B4002100F12404CC
:100BC00008E002F00705D208303542EA4372DB083C
:100BD0006554491C52EA0305F3D10468002310A2AE
:100BE000250707D5A40600D421B1C46901230DA2AD
:100BF000641EC46130BCFFF79ABE10B5044621469E
:100C00001068FFF78BFE02462046BDE81040002327
:100C1000D2E7D21D22F00701D1E90023CCE7000082
:100C2000000000003000000010B5203AC0F00B803A
:100C3000B1E81850203AA0E81850B1E81850A0E8E0
:100C40001850BFF4F5AF5FEA027C24BFB1E818503A
:100C5000A0E8185044BF18C918C0BDE810405FEAAA
:100C6000827C24BF51F8043B40F8043B08BF704726
:100C7000D20728BF31F8023B48BF11F8012B28BF2B
:100C800020F8023B48BF00F8012B704730B5B0F1A7
:100C90000A024FEA900E71F100034EEA817EB0EB3A
:100CA0000E0061EB91014FEA101E4EEA017E10EB3F
:100CB0000E0041EB11114FEA102E4EEA016E10EBBF
:100CC0000E0041EB11214FEA104E4EEA014E10EB9F
:100CD0000E0041EB1141401841F100014FEAD000F4
:100CE00040EA41704FEAD10110EB80054FEA8104E0
:100CF00044EA907444EB01046D1944EB0404521B64
:100D0000A3414FF0000348BF0A3200D530BD401C5C
:100D100041F1000130BD70472DE9FF4F0C461E46E2
:100D20004FF0FF378BB0D2E90001DDF860800A9008
:100D30008A46C1F30A5505B93D46002108464FF0E1
:100D40000000BAF1000F00F4400005DA00EB80006B
:100D50004FF4400101EA50004FEA9059B9F1010FF8
:100D600000DDB9460A9850EA4A000ED044F6105009
:100D7000A5F2FF3545432F14B8F1000F1ED0754280
:100D8000291E1EDDC9F100021CE0B8F1010F4FF071
:100D9000000001D0302103E0F24305E02154401C63
:100DA000B042FBDB30460022002121540B99C1F8F0
:100DB0000880C1E900200FB0BDE8F08FBD1B6D1C9D
:100DC000DEE74A4600DA694206A800F0D9FB06AB26
:100DD00093E8070003AB83E8070050460A9900F048
:100DE00096FC8DE80700A0F500501F38009003988E
:100DF000002D0ADD42F21F014A460844002303A9E0
:100E00000390684600F0FFFE09E0A0F500504A4656
:100E10001F38002303A90390684600F009FF8DE8FE
:100E200007000004000C03D04FF0FF30410800E041
:100E30001046B8F1000F03D00022009215461EE0C4
:100E4000751E05D4FFF722FF303262556D1EF9D5AD
:100E5000B3460122084302D000227F1C04E0207820
:100E6000302801D100227F1E002A099784D01DE07E
:100E7000112D07DAFFF70AFF303262556D1C50EA78
:100E80000102F5D1084302D00098C8B10EE000215C
:100E9000681E05E0235C625C63542254401E491CBA
:100EA0008142F7DBAB46A81B401E0990002004F8E6
:100EB0000B000B98099AC0F80880C0E9002B7AE76C
:100EC00011264FF0000857E72DE9F04F88460446F9
:100ED000D21D22F0070191B0D1E90001CDE90A014C
:100EE00002F031F902460B98C00F01D02D2007E027
:100EF0002068810701D52B2002E0202101EAC000F3
:100F0000032A099001D0072A05DB03464146204603
:100F100000F0F6FA0BE12078800601D5E06900E0E8
:100F20000620B8F1650F814606D0B8F1660F18D0DB
:100F3000B8F1670F70D131E00020B9F1110F0090C6
:100F400001DB112301E009F101030AAA01A90CA8A0
:100F5000FFF7E2FEDDE90C70002609F1010583468A
:100F600047E001204B4600904FF000470AAA01A934
:100F70000CA8FFF7D1FEDDE90DB00C995D46002607
:100F800010B909F101000D18B9EB050003D4C0F147
:100F9000FF3609F10105A5EB09002BE0B9F1010FBE
:100FA00001DA4FF001090020B9F1110F0090484615
:100FB00001DD112300E003460AAA01A90CA8FFF7EE
:100FC000ABFEDDE90C704D46002683462078000715
:100FD0000AD4AB4500DA5D4601A8012D04DD4119B4
:100FE00011F8011C302907D04F4502DA17F1040F20
:100FF00004DA012082460FE06D1EEEE7002F02DCCE
:10100000ED1B3E4403E0781CA84200DD7D1CB81BAC
:1010100000F1010A4FF000472078000703D4AA45E9
:1010200001DB4FF0FF3A0021B7F1004F0DF143080B
:101030008DF8431024D002202B23002F01DA7F42A9
:101040002D230A21021EA0F1010000DC5FB197FBF5
:10105000F1FC97FBF1F201FB1C7C17460CF1300C04
:1010600008F801CDEEE7A8F1010003702188090519
:1010700001D5452100E06521A0F1010800F8011C1F
:1010800009980FA9A1EB0807FF1D00B10120411924
:1010900001EBEA70A1693844081A401EA06120786B
:1010A000C00602D42046FFF781F9099828B1D4E997
:1010B00001219047206A401C20622078C00622D57A
:1010C0002046FFF773F91EE0002E04DBB34502DD76
:1010D00001A8805D00E03020D4E901219047206A1A
:1010E000401C2062761CAAF101005FEA000A0AD1C6
:1010F00000F002FAC0680168405CD4E90121904721
:10110000206A401C2062281EA5F10105DCDC07E0F6
:10111000D4E9012118F8010B9047206A401C206295
:10112000381EA7F10107F3DC2046FFF755F903202D
:1011300011B041E62DE9F04F04460D46D21D22F0D4
:10114000070089B0D0E900974846394601F0FBFF17
:101150000246F80F01D02D2307E02068810701D552
:101160002B2302E0202101EAC0038DF820300BB1CF
:10117000012000E00020032A824601D0072A04DB78
:101180002946204600F0BCF93FE12078800601D4D2
:101190000D2500E0E569C7F30A560D2D49DA002157
:1011A0004FEA175B08464FF00000002F00F44000A4
:1011B00007DA00EB80004FF4400100EBD07001EA49
:1011C00060008115012901DD4FF0FF3100224FEA57
:1011D000850CBCF1180F06D31346ACF118004FF084
:1011E0008052C24003E04FF4801323FA0CF30CF159
:1011F0000C0CBCF1200F04D3ACF1200C09FA0CF05C
:1012000001E007FA0CF000294FF0004801DD18B9A1
:101210000FE00ED140450CD319EB02095F4121B913
:10122000404502D19F4329EA0209BBEB175F00D07A
:10123000761C2088000502D57B48784402E07A4875
:101240007844193808AA302302F80A30037C0AF1DE
:101250000101002E0AF1020A53546A4602DC4FF0E3
:10126000300101E04FF031014FF001088DF800101E
:1012700002D0A6F2FF3603E059EA470100D06B4ED8
:10128000002D02DC2178090704D54FF002082E2139
:101290008DF80110C44600210BE0C7F303433F0162
:1012A000C35C491C6D1E02F80830052908F10108CD
:1012B00001DA002DF1DC00210CE000EB1973491C70
:1012C0001B786D1E082902F808304FEA091908F149
:1012D000010801DA002DF0DC21688B0602D516E04A
:1012E000A8F10108E04505DD02EB080313F8013C15
:1012F000302BF5D0B8F1000F09DD02EB080313F82D
:10130000013C2E2B03D1090701D4A8F10108002DBF
:1013100005DD3E2102F808106D1E08F10108407C31
:10132000002E02F8080008F1010804DA2D207642A8
:1013300002F8080002E02B2002F808000A214FF40E
:101340007A70864208F101080BDB96FBF0F330332C
:1013500002F8083096FBF0F308F1010800FB136671
:1013600001E0642E0CDB642096FBF0F3303302F8CE
:10137000083096FBF0F308F1010800FB136601E06A
:101380000A2E06DB96FBF1F0303002F8080008F177
:10139000010896FBF1F001FB1060303002F8080004
:1013A000A16908F1010808EB050202EB0A00081A1E
:1013B000A0612078C00602D42046FEF7F7FF216A1C
:1013C00008AE01EB0A00206204E0D4E9012116F81E
:1013D000010B9047BAF1010AF7D22078C00602D576
:1013E0002046FEF7E3FF6E4609E016F8010B3E28A3
:1013F0000FD0D4E901219047206A401C2062B8F147
:101400000108F2D22046FEF7E7FF09B00320BDE84D
:10141000F08F206A2844206203E0D4E901213020C3
:1014200090476D1EEBD3F8E7A12E000002FCFFFFF2
:1014300010B5436913B1AFF3008001E0FFF720FB63
:10144000012010BD128800F1240182840022C28490
:101450000122EDE711684FF0FF32E9E770B516465B
:101460000C46054600F040F8036893F80101012896
:1014700006D0FF2C0FD8185D68B101202C7070BD0C
:10148000D3F807013246214603F2071303442846E6
:10149000BDE8704018474FF0FF3070BD754600F052
:1014A000EBF8AE4605006946534620F00700854636
:1014B00018B020B5FEF71CFFBDE820404FF0000635
:1014C0004FF000074FF000084FF0000B21F007012C
:1014D000AC46ACE8C009ACE8C009ACE8C009ACE86F
:1014E000C0098D467047000010B500F005F8001DDA
:1014F00010BD00BFD129000000487047600F0020D8
:101500002DE9F0411F46044603260168072A01F42D
:10151000006004DB08B116A505E016A503E008B1DC
:1015200015A500E015A521F010002060A069C01EDF
:10153000A0610FB1401EA0612046FEF737FF4FB1FA
:10154000D4E9012138469047206A401C2062C01C23
:10155000206206E0206AFAE7D4E9012115F8010BC0
:101560009047761EF8D22046FEF736FFBDE8F081A0
:101570004E414E006E616E00494E4600696E660037
:101580002DE9F047814616468AB0354878440DC8A3
:101590008DE80D0032487844801C03AC0DC884E807
:1015A0000D0041F69B300844372190FBF1F290FB8F
:1015B000F1F5A5F1800501FB12041B3C02D5644244
:1015C000012000E00020DFF898A080460027FA44C0
:1015D000AAF1BE0A0EE0E0070AD03246684607EBE1
:1015E000470101230AEB810100F022FB8DE807008F
:1015F00064107F1C002CEED1194F7F44AE3F19E0E0
:10160000E80715D007EB04100DF1180A90E80E005A
:101610008AE80E00C068F04201D19819089032465D
:10162000012306A903A800F003FB03AB83E807002E
:101630006D10641C002DE3D14FF001033246694662
:10164000B8F1000F03A802D000F0DDFA01E000F0CD
:10165000EFFAC9E90001C9F808200AB0BDE8F0872F
:10166000E02B000010B50446AFF300802046BDE833
:101670001040FEF728BE000000487047400F0020D1
:101680004FF0013C50F8042B51F8043B9A4221D111
:10169000A2EB0C03934313EACC1317D150F8042B9D
:1016A00051F8043B9A4215D1A2EB0C03934313EA81
:1016B000CC130BD150F8042B51F8043B9A4209D1BA
:1016C000A2EB0C03934313EACC13DBD04FF00000E2
:1016D000704700BFD01A01BAB1FA81F101F01801C8
:1016E00022FA01F0CB40C1F12001DBB2C0B2C01A36
:1016F0002CFA01F3D11A914311EAC311E6D17047D4
:1017000001491820ABBEFEE72600020070475FEAE1
:10171000400C08BF91F0000F4FEA8C234FEAC12222
:1017200043EA51514FEA1C5018BF00F5F0404FEA10
:10173000300018BF41F000415FEA6C5C00F0298086
:10174000BCF1FF3F08BF40F080407047130C06BF5C
:1017500012044FF0100C4FF0000C130E04BF1202D5
:101760000CF1080C130F04BF12010CF1040C930FC1
:1017700004BF92000CF1020CD30F04BF52000CF115
:10178000010C11464FF00002A0F11F00A0EB0C006D
:10179000704711F0004F08BF704731F000413FF42F
:1017A000D5AF0B0C06BF09044FF0100C4FF0000C26
:1017B0000B0E04BF09020CF1080C0B0F04BF09014A
:1017C0000CF1040C8B0F04BF89000CF1020CCB0F41
:1017D00004BF49000CF1010CCCF12003A0EB0C007C
:1017E00022FA03F302FA0CF241EA030100F10100CC
:1017F000704720F07F4C80EA030023F07F47ACEB7A
:10180000070303F57C5300F0004003F1FF032DE9CB
:1018100080494FEA154B09B44FEA144325EA0B4EB1
:1018200024EA03480FF2042606EB132749083E7802
:101830005FEA320203FB0667C7F5000707FB06F6FF
:101840004FEA54374FEAD64606F1020607FB066C0C
:10185000CCF1005C4FEA1C472CEA074C07FB06F46E
:101860000CFB06F504EB15464FEA961634BF002034
:101870004FF000404FEAD13706FB07FC4FEA1C4C03
:101880000CFB0BF7D21B03FB0CF761EB07010CFB06
:101890000EF7B0EB074072EB17420CFB08F734BFB2
:1018A000A2EB0742B2EB074261EB17414FEA0C444F
:1018B0004FEA910706FB07FC4FEA1C4C0CFB0BF7A9
:1018C000B0EBC74072EB573203FB0CF734BFA2EB0F
:1018D000C742B2EBC74261EB57310CFB0EF7B0EBDE
:1018E000C70072EB57720CFB08F734BFA2EBC702BC
:1018F000B2EBC70261EB5771039F4FEA816141EA86
:10190000921104EBCC044FEAD1374FEA826206FB16
:1019100007FC42EA90124FEA80604FEA1C4C0CFB35
:101920000BF7D21B03FB0CF761EB07010CFB0EF767
:10193000B0EB074072EB17420CFB08F734BFA2EB89
:101940000742B2EB074261EB17414FEA8C554FEA71
:10195000910704EB9C2406FB07FC4FEA1C4C0CFB94
:101960000BF7B0EBC74072EB573203FB0CF734BFF9
:10197000A2EBC742B2EBC74261EB57310CFB0EF74B
:10198000B0EBC70072EB57720CFB08F734BFA2EB49
:10199000C702B2EBC70261EB577115EB4C254FEA5A
:1019A000816141EA92114FEA82624FEAD13742EAFD
:1019B000901206FB07FC44F100044FEA80604FEAF6
:1019C0001C4C0CFB0BF7D21B03FB0CF761EB070164
:1019D0000CFB0EF7B0EB074072EB17420CFB08F75D
:1019E00034BFA2EB0742B2EB074261EB174115EBA4
:1019F0001C154FEA813141EA92414FEA823242EAB4
:101A000090424FEA80304FEA0C7644F1000448EAF5
:101A100003434EEA0B484FF0000EB2EB080C71EB9B
:101A2000030724BF624639464EEB0E0E4FF0000B03
:101A30000018524149414BEB0B0BB2EB080C71EB18
:101A400003077BF1000B24BF624639464EEB0E0EB6
:101A50004FF0000B0018524149414BEB0B0BB2EB1E
:101A6000080C71EB03077BF1000B24BF624639467B
:101A70004EEB0E0E51EA020718BF46F0010616EBB8
:101A80000E7655F1000254F1000103D5BDE889013D
:101A9000BDE80088BDE88901BDE80048B61952419B
:101AA00041EB0101A3F10103704780807F7E7D7CC3
:101AB0007B7A7978777676757473727171706F6EE0
:101AC0006E6D6C6C6B6A6A6968686766666564648B
:101AD000636362616160605F5F5E5E5D5D5C5C5B15
:101AE0005B5A5A5959585857575656555555545484
:101AF000535352525251515050504F4F4F4E4E4DE2
:101B00004D4D4C4C4C4B4B4B4A4A4A49494948482D
:101B1000484747474746464645454544444444436D
:101B200043434342424242414141002B9C4630D410
:101B300077002BD01CB54FEA370703B44FF01000E5
:101B40004FF01001BAF1000F06D0BCF1000FDCBF5E
:101B500040F0080040F008014FF000000FBCBDE865
:101B600010400BF1010BBBF1010F08BF5FEA170733
:101B700022BF12F1010211F101014FF0004143F1C6
:101B8000000300F0004043EA00007047F9D3570813
:101B9000D0E746EA064613F1400F4FEA16461FDD2E
:101BA00013F1200FDFBF16430A46002120335B42AA
:101BB000BED0C3F1200746EA064602FA07F74FEA0D
:101BC000164646EA0706C3F1200722FA03F201FA95
:101BD00007F721FA03F14FF0000342EA0702A7E7F3
:101BE00046EA020646EA06464FEA164646EA010675
:101BF000BCBF46EA0646360C4FF000034FF0000229
:101C00004FF0000194E72DE9804C9A46934670B45A
:101C100091E8380007C831EA400C48BF34EA430C69
:101C200003D5FFF7E6FDFFF780FFF0BCBDE8008CB1
:101C30002DE9804C9A46934670B491E8380007C865
:101C400010F0804F08BF13F0804F03D100F005F86B
:101C5000FFF76BFFF0BCBDE8008C20F07F4780EA07
:101C6000030023F07F4C07EB0C03A3F57C5300F03B
:101C70000040A3F1FE0392F0000F00F0B38095F056
:101C8000000F00F077802DE901494FEA11404FEA3B
:101C9000144621EA004800FB06FC24EA064708FB3C
:101CA00006F607FB08F800FB07F718EB06484CEBB5
:101CB000164C4FEA124B18EB07484FEA15464CEB0F
:101CC000174022EA0B4E0BFB06FC25EA06470EFBEB
:101CD00006F607FB0EFE0BFB07F71EEB064E4CEB62
:101CE000164C4FF000061EEB074E4CEB174B18EB53
:101CF0000B0840F1000018EB0E0B58EB000840F108
:101D000000008F1A4FF000013CBFC943661B14BF8F
:101D1000B5EB040C00213CBFC943F61B4FEA174446
:101D20004EEA8E0E27EA04454FEA1C4704FB076281
:101D30002CEA074C05FB07F70CFB05F604FB0CFC33
:101D400016EB074642EB174216EB0C4642EB1C42E1
:101D50001BEB060658EB0202414146EA9E0601D5FE
:101D6000BDE80189B619524141EB0101A3F101031C
:101D7000BDE801894FEA14454FEA114724EA0546B8
:101D800021EA074C05FB07F406FB07F70CFB06F1FD
:101D900005FB0CFC11EB074144EB17444FEA1247DB
:101DA00011EB0C4144EB1C4422EA074C05FB07F203
:101DB00006FB07F70CFB06F605FB0CFC16EB0746CB
:101DC00042EB174216EB0C4642EB1C456A1854F1E5
:101DD000000148BF7047B619524141EB0101A3F120
:101DE0000103704795F0000F37D04FEA11424FEAD8
:101DF000144721EA024624EA074C02FB07F106FBDE
:101E000007F70CFB06F402FB0CFC14EB074441EB58
:101E100017414FEA154714EB0C4441EB1C4125EAEE
:101E2000074C02FB07F506FB07F70CFB06F602FB67
:101E30000CFC16EB074645EB174516EB0C4645EB3D
:101E40001C42121951F1000148BF7047B6195241A6
:101E500041EB0101A3F1010370474FEA14454FEA3A
:101E6000114724EA054621EA074C05FB07F106FB6A
:101E700007F70CFB06F24FF0000605FB0CFC12EB1B
:101E8000074241EB174112EB0C4251EB1C4148BF9A
:101E90007047921841EB0101A3F101037047FEE77F
:101EA0007047000001B503480099016001680029EE
:101EB000FCD108BD0000002070B50646002529B100
:101EC000012927D0022928D04FF4407500F080F86E
:101ED00009281ED1124C206820F440702060206830
:101EE00028432060206820F0F8002060206846F039
:101EF000020108432060206840F48030206000F038
:101F000067F8216821F002012160216821F0F801C1
:101F1000216070BD4FF48075D8E74FF40075D5E7A8
:101F2000103C02400D4909200A68D20301D5012066
:101F300070470A68D20601D5062070470A68D205A4
:101F400001D5022070470A6812F0E00F01D0072087
:101F5000704709688907FBD5082070470C3C024090
:101F60000248016841F0004101607047103C0240A6
:101F700070B50D46064600F02BF8092813D10A4C1F
:101F8000206820F440702060206840F400702060D9
:101F9000206840F001002060356000F019F82168E9
:101FA00021F00101216070BD103C0240054800682D
:101FB000002805DA034804490C3801600349016030
:101FC00070470000103C024023016745AB89EFCD0C
:101FD00008B509208DF80000FFF7A4FF8DF8000078
:101FE0009DF800000128F7D09DF8000008BDF0B56D
:101FF000002201274FF0030C0B6807FA02F52B4073
:10200000AB422CD1066853000CFA03F4A6430660D9
:102010000E79D0F800E09E4046EA0E0606600E7982
:10202000012E01D0022E12D18668A64386604E7919
:10203000D0F808E09E4046EA0E0686604668AE4349
:10204000466045688E799640B6B235434560C568AE
:10205000A543C560CC799C40C3681C43C460521C36
:10206000102AC9D3F0BD4B07DB0E9A40C90810B542
:1020700000EB8100016A0F249C40A1430162016AC8
:102080001143016210BD0246002012690A4200D0CD
:102090000120704709048161704781617047FEE744
:1020A000FEE77047014908627047000000000E42D9
:1020B00070470000044A0029116801D0014300E084
:1020C000814311607047000030380240044A002903
:1020D000116801D0014300E08143116070470000A6
:1020E00040380240044A0029116801D0014300E051
:1020F0008143116070470000443802400149086084
:1021000070470000400E47420149C8647047000014
:102110000000474270B5204B1968204C11F00C01AB
:1021200004D01F4E042903D0082903D004601BE00B
:10213000066019E0184A121F1168C1F38055116832
:1021400001F03F0115B1B6FBF1F101E0B4FBF1F193
:1021500014681268C4F388146143C2F30142521C2C
:102160005200B1FBF2F1016019680F2202EA11116D
:102170000C4A545C0168E14041601C68072505EA8F
:102180009424145D21FA04F484601B6805EA533337
:10219000D25CD140C16070BD083802400024F40018
:1021A00040787D015C000020024600205109012991
:1021B0000BD002290CD00849096802F01F02012344
:1021C00093400B4200D00120704703497439F3E774
:1021D0000149091FF0E70000743802400549002258
:1021E0000A700A70012802D0042801D10520087065
:1021F00070470000703802400149086070470000D5
:102200003C0E4742C0F30121032907D1074B19684F
:10221000074A21F4F81102400A431A600349683161
:102220000A68C0F30B0002430A6070470838024096
:10223000FFFCFF0F010901EB810100F00F0000EB33
:102240004100C0B27047002103E0491C0A38C9B2FE
:10225000C0B20A28F9D2090740EA116070471FB5D9
:1022600001210807FFF732FF0120FFF71BFF0120C4
:10227000FFF744FF0020FFF741FF0120FFF7AEFF0B
:102280004120FFF791FF0028FAD04FF48070FFF74C
:10229000B9FF0120FFF7B0FF7F200190FF2000244D
:1022A00002900094684600F07BF803A90020039494
:1022B00000F09EF81FBD000008B50D4900200090F9
:1022C0000868400612D44FF0FF3008608B1308688E
:1022D000009A00F04000521C00929A4201D000285F
:1022E000F5D00868400601D4002008BD012008BDD3
:1022F0000C2800400248016821F08001016070470D
:102300000C280040020010B50F480C4601680F4829
:1023100001EA00014FEA1140E070C1F30423637049
:1023200001F03F03A370C1F3423121700AD1FFF7DE
:1023300081FFE0706078FFF77DFF6070A078FFF7A5
:1023400079FFA07010BD0000042800403FFFFF008F
:10235000020010B510480C460168104801EA00015F
:10236000C1F305402070C1F30623637001F07F03C1
:10237000A3704FF0400303EA1141E1700AD1FFF767
:1023800059FF20706078FFF755FF6070A078FFF765
:1023900051FFA07010BD0000002800407F7F7F002B
:1023A00070B5124D04460026CA20286053202860CC
:1023B000FFF782FFA8B10D481C38016821F04001E9
:1023C000016001682268114301600848A16814385F
:1023D00001600168A28841EA02410160FFF78AFFBB
:1023E0000126FF202860304670BD000024280040F0
:1023F0002DE9F0410C460026234F01002078396872
:1024000032464FEA416104D0002930DAFFF712FF6B
:102410002EE0002900DBE270FFF715FF050460786D
:10242000FFF711FF45EA0025A078FFF70CFF0543F1
:10243000E07845EA0045144CCA201C342060532043
:102440002060FFF739FF68B1104805400E48083892
:102450000560FFF74FFF3868800602D400F018F8D7
:1024600000B10126FF2020603046BDE8F081E27017
:10247000A078217840EA01456078E178000240EADE
:1024800001400543D7E70000082800407F7F7F0018
:1024900018B50020104B0090CA2018605320186017
:1024A0000D491839086820F0A00008604FF4003486
:1024B0000868009A00F02000521C0092A24201D04D
:1024C0000028F5D00868800601D5012000E0002032
:1024D000FF21196018BD00002428004070B50C468B
:1024E000054604E0284600F0C5F9012804D0641E22
:1024F000F8D24FF0FF3070BD002070BD2DE9F84FCD
:10250000884600210546C8F80010924611466846E4
:10251000FFF7E4FF4FF0FF39B0BB9DF8001018291A
:1025200014D006DC012909D0022909D004292BD1B5
:102530002EE0412916D0612926D113E0802601E042
:102540004FF4806601242970771D15E051466846D6
:10255000FFF7C4FFC0B99DF80000182814D1C8F8CF
:10256000009015E00120BDE8F88F28195146FFF7CB
:10257000B5FF48B9641CA4B2BC42F6D3A978687808
:1025800081F0FF01884201D04846ECE7C8F80060BE
:102590000020E8E700F064BC2DE9F04107460B4855
:1025A00015460E460078532801D000F059FCEFF391
:1025B0001184202080F311882A463146384600F0E5
:1025C00007F8E1B281F31188BDE8F0817C000020BA
:1025D00070B50E46144900EB400001EBC0051446EF
:1025E000E86A183520B101280FD0022805D113E080
:1025F000284600F067FCA04201D2002411E02246E8
:102600003146284600F07EFD0BE0284600F05AFCDB
:10261000A042F4D20446F2E73146284600F045FDD8
:102620000446204670BD00007C0000200FB408B5B1
:1026300004A900916A46039900F004F801B05DF81E
:1026400014FB00002DE9F04198B0804607A80290E5
:1026500040200026CDE90306CDE9056815460C4665
:1026600014F8011B00296FD0252908D002A800F01A
:10267000FDFC05980028F3DA18B0BDE8F0810020D1
:102680000122217823291ED02B2919D02D2902D0EF
:10269000302908D102E040F0010001E040F00200E2
:1026A000641C002AEDD100222178A1F130030A2B0D
:1026B0000CD202EB820201EB4202303A641CF3E7D7
:1026C00040F00400ECE740F00800E9E70023CFB257
:1026D0002E2F0BD114F8011FA1F130070A2F05D2BC
:1026E00003EB830301EB4303303BF3E76C290DD08D
:1026F00068290BD070294CD00BDC252914D058291F
:102700002BD063290CD0642911D112E014F8011FD9
:10271000ECE773292CD0752917D0782907D11CE054
:102720002868011D2960017802A800F09FFC641C44
:102730009FE729680F1D2F600968CDE900200A2254
:1027400002A800F0CAFBF2E72DE029680F1D2F60F8
:102750000968CDE900200A2206E029680F1D2F60D4
:102760000968CDE90020102202A800F019FCDEE77C
:102770002868011D2960076807B913A717F8011B0E
:102780000029D4D002A800F071FC05980028F5DAE1
:10279000CDE72868011D296001680820CDE9000601
:1027A00003461022E0E7059800287FF765AF0498FC
:1027B00020B1024607A94046FFF7EEFEDDE904100E
:1027C0000844059058E70000284E554C4C2900005D
:1027D0001C49884201D2002070471B49884201D21F
:1027E000082070471949884201D2102070471849C3
:1027F000884201D2182070471649884201D2202011
:1028000070471549884201D22820704713498842F1
:1028100001D2302070471249884201D238207047D7
:102820001049884201D2402070470F49884201D2A6
:10283000482070470D49884201D2502070475820E7
:1028400070470000004000080080000800C0000839
:10285000000001080000020800000408000006084B
:102860000000080800000A0800000C0800000E081C
:102870007047000070B5064C05462021204600F048
:102880008EF9002802D0A0882870012070BD0000B9
:10289000001001402DE9F041114E07464FF400753C
:1028A00029463046FFF7F9FB0E4C40F226612046E0
:1028B00000F068F940F22771204600F063F93946CC
:1028C000204600F0C9F94021204600F068F90028B0
:1028D000F9D029463046BDE8F041FFF7DBBB0000E8
:1028E00000040240001001401848016841F0805186
:1028F00001601748016841F44041016013483838CD
:102900000168016001680160016841F48051016063
:10291000021F10491160111F0A6842F080720A609C
:102920000A689201FCD50C4A40F2027111600168FC
:1029300021F003010160016841F0020101600168BA
:10294000C1F381010229FAD17047000040380240EA
:102950000070004010640107003C024070B5002385
:1029600002781C46302A04D14278782A0AD0582AA4
:1029700008D06FF02F05C25CAAB16B2A2AD04B2A6F
:1029800028D02CE0827802B30223C25C5AB1A2F1B3
:102990004105052D09D9A2F16106052E05D911358C
:1029A000092D06D930E00C6017E0A2F13006092E9F
:1029B00001D8303A04E0052D01D8373A00E0573A03
:1029C0005B1C02EB04140B2BDFD301E00B2B00D3B9
:1029D000002070BD1BB1A00207E00120F6E76D2AC0
:1029E00001D04D2A03D113B120050860F5E7A2F10B
:1029F0003006092E08D804EB840405EB44045B1C64
:102A000014440B2BB7D3E3E70020DFE700F068B8EE
:102A100070B5184E00223068174B184910F00C00A2
:102A200003D0042803D0082803D00B6018E0144812
:102A300015E01048001F0468C4F38055046804F0D2
:102A40003F042DB9B3FBF4F20368C3F388135A4370
:102A50000068C0F30140401C4000B2FBF0F0086089
:102A60003068064AC0F30310121D105C0A68C240A9
:102A70000A6070BD083802400024F4000400002001
:102A800040787D01124810B5016841F47001016081
:102A90001048016841F0010101600E4A002108322E
:102AA000116002680C4B1A400260031D0B4A1A6049
:102AB000026822F48022026006480C300160FFF7B1
:102AC00013FF03494FF000608039086010BD00001B
:102AD00088ED00E000380240FFFFF6FE10300024D1
:102AE00003480168002902D00168491E016070474F
:102AF000000000207FB501210846FFF7DBFA012125
:102B00001020FFF7EFFA4FF40070009002208DF8CC
:102B100004008DF8050000248DF806400120174DB3
:102B20008DF8070069462846FFF761FA29150091DC
:102B300069462846FFF75BFA072209212846FFF776
:102B400092FA07220A212846FFF78DFA4FF4E13066
:102B5000ADF804400090ADF80640ADF80840ADF87F
:102B60000C400C20064CADF80A006946204600F0E7
:102B70001DF80121204600F008F87FBD000002404A
:102B800000100140C943018070470029818902D0AB
:102B900041F4005101E021F4005181817047024667
:102BA000002012880A4200D0012070477FB50446F9
:102BB000008A0D46C98820F4405001432182A08933
:102BC00041F20C618843A9882A8911436A8902432A
:102BD0001143A181A08A20F44071A8890843A082F2
:102BE0006846FFF797FA1A48844202D0194884428F
:102BF00001D1039800E00298A189090400EBC0010B
:102C000001EB0010296801D5490000E08900B0FB04
:102C1000F1F06422B0FBF2F109010B096FF0180525
:102C20006B4300EB8300A3891D044FF0320306D5EC
:102C300003EBC000B0FBF2F000F0070005E003EB8F
:102C40000010B0FBF2F000F00F00084320817FBDC0
:102C50000010014000140140C1F308018180704759
:102C6000FEE700002DE9F04F80460020ADF2344D24
:102C70006B4FDFF8A8A1CDF81404C7F800A00646F2
:102C800004460DF10C0BCDF82C040025A9464FF499
:102C900080120DF5856103A8FFF730FC88B101288B
:102CA0006FD0002C00DD761C032E6BDD1820FFF7A3
:102CB000F1FD1820FFF7EEFD00200DF2344DBDE8C8
:102CC000F08FDDF828240026B2F1FF3F07D042B193
:102CD0009DF80D00E9B2884207D015208FE006204C
:102CE000E8E70620FFF7D6FD8FE0A5B10BF1030161
:102CF0004046FDF771FD4BA1CF20DDF828248DE87B
:102D000007004B4B4BA253A1032000F039FB0024DA
:102D1000C7F8048058E09DF80F0088B300200BF13D
:102D200003014E4C02E02254401C491C0A780AB1AF
:102D3000FF28F8DD0023235418460DF5836401E0D5
:102D40002254401C11F8012F202A01D01028F7DB53
:102D500023540DF214412046FFF700FEDDF8141451
:102D6000B1F5002F03DA504600F0DCFE58B1182010
:102D7000FFF790FD1820FFF78DFD4FF0FF309CE727
:102D800006E032E03AE00620FFF784FD432027E02A
:102D90000620FFF77FFD3DE07968096800F0ECFE52
:102DA0003868796802680B689A4208D01820FFF7E3
:102DB00071FD1820FFF76EFD6FF001007DE7001D2B
:102DC000091DC7E90001241DDDF82804844206DA44
:102DD000DDF81424386802EB0A018842DCD30620AF
:102DE000FFF758FD01246D1C0BE01820FFF752FD82
:102DF0001820FFF74FFD6FF002005EE74320FFF75A
:102E000049FDB9F1000F3FF442AFDDF82C04002872
:102E10003FF43BAFDDF814044FE700000000010869
:102E2000540000206C656E6774683A2025640000C9
:102E30007A4000082E2E5C5461736B735C796D6F61
:102E400064656D5C5372635C796D6F64656D2E6350
:102E5000000000004E4F5F5441470000400A002030
:102E600010B5134CA8212046FDF725FD0320206155
:102E7000606110A0A06104F1A800E0614FF48060DF
:102E800020620020A0626062E0620AA1216604F56F
:102E9000956161661021A1662067E0666067084958
:102EA000C0F10F028A5C2254401C1028F8D310BDD8
:102EB0007C0000205465726D696E616C000000003A
:102EC000543F00080269C1688A4203D88068401AEA
:102ED000104400E0501A401E70472DE9FC5F0E00C0
:102EE0008046DDE90C47C6F10000994692468346CC
:102EF00000D40846012502E090FBFAF06D1C504515
:102F0000FADAA94500D94D4624B1002E01DB780735
:102F100000D5641EB80702D5B9F1000F0FD0F8072D
:102F20000DD164B1A5420AD220214046641E00F0B2
:102F30009DF8D8F80C000028F3DABDE8FC9FD8F81B
:102F40000C000028F9DB002E02DA5E462D2102E09B
:102F5000780707D52B21404600F088F8D8F80C00F8
:102F60000028EADB07F0030002280FD1B9F1000FB7
:102F70000CD15CB1A54209D230214046641E00F05C
:102F800075F8D8F80C000028F3DAD6E7CDE9004749
:102F90004B4652463146404600F002F8CDE700006D
:102FA0002DE9F84F8246DDE90A4B0125994617467F
:102FB000884608462E4602E0B0FBF7F0761CB84281
:102FC000FAD2B14500D94E465FEACB7017D1B4B101
:102FD0005FEA8B7002D5B9F1000F02D0202000907B
:102FE0000BE03020FBE75046641E009900F03EF8ED
:102FF000DAF80C00002835DB0CB1A642F3D3DAF87E
:103000000C0000282EDBB9F1010F02D9A9F101094A
:1030100003E0B8FBF5F0B84201D37D43F3E7DFF8F6
:103020004890B8FBF5F000FB158819F800105046E1
:1030300000F01CF8DAF80C00002803DBB5FBF7F50C
:10304000002DEED15FEACB700CD0002C0AD0A64246
:1030500008D220215046641E00F008F8DAF80C006F
:103060000028F2DABDE8F88F653F000810B5044685
:10307000D4E90130421C934205D323681954A2605D
:10308000E068401CE060D4E90102824209D1216875
:103090002069FFF781FAA168884203D04FF0FF3022
:1030A000E06010BD0020A06010BD2DE9F047C468AD
:1030B0001746894605464FF000082869A04201D905
:1030C000061B02E0A968201A0E1AA868761E001BCB
:1030D000B04200D80646BE4200D33E46686832463B
:1030E00020444946FDF778FBA868BF1B3444B04430
:1030F000B144A04200D10024EC60002FDDD1404655
:10310000BDE8F0872DE9F04104468846D4E902077E
:10311000C51BE168606816460844B54206D94146B9
:10312000FDF75AFBB819E060BDE8F0812A46414638
:10313000FDF752FB761B08EB050132466068FDF790
:103140004BFBE660F0E703B401984100009850EAB9
:10315000C12018BF04204A0D18BF40F0010040F202
:10316000FF72B2EB515F08BF40F00200012808BFB8
:10317000052002B0704730380A2801D2012070477C
:1031800000207047194910B508464A788088002306
:103190002AB1401E0004000C888009D009E0401CC0
:1031A00080B28880B0F5C86F03D30120487000E07A
:1031B0004B7088885022B0FBF2F0C2B20A70887857
:1031C000142801D98B7001E0401C88708B78084866
:1031D0004FF40051934202D3FEF75FFF01E0FEF788
:1031E00059FFBDE810400120FEF75CBE180000202A
:1031F0000008024010B5094C01212046FEF743FFAC
:1032000038B93220FEF74EFE01212046FEF73BFF83
:1032100008B1002010BD012010BD000000000240D8
:10322000F0B585B0070007D11E484FF4F17203686E
:103230009BB11D491DA09847214E0024052596F8F5
:10324000F000002818D000F06DFA04EB441081194A
:1032500091F85100012812D017E01348CDE903027C
:10326000009212A117A3CDE9013103461EA228A1A5
:10327000002000F085F8FEE705B02846F0BD1E22CC
:1032800038463231FDF75DFA30B1641CE4B2052CEA
:10329000DBD300F06DFAEFE704EB4410304490F814
:1032A0003150F6E7200000200740000874616720D5
:1032B000213D202828766F6964202A2930290000C2
:1032C00034090020282573292068617320617373F5
:1032D000657274206661696C656420617420257371
:1032E0003A256C642E0000002E2E5C4D6964646CDF
:1032F0006577617265735C656173796C6F6767652B
:10330000725C7372635C656C6F672E630000000013
:10331000656C6F67000000002DE9F041174F002039
:1033200097F8F010012927D000F05AFA060023D1AF
:10333000012000F007FA002587F8F35087F8F450D1
:10334000012087F8F500052000F056FA0024A84671
:1033500004EB4410C51905F132001F21FDF789FA6D
:10336000641C85F83180E4B285F85180052CEFD3D8
:10337000012087F8F0003046BDE8F08134090020D4
:103380000FB42DE9F04F05468BB08B460846FDF78C
:10339000B9F900240A940746A146099405940694B5
:1033A00007940894052D08D9B3484FF410720368A8
:1033B000002B7DD0B149B2A09847B84E96F8F100E5
:1033C000002876D03078A84273D35846FFF728FFFC
:1033D000A8426ED3711C5846FDF782F9002868D0C8
:1033E0000DF1680A00F09EF9B04696F8F500A6F5D2
:1033F000806670B13146AAA2204600F007FB044661
:103400009D4831191C3050F82520204600F0FEFA66
:1034100004440121284600F0F1FB40B196483119DF
:10342000001D50F82520204600F0F0FA0444022147
:10343000284600F0E3FBC8B131195A46204600F097
:10344000E5FA04440F2F0BD8C7F10F01202205A87D
:10345000FDF707FA311905AA204600F0D7FA04440F
:10346000311990A2204600F0D1FA04441C212846CC
:1034700000F0C4FB00284BD031198BA2204600F08D
:10348000C5FA04440421284600F0B8FBA8B100F0B6
:1034900087F902463119204600F0B8FA0444182191
:1034A000284600F0ABFB40B131197EA2204601E076
:1034B00035E0DCE000F0AAFA04440821284600F0D8
:1034C0009DFB90B100F064F902463119204600F0EE
:1034D0009DFA04441021284600F090FB28B13119D0
:1034E00070A2204600F092FA04441021284600F011
:1034F00085FB38B100F050F902463119204600F042
:1035000085FA0444311969A2204600F07FFA044488
:1035100020212846169A00F0D7FBE0B90EE0574864
:10352000CDE90302009256A161A3CDE90131034622
:1035300068A272A10020FFF723FFFEE74021284682
:10354000179A00F0C1FB30B980212846189A00F084
:10355000C4FB002856D031196AA2204600F056FA62
:10356000044420212846169A00F0AEFBD0B1311950
:103570002046169A00F04AFA044440212846179A39
:1035800000F0A2FB10B131195FA207E080212846AC
:10359000189A00F0A2FB28B1311942A2204600F08F
:1035A00035FA044480212846189A00F096FBB8B1F9
:1035B00056A2052109A8189BFCF7DCFE311909AABF
:1035C000204600F023FA044440212846179A00F0D0
:1035D0007BFB28B1311933A2204600F017FA0444CE
:1035E00040212846179A00F06FFB28B13119204678
:1035F000179A00F00BFA0444311945A2204600F056
:1036000005FA0444C4F5806130195346199AFCF751
:1036100081FE04444FF480618C4201D8002800DA16
:103620000C46601D884201D940F2FB3498F8200016
:10363000454640B1194906F804902031A1F584604F
:10364000FDF74EF888B195F8F50028B1311931A28F
:10365000204600F0DBF90444311930A2204600F086
:10366000D5F901192E4800F0BDF800F081F80BB033
:10367000BDE8F00F5DF814FB200000201F4000089B
:103680006C6576656C203C3D20454C4F475F4C5641
:103690004C5F564552424F5345000000340900200C
:1036A0001B5B0000200000005B0000005D200000AC
:1036B00028257329206861732061737365727420F3
:1036C0006661696C65642061742025733A256C64B9
:1036D0002E0000002E2E5C4D6964646C657761726B
:1036E00065735C656173796C6F676765725C737233
:1036F000635C656C6F672E6300000000656C6F672C
:1037000000000000280000003A000000256C640062
:10371000290000001B5B306D000000000A00000063
:103720003405002070B5064C012594F8F20020B154
:1037300000F05DF884F8F45070BD84F8F35070BD6B
:10374000340900200949002881F8F2000DD007480B
:1037500091F8F41090F8F30019B1002805D100F0A9
:1037600048B8002801D000F042B870473409002062
:1037700070B5064C002594F8F20020B100F039F83D
:1037800084F8F45070BD84F8F35070BD3409002003
:1037900000A070470000000000A07047000000007B
:1037A0000EB501A90020FEF7D3FD02A90020FEF707
:1037B000A9FD9DF8060000909DF805309DF80420B5
:1037C00002A10648FCF7C0FD04480EBD2530326456
:1037D0003A253032643A2530326400002C0A002049
:1037E000002070470A4601460020FEF7D5BE72B69B
:1037F000704762B67047000010B586B004460528D1
:1038000007D90D484FF4AE72036833B10B490CA0D1
:1038100098471248047006B010BD0848CDE903026D
:10382000009207A10EA3CDE90131034615A21FA105
:103830000020FFF7A5FDFEE720000020DB3F000889
:103840006C6576656C203C3D20454C4F475F4C567F
:103850004C5F564552424F5345000000340900204A
:103860002825732920686173206173736572742041
:103870006661696C65642061742025733A256C6407
:103880002E0000002E2E5C4D6964646C65776172B9
:1038900065735C656173796C6F676765725C737281
:1038A000635C656C6F672E6300000000656C6F677A
:1038B0000000000030B585B00D460446052807D944
:1038C0000E484FF4A17203684BB10D490DA0984703
:1038D000134800EB8400C0F8D85005B030BD08484C
:1038E000CDE90302009207A10EA3CDE90131034601
:1038F00015A21FA10020FFF743FDFEE720000020D6
:10390000BE3F00086C6576656C203C3D20454C4F01
:10391000475F4C564C5F564552424F53450000009E
:10392000340900202825732920686173206173738E
:10393000657274206661696C65642061742025730A
:103940003A256C642E0000002E2E5C4D6964646C78
:103950006577617265735C656173796C6F676765C4
:10396000725C7372635C656C6F672E6300000000AD
:10397000656C6F67000000000EB50A4991F8F00011
:1039800000280DD0012081F8F10007A208A1F8203D
:103990008DE80700104B11A21AA10320FFF7F0FCDD
:1039A0000EBD000034090020322E322E39390000BD
:1039B000456173794C6F676765722056257320697E
:1039C0007320696E697469616C697A6520737563C7
:1039D000636573732E000000753F00082E2E5C4D4A
:1039E0006964646C6577617265735C656173796C39
:1039F0006F676765725C7372635C656C6F672E637B
:103A000000000000656C6F67000000002DE9F043C6
:103A1000DFF88C90DFF88C8085B00D0006461446E8
:103A2000174606D1D8F800302BB12C2249461EA0EB
:103A300098477CB115E01CA202922C20CDE903909E
:103A40001AA3CDE90003164B21A22CA10020FFF7F9
:103A500097FCFEE7D8F800307BB12D22104929A051
:103A600098474FF480612078B0B13246761C8A4284
:103A700012D205F8010B641CF5E722A202922D2058
:103A8000CDE9039009A3CDE90003054B10A21BA1CA
:103A90000020FFF775FCFEE705B0E01BBDE8F083F2
:103AA0005740000820000020647374002825732903
:103AB0002068617320617373657274206661696C3C
:103AC00065642061742025733A256C642E00000023
:103AD0002E2E5C4D6964646C6577617265735C65FC
:103AE0006173796C6F676765725C7372635C656C38
:103AF0006F675F7574696C732E630000656C6F6728
:103B0000000000007372630010B5044600F02CF84A
:103B100002212046FEF7D0F90446FEF721FA20469E
:103B200010BD000010B50C460246FEF751FE0346DC
:103B30001019FEF74DFE0B4A0446002152F82100F1
:103B4000984209D3A04207D8FFF7DEFF092801D029
:103B5000012010BD002010BD491CC9B20C29EDD9AF
:103B600010BD0000083F000810B5FEF71FFAFEF771
:103B7000D9F90128FBD010BD7CB50C460546FFF7EE
:103B8000F3FF21462846FEF7F3F909280AD007A1DA
:103B90006020CDE900010B4B0BA210A10420FFF720
:103BA000EFFB7CBD0FA15D20F3E70000466C617365
:103BB00068207772697465206661696C65642E207F
:103BC0000D0A0000383F00082E2E5C436F72655CC2
:103BD0005372635C666C6173682E63004E4F5F5472
:103BE00041470000466C61736820777269746520F4
:103BF000737563636565642E200D0A0030B585B06A
:103C00000D460446052807D9104840F2E122036812
:103C100063B10F490FA09847154800EB8400D0F816
:103C2000D800284000D0012005B030BD0848CDE9BB
:103C30000302009207A10FA3CDE90131034616A2AA
:103C40001FA10020FFF79CFBFEE7000020000020E2
:103C50002B4000086C6576656C203C3D20454C4F40
:103C6000475F4C564C5F564552424F53450000004B
:103C7000340900202825732920686173206173733B
:103C8000657274206661696C6564206174202573B7
:103C90003A256C642E0000002E2E5C4D6964646C25
:103CA0006577617265735C656173796C6F67676571
:103CB000725C7372635C656C6F672E63000000005A
:103CC000656C6F670000000010B522B1FFF796FF2A
:103CD00008B1012010BD002010BD10B522B1FFF7C2
:103CE0008DFF08B1012010BD002010BD7CB5012161
:103CF0000846FEF7DFF901210420FEF7DBF9002575
:103D00008DF8045002208DF8050001248DF806502E
:103D100000948DF8074069460848FEF768F960038B
:103D200000908DF8044003208DF805008DF80750B1
:103D300069460348FEF75BF97CBD000000000240C5
:103D40000008024006490868064A1040B0F1005FCA
:103D500005D172B64868096881F308880047704742
:103D6000000001080000FE2F1CB535494FF000602F
:103D700008600120FEF7C8F9FEF74AFE3148FEF759
:103D8000C9F930484FF47A714068B0FBF1F0401E39
:103D9000B0F1807F0AD24FF0E02148612A4AF0203A
:103DA00082F8140D0020886107200861FEF757FA99
:103DB000FFF79CFFFEF79EFEFEF7ECFBFFF7ACFA69
:103DC000F7210020FFF776FD07210120FFF772FDA4
:103DD00007210220FFF76EFD07210320FFF76AFD90
:103DE000B7210420FFF766FDB7210520FFF762FD2C
:103DF000FFF7C2FD15A10020FEF718FC3220FEF7E8
:103E000051F8FFF7F7F910B11448FEF72BFFFFF751
:103E100099FF482412A0CDE90040174B17A21CA11E
:103E20000320FFF7ADFAFFF7ADF9FFF7E3F900283C
:103E3000F0D00A48FEF716FFFFF784FFEAE700001C
:103E400008ED00E06C0000200FE000E0424F4F540E
:103E50002053746172742E200D0A0000400B002064
:103E60004A756D7020746F20617070206661696C96
:103E700065642E200A000000023F00082E2E5C43DD
:103E80006F72655C5372635C6D61696E2E630000D6
:103E90004E4F5F544147000010B500290AD0087802
:103EA000002807D005487844FDF7EAFB002801D038
:103EB000002010BD0248784410BD00004A030000F5
:103EC0004203000010B500290AD00878002807D066
:103ED00005487844FDF7D4FB002801D0002010BD30
:103EE0000248784410BD00003A030000320300008D
:103EF0004FF04070E1EE100A7047FCF7E5BFFDF7A8
:103F000019B96D61696E0000000000000800000032
:103F10001000000018000000200000002800000031
:103F200030000000380000004000000048000000A1
:103F30005000000058000000666C6173685F777283
:103F4000697465003031323334353637383941429F
:103F5000434445460000000000005454522052459E
:103F600047474553003031323334353637383941DD
:103F70004243444546656C6F675F737461727400B9
:103F8000656C6F675F73746F7000656C6F675F73EC
:103F900065745F6F75747075745F656E61626C6572
:103FA0006400656C6F675F7365745F746578745FD8
:103FB000636F6C6F725F656E61626C656400656CE7
:103FC0006F675F7365745F666D7400656C6F675FC4
:103FD0007365745F66696C74657200656C6F675FAA
:103FE0007365745F66696C7465725F6C766C00658E
:103FF0006C6F675F7365745F66696C7465725F741C
:1040000061675F6C766C00656C6F675F6765745F96
:1040100066696C7465725F7461675F6C766C00656D
:104020006C6F675F6F7574707574006765745F6639
:104030006D745F656E61626C656400656C6F675F6F
:1040400066696E645F6C766C00656C6F675F66694D
:104050006E645F74616700656C6F675F7374726331
:10406000707900656C6F675F6370796C6E00656C6A
:104070006F675F6D656D63707900596D6F64656D15
:104080005F526563656976650030313233343536A9
:104090003738394142434445464030580030313288
:1040A0003334353637383961626364656640307859
:1040B00000040000080000000000000002000100F1
:1040C000001000000000000000000000303132331A
:1040D000343536373839616263646566787000302C
:1040E0003132333435363738394142434445465806
:1040F0005000000002400000000000A0000000008E
:1041000005400000000000C8000000000C40000056
:104110000000409C00000000194000000020BCBED0
:104120000000000034400000BFC91B8E00000004E6
:10413000B5400000504BCFD06607E2CF0100000031
:104140006C4100003E8251AADFEEA734010000005E
:10415000D9420000DCB5A0E23A301F97FFFFFFFF15
:10416000B4450000FD25A0C8E9A3C14FFFFFFFFF34
:10417000FF3F00000000008000000000FF3F000043
:104180000000008000000000412F0000442F0000CC
:10419000452F0000492F0000562F0000572F000028
:1041A00033313B316D00000033323B316D00000094
:1041B00033333B316D00000033343B316D00000080
:1041C00033353B316D00000033363B316D0000006C
:1041D0001C430008000000206C000000C40100081F
:1041E000884300086C00002034150000E00100083E
:1041F0001C00000043000000F8FFFFFF0C0000005F
:104200000E0000000F0000002E0000001001000052
:1042100043000000F8FFFFFF0040404040404040A6
:104220004040414141414140404040404040404089
:10423000404040404040404040050202020202022D
:10424000020202020202020202202020202020207C
:104250002020200202020202020290909090909090
:10426000101010101010101010101010101010104E
:1042700010101010020202020202888888888888C2
:1042800008080808080808080808080808080808AE
:1042900008080808020202024000000000000000B6
:1042A000000000000000000000000000000000000E
:1042B00000000000000000000000000000000000FE
:1042C00000000000000000000000000000000000EE
:1042D00000000000000000000000000000000000DE
:1042E00000000000000000000000000000000000CE
:1042F00000000000000000000000000000000000BE
:1043000000000000000000000000000000000000AD
:10431000000000000000000000000000000000009D
:1043200000E1F505000000000000000001020304A8
:10433000060708090000000000000000000000005F
:1043400088410008904100089C4100089441000801
:104350008C41000898410008C0410008A0410008B5
:10436000B0410008C8410008A8410008B841000851
:10437000000001080000000000000000010203042A
:0843800001020304060708090D
:040000050800018965
:00000001FF
