:020000040800F2
:10000000F85D0020A5030008993E0008AF03000832
:10001000953E0008C52000083D490008000000008A
:10002000000000000000000000000000E5020008E1
:10003000C721000800000000410300080543000834
:10004000BF030008BF030008BF030008BF03000888
:10005000BF030008BF030008BF030008BF03000878
:10006000BF030008BF030008BF030008BF03000868
:10007000BF030008BF030008BF030008BF03000858
:10008000BF030008BF030008BF0300080000000012
:10009000000000000000000000000000BF03000896
:1000A000BF030008E9430008BF030008BF030008BE
:1000B000BF030008BF030008BF030008BF03000818
:1000C000BF030008BF030008BF030008E1420008A7
:1000D000BF030008BF030008BF03000800000000C2
:1000E000BF030008BF030008BF03000800000000B2
:1000F000000000000000000000000000BF03000836
:1001000000000000BF030008BF030008BF03000891
:1001100000000000000000000000000000000000DF
:10012000C9200008BF030008D9200008BF03000849
:10013000BF030008000000000000000000000000F5
:10014000000000000000000000000000BF030008E5
:10015000BF030008BF030008BF030008BF03000877
:10016000BF030008BF0300080000000000000000FB
:10017000000000000000000000000000000000007F
:1001800000000000BF0300080000000000000000A5
:10019000BF030008BF03000800F002F800F092F867
:1001A0000AA090E8000C82448344AAF10107DA45D2
:1001B00001D100F087F8AFF2090EBAE80F0013F092
:1001C000010F18BFFB1A43F0010318470882000013
:1001D00028820000103A24BF78C878C1FAD85207A4
:1001E00024BF30C830C144BF04680C6070470000B1
:1001F0000023002400250026103A28BF78C1FBD830
:10020000520728BF30C148BF0B6070476E2900F00D
:10021000F884702900F07582662907F0C885652981
:1002200007F0C585672907F0C285612907F0C185F8
:1002300003681B0A28BF41F08001692900F0E681AC
:10024000642900F0E381752900F0E0816F2900F056
:10025000E685782900F04182E92900F08185E429CA
:1002600000F07E85F52900F07B85EF2900F0E3851D
:10027000F82900F040820368DB0928BF41F08001C3
:10028000632900F00285732900F00785E32901F056
:10029000EB81F32901F0F081002070471FB507F0D2
:1002A00081FD01F03BFA04000020002107F064FD0D
:1002B000401C60600020002107F048FDE0601FBD89
:1002C00010B510BD01F0FCF91146FFF7E7FF05F08E
:1002D000D7FB01F0D9FA03B4FFF7F2FF03BC01F03A
:1002E00023FB00002C4B19680868B0E8F04F80F33E
:1002F0000988BFF36F8F4FF0000080F311887047BB
:100300000000000008480068006880F308884FF08B
:10031000000080F3148862B661B6BFF34F8FBFF35D
:100320006F8F00DF00BF00BF08ED00E0DFF80C00BA
:10033000016841F470010160704700BF88ED00E082
:10034000EFF30980BFF36F8F134B1A681EF0100F85
:1003500008BF20ED108A20E9F04F106009B44FF07B
:10036000500080F31188BFF34F8FBFF36F8F06F0FB
:10037000BBFD4FF0000080F3118809BC19680868C4
:10038000B0E8F04F1EF0100F08BFB0EC108A80F3F9
:100390000988BFF36F8F704728000020EFF30580B6
:1003A000704700000948804709480047FEE7FEE71C
:1003B000FEE7FEE7FEE7FEE7FEE7FEE7FEE7FEE715
:1003C00004480549054A064B70470000D54300081C
:1003D00099010008F8570020F85D0020F859002026
:1003E000F859002053EA020C00F069802DE9F04B27
:1003F0004FF00006002B1FBFB3FA83F503FA05F494
:1004000024FA05F65E4012BF1643B2FA82F502FAEC
:1004100005F4C5F120051EBF22FA05FC44EA0C04D0
:10042000203556EA044C4FEA144418BF641C4FF0C0
:1004300000084FF00009904271EB030C39D30029FA
:1004400019BFB1FA81F701FA07F6B0FA80F700FA9E
:1004500007F6C7F120071EBF20FA07FC46EA0C0684
:100460002037B6FBF4FCA7EB0507103F07F01F0B86
:10047000CBF120060CFA0BFB2CFA06F644BFB34670
:100480000026202FA4BF5E464FF0000B5BEA060C4F
:1004900008BF4FF0010B19EB0B09ABFB027C48EBDB
:1004A0000608C01B06FB02CC0BFB03CC71EB0C0156
:1004B000C1E70B46024641464846BDE8F08B13B5FE
:1004C0004FF000004FF00001AFF30080BDE81C408A
:1004D000704700007CB51D4616460C00009001D008
:1004E0002044401E074B7B442A4669460190304613
:1004F00000F0A1FB05461CB10020694600F0AEFBF0
:1005000028467CBD7D0700000FB41CB5084B06AA29
:100510007B4469460090059800F08DFB044600205E
:10052000694600F09BFB20461CBC5DF814FB0000F4
:10053000490700000FB47CB50C0009AA009001D057
:100540002044401E084B7B4469460190089800F007
:1005500072FB05461CB10020694600F07FFB28466F
:100560007CBC5DF814FB00001D07000070B504465C
:1005700085690068C10601D5302600E02026C00745
:1005800007D070BDD4E9012130469047206A401C55
:1005900020626D1EF6D570BD70B504468569007881
:1005A000C00707D170BDD4E9012120209047206AFF
:1005B000401C20626D1EF6D570BD70B50C46054618
:1005C000012A05D02878800600D5EA69002302E0D8
:1005D000012305E05B1C934202D2E05C0028F9D1C4
:1005E000A869E618C01AA861286A18442862284633
:1005F000FFF7BCFF04E0D5E9012114F8010B904797
:10060000B442F8D32846FFF7C7FF70BD2DE9F0418B
:100610000646002410687529314616A510D000F052
:1006200085FA002802DA404213A507E031688A07FC
:1006300001D512A502E0490704D511A5012401E066
:1006400000F07DFA00210A2206F1240709E0B0FB40
:10065000F2FCB0FBF2F302FB1C0030307854184679
:10066000491C0028F3D123462A463046BDE8F04114
:1006700000F06EBA000000002D0000002B0000000A
:1006800020000000F0B40D460188090502D5214C78
:100690007C4402E01F4C7C440E34002100F124060F
:1006A00008E002F00F071209E75D42EA03721B0936
:1006B0007754491C52EA0307F3D10278002312074A
:1006C00004D5702D06D009B1022311342246F0BCA6
:1006D00000F03EBA01231034F8E770B504460D4629
:1006E0002146106800F02BFA024629462046BDE854
:1006F00070400023C6E7D21D22F00703D3E9002390
:10070000C0E70368126843F0200303600823C36155
:100710000023B7E7A87B00002DE9F05F8946044677
:100720004FF0000ADFF874B1FB44C0F820A0204667
:10073000E1688847002874D0252806D0D4E9012133
:100740009047206A401C2062F1E700265F46204661
:10075000E16888472028054607DB312D05D2781946
:1007600010F8200C08B10643F1E7B00701D526F0D8
:100770000406C4F81CA00027C4F818A02A2D09D02C
:10078000284604F0D0FA38B304EB8708303DC8F8A7
:10079000185019E059F8041B204604EB87029161B8
:1007A000E1688847012F054618D1E069002820DA62
:1007B00026F020061DE0D8F8180000EB800005EBBD
:1007C00040003038C8F818002046E16888470546E0
:1007D00004F0A9FA0028EED1012F0AD02E2D08D15D
:1007E0002046E16888477F1C0546022F46F0200618
:1007F000C4DBA069002803DA404246F00106A0618C
:10080000F00701D026F010066C2D0BD0682D09D012
:100810004C2D39D06A2D35D0742D35D07A2D33D06A
:1008200016E038E0E1682F4620468847B842054682
:1008300009D16C2F26D04FF48060E1680643204632
:100840008847054604E06C2F1AD04FF480700643A9
:100850000DB3A5F14100192802D8203546F40066F1
:100860004A462946204626604E46FFF7CFFC80B117
:1008700001280BD0F61D26F0070000F1080956E705
:100880004020E4E78020D8E70020D6E706F10409FD
:100890004DE7284652E7206ABDE8F09F387B00000C
:1008A00030B505460B462A4613F8014B12F8010BEA
:1008B00008B1A042F8D01CB1002802D06D1CF1E7AD
:1008C000284630BD10B5431C02E010F8011B71B181
:1008D0008107FAD14FF0013202C88C1A8C4314EA16
:1008E000C211F9D0C01A0A0603D0C01E10BDC01A2A
:1008F00010BD0A0401D0801E10BD0902FCD0401EAC
:1009000010BD40EA010370B59B072ED14FF00136B0
:10091000042A2AD308C810C99D1B9D43121F15EA3B
:10092000C61517D0D8B2E1B2401A50EA056110D10D
:1009300098B2A1B2401A50EA05410AD123F07F4093
:1009400024F07F41401A50EA052102D1180EA0EB95
:10095000146070BDA342DBD018BA21BA884201D915
:10096000012070BD4FF0FF3070BD0AB9002070BD8E
:1009700010F8013B11F8014B63B1A3420AD1521E9A
:1009800008D010F8013B11F8014B1BB1A34201D173
:10099000521EEDD1181B70BD032A40F2308010F0BA
:1009A000030C00F0158011F8013BBCF1020F62440A
:1009B00098BF11F801CB00F8013B38BF11F8013B9B
:1009C000A2F1040298BF00F801CB38BF00F8013B48
:1009D00011F0030300F03A82083AC0F0088051F8A1
:1009E000043B083A51F804CBA0E80810F5E7121DC3
:1009F0005CBF51F8043B40F8043BAFF30080D207E2
:100A000024BF11F8013B11F801CB48BF11F8012BAD
:100A100024BF00F8013B00F801CB48BF00F8012BD0
:100A2000704702F0FF0343EA032242EA024200F069
:100A300002B84FF000020429C0F0128010F0030C3D
:100A400000F01B80CCF1040CBCF1020F18BF00F8C1
:100A5000012BA8BF20F8022BA1EB0C0100F00DB870
:100A60005FEAC17C24BF00F8012B00F8012B48BFCE
:100A700000F8012B70474FF0000200B51346944672
:100A80009646203922BFA0E80C50A0E80C50B1F1E6
:100A90002001BFF4F7AF090728BFA0E80C5048BFFA
:100AA0000CC05DF804EB890028BF40F8042B08BF98
:100AB000704748BF20F8022B11F0804F18BF00F894
:100AC000012B7047704770477047A0E8004FF0C097
:100AD00040F804DB01B5AFF30080BDE8024001C17E
:100AE0000020A1EC068BA1EC02BBA1EC06CBA1EC93
:100AF00002FB704700F12C080C46B8EC068BB8ECF2
:100B000002BBB8EC06CBB8EC02FB00F12C0858F89D
:100B1000040DAFF3008058F8040D8546200008BF8F
:100B2000012038E9F00018E9004F704709684A05CC
:100B300001D540B27047C905FCD500B270470968BD
:100B40004A0501D5C0B27047C905FCD580B27047CF
:100B50002DE9F0470D4699469246044600F12408D7
:100B60000168880604D5E06921F01001216000E0E9
:100B70000120A84201DD471B00E00027A1697A1986
:100B800002EB0900081AA0612078C00602D42046B2
:100B9000FFF7ECFC002608E0D4E901211AF8060072
:100BA0009047206A401C761C20624E45F4DB20787A
:100BB000C0060AD52046FFF7D9FC06E0D4E901219A
:100BC00030209047206A401C2062381EA7F10107A0
:100BD000F4DC07E0D4E9012118F805009047206A09
:100BE000401C2062281EA5F10105F3DC2046FFF71A
:100BF000D3FC2078000602D50220BDE8F087012052
:100C0000FBE711680268006A530501D508700AE025
:100C1000D30501D5088006E0130603D5C217C1E944
:100C2000000200E0086001207047000001694A1CD2
:100C300002610878704700B58FB0CDE9013100211D
:100C4000059105497944CDE9031011466846FFF73F
:100C500063FD0FB000BD0000E5FFFFFF0A6802F86A
:100C6000010B0A607047D1E900239A4202D2531C5B
:100C70000B601070704710B5436913B1AFF300807B
:100C800001E0FFF79AFC012010BD127800F1240169
:100C90000A7000224A700122EDE711684FF0FF321E
:100CA000E9E700002DE9FF5F15468A460446DFF8B4
:100CB000AC80F8440027D8E900103E46CDE900108A
:100CC00010E03AF816106A4602A800F0D9FC411C60
:100CD00007D02178890603D5E269391891420DD8E9
:100CE0000744761C2078800602D5E069B84205DD0D
:100CF000AE42E6DB3AF816000028E2D1A069C01B3C
:100D0000A0612046FFF732FCD8E90010CDE90010C1
:100D1000002017E03AF818106A4602A800F0B0FC6C
:100D2000B0F1FF3F81460BD000250DF1080B05E027
:100D3000D4E901211BF8050090476D1C4D45F7D300
:100D400008F10100B0428046E4DB206A38442062AA
:100D50002046FFF721FCBDE8FF9F0000C2750000A0
:100D60002DE9F0418046D21D22F007020025D2E98C
:100D70000002F52915A614D0011E72F1000106DA51
:100D80000023D0EB030063EB020211A608E0D8F8C1
:100D900000108B0701D50FA602E0490701D50EA66A
:100DA00001251146002408F1240704E000F080F832
:100DB00030323A55641C50EA0102F7D12B463246D4
:100DC00021464046BDE8F041FFF7C2BE00000000EA
:100DD0002D0000002B0000002000000030B4002196
:100DE00000F1240408E002F00705D208303542EA99
:100DF0004372DB086554491C52EA0305F3D10468C9
:100E0000002310A2250707D5A40600D421B1C46988
:100E100001230DA2641EC46130BCFFF799BE10B55A
:100E2000044621461068FFF78AFE02462046BDE8C8
:100E300010400023D2E7D21D22F00701D1E90023A0
:100E4000CCE70000000000003000000010B5203AA0
:100E5000C0F00B80B1E81850203AA0E81850B1E873
:100E60001850A0E81850BFF4F5AF5FEA027C24BF29
:100E7000B1E81850A0E8185044BF18C918C0BDE820
:100E800010405FEA827C24BF51F8043B40F8043BE9
:100E900008BF7047D20728BF31F8023B48BF11F89E
:100EA000012B28BF20F8023B48BF00F8012B7047F8
:100EB00030B5B0F10A024FEA900E71F100034EEA2C
:100EC000817EB0EB0E0061EB91014FEA101E4EEAFD
:100ED000017E10EB0E0041EB11114FEA102E4EEA8D
:100EE000016E10EB0E0041EB11214FEA104E4EEA5D
:100EF000014E10EB0E0041EB1141401841F1000191
:100F00004FEAD00040EA41704FEAD10110EB800572
:100F10004FEA810444EA907444EB01046D1944EBF8
:100F20000404521BA3414FF0000348BF0A3200D50E
:100F300030BD401C41F1000130BD70472DE9FF4F2D
:100F40000C461E464FF0FF378BB0D2E90001DDF8AA
:100F500060800A908A46C1F30A5505B93D460021D2
:100F600008464FF00000BAF1000F00F4400005DA27
:100F700000EB80004FF4400101EA50004FEA905925
:100F8000B9F1010F00DDB9460A9850EA4A000ED0C7
:100F900044F61050A5F2FF3545432F14B8F1000F69
:100FA0001ED07542291E1EDDC9F100021CE0B8F1F9
:100FB000010F4FF0000001D0302103E0F24305E0C3
:100FC0002154401CB042FBDB30460022002121545A
:100FD0000B99C1F80880C1E900200FB0BDE8F08F7F
:100FE000BD1B6D1CDEE74A4600DA694206A800F028
:100FF000D9FB06AB93E8070003AB83E80700504634
:101000000A9900F097FC8DE80700A0F500501F3802
:1010100000900398002D0ADD42F21F014A46084461
:10102000002303A90390684600F000FF09E0A0F543
:1010300000504A461F38002303A90390684600F079
:101040000AFF8DE807000004000C03D04FF0FF30CA
:10105000410800E01046B8F1000F03D000220092D2
:1010600015461EE0751E05D4FFF722FF303262558B
:101070006D1EF9D5B3460122084302D000227F1C21
:1010800004E02078302801D100227F1E002A099731
:1010900084D01DE0112D07DAFFF70AFF30326255C8
:1010A0006D1C50EA0102F5D1084302D00098C8B186
:1010B0000EE00021681E05E0235C625C635422544C
:1010C000401E491C8142F7DBAB46A81B401E09901D
:1010D000002004F80B000B98099AC0F80880C0E9BA
:1010E000002B7AE711264FF0000857E72DE9F04F63
:1010F00088460446D21D22F0070191B0D1E90001D3
:10110000CDE90A0103F0D7FD02460B98C00F01D0CC
:101110002D2007E02068810701D52B2002E0202147
:1011200001EAC000032A099001D0072A05DB034623
:101130004146204600F0F6FA0BE12078800601D502
:10114000E06900E00620B8F1650F814606D0B8F1ED
:10115000660F18D0B8F1670F70D131E00020B9F1F7
:10116000110F009001DB112301E009F101030AAA2C
:1011700001A90CA8FFF7E2FEDDE90C70002609F1D9
:101180000105834647E001204B4600904FF00047A1
:101190000AAA01A90CA8FFF7D1FEDDE90DB00C9950
:1011A0005D46002610B909F101000D18B9EB0500E4
:1011B00003D4C0F1FF3609F10105A5EB09002BE0CE
:1011C000B9F1010F01DA4FF001090020B9F1110F57
:1011D0000090484601DD112300E003460AAA01A958
:1011E0000CA8FFF7ABFEDDE90C704D4600268346E8
:1011F000207800070AD4AB4500DA5D4601A8012D2E
:1012000004DD411911F8011C302907D04F4502DADD
:1012100017F1040F04DA012082460FE06D1EEEE79D
:10122000002F02DCED1B3E4403E0781CA84200DDE9
:101230007D1CB81B00F1010A4FF000472078000721
:1012400003D4AA4501DB4FF0FF3A0021B7F1004F6C
:101250000DF143088DF8431024D002202B23002FDA
:1012600001DA7F422D230A21021EA0F1010000DCD9
:101270005FB197FBF1FC97FBF1F201FB1C7C174679
:101280000CF1300C08F801CDEEE7A8F10100037075
:101290002188090501D5452100E06521A0F101085B
:1012A00000F8011C09980FA9A1EB0807FF1D00B168
:1012B0000120411901EBEA70A1693844081A401E67
:1012C000A0612078C00602D42046FFF74FF90998A4
:1012D00028B1D4E901219047206A401C206220787F
:1012E000C00622D52046FFF741F91EE0002E04DBA0
:1012F000B34502DD01A8805D00E03020D4E9012182
:101300009047206A401C2062761CAAF101005FEA27
:10131000000A0AD100F002FAC0680168405CD4E912
:1013200001219047206A401C2062281EA5F101057A
:10133000DCDC07E0D4E9012118F8010B9047206AB2
:10134000401C2062381EA7F10107F3DC2046FFF79E
:1013500023F9032011B041E62DE9F04F04460D4674
:10136000D21D22F0070089B0D0E9009748463946DF
:1013700003F0A1FC0246F80F01D02D2307E02068FE
:10138000810701D52B2302E0202101EAC0038DF85B
:1013900020300BB1012000E00020032A824601D05A
:1013A000072A04DB2946204600F0BCF93FE12078FB
:1013B000800601D40D2500E0E569C7F30A560D2D1E
:1013C00049DA00214FEA175B08464FF00000002F72
:1013D00000F4400007DA00EB80004FF4400100EB1E
:1013E000D07001EA60008115012901DD4FF0FF3165
:1013F00000224FEA850CBCF1180F06D31346ACF15E
:1014000018004FF08052C24003E04FF4801323FADB
:101410000CF30CF10C0CBCF1200F04D3ACF1200C3C
:1014200009FA0CF001E007FA0CF000294FF000482F
:1014300001DD18B90FE00ED140450CD319EB0209BC
:101440005F4121B9404502D19F4329EA0209BBEB24
:10145000175F00D0761C2088000502D57B487844B1
:1014600002E07A487844193808AA302302F80A3092
:10147000037C0AF10101002E0AF1020A53546A4664
:1014800002DC4FF0300101E04FF031014FF0010874
:101490008DF8001002D0A6F2FF3603E059EA4701AA
:1014A00000D06B4E002D02DC2178090704D54FF0E7
:1014B00002082E218DF80110C44600210BE0C7F36D
:1014C00003433F01C35C491C6D1E02F80830052927
:1014D00008F1010801DA002DF1DC00210CE000EB3D
:1014E0001973491C1B786D1E082902F808304FEA51
:1014F000091908F1010801DA002DF0DC21688B06DA
:1015000002D516E0A8F10108E04505DD02EB08036D
:1015100013F8013C302BF5D0B8F1000F09DD02EBD8
:10152000080313F8013C2E2B03D1090701D4A8F1BD
:101530000108002D05DD3E2102F808106D1E08F19E
:101540000108407C002E02F8080008F1010804DAC6
:101550002D20764202F8080002E02B2002F8080055
:101560000A214FF47A70864208F101080BDB96FBE2
:10157000F0F3303302F8083096FBF0F308F101087D
:1015800000FB136601E0642E0CDB642096FBF0F395
:10159000303302F8083096FBF0F308F1010800FB45
:1015A000136601E00A2E06DB96FBF1F0303002F8FC
:1015B000080008F1010896FBF1F001FB10603030E3
:1015C00002F80800A16908F1010808EB050202EB26
:1015D0000A00081AA0612078C00602D42046FEF74F
:1015E000C5FF216A08AE01EB0A00206204E0D4E9DD
:1015F000012116F8010B9047BAF1010AF7D22078C1
:10160000C00602D52046FEF7B1FF6E4609E016F887
:10161000010B3E280FD0D4E901219047206A401CDD
:101620002062B8F10108F2D22046FEF7B5FF09B0FA
:101630000320BDE8F08F206A2844206203E0D4E94B
:101640000121302090476D1EEBD3F8E7316E00008A
:1016500002FCFFFF10B5436913B1AFF3008001E056
:10166000FFF720FB012010BD128800F124018284C5
:101670000022C2840122EDE711684FF0FF32E9E752
:1016800070B516460C46054600F040F8036893F81E
:101690000101012806D0FF2C0FD8185D68B1012088
:1016A0002C7070BDD3F807013246214603F20713B0
:1016B00003442846BDE8704018474FF0FF3070BD26
:1016C000754600F0EBF8AE4605006946534620F03B
:1016D0000700854618B020B5FEF772FEBDE8204031
:1016E0004FF000064FF000074FF000084FF0000BDE
:1016F00021F00701AC46ACE8C009ACE8C009ACE891
:10170000C009ACE8C0098D467047000010B500F074
:1017100005F8001D10BD00BF61660000004870475D
:10172000B85700202DE9F0411F4604460326016802
:10173000072A01F4006004DB08B116A505E016A530
:1017400003E008B115A500E015A521F01000206008
:10175000A069C01EA0610FB1401EA0612046FEF727
:1017600005FF4FB1D4E9012138469047206A401C5B
:101770002062C01C206206E0206AFAE7D4E9012159
:1017800015F8010B9047761EF8D22046FEF704FFAD
:10179000BDE8F0814E414E006E616E00494E46003C
:1017A000696E66002DE9F047814616468AB03548D5
:1017B00078440DC88DE80D0032487844801C03AC95
:1017C0000DC884E80D0041F69B300844372190FB9A
:1017D000F1F290FBF1F5A5F1800501FB12041B3C31
:1017E00002D56442012000E00020DFF898A0804686
:1017F0000027FA44AAF1BE0A0EE0E0070AD03246FA
:10180000684607EB470101230AEB810100F023FB47
:101810008DE8070064107F1C002CEED1194F7F4427
:10182000AE3F19E0E80715D007EB04100DF1180AD8
:1018300090E80E008AE80E00C068F04201D19819C5
:1018400008903246012306A903A800F004FB03AB6D
:1018500083E807006D10641C002DE3D14FF00103F5
:1018600032466946B8F1000F03A802D000F0DEFA54
:1018700001E000F0F0FAC9E90001C9F808200AB057
:10188000BDE8F087706B000010B50446AFF3008030
:101890002046BDE81040FEF71EBD0000004870471E
:1018A00098570020704700004FF0013C50F8042B7F
:1018B00051F8043B9A4221D1A2EB0C03934313EA63
:1018C000CC1317D150F8042B51F8043B9A4215D190
:1018D000A2EB0C03934313EACC130BD150F8042B67
:1018E00051F8043B9A4209D1A2EB0C03934313EA4B
:1018F000CC13DBD04FF00000704700BFD01A01BA04
:10190000B1FA81F101F0180122FA01F0CB40C1F1E6
:101910002001DBB2C0B2C01A2CFA01F3D11A9143F4
:1019200011EAC311E6D1704701491820ABBEFEE7AA
:10193000260002005FEA400C08BF91F0000F4FEA5A
:101940008C234FEAC12243EA51514FEA1C5018BF81
:1019500000F5F0404FEA300018BF41F000415FEA67
:101960006C5C00F02980BCF1FF3F08BF40F0804074
:101970007047130C06BF12044FF0100C4FF0000C10
:10198000130E04BF12020CF1080C130F04BF120156
:101990000CF1040C930F04BF92000CF1020CD30F56
:1019A00004BF52000CF1010C11464FF00002A0F1EF
:1019B0001F00A0EB0C00704711F0004F08BF7047EC
:1019C00031F000413FF4D5AF0B0C06BF09044FF0D6
:1019D000100C4FF0000C0B0E04BF09020CF1080CA8
:1019E0000B0F04BF09010CF1040C8B0F04BF89001D
:1019F0000CF1020CCB0F04BF49000CF1010CCCF12F
:101A00002003A0EB0C0022FA03F302FA0CF241EAE5
:101A1000030100F10100704720F07F4C80EA0300D1
:101A200023F07F47ACEB070303F57C5300F0004045
:101A300003F1FF032DE980494FEA154B09B44FEA42
:101A4000144325EA0B4E24EA03480FF2042606EB62
:101A5000132749083E785FEA320203FB0667C7F5A1
:101A6000000707FB06F64FEA54374FEAD64606F161
:101A7000020607FB066CCCF1005C4FEA1C472CEA1F
:101A8000074C07FB06F40CFB06F504EB15464FEA82
:101A9000961634BF00204FF000404FEAD13706FBC6
:101AA00007FC4FEA1C4C0CFB0BF7D21B03FB0CF79B
:101AB00061EB07010CFB0EF7B0EB074072EB17422E
:101AC0000CFB08F734BFA2EB0742B2EB074261EB15
:101AD00017414FEA0C444FEA910706FB07FC4FEA17
:101AE0001C4C0CFB0BF7B0EBC74072EB573203FBFF
:101AF0000CF734BFA2EBC742B2EBC74261EB5731E0
:101B00000CFB0EF7B0EBC70072EB57720CFB08F73B
:101B100034BFA2EBC702B2EBC70261EB5771039F60
:101B20004FEA816141EA921104EBCC044FEAD137CC
:101B30004FEA826206FB07FC42EA90124FEA80609D
:101B40004FEA1C4C0CFB0BF7D21B03FB0CF761EBB1
:101B500007010CFB0EF7B0EB074072EB17420CFBD2
:101B600008F734BFA2EB0742B2EB074261EB174123
:101B70004FEA8C554FEA910704EB9C2406FB07FCC7
:101B80004FEA1C4C0CFB0BF7B0EBC74072EB573223
:101B900003FB0CF734BFA2EBC742B2EBC74261EBC9
:101BA00057310CFB0EF7B0EBC70072EB57720CFB12
:101BB00008F734BFA2EBC702B2EBC70261EB577163
:101BC00015EB4C254FEA816141EA92114FEA82629E
:101BD0004FEAD13742EA901206FB07FC44F10004B9
:101BE0004FEA80604FEA1C4C0CFB0BF7D21B03FB47
:101BF0000CF761EB07010CFB0EF7B0EB074072EB43
:101C000017420CFB08F734BFA2EB0742B2EB0742C6
:101C100061EB174115EB1C154FEA813141EA924106
:101C20004FEA823242EA90424FEA80304FEA0C7625
:101C300044F1000448EA03434EEA0B484FF0000E1B
:101C4000B2EB080C71EB030724BF624639464EEB3A
:101C50000E0E4FF0000B0018524149414BEB0B0B9D
:101C6000B2EB080C71EB03077BF1000B24BF62465B
:101C700039464EEB0E0E4FF0000B00185241494111
:101C80004BEB0B0BB2EB080C71EB03077BF1000B7A
:101C900024BF624639464EEB0E0E51EA020718BFCA
:101CA00046F0010616EB0E7655F1000254F10001E4
:101CB00003D5BDE88901BDE80088BDE88901BDE81C
:101CC0000048B619524141EB0101A3F101037047ED
:101CD00080807F7E7D7C7B7A797877767675747369
:101CE000727171706F6E6E6D6C6C6B6A6A69686828
:101CF000676666656464636362616160605F5F5EBE
:101D00005E5D5D5C5C5B5B5A5A5959585857575633
:101D10005655555554545353525252515150505098
:101D20004F4F4F4E4E4D4D4D4C4C4C4B4B4B4A4AEA
:101D30004A4949494848484747474746464645452E
:101D40004544444444434343434242424241414167
:101D5000002B9C4630D477002BD01CB54FEA3707B8
:101D600003B44FF010004FF01001BAF1000F06D08D
:101D7000BCF1000FDCBF40F0080040F008014FF05C
:101D800000000FBCBDE810400BF1010BBBF1010FCF
:101D900008BF5FEA170722BF12F1010211F101012A
:101DA0004FF0004143F1000300F0004043EA00001F
:101DB0007047F9D35708D0E746EA064613F1400FBB
:101DC0004FEA16461FDD13F1200FDFBF16430A4608
:101DD000002120335B42BED0C3F1200746EA06460D
:101DE00002FA07F74FEA164646EA0706C3F120074C
:101DF00022FA03F201FA07F721FA03F14FF0000388
:101E000042EA0702A7E746EA020646EA06464FEA22
:101E1000164646EA0106BCBF46EA0646360C4FF0B7
:101E200000034FF000024FF0000194E72DE9804CD1
:101E30009A46934670B491E8380007C831EA400CDE
:101E400048BF34EA430C03D5FFF7E6FDFFF780FFF8
:101E5000F0BCBDE8008C2DE9804C9A46934670B4E6
:101E600091E8380007C810F0804F08BF13F0804F8A
:101E700003D100F005F8FFF76BFFF0BCBDE8008C64
:101E800020F07F4780EA030023F07F4C07EB0C0330
:101E9000A3F57C5300F00040A3F1FE0392F0000F85
:101EA00000F0B38095F0000F00F077802DE9014934
:101EB0004FEA11404FEA144621EA004800FB06FCB5
:101EC00024EA064708FB06F607FB08F800FB07F7BD
:101ED00018EB06484CEB164C4FEA124B18EB074830
:101EE0004FEA15464CEB174022EA0B4E0BFB06FC63
:101EF00025EA06470EFB06F607FB0EFE0BFB07F76F
:101F00001EEB064E4CEB164C4FF000061EEB074E38
:101F10004CEB174B18EB0B0840F1000018EB0E0BC5
:101F200058EB000840F100008F1A4FF000013CBF51
:101F3000C943661B14BFB5EB040C00213CBFC94369
:101F4000F61B4FEA17444EEA8E0E27EA04454FEA85
:101F50001C4704FB07622CEA074C05FB07F70CFB48
:101F600005F604FB0CFC16EB074642EB174216EB9A
:101F70000C4642EB1C421BEB060658EB02024141A9
:101F800046EA9E0601D5BDE80189B619524141EBEA
:101F90000101A3F10103BDE801894FEA14454FEAAD
:101FA000114724EA054621EA074C05FB07F406FB26
:101FB00007F70CFB06F105FB0CFC11EB074144EBAA
:101FC00017444FEA124711EB0C4144EB1C4422EA40
:101FD000074C05FB07F206FB07F70CFB06F605FBB3
:101FE0000CFC16EB074642EB174216EB0C4642EB95
:101FF0001C456A1854F1000148BF7047B619524198
:1020000041EB0101A3F10103704795F0000F37D0B8
:102010004FEA11424FEA144721EA024624EA074CEC
:1020200002FB07F106FB07F70CFB06F402FB0CFCB6
:1020300014EB074441EB17414FEA154714EB0C44EE
:1020400041EB1C4125EA074C02FB07F506FB07F7AD
:102050000CFB06F602FB0CFC16EB074645EB17459E
:1020600016EB0C4645EB1C42121951F1000148BF1A
:102070007047B619524141EB0101A3F101037047CA
:102080004FEA14454FEA114724EA054621EA074C76
:1020900005FB07F106FB07F70CFB06F24FF0000605
:1020A00005FB0CFC12EB074241EB174112EB0C4213
:1020B00051EB1C4148BF7047921841EB0101A3F15D
:1020C0000103704700BFFEE710B5024800F094F826
:1020D00010BD00005401002010B5024800F08CF83B
:1020E00010BD0000B4010020014608781038182304
:1020F000B0FBF3F20848805CC865032A05D908687C
:102100006FF30900001D886503E008686FF309009C
:102110008865886D70470000847E000801460020B5
:102120008A6A8B69CBB932B1012A0DD0022A03D059
:10213000032A10D10EE000BFCB6A03F08073B3F125
:10214000807F00D1012007E0CB6AB3F1C07F00D1CE
:10215000012001E000E000BF34E08B69B3F5005FCF
:102160001AD132B1012A07D0022A03D0032A11D191
:102170000AE000BF01200EE0CB6A03F08073B3F1E8
:10218000807F00D1012006E0CB6AB3F1C07F00D18F
:10219000012000E000BF15E032B1012A05D0022A7B
:1021A00004D0032A0CD103E000BF00BF012008E0E7
:1021B000CB6A03F08073B3F1807F00D1012000E08F
:1021C00000BF00BF7047704772B600BFFEE7014610
:1021D00091F83500022803D080204865012070471F
:1021E000052081F835000868006820F001000A68C1
:1021F00010600020F3E70000F8B5044600200090CE
:102200008C4800684FF41651B0FBF1F7A56D2E68AD
:1022100094F85C1008208840304098B1206800682D
:1022200000F0040070B12068006820F0040021680C
:10223000086094F85C1008208840A860606D40F049
:102240000100606594F85C1001208840304068B15E
:102250002068406900F0800040B194F85C100120D3
:102260008840A860606D40F00200606594F85C10E2
:1022700004208840304068B12068006800F0020007
:1022800040B194F85C1004208840A860606D40F074
:102290000400606594F85C1010208840304078B3EA
:1022A0002068006800F0080050B394F85C1010201B
:1022B0008840A8602068006800F4802080B1206811
:1022C000006800F4002028B9206CC8B12046216CB9
:1022D000884715E0A06C98B12046A16C88470FE0B4
:1022E0002068006800F4807028B92068006820F039
:1022F000080021680860206C10B12046216C8847D6
:1023000094F85C10202088403040002865D0206878
:10231000006800F0100000285FD094F85C102020C6
:102320008840A86094F83500052828D12068006806
:1023300020F01600216808602068406920F08000C5
:1023400021684861206C08B9A06C28B12068006839
:1023500020F008002168086094F85C103F20884055
:10236000A860012084F8350000BF002084F8340004
:1023700000BF206D10B12046216D8847F8BD206850
:10238000006800F4802080B12068006800F400201C
:1023900028B9606C10B12046616C88471DE0E06B85
:1023A000D8B12046E16B884717E02068006800F448
:1023B000807068B92068006820F01000216808600B
:1023C000012084F8350000BF002084F8340000BFED
:1023D000E06B10B12046E16B8847606D38B3606DEB
:1023E00000F00100F0B1052084F835002068006895
:1023F00020F001002168086000BF0098401C009098
:10240000B84200D905E02068006800F0010000280B
:10241000F3D100BF012084F8350000BF002084F80C
:10242000340000BFE06C10B12046E16C884700BF6B
:10243000A4E70000240000202DE9F0410446002517
:1024400000F054F9074614B90120BDE8F081606A34
:1024500000B100BF022084F8350000BF002084F8DE
:10246000340000BF2068006820F001002168086087
:102470000AE000F03BF9C01B052805D92020606563
:10248000032084F83500E0E72068006800F00100D0
:102490000028EED12068056821480540D4E90101F3
:1024A0000843E16808432169084361690843A16959
:1024B0000843E1690843216A08430543606A042828
:1024C00003D1D4E90B010843054320680560206867
:1024D000456925F00705606A0543606A04280DD147
:1024E000A06A0543E06A48B12046FFF717FE28B10D
:1024F00040206065012084F83500A6E7206845612A
:102500002046FFF7F1FD064694F85C103F20884016
:10251000B06000206065012084F83500002094E759
:102520003F8010F0F8B502460B460025002400203D
:102530000021C7E0012606FA01F51E6806EA050437
:10254000AC4274D11E7906F00306012E04D01E7928
:1025500006F00306022E13D190684F000326BE40FA
:10256000B0434F00DE68BE403043906050680126A3
:102570008E40B0431E79C6F300168E403043506043
:102580001E7906F00306032E09D0D0684F000326FB
:10259000BE40B0434F009E68BE403043D0601E79BD
:1025A00006F00306022E13D1CF0802F1200656F8DA
:1025B00027004E07F70E0F26BE40B0434F07FF0E11
:1025C0001E69BE403043CF0802F1200646F82700BE
:1025D00010684F000326BE40B0431E7906F0030684
:1025E0004F00BE40304310605E6806F44036002E57
:1025F00067D000BF00260096344E366846F4804609
:10260000324F3E603E46366806F48046009600BF74
:1026100000BF2F4E8F0856F827008E07370F0F2662
:10262000BE40B0432B4EB24202D1002615E048E036
:10263000294EB24201D101260FE0284EB24201D10B
:1026400002260AE0264EB24201D1032605E0254EBD
:10265000B24201D1042600E007268F073F0FBE409B
:1026600030431B4E8F0846F827001F4E3068A043AA
:102670005E6806F4801606B120431B4E3060361D9E
:102680003068A0435E6806F4001606B12043164E7B
:10269000361D3060144E361F3068A0435E6806F465
:1026A000003606B12043104E361F3060361F3068AA
:1026B000A0435E6806F4803606B120430A4E083E09
:1026C0003060491C1029FFF435AFF8BD4438024092
:1026D00008380140000002400004024000080240A7
:1026E000000C024000100240083C01400148006814
:1026F000704700001800002003480068034909786B
:10270000084401490860704718000020200000209C
:1027100010B50D48006840F400700B490860084689
:10272000006840F4806008600846006840F48070EB
:102730000860032000F0D6F80F2000F007F800F042
:1027400055F8002010BD0000003C0240F0B587B0F5
:1027500004460026002700BF002000901E480068A5
:1027600040F400301C4908600846006800F400305E
:10277000009000BF00BF01A902A800F065FA00F0B8
:102780008BFA06461548B6FBF0F0471E144815496B
:10279000086040F2E7311348C160476000210161E1
:1027A0008160816101F020F9054695B90D4801F07D
:1027B0004FF905466DB9192000F042F8102C07D2E8
:1027C00000222146192000F04FF80748046000E07D
:1027D0000125284607B0F0BD4438024040420F00B2
:1027E00000440140140200201C00002008B500BF76
:1027F000002000901148006840F480400F490860B4
:102800000846006800F48040009000BF00BF00BF91
:1028100000200090081F006840F08050091F0860E9
:102820000846006800F08050009000BF00BF002202
:102830000F21901E00F018F808BD00004438024037
:102840000146084600280DDB00BF00BF00F01F0353
:1028500001229A4043099B0003F1E023C3F80021C1
:1028600000BF00BF00BF70472DE9F05F80460D46F6
:102870001646002702F038FA074639462A463346FC
:1028800001F00700C0F1070ABAF1040F02D94FF0B6
:10289000040A01E0C0F1070AD14600F1040ABAF1C6
:1028A000070F02D24FF0000A01E0A0F1030AD4465C
:1028B0004FF0010A0AFA09FAAAF1010A0AEA020A21
:1028C0000AFA0CFA4FF0010B0BFA0CFBABF1010BFF
:1028D0000BEA030B4AEA0B042146404602F00CFACD
:1028E000BDE8F09F00BF00F00702064B19684FF6E5
:1028F000FF031940044B0B4343EA0221014B1960CB
:1029000000BF70470CED00E00000FA05F8B5044682
:1029100000250026207800F0010020B9207800F082
:102920000400042831D1002060498866FFF7DEFEEC
:10293000054606E0FFF7DAFE401B022801D9032016
:10294000F8BD5B480068C0F3C0600028F2D1D4E94C
:10295000011041EA8011207B41EA00705449843122
:102960000860012051498866FFF7C0FE054606E071
:10297000FFF7BCFE401B022801D90320E0E74C48CA
:102980000068C0F3C0600028F2D0207800F0020098
:1029900002287DD100BF00200090454840300068EB
:1029A00040F080504249403108600846006800F01D
:1029B0008050009000BF00BF3E48006840F4807027
:1029C0003C490860FFF792FE054606E0FFF78EFEE1
:1029D000401B022801D90320B2E73648006800F402
:1029E00080700028F2D032487030006800F44076E1
:1029F0004EB3208A00F44070B04224D02C4870308E
:102A0000006820F4407601202B490860002008600F
:102A1000274870300660006800F0010098B1FFF7A9
:102A200065FE054608E0FFF761FE401B41F2883174
:102A3000884201D9032083E71D4870300068C0F345
:102A400040000028EFD000BF208A00F44070B0F5AD
:102A5000407F0CD116480830006820F4F810174A5F
:102A600021691140084312490831086007E0104805
:102A70000830006820F4F8100D49083108600C484F
:102A800070300068218AC1F30B010843084900E057
:102A900002E07031086000BF207800F008000828CC
:102AA00002D1207D06490860002049E70000474226
:102AB0000038024000700040400E4742FFFCFF0F0C
:102AC000E011474270B504460D460CB9012070BDB7
:102AD0005848006800F00700A84209D255490D7017
:102AE0000846006800F00700A84201D00120EEE788
:102AF000207800F0020002281DD1207800F00400A8
:102B0000042805D14C48006840F4E0504A49086068
:102B1000207800F00800082805D14748006840F4F4
:102B20006040454908604448006820F0F000A16812
:102B3000084341490860207800F00100A8B36068AC
:102B4000012807D13C4808380068C0F34040B8B9B4
:102B50000120BCE76068022802D06068032807D122
:102B6000354808380068C0F3406048B90120AEE736
:102B7000314808380068C0F3400008B90120A6E7D2
:102B80002D48006820F00300616808432A49086066
:102B9000FFF7ACFD064609E0FFF7A8FD801B41F2F8
:102BA0008831884202D9032091E707E02248006873
:102BB00000F00C006168B0EB810FEDD11D4800689A
:102BC00000F00700A84209D91A490D7008460068AC
:102BD00000F00700A84201D0012078E7207800F03B
:102BE0000400042807D11448006820F4E050E1688C
:102BF000084311490860207800F00800082808D12F
:102C00000D48006820F46040216940EAC1000A498B
:102C1000086000F051F808490968C1F30311074A38
:102C2000515CC8400649086006480068FFF78EFD01
:102C300000204CE7003C0240083802408C7E00082F
:102C4000240000201C0000200F2202600D4A1268A0
:102C500002F0030242600B4A126802F0F002826046
:102C6000084A126802F4E052C260064A126802F48E
:102C70006042D2080261044A126802F007020A6048
:102C80007047000008380240003C024001480068DC
:102C9000704700002400002000B5FFF7F7FF04494B
:102CA0000968C1F34231034A515CC84000BD0000CD
:102CB000083802409C7E00082DE9F04700240025DA
:102CC0000026A1462548006800F00C0020B1042829
:102CD00005D008283AD105E0DFF8849039E0DFF824
:102CE000849036E01D48001F006800F03F041B4838
:102CF000001F006800F4800078B11A481749091FC6
:102D00000968C1F38811A0FB017001462246002327
:102D10003846FDF767FB05460EE011480F49091FCD
:102D20000968C1F38811A0FB017001462246002307
:102D30003846FDF757FB05460848001F0068C0F3FA
:102D40000140401C4600B5FBF6F902E0DFF81090A8
:102D500000BF00BF4846BDE8F087000008380240C9
:102D60000024F40040787D01F8B504460CB9012038
:102D7000F8BD207800F00100002874D0F948006800
:102D800000F00C0004280DD0F648006800F00C009C
:102D9000082813D1F348001F006800F48000B0F544
:102DA000800F0BD1EF4808380068C0F3404000287E
:102DB00059D06068002856D10120D9E700BF60686B
:102DC000B0F5803F08D1E7480838006840F480300B
:102DD000E449083908601EE06068B0F5A02F0DD105
:102DE000E0480838006840F48020DE49083908606F
:102DF0000846006840F4803008600CE0D948083884
:102E0000006820F48030D749083908600846006817
:102E100020F48020086000BF606890B1FFF766FC76
:102E2000054606E0FFF762FC401B642801D9032039
:102E30009EE7CC4808380068C0F340400028F1D035
:102E400011E0FFF753FC054606E0FFF74FFC401B7F
:102E5000642801D903208BE7C24808380068C0F312
:102E600040400028F1D1207800F0020002285FD114
:102E7000BC48006800F00C0058B1BA48006800F087
:102E80000C0008281CD1B748001F006800F480001F
:102E9000B0B9B44808380068C0F3400020B1E06819
:102EA000012801D0012063E7AE480838006820F00F
:102EB000F800216940EAC100AA490839086037E0F2
:102EC000E06800B30120A8490860FFF70FFC054641
:102ED00006E0FFF70BFC401B022801D9032047E75F
:102EE000A04808380068C0F340000028F1D09D4891
:102EF0000838006820F0F800216940EAC1009949CB
:102F00000839086014E0002097490860FFF7EEFBDD
:102F1000054606E0FFF7EAFB401B022801D9032023
:102F200026E7904808380068C0F340000028F1D137
:102F3000207800F0080008282CD16069A8B1012091
:102F40008A490860FFF7D2FB054606E0FFF7CEFB93
:102F5000401B022801D903200AE782486C30006830
:102F6000C0F340000028F1D014E000207F49086041
:102F7000FFF7BCFB054606E0FFF7B8FB401B022845
:102F800001D90320F4E677486C300068C0F34000B4
:102F90000028F1D1207800F00400042870D1002727
:102FA00070483830006800F0805090B900BF0020B1
:102FB00000906C483830006840F0805069493831E2
:102FC00008600846006800F08050009000BF00BF15
:102FD00001276748006800F48070B0B96448006851
:102FE00040F4807062490860FFF780FB054606E008
:102FF000FFF77CFB401B022801D90320B8E65C48A0
:10300000006800F480700028F2D000BFA06801289A
:1030100008D154486830006840F0010051496831D7
:1030200008601DE0A06805280DD14E486830006892
:1030300040F004004B49683108600846006840F0E1
:10304000010008600CE047486830006820F001008B
:103050004449683108600846006820F004000860B0
:1030600000BFA068A8B1FFF741FB054609E0FFF7E4
:103070003DFB401B41F28831884202D9032077E6AC
:1030800026E0384868300068C0F340000028EED0E1
:1030900013E0FFF72BFB054608E0FFF727FB401B7B
:1030A00041F28831884201D9032061E62D48683019
:1030B0000068C0F340000028EFD1012F07D1294854
:1030C0003830006820F0805026493831086000BF51
:1030D000A069002845D02348006800F00C000828AB
:1030E0005DD0A069022845D100201F490866FFF77E
:1030F000FDFA054606E0FFF7F9FA401B022801D960
:10310000032035E6174808380068C0F340600028FF
:10311000F1D1D4E907010843616A40EA8111012233
:10312000A06AC2EB500041EA00412C20005D41EA58
:1031300000600C49091F086001200B490866FFF771
:10314000D5FA054606E0FFF7D1FA401B022801D95F
:1031500003200DE6034808380068C0F340600028EB
:10316000F1D049E00838024000004742800E474253
:1031700000700040002021490866FFF7B7FA0546B5
:1031800006E0FFF7B3FA401B022801D90320EFE560
:103190001B480068C0F340600028F2D12CE0A06911
:1031A000012800D1E4E51648001D0668A069012841
:1031B00020D006F48001E06981421BD106F03F0176
:1031C000206A814216D147F6C0703040616AB0EB88
:1031D000811F0FD106F440310122A06AC2EB5000DA
:1031E000B1EB004F06D106F070612C20005DB1EB11
:1031F000006F01D00120BBE50020B9E50000474287
:10320000003802402DE9F04104460D4616460027DD
:1032100000BF207F012802D10220BDE8F0810120FB
:10322000207700BF0220607700BFCA202168486273
:1032300053202168486200BF2068806800F48060E5
:10324000E0B1FFF753FA074612E0FFF74FFAC01B51
:10325000B0F57A7F0CD900BFFF202168486200BF1B
:103260000320607700BF0020207700BF0320D4E751
:103270002068C068C0F380000028E6D1206880681C
:1032800020F48060216888602068C06800F08000B9
:1032900060F490602168C860FFF728FA074612E0E2
:1032A000FFF724FAC01BB0F57A7F0CD900BFFF20CE
:1032B0002168486200BF0320607700BF00202077AC
:1032C00000BF0320A9E72068C068C0F38000002881
:1032D000E6D02068806820F00700216888602068B8
:1032E0008068304321688860206845612068806874
:1032F00040F480602168886000BFFF202168486238
:1033000000BF0120607700BF0020207700BF00BF12
:1033100083E7000070B505460B4616460024286872
:1033200040680E4900EA0104200CD870C4F3042060
:10333000587004F03F009870C4F3423018705EB9C2
:10334000D87800F0ABFDD870587800F0A7FD587021
:10335000987800F0A3FD9870002070BD3FFFFF003B
:1033600070B504460B46164600252068806A5860F2
:1033700020680069C0F30E009860206800680E495C
:1033800000EA0105C5F305401870C5F30620587022
:1033900005F07F009870A80DD8705EB9187800F01D
:1033A0007DFD1870587800F079FD5870987800F01D
:1033B00075FD9870002070BD7F7F7F0070B504465A
:1033C00001250CB9012070BD607F20B90020207755
:1033D000204600F04DF8022060772068C068C0F3F6
:1033E000001000283CD100BFCA2021684862532049
:1033F0002168486200BF204600F068FD0546EDB92F
:1034000020688068194908402168886021696068DF
:103410000843616908432168896808432168886016
:103420002168E068086120680169208941EA00405C
:1034300021680861204600F06EFD05465DB92068F0
:10344000006C20F48020216808642068006CA16969
:1034500008432168086400BFFF202168486200E03B
:1034600000250DB9012060772846ACE7BFFF8FFF2C
:1034700010B586B0044618216846FDF7FCFA0949E4
:10348000206888420CD102200090C0010490684658
:10349000FFF73CFA08B1FEF797FE012002490860E9
:1034A00006B010BD002800403C0E47422DE9F04117
:1034B00005460C4617464FF0000800BF287F01283C
:1034C00002D10220BDE8F0810120287700BF022050
:1034D00068774FB9607800F01000102804D1607848
:1034E00000F0EF000A30607087B9E07800F0E1FC8E
:1034F0000304607800F0DDFC43EA0023A07800F0CC
:10350000D8FC0343207843EA403809E0E07800041F
:10351000617840EA0120A1780843217840EA4138E7
:1035200000BFCA202968486253202968486200BF4A
:10353000284600F0CBFC064646B90B4808EA0000D6
:1035400029684860284600F0E6FC06460EB90120CE
:10355000687700BFFF202968486200BF00BF0020D5
:10356000287700BF3046ADE73FFFFF002DE9F0416F
:1035700004460D4617464FF0000800BF207F012883
:1035800002D10220BDE8F0810120207700BF022097
:103590006077CFB92068806800F0400000B102E099
:1035A0000020E87000BF287800F083FC03046878EE
:1035B00000F07FFC43EA0023A87800F07AFC034384
:1035C000E87843EA805812E02068806800F0400004
:1035D00000B102E00020E87000BF2878000469789C
:1035E00040EA0120A9780843E97840EA815800BF01
:1035F000CA202168486253202168486200BF2046E3
:1036000000F064FC0646B6B9124808EA00002168DA
:1036100008602068806820F4802021688860D5E9EF
:1036200003010843216889680843216888602046AF
:1036300000F071FC06460EB90120607700BFFF2044
:103640002168486200BF00BF0020207700BF3046DD
:1036500098E700007F7F7F0070B5044600250B4887
:103660002168C860FFF742F8054607E0FFF73EF81B
:10367000401BB0F57A7F01D9032070BD2068C06877
:1036800000F020000028F1D00020F6E75F3F0100A5
:1036900070470000F8B504462068466820688568D1
:1036A000C5F3801048B905F0010030B1C6F38010B1
:1036B00018B12046216C8847F8BDC5F3400030B1F1
:1036C000C6F3C01018B12046616C8847F4E7C5F313
:1036D000401030B9C5F3801018B9C5F30020002898
:1036E0007CD0C6F3401000287DD0C5F38010F0B127
:1036F00094F8510003280ED0606D40F0040060651E
:1037000000BF002000902068C0680090206880689A
:10371000009000BF0BE000BF002000902068C06850
:10372000009020688068009000BF00BFC4E7C5F328
:10373000401088B1606D40F00100606500BF00205E
:1037400000902068806800902068006820F04000A9
:103750002168086000BF00BFC5F3002058B1606D4C
:1037600040F00800606500BF00200090206880687D
:10377000009000BF00BF606D78B32068406820F003
:10378000E00021684860012084F8510006F0020042
:10379000022802D006F0010008B32068406820F03B
:1037A000030021684860E06C50B11048E16C086586
:1037B000E06CFEF70CFD18B1606D40F040006065F4
:1037C000A06C50B10948A16C0865A06CFEF7FFFC25
:1037D00018B1606D40F04000606503E003E02046F2
:1037E000FFF756FF68E700BF66E70000F1420008F8
:1037F00010B504460CB9012010BD606A38B9606884
:10380000B0F5827F00D105E00021E16102E00021F6
:10381000216161610021A16294F8510028B9002062
:1038200084F85000204600F047F8022084F8510048
:103830002068006820F0400021680860A08800F43B
:103840008270218901F404410843A18901F40061D7
:103850000843217C01F002010843217D01F00101B0
:103860000843218B01F400710843217F01F03801E6
:1038700008432021095D01F080010843218D01F4F6
:1038800000510843216808600421A06901EA104042
:1038900094F8241001F01001084321684860206862
:1038A000C06920F400602168C861002060650120C3
:1038B00084F8510000209FE710B586B0044614211B
:1038C00001A8FDF7D8F84149206888427CD100BFA3
:1038D000002000903E48006840F480503C49086059
:1038E0000846006800F48050009000BF00BF00BF91
:1038F0000020009036481438006840F00100344938
:10390000143908600846006800F00100009000BF0C
:1039100000BFE020019002200290002003900320CD
:1039200004900520059001A92A48FEF7FBFD2A48CE
:103930002A4908604FF0C060486000212748816034
:10394000C1604FF4806101610021416181614FF4E8
:103950008071C1614FF44031016200214162FEF784
:103960006BFD08B1FEF730FC00BF1C48E0648463C7
:1039700000BF194830301A4908604FF08060486035
:103980004021174881600021C1604FF480610161CE
:103990000021416181614FF48071C16109020162BE
:1039A00000214162FEF748FD08B1FEF70DFC00BFA3
:1039B0000B48A064846300BF002205212320FEF78A
:1039C00053FF2320FEF73CFF06B010BD003001403E
:1039D00044380240000002401064024054010020BC
:1039E000B40100207047704710B504460CB901209F
:1039F00010BD94F83D0028B9002084F83C00204612
:103A000000F025F8022084F83D00211D206800F018
:103A1000F3FC012084F8460000BF84F83E00012139
:103A20003F200155402001554120015500BF00BFF6
:103A3000012084F8420043200155442001554520CF
:103A4000015500BF012084F83D000020D0E77047F9
:103A5000014691F83D00012801D001207047022065
:103A600081F83D000868C06840F001000B68D8602C
:103A7000164B0868984213D00868B0F1804F0FD0F9
:103A8000134B086898420BD0124B0868984207D035
:103A9000114B0868984203D0104B086898420CD12B
:103AA0000868806800F00702062A0CD008680068E1
:103AB00040F001000B68186005E00868006840F0FD
:103AC00001000B6818600020C8E7000000000140FA
:103AD0000004004000080040000C0040004001408D
:103AE000704770B504462068C5682068066906F00E
:103AF0000200022819D105F00200022815D1401F4A
:103B000021680861012020772068806900F00300A7
:103B100018B12046FFF7E4FF05E0204600F097F8D3
:103B2000204600F095F80020207706F004000428D5
:103B300019D105F00400042815D1C043216808619B
:103B4000022020772068806900F4407018B1204678
:103B5000FFF7C6FF05E0204600F079F8204600F0A8
:103B600077F80020207706F00800082819D105F022
:103B70000800082815D1C043216808610420207777
:103B80002068C06900F0030018B12046FFF7A8FFC5
:103B900005E0204600F05BF8204600F059F80020D0
:103BA000207706F01000102819D105F01000102819
:103BB00015D1C04321680861082020772068C069BA
:103BC00000F4407018B12046FFF78AFF05E0204658
:103BD00000F03DF8204600F03BF80020207706F08A
:103BE000010048B105F0010030B16FF0010021681B
:103BF0000861204600F02EF806F08000802809D1E8
:103C000005F08000802805D1C04321680861204666
:103C1000FFF7E8FE06F04000402809D105F040001B
:103C2000402805D1C04321680861204600F01EF8F5
:103C300006F02000202809D105F02000202805D119
:103C4000C043216808612046FFF7CDFE70BD704774
:103C50007047000010B5044603492068884201D12E
:103C6000FEF74AFD10BD000000440140704700000F
:103C700008B500BF002000900E48006840F48000A6
:103C80000C4908600846006800F48000009000BFFE
:103C900000BF002205213820FEF7E6FD3820FEF7A0
:103CA000CFFD002205213A20FEF7DEFD3A20FEF787
:103CB000C7FD08BD3038024010B5154A0421012067
:103CC00001F064FF13490860134A0421012001F048
:103CD0005DFF12490860124A0421012001F056FFDD
:103CE00010490860104A0021104801F09CFF10495B
:103CF0000860104A0021104801F095FF0F49086044
:103D00000F4A00210F4801F08EFF0F49086010BDD7
:103D10003C7E00080C000020547E000810000020AB
:103D20006C7E000814000020D07D00087F68000829
:103D300000000020F47D00088B68000804000020CB
:103D4000187E0008976800080800002008B500BF2A
:103D5000002000901548006840F0040013490860F6
:103D60000846006800F00400009000BF00BF00BFDC
:103D7000002000900846006840F080000860084677
:103D8000006800F08000009000BF00BF00BF00206E
:103D900000900846006840F001000860084600688E
:103DA00000F00100009000BF00BF08BD30380240A5
:103DB00000B587B0142102A8FCF75DFE0020019039
:103DC000214822490860002048607F211F48816007
:103DD000FF21C1604FF4C00101614FF480114161C6
:103DE00000218161FFF7EAFA08B1FEF7EDF9002042
:103DF0008DF808008DF809008DF80A0005900690EE
:103E0000002202A91148FFF7B1FB08B1FEF7DCF967
:103E100001208DF804008DF805008DF806000020C3
:103E20008DF80700002201A90848FFF73FFB08B101
:103E3000FEF7CAF9042200210448FFF7E3F908B1AC
:103E4000FEF7C2F907B000BD00280040DC000020EA
:103E500010B50E480E4908604FF48270486000218A
:103E60000B488160C160016141614FF40071816163
:103E70000021C1610162416281620A21C162FFF7D2
:103E8000B7FC08B1FEF7A0F910BD000000300140FA
:103E9000FC00002000BFFEE700BFFEE7014600BFB8
:103EA000080900EB8000420001F00F001044C0B28E
:103EB00070470146002203E0521CA1F10A00C1B282
:103EC0000A29F9D2100741EA1060704770B504461C
:103ED000002600252068C06800F04000C8B92068AE
:103EE000C06840F080002168C860FEF7FFFB06460E
:103EF00008E0FEF7FBFB801BB0F57A7F02D90420B7
:103F0000607701252068C06800F0400008B9012DE5
:103F1000EFD1284670BD70B5044600252068C06802
:103F200020F080002168C8602068806800F02000D0
:103F300030B92046FFF790FB10B1042060770125CF
:103F4000284670BD10B500F0FBFC10BD2DE9F04710
:103F50000746884600BFDFF870A09AF80000532893
:103F600001D000F0EDFC00BFEFF3118108462021E5
:103F700081F3118800BF00BF07EB470212491831D7
:103F800001EBC204E1684D1CA168A94200D10025E3
:103F90006169022903D100BF2169A942FCD02169CE
:103FA000A94208D0E268616801EB020989F8008043
:103FB000E560012600E00026C1B281F3118800BF50
:103FC00000BF3046BDE8F087304B00202DE9F041BE
:103FD00004460D46164600BF0E4F3878532801D0D0
:103FE00000F0AEFC00BFEFF311800746202080F305
:103FF000118800BF00BF32462946204600F00CF869
:104000008046F8B280F3118800BF00BF4046BDE88B
:10401000F0810000304B00202DE9F047074688462C
:104020001646C24607EB47011B4800EBC109D9F809
:10403000140020B1012811D0022826D11EE04846E4
:1040400000F0B6FC0546B54201D2002405E0344636
:1040500032465146484600F002FE18E0484600F05D
:10406000A7FC0546B54201D2284600E0304604468A
:1040700022465146484600F0F2FD08E032465146DD
:10408000484600F0B1FD044601E0002400BF00BF37
:104090002046BDE8F0870000484B00200FB438B53B
:1040A000044606A800906A462046059900F008F8E4
:1040B000054600200090284638BC5DF814FB00003F
:1040C0002DE9F04F99B083460D46144603A814908D
:1040D0004020159000201690CDF860B0179000BFDA
:1040E0002E786D1C06B9E4E0252E79D100274FF01B
:1040F000010900BF2E78232E12D02B2E0CD02D2E8E
:1041000002D0302E10D103E047F001076D1C0EE005
:1041100047F002076D1C0AE047F004076D1C06E03B
:1041200047F008076D1C02E04FF0000900BF00BF18
:10413000B9F1000FDED14FF0000800BF2E78302E0D
:1041400001DB392E00DD07E06D1CA6F1300008EB25
:10415000880100EB4108F1E700BF002013902E78A2
:104160002E2E12D16D1C00BF2E78302E01DB392E81
:1041700000DD09E06D1CA6F13000139901EB81010F
:1041800000EB41001390EFE700BF2E7800BF6C2ECC
:1041900001D0682E02D16D1C2E7800E000E0F6E719
:1041A00000BF702E62D008DC252E71D0582E35D07D
:1041B000632E09D0642E70D113E0732E3CD0752E7F
:1041C0001DD0782E69D128E02168081D2060D1F823
:1041D000009009F0FF0A514614A800F0E3FC5DE0EE
:1041E0005FE02168081D2060D1F80090CDE90087CC
:1041F0000A22494614A8139B00F0E8FB4EE0216810
:10420000081D2060D1F80090CDE900870A224946B8
:1042100014A8139B00F050FC40E000BF2168081D6B
:104220002060D1F80090CDE900871022494614A8FB
:10423000139B00F041FC31E02168081D2060D1F89B
:1042400000A0BAF1000F01D10FF28C0A00BF9AF85A
:1042500000600AF1010A06B906E0314614A800F030
:10426000A1FC17980028F2DA00BF17E02168081DAA
:104270002060D1F80090002008210B461022CDE9E3
:104280000010494614A800F017FC07E000E004E025
:10429000252114A800F086FC00E000BF00BF6D1CC3
:1042A00003E0314614A800F07DFC17980028BFF603
:1042B00017AF00BF179800280ADD169820B103A990
:1042C0005846169AFFF782FEDDE91610084417904B
:1042D000179819B0BDE8F08F284E554C4C290000B6
:1042E00010B50248FFF7D6F910BD0000FC00002011
:1042F00070B50546AC6B0020E087E0862046FFF7EE
:10430000C7F970BD10B54FF0E020006903F0C8FA9E
:10431000012801D002F0E4FE10BD000000B593B00A
:10432000302107A8FCF7A7FB142102A8FCF7A3FB88
:1043300000BF002001902548006840F080502349CC
:1043400008600846006800F08050019000BF00BF80
:1043500000BF002001901E48006840F440401C4906
:1043600008600846006800F44040019000BF00BFAC
:10437000052007904FF4803008900120099002201A
:104380000D9041050E910C210F9160211091022199
:1043900011910421129107A8FEF7E6FC08B1FDF780
:1043A00013FF0F20029002200390002004904FF48E
:1043B0008050059000200690032102A8FEF782FBA2
:1043C00008B1FDF701FF13B000BD00004038024006
:1043D000007000400348006840F470000149086024
:1043E0007047000088ED00E010B50248FFF779FB48
:1043F00010BD00001402002010B50268244B984242
:104400000BD0B0F1804F08D0224B984205D0224B00
:10441000984202D0214B984203D122F070024B689F
:104420001A431B4B984214D0B0F1804F11D0194B56
:1044300098420ED0184B98420BD0184B984208D097
:10444000174B984205D0174B984202D0164B984212
:1044500003D122F44072CB681A4322F080034C69E6
:1044600043EA040202608B68C3620B688362084BF4
:10447000984201D10B69036301234361036903F08F
:1044800001031BB1036923F00103036110BD0000A8
:10449000000001400004004000080040000C004003
:1044A00000400140004401400048014010B504466E
:1044B0000F48806898B10F4800F006F90E4800F0E8
:1044C00003F90B49886800F0FFF80948C06830B16B
:1044D0000A4800F0F9F80649C86800F0F5F82CB170
:1044E000044800F0F1F8204600F0EEF810BD00009E
:1044F000D05600201980000816820008208200088B
:104500002DE9F04105460C4616461F46DDF8188099
:1045100000BF1648006A10B91448406A20B1012152
:1045200012482830FCF7E6FA00BFA5421CD03846F6
:1045300000F0F0F90E4800F0C7F84146284600F0B8
:1045400034F90C4800F0C0F84146204600F02DF93F
:104550003046FFF7ABFF00BF01200449086201218C
:1045600002482830FCF7C6FABDE8F081D05600209A
:104570001C80000827800008074908600021064ABF
:104580005160116151619161D1611162516200BF4D
:104590009160D16000BF7047D056002010B512481E
:1045A000406A28B11048C069401C0F49C86110E03A
:1045B0000D48006A40B90C4A1169106800F08EF984
:1045C0000A4800F081F804E007488069401C064969
:1045D0008861002004490862486200BF00BF0A21C8
:1045E000FFF7B4FC10BD0000D0560020E87F0008A3
:1045F00070B504460D461646104845600661406990
:10460000401C0E49486100BF00208860C86000BFA0
:1046100000BF00BF01F12800FCF757FA10B902F003
:104620002DF9A04705482830FCF74FFA08B902F0E9
:1046300038F900BF00BFFFF7B1FF70BDD0560020B2
:1046400010B50A210020FFF781FC184800F03CF863
:104650000A210020FFF77AFC1549486900F096F816
:10466000144800F031F81249886900F08FF81248B8
:1046700000F02AF80E49C86900F088F80F4800F0E9
:1046800023F80A210020FFF761FC0948806918B966
:104690000B4800F019F802E00A4800F015F80A216A
:1046A0000020FFF753FC0248806910BDE18100083B
:1046B000D0560020F9810008018200080C82000811
:1046C000DC7F0008F67F000870B505462C469CB1DB
:1046D0000FE020781B2807D160785B2804D12046A2
:1046E00000F00BF8044404E0204600F01DF8641CC0
:1046F00000BF20780028ECD170BD70B50646344666
:10470000002505E021780020FFF720FC641C6D1CCB
:10471000207810B120786D28F4D16D210020FFF7AA
:1047200015FC6D1C284670BD10B5044620787E2807
:1047300007DC2078202804DB21780020FFF706FC26
:1047400023E020780D2808D15C210020FFF7FEFB34
:1047500072210020FFF7FAFB17E020780A2808D121
:104760005C210020FFF7F2FB6E210020FFF7EEFB3B
:104770000BE05C210020FFF7E9FB78210020FFF728
:10478000E5FB2078022100F067F810BD70B5044603
:104790002546002C05DA2D210020FFF7D7FBE84342
:1047A000451C284600F07BF870BD70B504460D46E8
:1047B00005F01000102839D1912D33D12721002088
:1047C000FFF7C4FB7E2C06DC202C04DBE1B20020CA
:1047D000FFF7BCFB21E00D2C08D15C210020FFF786
:1047E000B5FB72210020FFF7B1FB16E00A2C08D1BF
:1047F0005C210020FFF7AAFB6E210020FFF7A6FB3B
:104800000BE05C210020FFF7A1FB78210020FFF7DF
:104810009DFB0221204600F01FF827210020FFF712
:1048200095FB18E02046FFF7B1FF14E005F02000EB
:10483000202803D1204600F032F80CE0302100207F
:10484000FFF784FB78210020FFF780FB2807C10ECB
:10485000204600F001F870BD2DE9F04107460E46F4
:104860003546082D00D9082515E0681EC5B2A800F8
:1048700027FA00F000F00F04092C06DC04F13000E8
:10488000C1B20020FFF762FB05E004F13700C1B2BE
:104890000020FFF75BFB002DE7DCBDE8F08170B581
:1048A0000546012402E004EB84004400B5FBF4F06B
:1048B0000928F8D800BFB5FBF4F00A21B0FBF1F2EB
:1048C00001FB120000F1300631460020FFF73EFBED
:1048D0000A20B4FBF0F4002CEDD170BD70B5054694
:1048E0000C462846FFF7F0FE3A210020FFF72EFB8A
:1048F0002046FFF74BFF3A210020FFF727FB044932
:104900004868FFF7E1FE3A210020FFF71FFB70BD6A
:10491000D056002010B50446064908682146FFF726
:10492000DDFF0548FFF7D0FE3A210020FFF70EFB20
:1049300010BD0000D0560020F67F000800BFFEE743
:1049400070B5144CA8212046FCF795F8032020618F
:10495000606111A0A0611349E16140F2DC51216264
:104960000021A1626162E1620BA020660E496166CE
:104970001021A16600212167E1666167002505E03D
:10498000C5F10F000949085C60556D1C102DF7D367
:1049900070BD0000304B00205465726D696E616C13
:1049A00000000000D84B0020B4510020B47E000865
:1049B00010B501460A69CB689A4204D88C68641E17
:1049C000E41AA01801E0D41A601E10BD2DE9FC5FA6
:1049D00006460F4692469846DDE90C45002F01DA5F
:1049E000784200E0384683464FF0010903E09BFB24
:1049F000FAFB09F10109D345F9DAC84500D9C146E6
:104A000034B1002F03DB05F00400042800D1641E3C
:104A100005F0020010B1B8F1000F11D005F001004F
:104A200070B96CB108E0641E2021304600F0BAF87D
:104A3000F068002800DA02E00CB1A145F3D300BF12
:104A4000F068002836DB002F05DA7F422D21304642
:104A500000F0A8F807E005F00400042803D12B219A
:104A6000304600F09FF8F068002823DB05F00200D4
:104A7000022814D105F0010088B9B8F1000F0ED159
:104A80006CB108E0641E3021304600F08BF8F0680D
:104A9000002800DA02E00CB1A145F3D300BFF068B2
:104AA000002807DB4346524639463046CDE90045EB
:104AB00000F002F8BDE8FC9F2DE9FC5F80468946C6
:104AC00015461E460C9CCDF804900127BB4605E018
:104AD0000198B0FBF5F001900BF1010B0198A84291
:104AE000F6D25E4500D9B3460D9800F00100D0B96A
:104AF000CCB10D9800F00200022803D116B9302085
:104B0000009001E02020009009E0641E40460099DA
:104B100000F048F8D8F80C00002800DA02E00CB1E8
:104B2000A345F2D300BFD8F80C00002835DB09E01C
:104B3000012E01D9761E04E0B9FBF7FAAA4500D28E
:104B400001E06F43F4E700BF00BFB9FBF7FA0AFBCF
:104B50001799134810F80A10404600F023F8D8F8C7
:104B60000C00002800DA03E0B7FBF5F7002FECD1CA
:104B700000BF0D9800F0010078B174B109E0641E27
:104B80002021404600F00EF8D8F80C00002800DA8A
:104B900002E00CB1A345F2D300BFBDE8FC9F0000CA
:104BA000C57E000870B504460E46A568681C61689D
:104BB000814206D320684655681CA060E068401C0E
:104BC000E060D4E9011088420DD1A2682168206913
:104BD000FFF7FCF9A168884203D04FF0FF30E06096
:104BE00001E00020A06070BD2DE9F05F0446894619
:104BF00017464FF0000AE56800BFD4F81080A845BA
:104C000003D9A8EB0500461E04E0A5EB0800401CF4
:104C1000A1680E1AA068401BB04201D9304601E0DD
:104C2000A068401B0646BE4201D2304600E038462E
:104C30000646606800EB050B324649465846FBF7CE
:104C4000ABFEB244B144BF1B3544A068A84200D1BA
:104C50000025E560002FD0D15046BDE8F09F2DE93A
:104C6000F047044689461546E668A068871BAF42B0
:104C70000AD9606800EB060A2A4649465046FBF707
:104C80008BFE7019E06014E0B846606800EB060A1D
:104C9000424649465046FBF77FFEA5EB0708D4F88D
:104CA00004A009EB070142465046FBF775FEC4F825
:104CB0000C80BDE8F08703B401984100009850EAE9
:104CC000C12018BF04204A0D18BF40F0010040F277
:104CD000FF72B2EB515F08BF40F00200012808BF2D
:104CE000052002B07047000002480068C0F30220AF
:104CF000704700000CED00E010B5002804DB0A0747
:104D0000130E054A135406E00A07140E034A00F076
:104D10000F031B1FD45410BD00E400E018ED00E0A9
:104D2000EFF30580704730380A2801D20120704720
:104D30000020704770B586B00546002D1CD126486E
:104D40000068002811D14FF4F170244924A229A34E
:104D5000CDE90310CDE9013200900B462EA23BA114
:104D6000002000F0A1F800BFFEE74FF4F1721B49EC
:104D70001BA0194B1B68984700240526354890F85E
:104D8000F00010B9304606B070BD00F09FFA002464
:104D90001BE004EB44112F483130084490F8200008
:104DA000012810D104EB44122A4831301044411C30
:104DB0001E222846FBF7A5FD28B904EB441125481F
:104DC0003130465C03E0601CC4B2052CE1DB00BF5F
:104DD00000F0B0FA3046D6E7D8000020677F000820
:104DE00074616720213D202828766F6964202A2974
:104DF00030290000282573292068617320617373AE
:104E0000657274206661696C656420617420257325
:104E10003A256C642E0000002E2E5C4D6964646C93
:104E20006577617265735C54686972645F50617222
:104E300074795C656173796C6F676765725C7372B6
:104E4000635C656C6F672E6300000000656C6F67C4
:104E500000000000C451002010B50024114890F853
:104E6000F000012801D1204610BD00F0A5FA04464B
:104E70000CB12046F8E7012000F03CFA0020094977
:104E800081F8F30081F8F400012000F00DFC05200A
:104E900000F0A2FA00F00AFB0120024981F8F000BC
:104EA0002046E1E7C45100200FB42DE9F04F8DB04A
:104EB00005460F469846DDF868903846FBF702FD38
:104EC000824600244FF0010B00200B900C900790BD
:104ED000089009900A90052D1CDDCC480068002838
:104EE00011D14FF41070CA49CAA2D1A3CDE9031061
:104EF000CDE9013200900B46D6A2E3A10020FFF7D6
:104F0000D3FF00BFFEE74FF41072C149C1A0BF4BF1
:104F10001B689847DE4890F8F10020B90DB0BDE855
:104F2000F00F5DF814FBDA480078A84204DB38463D
:104F3000FFF700FFA84200DAF0E7D549491C3846E0
:104F4000FBF7AEFC00B9E9E71CA8069000F0BEF93B
:104F5000CF4890F8F50078B1CE480119CEA220468E
:104F600000F068FC0444CD4850F82520C9480119D8
:104F7000204600F05FFC04440121284600F0F2FCCA
:104F800040B1C74850F82520C2480119204600F01A
:104F900051FC04440221284600F0E4FCE8B1BD487D
:104FA00001193A46204600F045FC0444BAF10F0FBF
:104FB0000CD8CAF10F01202207A8FBF732FDB54833
:104FC000011907AA204600F035FC0444B148011934
:104FD000B4A2204600F02EFC04441C21284600F018
:104FE000C1FC002852D0AB480119AFA2204600F006
:104FF00021FC04440421284600F0B4FCA8B100F0D0
:10500000B5F90590A34801192046059A00F012FC55
:1050100004441821284600F0A5FC30B19D48011930
:10502000A0A2204600F006FC04440821284600F017
:1050300099FCA8B100F092F9059096480119204614
:10504000059A00F0F7FB04441021284600F08AFC82
:1050500030B19048011993A2204600F0EBFB0444C4
:105060001021284600F07EFC48B100F07BF9059045
:10507000884801192046059A00F0DCFB0444854865
:1050800001198AA2204600F0D5FB044420212846BD
:10509000189A00F0D9FC60B942464021284600F039
:1050A000D3FC30B94A468021284600F0DBFC0028BA
:1050B00062D0784801197EA2204600F0BBFB044470
:1050C00020212846189A00F0BFFC08B37148011946
:1050D0002046189A00F0AEFB044442464021284680
:1050E00000F0B2FC38B16B48011972A2204600F002
:1050F000A1FB04440CE04A468021284600F0B2FCA3
:1051000030B16448011967A2204600F093FB0444C3
:105110004A468021284600F0A5FCC8B14B4666A24D
:1051200005210BA8FBF706FA5A4801190BAA2046DD
:1051300000F080FB044442464021284600F084FCF5
:1051400030B15448011957A2204600F073FB0444C3
:1051500042464021284600F077FC30B14D48011905
:105160004246204600F066FB04444A48011953A217
:10517000204600F05FFB0444C4F58061454A1019E5
:10518000069B1B9AFBF7A6F9064600200690A0197D
:10519000B0F5806F03D8002E01DB344401E04FF4FA
:1051A0008064201D5844B0F5806F04D94FF48064AA
:1051B000241FA4EB0B04364890F8200058B10020BF
:1051C00034490855324920313248FBF769FB10B9A0
:1051D00000F0B0F8A2E62E4890F8F50030B12D4866
:1051E000011937A2204600F025FB04442948011983
:1051F00035A2204600F01EFB04442146254800F05D
:10520000DDF800F097F800BF88E60000D800002025
:105210007F7F00086C6576656C203C3D20454C4FD7
:10522000475F4C564C5F564552424F534500000075
:105230002825732920686173206173736572742057
:105240006661696C65642061742025733A256C641D
:105250002E0000002E2E5C4D6964646C65776172CF
:1052600065735C54686972645F50617274795C65DF
:105270006173796C6F676765725C7372635C656C90
:105280006F672E6300000000656C6F670000000010
:10529000C4510020BC5200201B5B0000C000002055
:1052A000A8000020200000005B0000005D2000003E
:1052B000280000003A000000256C6400290000006E
:1052C0001B5B306D000000000A00000010B50848AC
:1052D00090F8F20030B100F07AF80120044981F82A
:1052E000F40003E00120024981F8F30010BD000042
:1052F000C451002010B504460D4880F8F24090F8E3
:10530000F200A0B10A4890F8F40030B9084890F8CB
:10531000F30010B100F05BF809E0054890F8F400E4
:1053200028B1034890F8F30008B900F052F810BD16
:10533000C451002010B5084890F8F20030B100F0D8
:1053400048F80020044981F8F40003E000200249F5
:1053500081F8F30010BD0000C451002000A0704788
:105360000000000000A070470000000000B587B0FA
:10537000002201A90A48FDF7F3FF002206A9084808
:10538000FDF7C8FF9DF8060000909DF805309DF8D8
:10539000042004A10748FBF7B7F8064807B000BD92
:1053A000DC000020253032643A253032643A253062
:1053B00032640000BC5600200020704770B50446DF
:1053C0000D462A4621460020FEF700FE70BD72B64B
:1053D000704762B67047000010B586B00446052CD1
:1053E0001CDD10480068002811D14FF4AE700E4942
:1053F0000EA215A3CDE90310CDE9013200900B46B2
:105400001AA227A10020FFF74FFD00BFFEE74FF4CF
:10541000AE72054905A0034B1B68984722480470EB
:1054200006B010BDD80000203B7F00086C65766593
:105430006C203C3D20454C4F475F4C564C5F5645D9
:1054400052424F534500000028257329206861739C
:1054500020617373657274206661696C6564206194
:10546000742025733A256C642E0000002E2E5C4DAE
:105470006964646C6577617265735C5468697264B1
:105480005F50617274795C656173796C6F67676591
:10549000725C7372635C656C6F672E630000000062
:1054A000656C6F6700000000C451002010B5002437
:1054B00000BF13E004EB44120A491144481C1F21A9
:1054C000FBF7B7FA002104EB44120648815404EBC1
:1054D0004412104480F82010601CC4B2052CE9DB93
:1054E00010BD0000F551002030B585B004460D46D2
:1054F000052C1CDD10480068002811D14FF4A17064
:105500000E490FA215A3CDE90310CDE90132009099
:105510000B461BA227A10020FFF7C6FC00BFFEE739
:105520004FF4A172054906A0034B1B689847234816
:1055300040F8245005B030BDD80000201E7F000880
:105540006C6576656C203C3D20454C4F475F4C5662
:105550004C5F564552424F534500000028257329A1
:105560002068617320617373657274206661696C71
:1055700065642061742025733A256C642E00000058
:105580002E2E5C4D6964646C6577617265735C5442
:10559000686972645F50617274795C656173796C7B
:1055A0006F676765725C7372635C656C6F672E63AF
:1055B00000000000656C6F67000000009C52002036
:1055C00010B586B00446002C1ED0012C1CD011480A
:1055D0000068002811D140F217100F490FA219A33B
:1055E000CDE90310CDE9013200900B461EA22BA19C
:1055F0000020FFF759FC00BFFEE740F217120649F2
:1056000006A0044B1B689847264880F8F14006B076
:1056100010BD0000D8000020EA7E000828656E61F9
:10562000626C6564203D3D2066616C736529207C59
:105630007C2028656E61626C6564203D3D2074723B
:1056400075652900282573292068617320617373AB
:10565000657274206661696C6564206174202573CD
:105660003A256C642E0000002E2E5C4D6964646C3B
:105670006577617265735C54686972645F506172CA
:1056800074795C656173796C6F676765725C73725E
:10569000635C656C6F672E6300000000656C6F676C
:1056A00000000000C451002010B586B00446002C54
:1056B0001ED0012C1CD011480068002811D140F2E6
:1056C00023100F490FA219A3CDE90310CDE9013230
:1056D00000900B461EA22BA10020FFF7E5FB00BFA8
:1056E000FEE740F22312064906A0044B1B689847C8
:1056F000264880F8F54006B010BD0000D800002014
:10570000027F000828656E61626C6564203D3D2063
:1057100066616C736529207C7C2028656E61626CF3
:105720006564203D3D207472756529002825732924
:105730002068617320617373657274206661696C9F
:1057400065642061742025733A256C642E00000086
:105750002E2E5C4D6964646C6577617265735C5470
:10576000686972645F50617274795C656173796CA9
:105770006F676765725C7372635C656C6F672E63DD
:1057800000000000656C6F6700000000C45100203D
:105790000EB50B4890F8F00000B90EBD0120FFF7E0
:1057A0000FFF08A009A1F822124BCDE900210290B9
:1057B00011A21EA10320FFF777FB00BFEDE7000059
:1057C000C4510020322E322E3939000045617379E0
:1057D0004C6F676765722056257320697320696E68
:1057E000697469616C697A65207375636365737345
:1057F0002E000000D57E00082E2E5C4D6964646C7E
:105800006577617265735C54686972645F50617238
:1058100074795C656173796C6F676765725C7372CC
:10582000635C656C6F672E6300000000656C6F67DA
:1058300000000000F0B585B006460D461446274628
:10584000002D1AD125480068002810D12C202449A9
:1058500024A225A3CDE90310CDE9013200900B4627
:105860002AA238A10020FFF71FFB00BFFEE72C2271
:105870001B491CA0194B1B689847002C1AD11748CC
:105880000068002810D12D20154930A216A3CDE9BB
:105890000310CDE9013200900B461CA229A1002083
:1058A000FFF702FB00BFFEE72D220D4927A00B4B9F
:1058B0001B6898470AE03046761CB0F5806F04D22A
:1058C00014F8010B05F8010B00E002E02078002835
:1058D000F1D100BFE01B05B0F0BD0000D8000020F2
:1058E000B77F0008647374002825732920686173EA
:1058F00020617373657274206661696C65642061F0
:10590000742025733A256C642E0000002E2E5C4D09
:105910006964646C6577617265735C54686972640C
:105920005F50617274795C656173796C6F676765EC
:10593000725C7372635C656C6F675F7574696C73BE
:105940002E630000656C6F670000000073726300D7
:1059500001460A2311B94FF0FF30704793FBF1F273
:105960001046FAE730B585B004460D46052C1CDD1F
:1059700013480068002811D140F2E120114912A219
:1059800018A3CDE90310CDE9013200900B461EA209
:105990002AA10020FFF788FA00BFFEE740F2E122CB
:1059A000084909A0064B1B689847264850F8240070
:1059B000284010B1012005B030BD0020FBE70000F9
:1059C000D80000208B7F00086C6576656C203C3D1C
:1059D00020454C4F475F4C564C5F564552424F5303
:1059E00045000000282573292068617320617373C6
:1059F000657274206661696C65642061742025732A
:105A00003A256C642E0000002E2E5C4D6964646C97
:105A10006577617265735C54686972645F50617226
:105A200074795C656173796C6F676765725C7372BA
:105A3000635C656C6F672E6300000000656C6F67C8
:105A4000000000009C52002070B505460E4614462A
:105A500034B131462846FFF785FF08B1012070BDFB
:105A60000020FCE770B505460E46144634B13146B9
:105A70002846FFF777FF08B1012070BD0020FCE742
:105A8000FCF746FEFEF75EFAFFF7E6F9F721002085
:105A9000FFF72AFD07210120FFF726FD072102203D
:105AA000FFF722FD07210320FFF71EFDB721042089
:105AB000FFF71AFDB7210520FFF716FDFFF768FE77
:105AC0000AA10020FEF7EAFAFEF728FCFEF73EF9ED
:105AD000FEF7CEF8FEF76CF9FEF7BAF900F010F811
